:100000000C941E020C9446020C9446020C94460278
:100010000C9446020C9446020C9446020C94460240
:100020000C9446020C9446020C946E1B0C94021A1B
:100030000C9446020C9446020C9446020C94460220
:100040000C9446020C9446020C9446020C94460210
:100050000C94F7050C9446020C9446020C94291C4F
:100060000C9446020C9446020C9446020C944602F0
:100070000C9446020C9446020C9446020C944602E0
:100080000C9446020C9446020C9446020C944602D0
:100090000C9446020C9446020C9446020C944602C0
:1000A0000C9446020C9446020C944602E80CED0CAB
:1000B000F70CFF0C070D120D170D1C0D260DE10C92
:1000C000E30C14001A0008001500170000001C00C3
:1000D00018000C00120013000400160007000900AD
:1000E0000A0000000B000D000E000F0033001D0081
:1000F0001B00060019000500E0001100100036008A
:100100003700380029002B00E300E1002A00E2005C
:100110002C002B442D00340028001E081F0852001C
:100120002F08300800004B00240025002600250879
:100130002008500051004F00210800004E0021000F
:10014000220023002E082F0030002608270824084C
:10015000E00035001E001F0020003100024449006D
:10016000E300E1002A00E2002C00FFFF3700270037
:100170002E0049004A0052004D004B000000520082
:1001800040004100420043004C00500051004F002D
:100190004E00000051003D003E003F0044000000C2
:1001A000E95C000000000060FFFF00003A003B0037
:1001B0003C0045000000EA5CFFFFFFFFFFFFFFFF80
:1001C000FFFF016046004700CD58637573746F6D83
:1001D0000064656661756C74006F6E6C794375734D
:1001E000746F6D006B65796D61702E006B65796D54
:1001F00061702E637573746F6D0A6B65796D6170D4
:100200002E64656661756C740A6B65796D61702E1C
:100210006F6E6C79437573746F6D00656570726F86
:100220006D2E6672656500656570726F6D2E636F09
:100230006E74656E747300656570726F6D2E636F9A
:100240006E74656E74730A656570726F6D2E66727A
:100250006565002F006372630076657273696F6E67
:100260000076616C69643F0064656661756C744C0E
:10027000617965720073657474696E67732E0073BB
:10028000657474696E67732E64656661756C744C11
:10029000617965720A73657474696E67732E76612D
:1002A0006C69643F0A73657474696E67732E766552
:1002B0007273696F6E0A73657474696E67732E6307
:1002C00072630066616C73650074727565006865C1
:1002D0006C700068656C70000D0A2E00050109063F
:1002E000A101050719E029E7150025017501950809
:1002F00081029501750881019505750105081901AF
:10030000290591029501750391019506750815005F
:1003100025FF0507190029FF8100C0050C0901A16F
:10032000018504150026FF0319002AFF03950475B3
:10033000108100C005010906A1018508050719E023
:1003400029E71500250175019508810205081901A5
:100350002908950875019102050775049501810129
:10036000190429DD15002501750195D98102750350
:1003700095018101C005010980A1018505150026AF
:10038000FF00190029FF950175088100C0050109CA
:1003900002A1010509190129081500250195087513
:1003A00001810205010930093116000026FF7F7521
:1003B000109502810209381581257F750895018104
:1003C00006C0080B0002020201000904000001023D
:1003D000020000052400100105240101010424028B
:1003E00006052406000107058103100040090401E9
:1003F00000020A0000000705020240000007058312
:100400000240000012010002EF0201400912E5A1C2
:10041000000101020301546563686E6F6D616E63D4
:1004200079004174726575730004030904000A0CB5
:1004300034100312F31287134314521511241FBEF4
:10044000CFEFDAE0DEBFCDBF11E0A0E0B1E0E2E83F
:10045000FBE302C005900D92A837B107D9F723E05E
:10046000A8E7B1E001C01D92AE3DB207E1F712E08E
:10047000CEE1D2E004C02197FE010E94651DC73184
:10048000D107C9F70E94161C0C94BF1D0C940000E4
:1004900083E592E00E94160A8CE492E00E94BE0876
:1004A00080E090E0089583E592E00E94DF0A80E01A
:1004B00090E008950F93022F242F462FBC018DE763
:1004C00092E00E94370D0F910895CF93DF93EC01D6
:1004D000BC018CE492E00E944809019719F481E084
:1004E00090E01AC0BE018CE592E00E94240C0197B6
:1004F000B1F3BE0181E592E00E94610B019779F3AF
:10050000BE0182E592E00E94E80A31E020E0019716
:1005100009F030E0832F922FDF91CF91089580E092
:1005200090E008958CE592E00E94480C8DE792E0FF
:100530000C94610D8DE792E00C945C0D882331F0F2
:10054000813051F480E00E94110806C080911901A9
:1005500090911A010E94060680E090E0089588E7D5
:1005600091E00E94BA0285E00C94D60888E791E0F9
:100570000C94E102CF93DF9340E855E260E070E035
:100580008EE693E00E944C150E9448028EE791E0AF
:100590000E94F9020E94980D0E94A50E0E94AF0EC3
:1005A0000E945907C0E0D0E06D2F8C2F0E94FA0600
:1005B000DF5FDB30C9F7CF5FC430A9F7DF91CF91A0
:1005C00008950E94731C6093790170937A0180935F
:1005D0007B0190937C010E9453028EE791E00E9480
:1005E000E9050E9492020E94660E0E94170E0C946A
:1005F0009A02CF93DF930FB6F894A895809160008C
:10060000886180936000109260000FBEABE1B1E0A2
:1006100046E251E061E070E08D91E82FF0E024E0E7
:10062000F595E7952A95E1F721A18F70EB0102C0BE
:10063000CC0FDD1F8A95E2F7CE019C2F9095922377
:1006400091A392A1892B82A34A175B0729F7A6E2FF
:10065000B1E04AE251E061E070E08D91E82FF0E016
:1006600094E0F595E7959A95E1F721A18F70EB015C
:1006700002C0CC0FDD1F8A95E2F7CE01922F982B96
:1006800091A392A1892B82A34A175B0731F780E1DE
:10069000809381001092800080E295E39093870020
:1006A0008093860081E18093810081E080936F00D8
:1006B000DF91CF910895FF920F931F93CF93DF9314
:1006C00003EB11E0CBEBD1E0F12C38814981F8014B
:1006D00080819181282F2170220F532F5170252B5B
:1006E00009F0FFC0BC01769567956170660F31FB1C
:1006F000222720F9262B09F0E8C0BC0176956795E2
:10070000769567956170660F32FB222720F9262BBC
:1007100009F0CFC0BC01769567957695679576957B
:1007200067956170660F33FB222720F9262B09F0AD
:10073000B4C0BC01729562956F7067277F706727A0
:100740006170660F34FB222720F9262B09F099C02F
:10075000BC0176956795729562956F7067277F707B
:1007600067276170660F35FB222720F9262B09F0D9
:100770007CC0BC010024660F771F001C660F771F2A
:10078000001C672F702D6170660F36FB222720F941
:10079000262B09F05EC0BC01660F672F661F770B22
:1007A00071956170660F37FB222720F9262B09F01F
:1007B00045C0292F2170220F342F3170232B99F53A
:1007C00041FB222720F9392F3270232B09F592FBA8
:1007D000222720F9220F42FB442740F9242B71F4F1
:1007E00089939993F3940E5F1F4FF4E0FF126DCF3E
:1007F000DF91CF911F910F91FF9008954AE06F2DE7
:1008000080E090E00E943806F80180819181E8CF75
:1008100049E06F2D80E090E00E9438064981F801A0
:1008200080819181D4CF48E06F2D80E090E00E94DC
:1008300038064981F80180819181C2CF47E06F2D50
:1008400080E090E00E9438064981F8018081918122
:10085000B0CF46E06F2D80E090E00E9438063881EE
:100860004981F8018081918196CF45E06F2D80E02C
:1008700090E00E94380638814981F8018081918199
:1008800078CF44E06F2D80E090E00E9438063881F8
:100890004981F801808191815BCF43E06F2D80E039
:1008A00090E00E94380638814981F8018081918169
:1008B00040CF42E06F2D80E090E00E943806388102
:1008C0004981F8018081918125CF41E06F2D80E041
:1008D00090E00E94380638814981F8018081918139
:1008E0000CCF40E06F2D80E090E00E943806388108
:1008F0004981F80180819181F5CE6430D8F44B3084
:10090000C8F4E62FF0E0EE0FFF1FE555FE4F81E043
:1009100090E0A0E0B0E004C0880F991FAA1FBB1FA1
:100920004A95D2F780959095208131818223932337
:10093000918380830895643088F44B3078F4E62FF7
:10094000F0E0EE0FFF1FE555FE4F8081918102C060
:10095000969587954A95E2F78170089580E008950D
:10096000EBE1F1E040E050E060E070E000009191E8
:10097000A92FB0E084E0B595A7958A95E1F7909608
:100980002C9130E09F7002C0359527959A95E2F73B
:100990002170332781E02827042E02C0220F331F45
:1009A0000A94E2F7622B732B4F5F5F4F4B30510578
:1009B000E9F6CB0108953F924F925F926F927F923A
:1009C0008F929F92AF92BF92CF92DF92EF92FF925F
:1009D0000F931F93CF93DF93CFE7D1E033EBE32E59
:1009E00031E0F32E46E2A42E41E0B42E6701370138
:1009F000312C8881882309F4B5C08150888302E0B6
:100A000010E020E090E08981882321F081508983E3
:100A1000022F192F8A818111A9C004608B81811155
:100A2000ABC008608C818111ADC000618D818111E6
:100A3000AFC000628E818111B1C000648F818111CD
:100A4000B3C0006888858111B5C0116089858111A6
:100A5000B7C012608A858111B9C01460F501819117
:100A60005F01882E912C9594879495948794959402
:100A7000879495948794F40192A18F7044244394B1
:100A8000512C01C0440C8A95EAF7892F842582A352
:100A90008EE791E00E94B004F601219131916F013F
:100AA000822793270823192302271327F40182A101
:100AB000482642A2F701219131917F012027312759
:100AC00020FF03C080910101888321FF03C0809132
:100AD0000101898322FF03C0809101018A8323FFE2
:100AE00003C0809101018B8324FF03C08091010129
:100AF0008C8325FF03C0809101018D8326FF03C0F5
:100B0000809101018E8327FF03C0809101018F83B3
:100B100030FF03C080910101888731FF03C08091BD
:100B20000101898732FF03C0809101018A87F301A7
:100B3000019311933F0133942B96F4E03F1259CF68
:100B4000DF91CF911F910F91FF90EF90DF90CF90A9
:100B5000BF90AF909F908F907F906F905F904F90DD
:100B60003F90089503E010E021E04CCF81508A834C
:100B70008B81882309F455CF81508B838C81882306
:100B800009F453CF81508C838D81882309F451CF90
:100B900081508D838E81882309F44FCF81508E83BD
:100BA0008F81882309F44DCF81508F8388858823D6
:100BB00009F44BCF815088878985882309F449CF70
:100BC000815089878A85882309F447CF81508A8795
:100BD00045CF80917D01882331F010927D018EE711
:100BE00091E00E94DB048EE791E00C945B031F927E
:100BF0000F920FB60F9211248F9381E080937D01A5
:100C00008F910F900FBE0F901F901895F89481E070
:100C10008093E00080E28093D800E9ECF0E010825D
:100C20008FE19EE40197F1F700C000001DBA109219
:100C300068001CBC10BE1FBA10927A0010926E00A1
:100C400010926F0010927100109272001082ECEB03
:100C5000F0E0108214B817B81AB81DB810BA108294
:100C600015B818B81BB81EB811BA0C94003F0895F7
:100C7000EF92FF920F931F93CF93DF9300D0CDB7E6
:100C8000DEB79A838983062FF42E122F643008F082
:100C900049C02AE0241708F445C0812F8270E82E4D
:100CA00011FF19C010FD17C089819A81009711F0BA
:100CB00016FF05C06F2D802F0E94FA060CC02BE096
:100CC000629FF0011124E40FF11DEE0FFF1FE151AF
:100CD000FE4F918380834F2D602F8EE791E00E941D
:100CE0009B04882351F010FF69C0E11067C04F2DAD
:100CF000602F8EE791E00E947D0429813A8180E097
:100D000090E02817390771F48BE0089FF001112457
:100D1000EF0DF11DEE0FFF1FE151FE4F808191811C
:100D20009A838983212F4F2D602FCE0101960E9437
:100D30005A02892B09F042C0212F4F2D602F898143
:100D40009A810E9468089A83898320E030E08217A4
:100D50009307A1F1F9800A8106FF1AC007FD2EC092
:100D600003FF07C011FF2AC08F2D902F0E94A90EEC
:100D700025C000FF23C011FD21C010FF1FC08F2D13
:100D8000902F0E94B30E8F2D902F0E94B80E16C088
:100D9000812F817011FF0AC0811102C061E001C082
:100DA00060E08F2D902F0E94D50D08C0882331F070
:100DB00017FF04C08F2D902F0E94270E0F900F90C9
:100DC000DF91CF911F910F91FF90EF90089550E028
:100DD0009BE0699F400D511D1124FA019CE2899FFF
:100DE000E00DF11D1124EE0FFF1FEE53FF4F859113
:100DF00094910895CF93DF93462F262F30E09BE008
:100E0000899FF0011124EF01C20FD31FCC0FDD1F0A
:100E1000C151DE4FED53FE4FDF01A20FB31FE09132
:100E20000201F0910301682F8C91099599838883C1
:100E3000DF91CF9108950F931F938091000181500E
:100E4000409148025091490260914A0270914B02D0
:100E5000882389F08A019B01082E04C036952795C6
:100E6000179507950A94D2F700FF03C080934702B5
:100E700004C08150EDCF109247021F910F91089549
:100E80000F931F93409148025091490260914A028A
:100E900070914B028A019B0104C0369527951795E6
:100EA00007958A95D2F7D901C80181701F910F91DA
:100EB0000895DF92EF92FF920F931F93CF93DF93EA
:100EC0008CE2E3ECF1E0DF011D928A95E9F77F0106
:100ED000D0E000E010E0D02EC09147021C16B4F420
:100EE0008C2F0E944007882379F0E0910201F09155
:100EF00003014D2D6D2F8C2F0995019629F0F701D7
:100F0000E00FF11FC08302C0C150E8CF0F5F1F4F39
:100F10000B30110501F7DF5F2BE0E20EF11CD4303E
:100F2000C1F6DF91CF911F910F91FF90EF90DF906D
:100F300008950F931F930091480210914902209148
:100F40004A0230914B02B901A801082E04C07695DF
:100F50006795579547950A94D2F740FF28C041E01E
:100F600050E060E070E0082E04C0440F551F661F7B
:100F7000771F0A94D2F7409550956095709540235D
:100F80005123622373234093480250934902609394
:100F90004A0270934B0290914702891302C00E944B
:100FA0001B070E9459071F910F910C948F021F91EC
:100FB0000F910895CF9390910001891780F5C82F64
:100FC0000E94400781112BC081E090E0A0E0B0E0DA
:100FD0000C2E04C0880F991FAA1FBB1F0A94D2F7BA
:100FE000409148025091490260914A0270914B022F
:100FF000842B952BA62BB72B809348029093490204
:10100000A0934A02B0934B02809147028C1710F4D0
:101010000E941B070E945907CF910C948F02CF9119
:101020000895109248021092490210924A021092BA
:101030004B020C94DA07809147028F5F0C94DA0719
:10104000809147020C949907CF93C82F862F827006
:10105000CA3248F1CA52C13289F0C232C9F4617051
:10106000882329F0611103C0CF910C941B086623DB
:1010700069F181112BC0CF910C94200861708823F5
:1010800011F06623C1F3662309F181111FC0ECCF73
:10109000882331F08C2F0E944007811117C012C0A5
:1010A00060FD0CC013C0882389F060FD0FC08C2F39
:1010B0000E944007882331F0CC2321F08C2FCF9160
:1010C0000C9499078C2FCF910C94DA07CF91089547
:1010D000943429F4622F0E94240880E090E008955F
:1010E0000F931F93CF9390914E02891718F080E0D1
:1010F00090E01CC09BE0699FB00111249CE2899F95
:10110000600D711D1124640F711D660F771F009112
:101110004F0210915002060F171FC8010E94A91D0F
:10112000C82FC80101960E94A91D9C2FCF911F9125
:101130000F91089590914D02891718F40E94E706C7
:101140000895891B0E9470080895FF920F931F93C2
:10115000CF93DF93EC01F62E08811981C8010E941C
:10116000A91DF81621F06F2DC8010E94B11DCE01F6
:10117000DF91CF911F910F91FF90089583E592E049
:101180000E94160A8091000180934D0280E090E059
:10119000089580934E0228E5829FC00111240E9489
:1011A0004D0A9093500280934F020895809300015E
:1011B0009091560297FF03C020E738E007C0909156
:1011C0004D02980F909300012AE938E03093030113
:1011D000209302010C94C908FF920F931F93CF93A1
:1011E000DF9300D0CDB7DEB7F62E672F8C01000F4E
:1011F000111F80914F0290915002800F911F9A838E
:101200008983CE0101960E94A50880914F0290919A
:1012100050020196080F191F1A8309836F2DCE0102
:1012200001960E94A5080F900F90DF91CF911F911A
:101230000F91FF900895EF92FF920F931F93CF931A
:10124000DF93082F7B01C0E0C017D9F0D0E010E099
:10125000412F6D2F8C2FF70109954AE050E0BC011A
:101260008EE693E00E94FA1660E28EE693E00E941A
:1012700080161F5F1B3061F7DF5FD43041F7CF5F0F
:10128000E3CFDF91CF911F910F91FF90EF900895E1
:10129000CF93DF93EB014CEE51E08CE592E00E949E
:1012A0000F0C811187C047E050E064EE71E0CE0181
:1012B0000E948E1D892B09F07DC0279669ED71E093
:1012C000CE010E94851D892BB9F58EE693E00E9420
:1012D0005D140A9789F46091560267FB662760F9EE
:1012E0004AE050E08EE693E00E94F31660E28EE65C
:1012F00093E00E94801661C041E060E070E08EE6FD
:1013000093E00E947017C62F862F0E949F0A80913B
:101310004E0280930001CC2319F080E798E007C0CB
:1013200090914D02890F809300018AE998E0909393
:1013300003018093020141C061ED71E0CE010E9482
:10134000851D892B29F467EE76E080914D0214C04B
:101350006AEC71E0CE010E94851D892B59F58EE65D
:1013600093E00E945D140A9719F0C0E0D0E01BC022
:1013700060E778E080914E020E941B091EC08091B8
:101380004E022CE2829FC0011124C817D907A8F48D
:1013900041E060E070E08EE693E00E947017CE01BD
:1013A0000E94EC0821968EE693E00E945D140A9755
:1013B00021F0E5CF80E090E002C081E090E0DF9195
:1013C000CF9108954AE050E0682F8EE693E00E94A6
:1013D000F31660E28EE693E00C948016EF92FF9293
:1013E0000F931F93CF93DF9300D0CDB7DEB786E581
:1013F000E82E82E0F82E00E010E0F70161917F0115
:101400001A830983CE0101960E94A5080F5F1F4F22
:101410000430110591F786E592E00F900F90DF916F
:10142000CF911F910F91FF90EF9008950F931F930D
:10143000CF93DF9306E512E0C0E0D0E0CE010E943A
:10144000A91DF80181938F012196C430D105B1F710
:10145000809157028F3F71F480915602982F9F77A9
:101460009F3719F487FD1092560281E0809357024E
:101470000E94EE0980E090E0DF91CF911F910F91E3
:10148000089580915402882329F080915802909108
:101490005902089580E090E008950F931F93CF9331
:1014A000DF9300D0CDB7DEB79A8389838091540251
:1014B000811116C0009104011091050189819A8162
:1014C000800F911F909305018093040142E0BE01BB
:1014D0006F5F7F4F8AE592E00E94E50BC80102C072
:1014E00080E090E00F900F90DF91CF911F910F91CE
:1014F00008950E94EE0981E0809355020895CF93EC
:10150000C82F80910001C81758F48C2F0E94110831
:101510008091560280789C2F9F77892B809356026A
:10152000CE3730F08091560280788E6780935602D5
:101530000E94790A809156028F77CF9108959091F9
:10154000560280FB97F990935602892F8F778F3739
:1015500021F490789E67909356020C94790A81E06A
:101560008093540260E18AE592E00E94CC0B809166
:101570005702813019F010925502089520915802B7
:101580003091590280915A0290915B022F3F4FEFA8
:10159000340739F490935902809358020E94790AD3
:1015A00003C02817390751F4809156028F77282FEE
:1015B00030E02E37310514F40C9411080895809111
:1015C0005402811102C00E94AF0A80E090E00895A9
:1015D000CF93DF93EB014FE752E08CE592E00E945E
:1015E0000F0C811128C049E050E065E772E0CE01A0
:1015F0000E948E1D892BF9F4299668E672E0CE01CF
:101600000E94851D892BA9F161E672E0CE010E943E
:10161000851D892B09F442C069E572E0CE010E9464
:10162000851D892B09F444C065E572E0CE010E9456
:10163000851D892B19F080E090E040C00E94410A8E
:10164000EC0160915A0270915B024AE050E08EE634
:1016500093E00E94FA1663E572E08EE693E00E9442
:101660005C164AE050E0BE018EE693E00E94FA1656
:1016700023C08EE693E00E945D140A9721F48091C6
:1016800056028F7717C041E060E070E08EE693E08D
:101690000E947017862F0E947F0A0EC0809155020B
:1016A0000E942B0C60E28EE693E00E94801604C03C
:1016B000809157020E94E20981E090E0DF91CF9192
:1016C00008950F931F93CF93DF9300D0CDB7DEB76C
:1016D0008B0147E352E08CE592E00E940F0C8111F0
:1016E0000EC067E272E0C8010E94851D892BF1F0EF
:1016F0006BE172E0C8010E94851D892B19F080E022
:1017000090E043C0809104019091050160E074E095
:10171000681B790B4AE050E08EE693E00E94FA16CF
:1017200060E28EE693E00E9480162DC08EE693E084
:101730000E945D1400E010E00A97F9F4C8010E94CD
:10174000A91D0E94E2090F5F1F4F011584E01807D1
:10175000A9F719C041E060E070E08EE693E00E94D6
:1017600070171A830983CE0101960E94A5080F5FA6
:101770001F4F011584E0180731F08EE693E00E94B8
:101780005D140A9739F781E090E00F900F90DF9198
:10179000CF911F910F910895FC012081318121701B
:1017A000332781E0861770F4408151815695479523
:1017B00051834083220F331F41705527242B352B33
:1017C0008F5FF0CF318320830895DC01FB0141500E
:1017D00000F1519168E070E081E02D913C9111970A
:1017E000952F982311F4932F02C0932F9095991F52
:1017F0009927991F220F331F992319F095E0292764
:10180000305811963C932E93880F6150710929F737
:10181000DECF089510925B0210925A020895CF9382
:10182000DF93CB01EA0163ED72E00E94851D892BF5
:1018300039F4BE018EE693E00E948B1681E001C070
:1018400080E0DF91CF9108954EEC52E00E940F0CA2
:1018500080E090E00895811103C063EC72E002C063
:1018600069EC72E08EE693E00C945C168EE693E0F1
:101870000E947614892B59F08EE693E00E945D1445
:101880000A9729F08EE693E00E948614F5CF08951A
:10189000EF92FF920F931F93CF938EE693E00E94F7
:1018A0007614892BD9F10DE512E0C0E0CF5F8EE60A
:1018B00093E00E9486147801F80180838EE693E01D
:1018C0000E945D140A9741F00F5F1F4FF70180815E
:1018D000803211F0C03251F78C2F90E0FC01E45AB5
:1018E000FD4F2081203219F0FC01E35AFD4F108298
:1018F0008DE592E00E94650268ED72E08EE693E06D
:101900000E948B160E94360C8EE693E00E945D14B6
:101910000A9721F48EE693E00E94861480E090E01E
:10192000CF911F910F91FF90EF900895CF93C42F07
:10193000262F20684FEF6FEF0E943806C11105C0B7
:101940000E94660ECF910C94BC0ECF9108950F9318
:101950001F93CF93DF93C62F042F122FFC01D49136
:1019600041FF06C0422F62E08D2F9C2F0E94960CF3
:1019700000FF06C0412F61E08D2F9C2F0E94960C26
:10198000DF91CF911F910F910895EF92FF920F93E6
:101990001F93CF93DF93CB01009709F461C0F12C23
:1019A000E12C8C010F5F1F4FFC01449150E0FA01C4
:1019B0003197EB30F10508F053C0EA5AFF4F0C9411
:1019C000651DF12C45C00E94660E0E94BC0E40C0F1
:1019D0000296F801E4908C013BC0EC012296F801DC
:1019E000649170E080E090E00E94A41C2DC0F8019A
:1019F00064918C010D5F1F4F2F2D42E00FC0F80145
:101A000064918C010D5F1F4F2F2D41E007C0F8013D
:101A100064918C010D5F1F4F20E043E002960E940D
:101A2000A70C16C0EC0122962F2D42E009C0EC0154
:101A300022962F2D41E004C0EC01229620E043E0E5
:101A400060E0C8010E94A70C8E0102C0FF24F3943D
:101A50006E2D70E080E090E00E94A41CC801A1CF30
:101A6000DF91CF911F910F91FF90EF9008950F9309
:101A7000FB0181818036C9F4809180028830C0F4F6
:101A80009081E82FF0E0BF01660F771FE60FF71F88
:101A9000EF57FD4F90839BE0499F200D1124218338
:101AA00002838F5F8093800203C080E090E002C0D9
:101AB00081E090E00F9108951092800280E090E024
:101AC0000895CF93DF93C0E0DBE080918002C817D8
:101AD00050F52C2F30E0F901EE0FFF1FDF01A20FB0
:101AE000B31FAF57BD4F11968C918F3F29F4809350
:101AF0007F0280937E0207C06D2F0E94371D809366
:101B00007F0290937E022E0F3F1FF901EF57FD4F8A
:101B1000628180810E949E02BC018DE792E00E945A
:101B2000C50CCF5FD2CF80E090E0DF91CF910895D8
:101B30008AEF92E00E94F1128CE992E00C9424105A
:101B4000CF93C82F8CE992E00E948D0F6C2F8111EA
:101B500005C08CE992E0CF910C94BE0F8AEF92E021
:101B6000CF910C949112CF93C82F83FF04C081EEC4
:101B700090E00E94A00DC0FF04C080EE90E00E94A3
:101B8000A00DC1FF04C082EE90E00E94A00DC2FF34
:101B900004C086EE90E00E94A00DC4FF04C083EE56
:101BA00090E00E94A00DCF910895CF93DF93D82F9E
:101BB000C92F907C662399F080919902811102C00F
:101BC00010929B0280919B028C2B80939B0291111F
:101BD00004C080E28D0F883020F0D09399029111DB
:101BE00008C080E28D0F883020F48C2F0E94B30D46
:101BF00005C080919A028C2B80939A028D2F9C2F86
:101C0000DF91CF910C94A00DCF93C82F8CE992E077
:101C10000E948D0F6C2F811105C08CE992E0CF914D
:101C20000C94E60F8AEF92E0CF910C94B8128CE9F5
:101C300092E00E941D101092990210929A028AEF6F
:101C400092E00E94E1128CED92E00C94C811CF93C7
:101C5000DF93D82FC92F80919B02892780939B0205
:101C6000892F807C21F480E28D0F883058F080919C
:101C700099028D1302C01092990280919A028C27CA
:101C800080939A02C3FF04C081EE90E00E94040E8C
:101C9000C0FF04C080EE90E00E94040EC1FF04C0AB
:101CA00082EE90E00E94040EC2FF04C086EE90E037
:101CB0000E94040EC4FF04C083EE90E00E94040E54
:101CC0008D2F9C2FDF91CF910C94040E90919A024E
:101CD00080919B0289230E94B30D8CE992E00E94BF
:101CE0008D0F60919902811116C0662381F08CE9F5
:101CF00092E00E94E60F8CE992E00E94900F6091C2
:101D000099028CE992E00E94BE0F109299028CE930
:101D100092E00C94900F662381F08AEF92E00E948B
:101D2000B8128AEF92E00E943112609199028AEF14
:101D300092E00E949112109299028AEF92E00E9422
:101D400031128CED92E00C94DB118CED92E00C944E
:101D50000112BC0173708CED92E00C94B31181E51B
:101D600093E00C946D13682F81E593E00C946F134E
:101D700081E593E00C946B1381E493E00C940413DD
:101D8000FC0182818F5BFB01808381E00895CF930A
:101D9000DF93CDB7DEB769970FB6F894DEBF0FBEFD
:101DA000CDBFFC01DB019C919F5F9C93BE016F5FE7
:101DB0007F4F89E1DB011D928A95E9F729E02983AC
:101DC00084E08A8391E09D8383E08E839F8398875C
:101DD0002A8721E22B879C879D879F8722E2288B79
:101DE0002FE3298B27E02B8B25E02C8B8E8B20E497
:101DF00030E0388F2F8B998F82818B83838180682D
:101E00008D8B49E150E080E00E94B01969960FB6D1
:101E1000F894DEBF0FBECDBFDF91CF910895FC01D6
:101E2000DB01828190E014962D913C9115978217E9
:101E30009307E1F511968C9111979C91913A61F479
:101E4000813091F1833011F4848D03C0823071F5BB
:101E5000858D8093F10028C0913241F58B3021F4BB
:101E600012968C91848F20C08A3011F4158E1CC07C
:101E70008930E1F4CF0116962D913C911797139676
:101E80004C91423039F42130310581F461E070E049
:101E90004E9608C0413051F42830310539F468E0DD
:101EA00070E00B960E94D71981E0089580E00895B4
:101EB000FC01DB018C918138B9F413968C91139756
:101EC000823291F4828190E014962D913C91159785
:101ED0002817390749F48285848F4FE350E06CED71
:101EE00072E080E80C94B01980E090E00895FC0165
:101EF00081E0848385839F01255E3F4F378326835E
:101F0000118610862EE231E0318320838287848F10
:101F1000858F168E81EC838F0895FC01848D089542
:101F2000EF92FF920F931F93CF93DF938C01EC01FD
:101F30002B967C0183E1E80EF11C48E050E0BE01E5
:101F4000C7010E949C1D892B81F0F801838148E024
:101F500050E0BE0180640E94011928E0FE01D70113
:101F600001900D922A95E1F702C08FEF9FEFDF916C
:101F7000CF911F910F91FF90EF90089520E2260FCF
:101F8000283058F441E050E001C0440F2A95EAF7A8
:101F9000FC012385422B438716C0FC013D9620E0BF
:101FA00030E04191641779F0411105C0FC01E20F66
:101FB000F31F658708C02F5F3F4F2630310589F733
:101FC00080E090E0089581E090E0089520E2260FFF
:101FD000283068F4622F21E030E001C0220F6A95BA
:101FE000EAF72095FC0133852323238723C0FC01D6
:101FF000AC014A5F5F4FDC011D962C911D97621367
:1020000003C01D961C921D9711964A175B07A1F7F6
:1020100020E03585332351F0DC01A20FB11D1D9660
:102020006C911D971D963C9365872F5F3196E41741
:10203000F50779F781E090E008950B9628E0FC0120
:1020400011922A95E9F70895CF93DF93EC010E944E
:102050003316BE010E94EC15CE010E941D10CE0168
:10206000DF91CF910C94900F8CE992E00C94770F54
:10207000FB018BE6808382E6818389E682838FE69B
:10208000838380E3848381E3858386E00895CF930F
:10209000DF93CDB7DEB769970FB6F894DEBF0FBEFA
:1020A000CDBFFC01DB018C918F5F8C93BE016F5F14
:1020B0007F4F89E1DB011D928A95E9F729E02983A9
:1020C00084E08A8391E09D8383E08E832A8721E2E6
:1020D0002B879C879D879F8722E2288B27E02B8B6D
:1020E00025E02C8B8E8B20E430E0388F2F8B998F5E
:1020F00082818B8395858685998B8A8B8381806885
:102100008D8B49E150E080E00E94B01969960FB6CE
:10211000F894DEBF0FBECDBFDF91CF910895CF936E
:10212000DF93FC01DB01828190E014962D913C91BC
:10213000159782179307A9F511969C9111978C9189
:10214000813A31F481E0913069F1933051F52AC040
:10215000813239F59B3021F412968C91878705C026
:102160009A3029F412968C91808B81E01BC09930B3
:10217000C1F4EF0116968D919C91179782309105CD
:1021800039F462E070E0CF0141960E94D71909C08E
:10219000019739F461E070E0CF0142960E94D719AF
:1021A000198A80E0DF91CF910895EF92FF920F930B
:1021B0001F93CF93DF93FB012081213851F52381B9
:1021C000223239F5DC0112962C9130E044815581A0
:1021D00042175307F1F4EC010B851C85E12CF12C1F
:1021E0000115110591F0F8014481558162817381D7
:1021F00080E80E94B0198F3FFFEF9F0769F0E80E5B
:10220000F91ED8010D911C91EBCF81E08F87C7019A
:1022100005C080E090E002C08FEF9FEFDF91CF918B
:102220001F910F91FF90EF900895FC01A385B48555
:10223000109719F47487638709C08D919C91119749
:10224000009711F0DC01F9CF6D937C9325853685DD
:10225000DB0114968D919C911597820F931F9687A1
:1022600085870895AF92BF92CF92DF92EF92FF924F
:102270000F931F93CF93DF931F92CDB7DEB77C01EF
:1022800069836A01590141E050E0BE016F5F7F4FF1
:10229000FC0183810E9401198C0197FD0BC0F7019D
:1022A0008381A501B60180640E94011997FD02C0D7
:1022B000800F911F0F90DF91CF911F910F91FF9091
:1022C000EF90DF90CF90BF90AF900895CF93DF93C2
:1022D000EC0181E08C838D839E01265F3F4F3F831D
:1022E0002E83198618862AE331E0398328831C86D9
:1022F0001B861E861D868F87888B198A1A8A81EC19
:102300008A870E943316BE01DF91CF910C94EC15A1
:102310008091CE02811107C08BEB92E00E94661182
:1023200081E08093CE028BEB92E008958091EC02E5
:10233000811113C01092D7021092D6028BE193E064
:102340009093D9028093D80289E190E09093DB02C8
:102350008093DA0281E08093EC020E94881166ED9E
:1023600072E00C941511DC0120E030E04D915D919C
:10237000452B41F4220F331FFC01E20FF31F718341
:10238000608308952F5F3F4F2430310579F708951A
:1023900028E0FC0111922A95E9F70895CF93DF9385
:1023A000EC010E94881128E030E0AE0164E0DF918A
:1023B000CF910C9432110F931F93CF93DF93EC01C5
:1023C0008C01085F1F4F48E050E0BC01C8010E942B
:1023D0009C1D892B51F0CE010E94CE1188E0FE0198
:1023E000D80101900D928A95E1F7DF91CF911F916D
:1023F0000F91089528E0FC0111922A95E9F70C94B9
:10240000DB110C94FA118CED92E00C9496118091F2
:102410003403811113C01092F5021092F40284E388
:1024200093E09093F7028093F60281E490E090931A
:10243000F9028093F80281E0809334030E948811AE
:1024400064EF72E00C941511CF93DF93EC010E94BE
:1024500088112DE130E0AE0168E0DF91CF910C945E
:102460003211EF92FF920F931F93CF93DF93EC0102
:102470007C018DE1E80EF11C4DE150E0BE01C70189
:102480000E949C1D892B09F443C00D8D1881802F5B
:1024900080958123B1F04CE150E0BE016F5F7F4F2A
:1024A000CE014E960E949C1D892B59F01D8F0E94D3
:1024B00088112DE130E0A70168E00E9432110D8FF4
:1024C00019C0812F80958023A9F04CE150E0BE0116
:1024D0006F5F7F4FCE014E960E949C1D892B51F05D
:1024E00008830E9488112DE130E0AE0168E00E946F
:1024F00032111883CE010E9424121816190654F4C2
:102500002DE1FE01D70101900D922A95E1F702C05D
:102510008FEF9FEFDF91CF911F910F91FF90EF9081
:1025200008956E3D90F4262F269526952695FC015C
:10253000E20FF11D677081E090E001C0880F6A959D
:10254000EAF79181892B81830DC0605E683068F461
:1025500021E030E001C0220F6A95EAF7FC013081EA
:10256000232B208381E090E0089580E090E008959F
:102570006E3D98F4262F269526952695FC01E20FB0
:10258000F11D677081E090E001C0880F6A95EAF75D
:1025900080959181892381830EC0605E683070F4DC
:1025A00021E030E001C0220F6A95EAF72095FC0196
:1025B00030812323208381E090E0089580E090E043
:1025C00008952DE1FC0111922A95E9F70895CF9322
:1025D000DF93EC010E94E112CE01DF91CF910C94C8
:1025E00024120C94E7128AEF92E00C940712CF9316
:1025F000DF93EC010E94881125E030E0AE0161E03C
:10260000DF91CF910C9432110F931F93CF93DF93EF
:10261000EC018C010B5F1F4F45E050E0BC01C8018D
:102620000E949C1D892B49F445E050E06CE373E067
:10263000CE010E949C1D892B51F0CE010E94F71201
:1026400085E0FE01D80101900D928A95E1F7DF91B6
:10265000CF911F910F91089580915203811113C062
:1026600010924C0310924B0385E793E090934E0336
:1026700080934D0388E190E09093500380934F0343
:1026800081E0809352030E9488116BE473E00C9404
:1026900015110F931F93CF93DF93EB018A010E94D3
:1026A00088119801AE0165E0DF91CF911F910F91E4
:1026B0000C943211CF93DF931F92CDB7DEB71982FE
:1026C00041E050E0BE016F5F7F4F0E9449130F90C1
:1026D000DF91CF9108950C945A130C945A13CF9311
:1026E000DF931F92CDB7DEB76983633829F48BEC93
:1026F00093E00E94F91B07C041E050E0BE016F5F0C
:102700007F4F0E9449130F90DF91CF91089581E58B
:1027100093E00C942C13CF93DF93CDB7DEB769977A
:102720000FB6F894DEBF0FBECDBFFC01DB019C915C
:102730009F5F9C93BE016F5F7F4F89E1DB011D921C
:102740008A95E9F729E0298384E08A8391E09D83D3
:1027500083E08E832A8721E22B879C879D879F8732
:1027600022E2288B25E3298B27E02B8B25E02C8B7D
:102770008E8B20E430E0388F2F8B998F82818B8372
:10278000838180688D8B49E150E080E00E94B01920
:1027900069960FB6F894DEBF0FBECDBFDF91CF9123
:1027A0000895FC01838180640C9401190A970C94AC
:1027B000D113FB0120812138B9F423812232A1F405
:1027C000DC0112962C91129730E04481558142171A
:1027D000530751F421E052962C9345E350E06DE805
:1027E00073E080E80C94B01980E090E00895DC017B
:1027F000FB0112968C91129790E02481358182170B
:102800009307D1F491818081813A31F481E0913054
:1028100091F0933089F411C0813271F49B3021F42E
:10282000828152968C9305C09A3031F482815396FE
:102830008C9381E00895089580E00895CF93DF930D
:10284000EC0181E08C838D839E012F5E3F4F3F839F
:102850002E83198618861D861C861F861E86188A5A
:1028600026E431E03983288324E531E03B872A8759
:102870008A8B8B8B81EC898B0E943316BE01DF9192
:10288000CF910C94EC158AE593E00C941E14CF9331
:10289000DF931F92CDB7DEB76983DC01ED91FC9128
:1028A0000280F381E02D41E050E0BE016F5F7F4F79
:1028B00009950F90DF91CF910895CF93DF93EC01AD
:1028C0008C859D8597FF05C082E00E94D0189D876A
:1028D0008C878C859D85DF91CF91089583E00E9440
:1028E000E71890E0089583E00C94641BFC01848554
:1028F000958597FD06C082E00E947C1890E00196C5
:10290000089582E00E947C1890E00895FC0184857F
:10291000958597FD05C02FEF3FEF358724870895F4
:1029200082E00C94D018CF93DF93EC0180911101D9
:10293000882331F083E00E9401191816190634F03B
:1029400081E090E09B838A8380E090E0DF91CF91EB
:102950000895EEEFFFE72591349181E02B3F3C4D48
:1029600009F080E00895FC0190819E5F908342E42D
:1029700050E062EC73E080E80C94B019FC018181B6
:102980009081913A59F4813209F065C047E050E0F6
:102990006AE071E080E00E94B0195BC0913209F0FA
:1029A0005AC0833269F482819381A0E0B0E08093C1
:1029B000060190930701A0930801B093090149C053
:1029C000803239F467E070E08AE091E00E94D71924
:1029D00040C0823209F03DC08281809311010E9483
:1029E000A914882319F0EEEFFAE002C0E0E0F8E065
:1029F00080910A0190910B01A0910C01B0910D0101
:102A0000803B9440A105B10541F58091110180FD05
:102A100024C0EE3F8AE0F80751F08081918187372A
:102A200027E7920721F09093FF0A8093FE0A87E739
:102A300097E791838083809160008093BE039BE041
:102A400088E10FB6F894A895809360000FBE90932C
:102A5000600081E0089580E008958081918187374A
:102A60009747B9F7A89580916000886180936000CE
:102A70008091BE0380936000EE3F8AE0F80739F052
:102A80008091FE0A9091FF0A91838083E2CF109299
:102A9000FF0A1092FE0ADDCF2FEF3FEFFC013587D2
:102AA00024870895EEE6F3E01382128288EE93E025
:102AB000A0E0B0E084839583A683B7838AE591E0A4
:102AC000918380838FEF9FEF958784870895EF929E
:102AD000FF920F931F93CF93DF937B01FC01C28181
:102AE000D38100E010E0209781F0E881F981028035
:102AF000F381E02DB701CE01099597FD08C0080FBD
:102B0000191F0884D985C02DEECFC80102C08FEFF0
:102B10009FEFDF91CF911F910F91FF90EF9008955C
:102B20000F931F93CF93DF938B01FC01C281D3815D
:102B3000209771F0E881F9810480F581E02DB801DA
:102B4000CE010995009731F40884D985C02DF0CFC6
:102B500080E090E0DF91CF911F910F9108950F9346
:102B60001F93CF93DF938B01FC01C281D381209708
:102B700071F0E881F9810680F781E02DB801CE017E
:102B80000995080F111D0884D985C02DF0CFF801D3
:102B90001082DF91CF911F910F9108950F931F9392
:102BA000CF93DF938B01FC01C281D381209771F019
:102BB000E881F9810190F081E02DB801CE010995FD
:102BC000811105C00884D985C02DF0CF80E0DF9148
:102BD000CF911F910F910895CF93DF93FC01DB01FB
:102BE000218114968C91149790E0820F911D089783
:102BF000A4F5C281D381209719F47383628308C03E
:102C000088859985009711F0EC01FACFB987A887DC
:102C1000808112968C931297818113968C931397CF
:102C2000908115968C911597890F808380E014967A
:102C30009C911497891798F41696CD91DC9117976B
:102C4000C80FD11D9881C181D0E0CE5EDE4F988340
:102C500091819F5F91838F5FEACF80E001C081E027
:102C6000DF91CF9108958091C30381110DC082E05F
:102C70008093BF0384E08093C0031092C20310923C
:102C8000C10381E08093C3038FEB93E00895611546
:102C9000710579F0FB0101900020E9F73197AF0150
:102CA000461B570BDC01ED91FC910280F381E02D76
:102CB000099480E090E00895EF92FF920F931F93A4
:102CC000CF93DF938C017B01C0E0D0E0F701EC0FE4
:102CD000FD1F6491662361F0D801ED91FC91019094
:102CE000F081E02DC8010995892B11F02196EECFD6
:102CF000CE01DF91CF911F910F91FF90EF9008953A
:102D0000DC01ED91FC910190F081E02D099468E6E1
:102D100071E00C9447160F931F93CF93DF93EC0150
:102D20000E945C168C01CE010E948716800F911FB5
:102D3000DF91CF911F910F9108958F929F92AF9243
:102D4000BF92EF92FF920F931F93CF93DF93CDB774
:102D5000DEB7A1970FB6F894DEBF0FBECDBF7C01E2
:102D6000FA01CB0119A2223008F42AE08E010F5D8E
:102D70001F4F822E912CA12CB12CBF01A5019401D3
:102D80000E94431DF901CA01015011096A3014F46F
:102D9000605D01C0695CD8016C93232B242B252B2B
:102DA00061F7B801C7010E944716A1960FB6F894C3
:102DB000DEBF0FBECDBFDF91CF911F910F91FF906E
:102DC000EF90BF90AF909F908F900895211531059F
:102DD00041F4DC01ED91FC910190F081E02D642F34
:102DE00009940C949D169A01462F50E060E070E023
:102DF0000C94E6169A01AB0160E070E00C94E616C4
:102E00000F931F93CF93DF93EC010E94731C68878D
:102E100079878A879B87E881F9810484F585E02D8D
:102E2000CE01099597FF17C00E94731C088519856C
:102E30002A853B85DC01CB01801B910BA20BB30BD8
:102E40000C811D812E813F8180179107A207B30756
:102E500010F38FEF9FEFDF91CF911F910F910895A6
:102E6000FF920F931F93CF93DF93EC018B01F42E0E
:102E7000CE010E94001797FD2DC08D32910519F1EA
:102E80009C01205331092A30310520F1FF2019F02F
:102E90008E329105D1F001301105D1F002301105CB
:102EA00051F48D30910539F024F40997029718F008
:102EB0000FC0809769F4E881F9810284F385E02DE1
:102EC000CE010995D5CF8DE201C08EE290E002C01F
:102ED0008FEF9FEFDF91CF911F910F91FF9008959A
:102EE000BF92CF92DF92EF92FF920F931F93CF93F7
:102EF000DF938C01C42F40E00E943017FC0197FD46
:102F000047C0C12CD12C7601B12C0C2E000CDD0B4E
:102F1000EC17FD0709F1ED32F105E1F0CF01C097A3
:102F20000A97D0F4AAE0B0E0A70196010E946B1DB9
:102F30006F01FF0FEE08FF08DC01CB018C0D9D1D1A
:102F4000AE1DBF1D6C017D0120E3C21AD108E1084E
:102F5000F10802C0BB24B394D801ED91FC91028426
:102F6000F385E02DC8010995C8010E940017FC01F6
:102F7000C0970A9768F2CE17DF0751F2BB2061F0C5
:102F800066277727CB016C197D098E099F0906C03A
:102F900060E070E0CB0102C0C701B601DF91CF91C4
:102FA0001F910F91FF90EF90DF90CF90BF90089509
:102FB0004091CE035091CF032091CC033091CD03AB
:102FC00042175307B4F49091E8009570E1F39091A3
:102FD000E80092FD19C08093F1008091CE0390919A
:102FE000CF0301968F739927892B19F48EEF809365
:102FF000E8008091CE039091CF0301969093CF0388
:103000008093CE0381E0089580E00895DF92EF92EF
:10301000FF920F931F93CF93DF93D82EF92EE42EB8
:10302000062F10E0C8010196880F0E94D81783E090
:103030000E94D817CD2DDF2D0C0F1D1FC017D107F3
:1030400089F0E7FE03C0FE01849101C088810E94DF
:10305000D817F82E80E00E94D8178F212196811171
:10306000EDCF01C081E0DF91CF911F910F91FF90D3
:10307000EF90DF9008958091D70081608093D70012
:1030800080EA8093D80089B5806189BD89B5826066
:1030900089BD09B400FEFDCF61E070E080E090E002
:1030A0000E94A41C8091D8008F7C80618093D800FE
:1030B0008091E000807F8093E0000895CF93DF93BC
:1030C0001F92CDB7DEB71982CE0101960E94B314CC
:1030D0000E943316BE016F5F7F4F0E946715898182
:1030E0000F90DF91CF9108952FB7FC012083F894C2
:1030F00067706093E9000895CF93DF931F92CDB777
:10310000DEB7682FCE0101960E9474188091F200FC
:1031100099819FBF0F90DF91CF910895EF92FF9219
:103120000F931F93CF93DF931F92CDB7DEB790918C
:10313000D203992311F057FF03C08FEF9FEF28C0F0
:103140008A017B01682FCE0101960E94741820919C
:10315000F20030E0021713070CF49801822FF701F8
:1031600094E6815030F09093D3034091F100419365
:10317000F8CF2115310521F08091F200882321F04C
:1031800089818FBFC90104C08BE68093E800F8CF26
:103190000F90DF91CF911F910F91FF90EF900895C5
:1031A000CF93DF931F92CDB7DEB741E050E0BE0171
:1031B0006F5F7F4F0E948E18019719F4898190E00C
:1031C00002C08FEF9FEF0F90DF91CF910895CF93C3
:1031D000DF931F92CDB7DEB7682FCE0101960E9414
:1031E00074189091E800892F807295FF04C0909127
:1031F000F20080E4891B99819FBF0F90DF91CF91EE
:1032000008955F926F927F928F929F92AF92BF923A
:10321000CF92DF92EF92FF920F931F93CF93DF93A2
:103220001F92CDB7DEB7982E6B01B42E052F80917B
:10323000D203811103C08FEF9FEF76C08091D0033E
:1032400080FF05C08091E00082608093E000EB2C5D
:10325000F02EA12C8AEF882E892D8072682E892D60
:103260008074582E9AE3792EE114F10419F4AA20FF
:1032700009F455C0892D0E94E718182F81110AC042
:103280008A948820C1F261E070E080E090E00E94C2
:10329000A41CEACF90E0E816F9060CF41E2D692D67
:1032A000CE0101960E9474188091E80085FF34C019
:1032B000812F90E0E81AF90A662029F01150A0F059
:1032C0001092F100FBCFF60197FE0AC0115050F0AA
:1032D00024912093F1003196F9CF21912093F100B0
:1032E0001150D8F7C80ED91EAA2019F07092E80024
:1032F0000BC08091E80085FD09C07092E800AA2407
:10330000A394E114F10441F0A12C06C0E114F104EE
:1033100019F451107092E80089818FBFA5CF84E61F
:103320008093D4038B2D902F0F90DF91CF911F911D
:103330000F91FF90EF90DF90CF90BF90AF909F9054
:103340008F907F906F905F9008951092E900109297
:10335000CF031092CE039093CD038093CC030895B6
:10336000DF92EF92FF920F931F93CF93DF93D82EAC
:103370008A017B01E40EF51EEB01CE15DF0571F02D
:10338000D7FE03C0FE01849101C088810E94D81736
:1033900021968111F2CF8FEF9FEF01C0C801DF911D
:1033A000CF911F910F91FF90EF90DF900895CF93F1
:1033B000DF93EC019B01B4E6ABEF21153105F1F091
:1033C000A9012134310514F040E450E08091E80077
:1033D00082FFFCCF942FFB01E21BF30BEC0FFD1FD0
:1033E000915028F08091F10080833196F9CFB0930D
:1033F000D303A093E800241B350BDFCFCB01DF9173
:10340000CF9108951F920F920FB60F921124CF9271
:10341000DF92EF92FF920F931F932F933F934F935F
:103420005F936F937F938F939F93AF93BF93EF932C
:10343000FF93CF93DF93CDB7DEB76C97DEBFCDBFE1
:103440001092E9008091E80083FF1FC189E0FE012E
:103450007596FE2E0F2F815029F09091F1009083E8
:103460003196F9CF84E68093D30382EF8093E8000E
:103470008D8987FF05C09091E80090FFFCCF03C0C5
:103480009EEF9093E800982F907609F0D7C09E8920
:103490004F89588D2F89188D91110CC0803829F4CF
:1034A0008091D1038093F10002C01092F10010923C
:1034B000F100E4C0913051F48111E0C04130510578
:1034C00009F0DCC08091D1038D7F0BC0933061F493
:1034D0008111D4C04130510509F0D0C08091D10391
:1034E00082608093D103CAC0953049F48091E8008E
:1034F00080FFFCCF822F80688093E300BFC09630AE
:1035000009F06FC0CB8CDC8C123069F580E090E064
:103510000E94A5190E945E1899E09E012F5F3F4FFF
:103520007901F901292F11922A95E9F799831A83D4
:1035300091E09E8390EA98879AEF99872091CE0335
:103540003091CF03275F3F4F3C832B838D83C60190
:103550000E94A51949E050E0B70180E00E94B0192F
:103560000E945E188BC0C6010E94A5190E943316E6
:103570006F2D702F0E949015009719F00CF07EC0EF
:1035800081C0113009F46FC0133009F07BC08F89FE
:10359000882309F46BC0823029F440E866E082E2B7
:1035A00094E006C0813039F440E86BE086E194E0B5
:1035B0000E94061855C0833009F064C00E9433167B
:1035C0008E010F5F1F4FB8010E94AF15F8010190E7
:1035D0000020E9F73197BF01601B710B40E0C80183
:1035E000E7CF973009F44EC0983021F481E0809302
:1035F000F10044C0993009F041C0837009F042C025
:10360000E3E1F1E081E031E096E32081211109C09E
:103610008EE78093EA001092EA008F898093D203AC
:103620002DC08093E9003093EB0021912093EC00B2
:103630009093ED008F5F873041F7EACF8B8D9C8DA3
:103640000E94A519898D811105C08F2D902F0E9490
:10365000BE1406C00E9433166F2D702F0E94CE1527
:10366000882381F00BC064E074E002C069E274E07A
:10367000FB01449150E080E80E94B0198EEF8093E6
:10368000E80003C081E28093EB006C960FB6F894DB
:10369000DEBF0FBECDBFDF91CF91FF91EF91BF9104
:1036A000AF919F918F917F916F915F914F913F91DA
:1036B0002F911F910F91FF90EF90DF90CF900F907F
:1036C0000FBE0F901F9018958093E9008091F20033
:1036D000882319F08AE38093E80008951F920F92DF
:1036E0000FB60F9211242F933F934F935F936F93D5
:1036F0007F938F939F93AF93BF93CF93EF93FF935A
:10370000C091E1008091E100837F8093E100C3FFDD
:103710000FC01092E90081E08093EB001092EC0062
:1037200082E38093ED001092D20388E08093F00052
:10373000C2FF15C083E00E94641B8091D4038823DC
:1037400029F08091D40381508093D4038091D303D6
:10375000882329F08091D30381508093D303C4FF41
:1037600010C08091E2008E7E81608093E2008091A3
:10377000E1008F7E8093E1008091D0038E7E806196
:1037800011C0C0FF11C08091E2008E7E80618093E5
:10379000E2008091E1008E7E8093E1008091D00371
:1037A0008E7E81608093D003FF91EF91CF91BF9186
:1037B000AF919F918F917F916F915F914F913F91C9
:1037C0002F910F900FBE0F901F9018951092D2035B
:1037D0001092D1031092D0030E943B18E1EEF0E06A
:1037E00080818E7E80838DE08093E200559A209ABE
:1037F00008958091E0008D7F8093E0008091E0004B
:1038000081FD08C08091D00380FF04C08091D10366
:1038100081FD02C080E008950E943B188091E00085
:1038200082608093E00081E0089508950E94E01C8A
:103830000E94151C8BEC93E00E94E61B0E94AF02D5
:10384000C0E0D0E00E94B6022097E1F30E940000A1
:10385000F9CF1F920F920FB60F9211242F933F931F
:103860008F939F93AF93BF938091D6039091D7038B
:10387000A091D803B091D9033091D50323E0230F51
:103880002D3720F40196A11DB11D05C026E8230F98
:103890000296A11DB11D2093D5038093D60390936A
:1038A000D703A093D803B093D9038091DA03909102
:1038B000DB03A091DC03B091DD030196A11DB11DD6
:1038C0008093DA039093DB03A093DC03B093DD03D2
:1038D000BF91AF919F918F913F912F910F900FBE0C
:1038E0000F901F9018952FB7F8946091D6037091A0
:1038F000D7038091D8039091D9032FBF08953FB784
:10390000F8948091DA039091DB03A091DC03B091ED
:10391000DD0326B5A89B05C02F3F19F00196A11D18
:10392000B11D3FBFBA2FA92F982F8827820F911D55
:10393000A11DB11DBC01CD0142E0660F771F881F9C
:10394000991F4A95D1F708958F929F92AF92BF9297
:10395000CF92DF92EF92FF926B017C010E947F1C5D
:103960004B015C01C114D104E104F10401F10E9496
:10397000361D0E947F1CDC01CB0188199909AA0918
:10398000BB09883E9340A105B10560F321E0C21A4E
:10399000D108E108F10888EE880E83E0981EA11C8A
:1039A000B11CC114D104E104F10419F7DBCFFF907D
:1039B000EF90DF90CF90BF90AF909F908F90089541
:1039C000789484B5826084BD84B5816084BD85B5FA
:1039D000826085BD85B5816085BDEEE6F0E08081C1
:1039E00081608083E1E8F0E01082808182608083E2
:1039F000808181608083E0E8F0E080818160808365
:103A0000E1E9F0E080818260808380818160808351
:103A1000E0E9F0E0808181608083E1ECF0E080818A
:103A200084608083808182608083808181608083E4
:103A3000E3ECF0E0808181608083E0ECF0E0808165
:103A400082608083E2ECF0E0808181608083EAE73D
:103A5000F0E08081846080838081826080838081C7
:103A60008160808380818068808308950895991B98
:103A700079E004C0991F961708F0961B881F7A9565
:103A8000C9F780950895A1E21A2EAA1BBB1BFD0160
:103A90000DC0AA1FBB1FEE1FFF1FA217B307E4072D
:103AA000F50720F0A21BB30BE40BF50B661F771F85
:103AB000881F991F1A9469F7609570958095909565
:103AC0009B01AC01BD01CF010895EE0FFF1F0590D2
:103AD000F491E02D09940E94761DA59F900DB49F4E
:103AE000900DA49F800D911D11240895A29FB001F7
:103AF000B39FC001A39F700D811D1124911DB29F22
:103B0000700D811D1124911D0895FB01DC018D9123
:103B1000059080190110D9F3990B0895FB01DC0180
:103B20004150504030F08D910590801919F40020DB
:103B3000B9F7881B990B0895FB01DC0104C08D9136
:103B40000190801921F441505040C8F7881B990B0F
:103B50000895F999FECF92BD81BDF89A992780B555
:103B60000895262FF999FECF1FBA92BD81BD20BDC1
:103B70000FB6F894FA9AF99A0FBE01960895F89440
:023B8000FFCF75
:103B82000303E7060400FFFFFFFF00E1000000005F
:103B9200000000C180810000007E0197663534C6B6
:103BA2009436F6F7963790919392000000000F0F2B
:103BB200C70E580FC00E000000008F104710D5101E
:103BC200381000000000F7138B13D913C00ED11365
:103BD200F6FF0000D61300000000471493146E1481
:103BE2007314761486145D140D0A006E616E0069FA
:083BF2006E66006F76660000AC
:00000001FF
