:100000000C943D020C9465020C9465020C946502FC
:100010000C9465020C9465020C9465020C946502C4
:100020000C9465020C9465020C944B250C94DF2310
:100030000C9465020C9465020C9465020C946502A4
:100040000C9465020C9465020C9465020C94650294
:100050000C946A060C9465020C9465020C940626B6
:100060000C9465020C9465020C9465020C94650274
:100070000C9465020C9465020C9465020C94650264
:100080000C9465020C9465020C9465020C94650254
:100090000C9465020C9465020C9465020C94650244
:1000A0000C9465020C9465020C9465025B0D600D66
:1000B0006A0D720D7A0D850D8A0D8F0D990D540DF7
:1000C000560D14001A0008001500170000001C004F
:1000D00018000C00120013000400160007000900AD
:1000E0000A0000000B000D000E000F0033001D0081
:1000F0001B00060019000500E0001100100036008A
:100100003700380029002B00E300E1002A00E2005C
:100110002C002B442D00340028001E081F0852001C
:100120002F08300800004B00240025002600250879
:100130002008500051004F00210800004E0021000F
:10014000220023002E082F0030002608270824084C
:10015000E00035001E001F0020003100024449006D
:10016000E300E1002A00E2002C00FFFF3700270037
:100170002E0049004A0052004D004B000000520082
:1001800040004100420043004C00500051004F002D
:100190004E00000051003D003E003F0044000000C2
:1001A000E95C000000000060FFFF00003A003B0037
:1001B0003C0045000000EA5CFFFFFFFFFFFFFFFF80
:1001C000FFFF016046004700CD58637573746F6D83
:1001D0000064656661756C74006F6E6C794375734D
:1001E000746F6D006B65796D61702E006B65796D54
:1001F00061702E637573746F6D0A6B65796D6170D4
:100200002E64656661756C740A6B65796D61702E1C
:100210006F6E6C79437573746F6D00656570726F86
:100220006D2E6672656500656570726F6D2E636F09
:100230006E74656E747300656570726F6D2E636F9A
:100240006E74656E74730A656570726F6D2E66727A
:100250006565002F006372630076657273696F6E67
:100260000076616C69643F0064656661756C744C0E
:10027000617965720073657474696E67732E0073BB
:10028000657474696E67732E64656661756C744C11
:10029000617965720A73657474696E67732E76612D
:1002A0006C69643F0A73657474696E67732E766552
:1002B0007273696F6E0A73657474696E67732E6307
:1002C00072630066616C73650074727565006865C1
:1002D0006C700068656C70000D0A2E00050109063F
:1002E000A101050719E029E7150025017501950809
:1002F00081029501750881019505750105081901AF
:10030000290591029501750391019506750815005F
:1003100025FF0507190029FF8100C0050C0901A16F
:10032000018504150026FF0319002AFF03950475B3
:10033000108100C005010906A1018508050719E023
:1003400029E71500250175019508810205081901A5
:100350002908950875019102050775049501810129
:10036000190429DD15002501750195D98102750350
:1003700095018101C005010902A101850105091945
:10038000012908150025019508750181020501095B
:1003900030093109381581257F75089503810605D7
:1003A0000C0A38021581257F750895018106C00564
:1003B000010980A1018505150026FF00190029FF0C
:1003C000950175088100C005010902A101050919FF
:1003D000012908150025019508750181020501090B
:1003E00030093116000026FF7F7510950281020941
:1003F000381581257F750895018106C0080B00021C
:1004000002020100090400000102020000052400AC
:10041000100105240101010424020605240600013F
:100420000705810310004009040100020A000000D2
:100430000705020240000007058302400000120188
:100440000002EF0201400912E5A1000101020301CF
:10045000546563686E6F6D616E6379004174726597
:1004600075730004030904007D0C99129216C919D2
:10047000981B881C641D201E2F1F11241FBECFEF48
:10048000DAE0DEBFCDBF11E0A0E0B1E0ECE8FFE4D0
:1004900002C005900D92A039B107D9F724E0A0E978
:1004A000B1E001C01D92A738B207E1F712E0CDE339
:1004B000D2E004C02197FE010E946A27C433D1070D
:1004C000C9F70E94F3250C94C4270C9400008BE616
:1004D00092E00E94890A84E692E00E94310981EB51
:1004E00092E00E944A0F8CEE92E00C9430158BE65D
:1004F00092E00E94520B80E090E00895EF92FF920C
:100500000F931F93CF93DF93EC01162FF42EE22E5F
:10051000022F242F462FBC0185EC92E00E949511FA
:10052000019719F481E090E023C00E2D2F2D412F6B
:10053000BE0188E293E00E948D15019799F32F2D5B
:10054000412FBE0181EB92E00E94A70E019751F36B
:100550002F2D412FBE0185E992E00E94AA0D01973F
:1005600009F32F2D412FBE018CEE92E00E947714EB
:10057000DF91CF911F910F91FF90EF900895CF934E
:10058000DF93EC01BC0184E692E00E94BB09019775
:1005900019F481E090E01AC0BE0184E792E00E9465
:1005A000970C0197B1F3BE0189E692E00E94D40B4B
:1005B000019779F3BE018AE692E00E945B0B31E07D
:1005C00020E0019709F030E0832F922FDF91CF9147
:1005D000089580E090E0089584E792E00E94BB0CCB
:1005E00085EC92E00E94FA1081EB92E00E94480EA6
:1005F00085E992E00E94D40D8CEE92E00C94F41404
:1006000085EC92E00E94121181EB92E00E943F0E75
:1006100085E992E00E94CF0D80E090E00895882364
:1006200031F0813051F480E00E94840806C080914E
:100630003101909132010E94790680E090E00895A6
:1006400080E991E00E942D0385E00E9449090C9405
:10065000891580E991E00C945403CF93DF9340E82F
:1006600055E260E070E087E194E00E94291F0E945B
:10067000670286E991E00E946C030E94C3160E9403
:10068000D0170E94DA170E94CC07C0E0D0E06D2F8F
:100690008C2F0E946D07DF5FDB30C9F7CF5FC4305E
:1006A000A9F7DF91CF9108950E94502660939101A0
:1006B0007093920180939301909394010E9477022A
:1006C00086E991E00E945C060E94EC020E9491176C
:1006D0000E9442170C940003CF93DF930FB6F89457
:1006E000A8958091600088618093600010926000FE
:1006F0000FBEA3E3B1E04EE351E061E070E08D9105
:10070000E82FF0E024E0F595E7952A95E1F721A19F
:100710008F70EB0102C0CC0FDD1F8A95E2F7CE018E
:100720009C2F9095922391A392A1892B82A34A1783
:100730005B0729F7AEE3B1E042E451E061E070E02D
:100740008D91E82FF0E094E0F595E7959A95E1F723
:1007500021A18F70EB0102C0CC0FDD1F8A95E2F75B
:10076000CE01922F982B91A392A1892B82A34A1795
:100770005B0731F780E1809381001092800080E276
:1007800095E3909387008093860081E180938100B8
:1007900081E080936F00DF91CF910895FF920F93D6
:1007A0001F93CF93DF930BEC11E0C3EDD1E0F12C5D
:1007B00038814981F80180819181282F2170220F91
:1007C000532F5170252B09F0FFC0BC01769567951A
:1007D0006170660F31FB222720F9262B09F0E8C053
:1007E000BC0176956795769567956170660F32FBCB
:1007F000222720F9262B09F0CFC0BC0176956795FA
:1008000076956795769567956170660F33FB22271D
:1008100020F9262B09F0B4C0BC01729562956F7067
:1008200067277F7067276170660F34FB222720F9E6
:10083000262B09F099C0BC01769567957295629553
:100840006F7067277F7067276170660F35FB2227FF
:1008500020F9262B09F07CC0BC010024660F771F0D
:10086000001C660F771F001C672F702D6170660FCC
:1008700036FB222720F9262B09F05EC0BC01660F4B
:10088000672F661F770B71956170660F37FB222704
:1008900020F9262B09F045C0292F2170220F342F73
:1008A0003170232B99F541FB222720F9392F327023
:1008B000232B09F592FB222720F9220F42FB442724
:1008C00040F9242B71F489939993F3940E5F1F4F91
:1008D000F4E0FF126DCFDF91CF911F910F91FF9048
:1008E00008954AE06F2D80E090E00E94AB06F80189
:1008F00080819181E8CF49E06F2D80E090E00E94F7
:10090000AB064981F80180819181D4CF48E06F2DF9
:1009100080E090E00E94AB064981F80180819181DE
:10092000C2CF47E06F2D80E090E00E94AB06498186
:10093000F80180819181B0CF46E06F2D80E090E09A
:100940000E94AB0638814981F8018081918196CF60
:1009500045E06F2D80E090E00E94AB063881498130
:10096000F8018081918178CF44E06F2D80E090E0A4
:100970000E94AB0638814981F801808191815BCF6B
:1009800043E06F2D80E090E00E94AB063881498102
:10099000F8018081918140CF42E06F2D80E090E0AE
:1009A0000E94AB0638814981F8018081918125CF71
:1009B00041E06F2D80E090E00E94AB0638814981D4
:1009C000F801808191810CCF40E06F2D80E090E0B4
:1009D0000E94AB0638814981F80180819181F5CE72
:1009E0006430D8F44B30C8F4E62FF0E0EE0FFF1F70
:1009F000ED53FE4F81E090E0A0E0B0E004C0880F2E
:100A0000991FAA1FBB1F4A95D2F780959095208108
:100A1000318182239323918380830895643088F405
:100A20004B3078F4E62FF0E0EE0FFF1FED53FE4F52
:100A30008081918102C0969587954A95E2F78170F1
:100A4000089580E00895E3E3F1E040E050E060E0E5
:100A500070E000009191A92FB0E084E0B595A795D2
:100A60008A95E1F790962C9130E09F7002C0359501
:100A700027959A95E2F72170332781E02827042EE5
:100A800002C0220F331F0A94E2F7622B732B4F5FD1
:100A90005F4F4B305105E9F6CB0108953F924F92DD
:100AA0005F926F927F928F929F92AF92BF92CF92FE
:100AB000DF92EF92FF920F931F93CF93DF93C7E9DB
:100AC000D1E03BECE32E31E0F32E4EE3A42E41E0E7
:100AD000B42E67013701312C8881882309F4B5C011
:100AE0008150888302E010E020E090E08981882333
:100AF00021F081508983022F192F8A818111A9C089
:100B000004608B818111ABC008608C818111ADC004
:100B100000618D818111AFC000628E818111B1C0F1
:100B200000648F818111B3C0006888858111B5C0D0
:100B3000116089858111B7C012608A858111B9C0A1
:100B40001460F50181915F01882E912C9594879412
:100B5000959487949594879495948794F40192A1A1
:100B60008F7044244394512C01C0440C8A95EAF7B9
:100B7000892F842582A386E991E00E942305F6014E
:100B8000219131916F01822793270823192302278E
:100B90001327F40182A1482642A2F7012191319145
:100BA0007F012027312720FF03C080910101888326
:100BB00021FF03C080910101898322FF03C080913E
:100BC00001018A8323FF03C0809101018B8324FFED
:100BD00003C0809101018C8325FF03C08091010136
:100BE0008D8326FF03C0809101018E8327FF03C000
:100BF000809101018F8330FF03C0809101018887BC
:100C000031FF03C080910101898732FF03C08091C9
:100C100001018A87F301019311933F0133942B96CD
:100C2000F4E03F1259CFDF91CF911F910F91FF90C8
:100C3000EF90DF90CF90BF90AF909F908F907F907C
:100C40006F905F904F903F90089503E010E021E097
:100C50004CCF81508A838B81882309F455CF8150F2
:100C60008B838C81882309F453CF81508C838D81B1
:100C7000882309F451CF81508D838E81882309F414
:100C80004FCF81508E838F81882309F44DCF8150BF
:100C90008F838885882309F44BCF81508887898585
:100CA000882309F449CF815089878A85882309F4EC
:100CB00047CF81508A8745CF80919501882331F0B5
:100CC0001092950186E991E00E944E0586E991E037
:100CD0000C94CE031F920F920FB60F9211248F9394
:100CE00081E0809395018F910F900FBE0F901F9020
:100CF0001895F89481E08093E00080E28093D8001A
:100D0000E9ECF0E010828FE19EE40197F1F700C07A
:100D100000001DBA109268001CBC10BE1FBA1092D1
:100D20007A0010926E0010926F0010927100109273
:100D300072001082ECEBF0E0108214B817B81AB809
:100D40001DB810BA108215B818B81BB81EB811BA61
:100D50000C94003F0895EF92FF920F931F93CF934F
:100D6000DF9300D0CDB7DEB79A838983062FF42EA8
:100D7000122F643008F049C02AE0241708F445C057
:100D8000812F8270E82E11FF19C010FD17C08981D4
:100D90009A81009711F016FF05C06F2D802F0E94D9
:100DA0006D070CC02BE0629FF0011124E40FF11DD0
:100DB000EE0FFF1FE95FFD4F918380834F2D602F62
:100DC00086E991E00E940E05882351F010FF69C06A
:100DD000E11067C04F2D602F86E991E00E94F0047A
:100DE00029813A8180E090E02817390771F48BE07F
:100DF000089FF0011124EF0DF11DEE0FFF1FE95FB9
:100E0000FD4F808191819A838983212F4F2D602FFF
:100E1000CE0101960E947E02892B09F042C0212F4B
:100E20004F2D602F89819A810E94DB089A838983E4
:100E300020E030E082179307A1F1F9800A8106FFD4
:100E40001AC007FD2EC003FF07C011FF2AC08F2D57
:100E5000902F0E94D41725C000FF23C011FD21C090
:100E600010FF1FC08F2D902F0E94DE178F2D902F07
:100E70000E94E31716C0812F817011FF0AC08111F3
:100E800002C061E001C060E08F2D902F0E9400172A
:100E900008C0882331F017FF04C08F2D902F0E94C7
:100EA00052170F900F90DF91CF911F910F91FF90EC
:100EB000EF90089550E09BE0699F400D511D112473
:100EC000FA019CE2899FE00DF11D1124EE0FFF1F36
:100ED000EE53FF4F859194910895CF93DF93462F62
:100EE000262F30E09BE0899FF0011124EF01C20F13
:100EF000D31FCC0FDD1FC95FDD4FE552FE4FDF0171
:100F0000A20FB31FE0910201F0910301682F8C91B1
:100F1000099599838883DF91CF9108950F931F934B
:100F20008091000181504091600250916102609176
:100F3000620270916302882389F08A019B01082E66
:100F400004C036952795179507950A94D2F700FFA8
:100F500003C080935F0204C08150EDCF10925F0206
:100F60001F910F9108950F931F934091600250912C
:100F7000610260916202709163028A019B0104C068
:100F800036952795179507958A95D2F7D901C80107
:100F900081701F910F910895DF92EF92FF920F934E
:100FA0001F93CF93DF938CE2EBEDF1E0DF011D9215
:100FB0008A95E9F77F01D0E000E010E0D02EC091E3
:100FC0005F021C16B4F48C2F0E94B307882379F0BB
:100FD000E0910201F09103014D2D6D2F8C2F0995A9
:100FE000019629F0F701E00FF11FC08302C0C15044
:100FF000E8CF0F5F1F4F0B30110501F7DF5F2BE0CC
:10100000E20EF11CD430C1F6DF91CF911F910F9108
:10101000FF90EF90DF9008950F931F93009160026F
:10102000109161022091620230916302B901A8011E
:10103000082E04C076956795579547950A94D2F780
:1010400040FF28C041E050E060E070E0082E04C09E
:10105000440F551F661F771F0A94D2F7409550958D
:10106000609570954023512362237323409360025F
:1010700050936102609362027093630290915F02E9
:10108000891302C00E948E070E94CC071F910F9106
:101090000C94E9021F910F910895CF939091000154
:1010A000891780F5C82F0E94B30781112BC081E0FA
:1010B00090E0A0E0B0E00C2E04C0880F991FAA1F9A
:1010C000BB1F0A94D2F74091600250916102609177
:1010D000620270916302842B952BA62BB72B809311
:1010E000600290936102A0936202B09363028091C8
:1010F0005F028C1710F40E948E070E94CC07CF91DC
:101100000C94E902CF91089510926002109261024E
:1011100010926202109263020C944D0880915F025B
:101120008F5F0C944D0880915F020C940C08CF9354
:10113000C82F862F8270CA3248F1CA52C13289F054
:10114000C232C9F46170882329F0611103C0CF91C4
:101150000C948E08662369F181112BC0CF910C94F9
:1011600093086170882311F06623C1F3662309F1A7
:1011700081111FC0ECCF882331F08C2F0E94B30760
:10118000811117C012C060FD0CC013C0882389F004
:1011900060FD0FC08C2F0E94B307882331F0CC2351
:1011A00021F08C2FCF910C940C088C2FCF910C94A4
:1011B0004D08CF910895943429F4622F0E94970826
:1011C00080E090E008950F931F93CF939091660273
:1011D000891718F080E090E01CC09BE0699FB00187
:1011E00011249CE2899F600D711D1124640F711DF3
:1011F000660F771F0091670210916802060F171F94
:10120000C8010E94AE27C82FC80101960E94AE27D0
:101210009C2FCF911F910F9108959091650289178E
:1012200018F40E945A070895891B0E94E308089544
:10123000FF920F931F93CF93DF93EC01F62E08815B
:101240001981C8010E94AE27F81621F06F2DC80140
:101250000E94B627CE01DF91CF911F910F91FF9091
:1012600008958BE692E00E94890A809100018093A4
:10127000650280E090E008958093660228E5829FF1
:10128000C00111240E94C00A9093680280936702F3
:1012900008958093000190916E0297FF03C023EEA2
:1012A00038E007C090916502980F909300012DE0FF
:1012B00039E030930301209302010C943C09FF9222
:1012C0000F931F93CF93DF9300D0CDB7DEB7F62EE9
:1012D000672F8C01000F111F8091670290916802A7
:1012E000800F911F9A838983CE0101960E9418096D
:1012F00080916702909168020196080F191F1A8366
:1013000009836F2DCE0101960E9418090F900F904E
:10131000DF91CF911F910F91FF900895EF92FF926F
:101320000F931F93CF93DF93082F7B01C0E0C0176B
:10133000D9F0D0E010E0412F6D2F8C2FF7010995E7
:101340004AE050E0BC0187E194E00E94D72060E2CF
:1013500087E194E00E945D201F5F1B3061F7DF5F33
:10136000D43041F7CF5FE3CFDF91CF911F910F9141
:10137000FF90EF900895CF93DF93EB014CEE51E097
:1013800084E792E00E94820C811187C047E050E020
:1013900064EE71E0CE010E949327892B09F07DC095
:1013A000279669ED71E0CE010E948A27892BB9F555
:1013B00087E194E00E943A1E0A9789F460916E02D8
:1013C00067FB662760F94AE050E087E194E00E94FD
:1013D000D02060E287E194E00E945D2061C041E09E
:1013E00060E070E087E194E00E944D21C62F862FD7
:1013F0000E94120B8091660280930001CC2319F0A9
:1014000083EE98E007C090916502890F80930001F8
:101410008DE099E0909303018093020141C061ED5A
:1014200071E0CE010E948A27892B29F46AE577E0D2
:101430008091650214C06AEC71E0CE010E948A2797
:10144000892B59F587E194E00E943A1E0A9719F01A
:10145000C0E0D0E01BC063EE78E0809166020E949D
:101460008E091EC0809166022CE2829FC001112469
:10147000C817D907A8F441E060E070E087E194E084
:101480000E944D21CE010E945F09219687E194E0E0
:101490000E943A1E0A9721F0E5CF80E090E002C05A
:1014A00081E090E0DF91CF9108954AE050E0682F0D
:1014B00087E194E00E94D02060E287E194E00C9400
:1014C0005D20EF92FF920F931F93CF93DF9300D095
:1014D000CDB7DEB78EE6E82E82E0F82E00E010E011
:1014E000F70161917F011A830983CE0101960E9461
:1014F00018090F5F1F4F0430110591F78EE692E037
:101500000F900F90DF91CF911F910F91FF90EF906F
:1015100008950F931F93CF93DF930EE612E0C0E080
:10152000D0E0CE010E94AE27F80181938F01219671
:10153000C430D105B1F780916F028F3F71F4809173
:101540006E02982F9F779F3719F487FD10926E02D5
:1015500081E080936F020E94610A80E090E0DF9159
:10156000CF911F910F91089580916C02882329F0EB
:101570008091700290917102089580E090E008954A
:101580000F931F93CF93DF9300D0CDB7DEB79A832D
:10159000898380916C02811116C000910401109121
:1015A000050189819A81800F911F90930501809395
:1015B000040142E0BE016F5F7F4F82E792E00E942C
:1015C000580CC80102C080E090E00F900F90DF91AE
:1015D000CF911F910F9108950E94610A81E080933D
:1015E0006D020895CF93C82F80910001C81758F459
:1015F0008C2F0E94840880916E0280789C2F9F77A8
:10160000892B80936E02CE3730F080916E02807805
:101610008E6780936E020E94EC0A80916E028F7733
:10162000CF91089590916E0280FB97F990936E028E
:10163000892F8F778F3721F490789E6790936E0271
:101640000C94EC0A81E080936C0260E182E792E006
:101650000E943F0C80916F02813019F010926D0250
:1016600008952091700230917102809172029091E0
:1016700073022F3F4FEF340739F490937102809338
:1016800070020E94EC0A03C02817390751F48091B8
:101690006E028F77282F30E02E37310514F40C942A
:1016A0008408089580916C02811102C00E94220B6F
:1016B00080E090E00895CF93DF93EB014FE752E095
:1016C00084E792E00E94820C811128C049E050E03A
:1016D00065E772E0CE010E949327892BF9F42996E1
:1016E00068E672E0CE010E948A27892BA9F161E6A3
:1016F00072E0CE010E948A27892B09F442C069E575
:1017000072E0CE010E948A27892B09F444C065E566
:1017100072E0CE010E948A27892B19F080E090E0C8
:1017200040C00E94B40AEC01609172027091730291
:101730004AE050E087E194E00E94D72063E572E040
:1017400087E194E00E9439204AE050E0BE0187E141
:1017500094E00E94D72023C087E194E00E943A1EC3
:101760000A9721F480916E028F7717C041E060E004
:1017700070E087E194E00E944D21862F0E94F20ADA
:101780000EC080916D020E949E0C60E287E194E0A1
:101790000E945D2004C080916F020E94550A81E082
:1017A00090E0DF91CF9108950F931F93CF93DF9334
:1017B00000D0CDB7DEB78B0147E352E084E792E07B
:1017C0000E94820C81110EC067E272E0C8010E9483
:1017D0008A27892BF1F06BE172E0C8010E948A2709
:1017E000892B19F080E090E043C080910401909132
:1017F000050160E074E0681B790B4AE050E087E186
:1018000094E00E94D72060E287E194E00E945D208E
:101810002DC087E194E00E943A1E00E010E00A9794
:10182000F9F4C8010E94AE270E94550A0F5F1F4FAE
:10183000011584E01807A9F719C041E060E070E0E5
:1018400087E194E00E944D211A830983CE0101961D
:101850000E9418090F5F1F4F011584E0180731F02F
:1018600087E194E00E943A1E0A9739F781E090E000
:101870000F900F90DF91CF911F910F910895FC0170
:10188000208131812170332781E0861770F44081F7
:1018900051815695479551834083220F331F4170E4
:1018A0005527242B352B8F5FF0CF3183208308956C
:1018B000DC01FB01415000F1519168E070E081E0F2
:1018C0002D913C911197952F982311F4932F02C0DD
:1018D000932F9095991F9927991F220F331F9923B2
:1018E00019F095E02927305811963C932E93880FD4
:1018F0006150710929F7DECF08951092730210929A
:1019000072020895CF93DF93CB01EA0163ED72E099
:101910000E948A27892B39F4BE0187E194E00E9456
:10192000682081E001C080E0DF91CF9108954EEC06
:1019300052E00E94820C80E090E00895811103C083
:1019400063EC72E002C069EC72E087E194E00C9411
:10195000392087E194E00E94531E892B59F087E1DA
:1019600094E00E943A1E0A9729F087E194E00E94D1
:10197000631EF5CF0895EF92FF920F931F93CF93BD
:1019800087E194E00E94531E892BD9F105E712E00C
:10199000C0E0CF5F87E194E00E94631E7801F80108
:1019A000808387E194E00E943A1E0A9741F00F5F1E
:1019B0001F4FF7018081803211F0C03251F78C2F18
:1019C00090E0FC01EC58FD4F2081203219F0FC0121
:1019D000EB58FD4F108285E792E00E94BF0268ED50
:1019E00072E087E194E00E9468200E94A90C87E1E0
:1019F00094E00E943A1E0A9721F487E194E00E9445
:101A0000631E80E090E0CF911F910F91FF90EF90C7
:101A10000895CF93C42F262F20684FEF6FEF0E94B9
:101A2000AB06C11105C00E949117CF910C943E18CE
:101A3000CF9108950F931F93CF93DF93C62F042F59
:101A4000122FFC01D49141FF06C0422F62E08D2F7E
:101A50009C2F0E94090D00FF06C0412F61E08D2FD1
:101A60009C2F0E94090DDF91CF911F910F91089536
:101A7000EF92FF920F931F93CF93DF93CB010097C9
:101A800009F461C0F12CE12C8C010F5F1F4FFC01A8
:101A9000449150E0FA013197EB30F10508F053C062
:101AA000EA5AFF4F0C946A27F12C45C00E94911707
:101AB0000E943E1840C00296F801E4908C013BC0A1
:101AC000EC012296F801649170E080E090E00E94C1
:101AD00081262DC0F80164918C010D5F1F4F2F2DC1
:101AE00042E00FC0F80164918C010D5F1F4F2F2D54
:101AF00041E007C0F80164918C010D5F1F4F20E0A9
:101B000043E002960E941A0D16C0EC0122962F2D7A
:101B100042E009C0EC0122962F2D41E004C0EC0107
:101B2000229620E043E060E0C8010E941A0D8E0179
:101B300002C0FF24F3946E2D70E080E090E00E94DC
:101B40008126C801A1CFDF91CF911F910F91FF9006
:101B5000EF9008950F93FB0181818036C9F4809145
:101B600098028830C0F49081E82FF0E0BF01660F42
:101B7000771FE60FF71FE756FD4F90839BE0499FC5
:101B8000200D1124218302838F5F8093980203C06C
:101B900080E090E002C081E090E00F910895109203
:101BA000980280E090E00895CF93DF93C0E0DBE0FF
:101BB00080919802C81750F52C2F30E0F901EE0FF4
:101BC000FF1FDF01A20FB31FA756BD4F11968C91C7
:101BD0008F3F29F4809397028093960207C06D2F60
:101BE0000E94142780939702909396022E0F3F1F16
:101BF000F901E756FD4F628180810E940F03BC010D
:101C000085E992E00E94380DCF5FD2CF80E090E06E
:101C1000DF91CF91089520919101309192014091EF
:101C2000B2025091B302B901641B750BAB01609114
:101C30000601709107016417750700F53093B30230
:101C40002093B20280FF04C020E04091080112C03E
:101C500081FF05C040910801419520E00BC082FF43
:101C600004C020910801219504C083FF07C0209182
:101C7000080140E060E080E00C94EB1708950E94BA
:101C80003E180E943A181092B80280E090E0089541
:101C90008091B802811103C01092BB0255C02091FF
:101CA0009101309192014091B6025091B702B90171
:101CB000641B750BAB0160910C0170910D016417F1
:101CC000750708F041C03093B7022093B6024091E7
:101CD000B4025091B502B901641B750BAB01609160
:101CE000090170910A0164177507A0F46091BB02A5
:101CF00090910B01E62FF0E04FEF50E0491B5109A6
:101D0000E417F5071CF4960F9093BB023093B502CD
:101D10002093B40280FF04C060910E01619506C05B
:101D200081FF03C060910E0101C060E082FF04C02A
:101D300080910E01819506C083FF03C080910E0142
:101D400001C080E00E94211080E090E008950F9390
:101D5000CF93FB018181803509F062C08081282FFB
:101D60002072902F9270382F307486FF16C0211188
:101D700014C0C82FCF7B0170992341F0011102C01C
:101D80000E947B0F8C2F0E94530F78C0002309F410
:101D900075C08C2F0E94550F71C021111DC001709C
:101DA000992309F440C0011165C02091910130913F
:101DB00092013093B7022093B6023093B50220937C
:101DC000B4024091060150910701241B350B30935A
:101DD000B3022093B2024EC0992309F44FC000FD14
:101DE0004DC080FD02C090E001C092E021E03111C1
:101DF00001C020E0922B81FD02C020E001C024E060
:101E0000922B82FD02C020E001C028E0922B83FDCE
:101E100002C080E001C080E1892B0E94810F2EC0AA
:101E200080E090E034C0002349F180959091B802A1
:101E300089238093B8028081982F937031F020E03D
:101E400084FD0DC040E061E011C0982F9C7049F006
:101E500084FD09C020E040E060E081E008C041E08E
:101E600004C020E001C021E040E060E080E00E948A
:101E7000F61704C084FF05C00E940B0E81E090E0BD
:101E800006C09091B802892B8093B802F7CFCF910A
:101E90000F9108950E944F0F80E090E008950E94F6
:101EA000E7170C9442180C9430180E9435181092C1
:101EB000BC02089556954795640F751F3695279572
:101EC00040E0820F931F0C944E181092BE021092A5
:101ED000BD021092C0021092BF028FEF9FE7909355
:101EE000C4028093C3029093C2028093C10281E036
:101EF0008093BC0208958091BC0281110C94650FFF
:101F000008950F931F93CF93C82F8091BC02811126
:101F100002C00E94650FC0FF06C01092BC02CF91A4
:101F20001F910F910895E09111010E2F10E0809103
:101F3000C3029091C402B8010E9420279B017093B4
:101F4000C4026093C3028091C1029091C202B801A1
:101F50000E942027AB017093C2026093C1027C2FC4
:101F600074708091BD029091BE02E091BF02F09129
:101F7000C0026C2F6670663071F4820F931F9093CD
:101F8000BE028093BD02BA016E0F7F1F7093C00224
:101F90006093BF0234C0772361F0D8011197A49FEA
:101FA000B001A59F700DB49F700D1124E60FF71FAF
:101FB00004C0C1FD06C0E40FF51FF093C002E0931A
:101FC000BF02C4FF0CC0F8013197E29FB001E39F4C
:101FD000700DF29F700D1124860F971F04C0C3FD72
:101FE00006C0820F931F9093BE028093BD02609142
:101FF000BF027091C0028091BD029091BE02CF914C
:102000001F910F910C945A0F87FD0AC0889FC00141
:102010001124880F892F881F990B91958F5F089540
:1020200020E031E0281B3109229FC001239F900D41
:10203000900D1124880F892F881F990B91958095F9
:102040000895EF92FF920F931F93CF93DF93182F72
:10205000062F80911001E82EF12C112309F44CC0B9
:10206000662381F123E6829FC00111246CE870E0B1
:102070000E9434276115710509F07B01212F012E83
:10208000000C330B43E61402C00111246CE870E02D
:102090000E9434276115710509F09B01122F202F32
:1020A000002E000C330B43E60402C00111246CE83F
:1020B00070E00E9434276115710509F09B01022F21
:1020C0001123D1F08091BB020E9404109091BA02BA
:1020D000282F1203E0011124C90FD11D97FDDA95B5
:1020E000EC16FD0664F0882799278E199F09C817FA
:1020F000D90734F4EC0104C0C0E0D0E001C0E7012E
:102100000023D9F08091BB020E9404102091B902F3
:10211000382F0303C0011124820F911D27FD9A95CA
:10212000E816F90664F0222733272E193F097C01AF
:102130008217930724F4790102C0E12CF12C10924C
:10214000BC0220910F0130E0C701B9010E94342781
:10215000E62FCE01B9010E943427862F20E040E00F
:102160006E2F0E94EB1720910F0130E0CE01B901D4
:102170000E9434278093BA02C701B9010E94342714
:102180008093B902DF91CF911F910F91FF90EF9053
:10219000089520919101309192018091EA029091ED
:1021A000EB02281B390B81E0409116015091170179
:1021B0004217530708F080E00895883018F490E043
:1021C000805202C094E48E5D262F20684FEF6FEF9F
:1021D0000E94AB06089562E00C94DD10E82FF0E059
:1021E000EE0FFF1FE653FD4F90819E7F908361E0CD
:1021F0000C94DD10CF93DF93C0E0D0E0FE01EE0F32
:10220000FF1FE653FD4F808180FF03C08C2F0E948B
:10221000EB102196C830D10589F780E090E0DF917E
:10222000CF9108950F931F93CF93DF9380E090E0B9
:10223000FC01EE0FFF1FE653FD4F208120FD05C07E
:10224000019680319105A1F709C00E94C910882329
:1022500029F081E08093C7021092C602C0E0D0E06E
:1022600090E08091C7028823F9F08E01000F111FC2
:1022700006531D4FF801808183FF0EC02091C602D6
:10228000222391F0877F80838C2F0E94EE10F8012B
:1022900080818D7F808307C080FF06C081FD04C0E0
:1022A0008C2F0E94EE1091E02196C031D105C9F625
:1022B000992321F01092C7021092C60280E090E0AC
:1022C000DF91CF911F910F910895FF920F931F936C
:1022D000CF93DF93C0E0D0E08E01000F111FF80113
:1022E000E653FD4F808180FBFF24F0F880FF04C09F
:1022F0000E94C910882391F0F801E653FD4F8081B8
:1023000081FBFF24F0F881FD09C083FBFF24F0F876
:1023100083FD04C02196C031D105F1F68F2DDF91E8
:10232000CF911F910F91FF900895CF92DF92EF927E
:10233000FF920F931F93CF93DF93DB01CD90DC903F
:10234000CFEFCC0D07FDACC0D22F142F7B010E9424
:10235000651196012150304C811135C02031310575
:1023600008F09EC0802F8270902F917000FF0BC0EC
:10237000811109C0D0E0CC0FDD1FC653DD4F88812D
:102380008D7F8883A8C0882309F4A5C09111A3C0BC
:1023900080919101909192019093EB028093EA02D7
:1023A000EC2FF0E0EE0FFF1FE653FD4FBBE01B9F4D
:1023B000D00D1124D1838081826081608083F701F8
:1023C0008081918181C0902F92702031310508F079
:1023D00050C0EC2FF0E0EE0FFF1FDF01A653BD4F02
:1023E0008C9183FF0CC0992309F475C000FD73C064
:1023F000D092C902C092C802877F8C9318C000FF98
:102400001CC0911168C08D7F8C9380919101909137
:1024100092012091EA023091EB02821B930B2091F2
:102420001401309115012817390708F054C08C2F7A
:102430000E94EE101092C7024EC0992309F44BC0BF
:1024400082608C938091C8029091C902D7014D910E
:102450005C9120919101309192018417950719F5B3
:10246000880F991FDC01A853BD478C9182FD36C0AF
:102470001AC09923A9F0D092C902C092C802D7010C
:102480008D919C91803E910540F4F70181818434C7
:1024900039F081E08093C70203C0883E9105A8F718
:1024A00080E090E03DC03093EB022093EA02E653D7
:1024B000FD4F4BE0149FD00D1124D18380818160AA
:1024C0008083D7018D919C919093C9028093C8021B
:1024D0008C2F0E94EB1081E090E022C080911201CD
:1024E000909113018F3FBFEF9B0721F4809116015C
:1024F000909117014091EA025091EB02241B350B99
:102500008217930740F3E653FD4F808188608083F4
:10251000F701808191819093C9028093C802DBCF3B
:10252000DF91CF911F910F91FF90EF90DF90CF90AF
:10253000089580E090E0FC01EE0FFF1FE653FD4F91
:10254000208124602083019680319105A1F70895B0
:102550009C01AC014151504C413068E0560710F4E9
:10256000842F07C02251384C213048E0340710F442
:10257000822F90E008959C01AC014151504C4130B4
:1025800068E0560730F4252F332720523F4FC9010A
:1025900008952251384C213048E0340718F48AE27B
:1025A000830F94E408951F93CF93DF93182F8F3FE9
:1025B00091F140910A0350E0C0910B03D0910C03BC
:1025C0003BE0632F0E94142720E0389FF001112484
:1025D000E552FE4FE90FF11DA22F022E000CBB0B9E
:1025E000A417B507C4F4AA0FBB1FAA0FBB1FAC0FDB
:1025F000BD1F11968C91119718130BC08C918F3FB2
:1026000061F0082E000C990B608170E08617970727
:1026100021F02F5FE1CF8FEF01C0822FDF91CF91AB
:102620001F9108954091F00250E090E0292F092E6B
:10263000000C330B241735076CF4F901EE0FFF1F64
:102640002E0F3F1FF901EF50FD4F2081281721F079
:102650009F5FECCF8FEF0895892F0895BF92CF929F
:10266000DF92EF92FF920F931F93CF93DF93CDB73B
:10267000DEB76D970FB6F894DEBF0FBECDBFC82E84
:10268000D62E1091F102812F0E94D312B82EABE00A
:10269000812F6A2F0E941427F82EE92EA89FD001BF
:1026A0001124A552BE4FA90FB11DE0910201F09176
:1026B0000301492F682F8C9109958C018151904C11
:1026C0008230904108F467C02FEFB21287C081E0DA
:1026D0008093EF028DE1E5E9F3E0DE0111960190D0
:1026E0000D928A95E1F7C090B2038DE1E2EBF3E041
:1026F000A5E9B3E001900D928A95E1F722E04E2D15
:102700006F2DC8010E94AB060E9491178DE1FE015A
:102710003196A5E9B3E001900D928A95E1F7D1FEDB
:1027200007C023E04E2D6F2DC8010E94AB060DC0DF
:1027300021E04E2D6F2D80E090E00E94AB0680914D
:10274000F002823010F0C092B2031092EF0220E04B
:102750008091F0022817D0F4822F90E0DC01AA0FBC
:10276000BB1FA80FB91FAF50BD4F0196FC01EE0F64
:10277000FF1F8E0F9F1FFC01EF50FD4FC080D180C7
:10278000E280CD92DD92EC922F5FE2CF8150809378
:10279000F00281E032C0C1101CC08091090388237F
:1027A000A1F08091F002823080F0809118018F3F7B
:1027B00061F40E9450267093EE026093ED028091C6
:1027C000F1028093180180E018C0C8010E94A8128D
:1027D00003C0C8010E94BB128C0179CFCC20E9F262
:1027E000E0910B03F0910C038B2D94E08902E00D36
:1027F000F11D1124028113816ACF6D960FB6F894F2
:10280000DEBF0FBECDBFDF91CF911F910F91FF9023
:10281000EF90DF90CF90BF900895CF93DF938F3FDD
:10282000A1F0C82FD0E0DC1754F48091F002882387
:1028300061F063E081E00E942E13DF5FF4CF61E07E
:1028400080E0DF91CF910C942E13DF91CF9108950A
:10285000CF93CBE08091F002882309F12091F1021F
:10286000822F6C2F0E941427C89FF0011124E90FBA
:10287000F11DEE0FFF1FE95FFD4F808191818151B6
:10288000904C8230904158F0822F0E94D3128F3F9B
:1028900031F463E080E00E942E138111DBCFCF91F1
:1028A00008951F93CF93DF93182F8091F002883003
:1028B00031F463E080E00E942E130E942814C0913E
:1028C000F002D0E0CE01880F991FC80FD91FCF505A
:1028D000DD4F18830E9450267A8369838091F0022D
:1028E0008F5F8093F002DF91CF911F910895EF9257
:1028F000FF920F931F93CF93DF93443008F06BC088
:102900002B3008F068C007FD66C07B0180911B0179
:10291000811109C0F701808191810E94A812F701FD
:102920009183808358C0C22FFBE04F9FC00D1124BC
:102930008C2F0E94D3129091EF0291114CC0D02F96
:10294000D170102F127001FF13C0D11111C09091DE
:10295000F002911108C0F701208131812151304CE2
:1029600022303041B0F58C2F0E94511481E034C0E8
:102970008C2F0E941213DD2329F1111123C08F3FE8
:1029800051F1C0911801CF3FC1F00E940D140E9477
:10299000281481E08093EF028C2F6BE00E941427B3
:1029A00021E0492F682F80E090E00E94AB06109252
:1029B000EF028FEF80931801ADCF0E940D140E949B
:1029C0002814A8CF21E090E08F3F09F420E0822F67
:1029D00004C08F3F41F680E090E0DF91CF911F91DE
:1029E0000F91FF90EF900895CF93DF930E945026B0
:1029F000EB01209118012F3F51F12091ED02309110
:102A0000EE02621B730B8091090390E08617970713
:102A100014F561E080E00E942E130E9428148FEFCD
:102A20008093180118C08091F2029091F3029E01E8
:102A3000281B390B8091190190911A018217930775
:102A400050F463E081E00E942E130E9428148091CC
:102A5000F0028111E8CF80E090E0DF91CF910895FE
:102A6000E1EFF2E08FEF808312821182339693E0E0
:102A7000E930F907C1F71092F00280E090E0089584
:102A80008091290381113EC010921203109211030C
:102A900010921303109215031092140381EE809389
:102AA0000D0310920E0386E280930F0388E080935B
:102AB000100310921B0310921A0310921C03109221
:102AC0001E0310921D0395EE9093160310921703A8
:102AD00097E29093180380931903109224031092A5
:102AE00023031092250310922703109226031092BD
:102AF0001F0310922003109221031092220381E001
:102B0000809329038DE093E0909333038093320305
:102B1000089581E08093310308956F927F929F9290
:102B2000AF92BF92CF92DF92EF92FF920F931F93DB
:102B3000CF93DF93FB01A080B180B5016855714D43
:102B40006230710580F401FF23C000FD21C088E5DB
:102B5000A81681EDB80619F41092310319C081E06E
:102B60008093310315C030913103311145C007FD09
:102B700043C0A114B10409F43FC0702F7270602FDC
:102B800061700370C9F13BC09920B1F16111A9C016
:102B900081E090E0B9C0D8011696EC91EE2311F0D7
:102BA000C22F41E0AE14BF0411F4992493942F5F17
:102BB000E0913203F09133038F01B9E02B9F000DB8
:102BC000111D1124D801ED90FC901197612C712CEE
:102BD000E614F70401F71296CD90DC90139780E08D
:102BE00090E0C816D906B9F61496CD90DC901597EA
:102BF000CD2889F6411157C080E090E085C0522F62
:102C0000342F8F01772309F449C0611147C0D0E008
:102C1000C0E099249394A9E0DA9F50011124E09137
:102C20003203F0913303EA0DFB1D80819181C12CA9
:102C3000D12C8C159D0559F422813381E12CF12C86
:102C40002E153F0521F424813581232B21F1D80154
:102C50002D913C918217930749F4968280919101BE
:102C60009091920190878783C1E013C08681882369
:102C700039F022E84FEF6FEF808191810E94AB061F
:102C8000E0913203F0913303EA0DFB1D16821086AA
:102C90001782DF5FC0CF8C2F90E036C020E0C0E00D
:102CA000912C40E085CFB9E0CB9FE0011124EC0FDF
:102CB000FD1FA481B581109721F4A0911C01B09152
:102CC0001D01809191019091920107811085801BD7
:102CD000910BA817B90708F057CF168210861782F4
:102CE0008BCF711155CF22E8452F632F82819381BD
:102CF0000E94AB068091320390913303C80FD91F15
:102D00001E8218861F8244CFDF91CF911F910F91B1
:102D1000FF90EF90DF90CF90BF90AF909F907F900B
:102D20006F90089588E293E00C944015CF93DF9361
:102D300000D000D000D0CDB7DEB7DC0113967C9375
:102D40006E93129715965C934E93149716963C913A
:102D5000169739837B836A835D834C832E83ED9141
:102D6000FC910190F081E02D46E050E0BE016F5FE4
:102D70007F4F099526960FB6F894DEBF0FBECDBFE4
:102D8000DF91CF91089585E993E00E94861C87E347
:102D900093E00C94B919CF93C82F87E393E00E9476
:102DA00022196C2F811105C087E393E0CF910C9419
:102DB000531985E993E0CF910C94261CCF93C82F2B
:102DC00083FF04C081EE90E00E94CB16C0FF04C0D8
:102DD00080EE90E00E94CB16C1FF04C082EE90E02E
:102DE0000E94CB16C2FF04C086EE90E00E94CB1674
:102DF000C4FF04C083EE90E00E94CB16CF910895EB
:102E0000CF93DF93D82FC92F907C662399F08091C0
:102E10003403811102C010923603809136038C2B4B
:102E200080933603911104C080E28D0F883020F02A
:102E3000D0933403911108C080E28D0F883020F4C4
:102E40008C2F0E94DE1605C0809135038C2B809359
:102E500035038D2F9C2FDF91CF910C94CB16CF9300
:102E6000C82F87E393E00E9422196C2F811105C0BF
:102E700087E393E0CF910C947B1985E993E0CF91A0
:102E80000C944D1C87E393E00E94B2191092340316
:102E90001092350385E993E00E94761C87E793E062
:102EA0000C945D1BCF93DF93D82FC92F80913603ED
:102EB000892780933603892F807C21F480E28D0F4F
:102EC000883058F0809134038D1302C0109234037F
:102ED000809135038C2780933503C3FF04C081EEB6
:102EE00090E00E942F17C0FF04C080EE90E00E9487
:102EF0002F17C1FF04C082EE90E00E942F17C2FF7F
:102F000004C086EE90E00E942F17C4FF04C083EE39
:102F100090E00E942F178D2F9C2FDF91CF910C9462
:102F20002F17909135038091360389230E94DE1676
:102F300087E393E00E94221960913403811116C047
:102F4000662381F087E393E00E947B1987E393E097
:102F50000E9425196091340387E393E00E9453197E
:102F60001092340387E393E00C942519662381F0D3
:102F700085E993E00E944D1C85E993E00E94C61B01
:102F80006091340385E993E00E94261C109234037B
:102F900085E993E00E94C61B87E793E00C94701BC1
:102FA00087E793E00C94961BBC01737087E793E06E
:102FB0000C94481B8AEF93E00C944A1D682F8AEF0B
:102FC00093E00C944C1D8AEF93E00C94481D82EE24
:102FD00093E00C94E41C0F93022F242F462F682FAC
:102FE00082EE93E00E948C1C0F910895FF920F9344
:102FF0001F93CF93DF9300D000D01F92CDB7DEB7E1
:10300000F62E142F722F95E0E2EEF3E0DE0111961A
:1030100001900D929A95E1F79A813B815C810D8137
:10302000882311F060E001C0692FFF2011F040E01B
:1030300001C0432F112311F020E001C0252F711191
:1030400000E082EE93E00E948C1C0F900F900F9096
:103050000F900F90DF91CF911F910F91FF900895E6
:10306000682F82EE93E00C949A1C682F82EE93E016
:103070000C949F1C82EE93E00C94941C82EE93E0DF
:103080000C94B21CE3E0F4E0108A46855785648511
:10309000758520E08DE094E00C949616242FAB010A
:1030A000BC018DE094E00C949616FC0182818F5B4C
:1030B000FB01808381E00895CF93DF93CDB7DEB726
:1030C00069970FB6F894DEBF0FBECDBFFC01DB01E0
:1030D0009C919F5F9C93BE016F5F7F4F89E1DB01F5
:1030E0001D928A95E9F729E0298384E08A8391E09B
:1030F0009D8383E08E839F8398872A8721E22B8795
:103100009C879D879F8722E2288B2FE3298B27E0CE
:103110002B8B25E02C8B8E8B20E430E0388F2F8B8F
:10312000998F82818B83838180688D8B49E150E008
:1031300080E00E948D2369960FB6F894DEBF0FBE23
:10314000CDBFDF91CF910895FC01DB01828190E03A
:1031500014962D913C91159782179307E1F51196DE
:103160008C9111979C91913A61F4813091F1833067
:1031700011F4848D03C0823071F5858D8093F10048
:1031800028C0913241F58B3021F412968C91848FB6
:1031900020C08A3011F4158E1CC08930E1F4CF01B3
:1031A00016962D913C91179713964C91423039F415
:1031B0002130310581F461E070E04E9608C0413065
:1031C00051F42830310539F468E070E00B960E9424
:1031D000B42381E0089580E00895FC01DB018C9127
:1031E0008138B9F413968C911397823291F48281CD
:1031F00090E014962D913C9115972817390749F4C2
:103200008285848F4FE350E06CED72E080E80C948F
:103210008D2380E090E00895FC0181E08483858324
:103220009F01255E3F4F378326831186108626E453
:1032300031E0318320838287848F858F168E81ECE5
:10324000838F0895FC01848D0895EF92FF920F9370
:103250001F93CF93DF938C01EC012B967C0183E1CC
:10326000E80EF11C48E050E0BE01C7010E94A12712
:10327000892B81F0F801838148E050E0BE01806431
:103280000E94DE2228E0FE01D70101900D922A95CE
:10329000E1F702C08FEF9FEFDF91CF911F910F9168
:1032A000FF90EF90089520E2260F283058F441E077
:1032B00050E001C0440F2A95EAF7FC012385422B18
:1032C000438716C0FC013D9620E030E04191641731
:1032D00079F0411105C0FC01E20FF31F658708C0BA
:1032E0002F5F3F4F2630310589F780E090E0089549
:1032F00081E090E0089520E2260F283068F4622FE4
:1033000021E030E001C0220F6A95EAF72095FC0128
:1033100033852323238723C0FC01AC014A5F5F4F21
:10332000DC011D962C911D97621303C01D961C9203
:103330001D9711964A175B07A1F720E035853323C7
:1033400051F0DC01A20FB11D1D966C911D971D96C9
:103350003C9365872F5F3196E417F50779F781E095
:1033600090E008950B9628E0FC0111922A95E9F768
:103370000895CF93DF93EC010E941020BE010E94BC
:10338000C91FCE010E94B219CE01DF91CF910C94DA
:10339000251987E393E00C940C19FB018BE68083DD
:1033A00082E6818389E682838FE6838380E3848358
:1033B00081E3858386E00895CF93DF93CDB7DEB7B1
:1033C00069970FB6F894DEBF0FBECDBFFC01DB01DD
:1033D0008C918F5F8C93BE016F5F7F4F89E1DB0122
:1033E0001D928A95E9F729E0298384E08A8391E098
:1033F0009D8383E08E832A8721E22B879C879D878C
:103400009F8722E2288B27E02B8B25E02C8B8E8B4D
:1034100020E430E0388F2F8B998F82818B839585C4
:103420008685998B8A8B838180688D8B49E150E0FA
:1034300080E00E948D2369960FB6F894DEBF0FBE20
:10344000CDBFDF91CF910895CF93DF93FC01DB01D6
:10345000828190E014962D913C91159782179307E5
:10346000A9F511969C9111978C91813A31F481E0E4
:10347000913069F1933051F52AC0813239F59B3092
:1034800021F412968C91878705C09A3029F4129600
:103490008C91808B81E01BC09930C1F4EF011696AE
:1034A0008D919C9117978230910539F462E070E01C
:1034B000CF0141960E94B42309C0019739F461E01D
:1034C00070E0CF0142960E94B423198A80E0DF9118
:1034D000CF910895EF92FF920F931F93CF93DF93B5
:1034E000FB012081213851F52381223239F5DC019D
:1034F00012962C9130E04481558142175307F1F424
:10350000EC010B851C85E12CF12C0115110591F0C6
:10351000F801448155816281738180E80E948D2386
:103520008F3FFFEF9F0769F0E80EF91ED8010D915C
:103530001C91EBCF81E08F87C70105C080E090E050
:1035400002C08FEF9FEFDF91CF911F910F91FF90FE
:10355000EF900895FC01A385B485109719F4748742
:10356000638709C08D919C911197009711F0DC0140
:10357000F9CF6D937C9325853685DB0114968D916B
:103580009C911597820F931F968785870895AF9218
:10359000BF92CF92DF92EF92FF920F931F93CF9340
:1035A000DF931F92CDB7DEB77C0169836A015901B1
:1035B00041E050E0BE016F5F7F4FFC0183810E94BC
:1035C000DE228C0197FD0BC0F7018381A501B601B6
:1035D00080640E94DE2297FD02C0800F911F0F9031
:1035E000DF91CF911F910F91FF90EF90DF90CF90DF
:1035F000BF90AF900895CF93DF93EC0181E08C836F
:103600008D839E01265F3F4F3F832E831986188648
:1036100022E531E0398328831C861B861E861D86A1
:103620008F87888B198A1A8A81EC8A870E941020DA
:10363000BE01DF91CF910C94C91F80916903811164
:1036400007C086E593E00E94FB1A81E0809369033E
:1036500086E593E0089580918703811113C010924D
:103660007203109271038BE193E090937403809343
:10367000730389E190E0909376038093750381E072
:10368000809387030E941D1B61E773E00C94AA1AC4
:10369000DC0120E030E04D915D91452B41F4220F9B
:1036A000331FFC01E20FF31F7183608308952F5FC6
:1036B0003F4F2430310579F7089528E0FC0111923D
:1036C0002A95E9F70895CF93DF93EC010E941D1B23
:1036D00028E030E0AE0164E0DF91CF910C94C71A8E
:1036E0000F931F93CF93DF93EC018C01085F1F4F63
:1036F00048E050E0BC01C8010E94A127892B51F08D
:10370000CE010E94631B88E0FE01D80101900D925A
:103710008A95E1F7DF91CF911F910F91089528E0ED
:10372000FC0111922A95E9F70C94701B0C948F1BE5
:1037300087E793E00C942B1B8091CF03811113C07A
:103740001092900310928F0384E393E0909392037E
:103750008093910381E490E090939403809393038A
:1037600081E08093CF030E941D1B6FE873E00C94EF
:10377000AA1ACF93DF93EC010E941D1B2DE130E0CC
:10378000AE0168E0DF91CF910C94C71AEF92FF92DF
:103790000F931F93CF93DF93EC017C018DE1E80E33
:1037A000F11C4DE150E0BE01C7010E94A127892B09
:1037B00009F443C00D8D1881802F80958123B1F0CD
:1037C0004CE150E0BE016F5F7F4FCE014E960E94EC
:1037D000A127892B59F01D8F0E941D1B2DE130E080
:1037E000A70168E00E94C71A0D8F19C0812F80952C
:1037F0008023A9F04CE150E0BE016F5F7F4FCE0106
:103800004E960E94A127892B51F008830E941D1B10
:103810002DE130E0AE0168E00E94C71A1883CE01A6
:103820000E94B91B1816190654F42DE1FE01D701A8
:1038300001900D922A95E1F702C08FEF9FEFDF9183
:10384000CF911F910F91FF90EF9008956E3D90F4EE
:10385000262F269526952695FC01E20FF11D67700F
:1038600081E090E001C0880F6A95EAF79181892B89
:1038700081830DC0605E683068F421E030E001C0F3
:10388000220F6A95EAF7FC013081232B208381E027
:1038900090E0089580E090E008956E3D98F4262F22
:1038A000269526952695FC01E20FF11D677081E0B3
:1038B00090E001C0880F6A95EAF78095918189238D
:1038C00081830EC0605E683070F421E030E001C09A
:1038D000220F6A95EAF72095FC013081232320838B
:1038E00081E090E0089580E090E008952DE1FC01F2
:1038F00011922A95E9F70895CF93DF93EC010E9486
:10390000761CCE01DF91CF910C94B91B0C947C1CDA
:1039100085E993E00C949C1B0F93FC016183428327
:10392000238304830F91089525E0FC0111922A95C9
:10393000E9F70895FC012081622B6083089560956A
:10394000FC012081622360830895CF93DF93EC0113
:103950000E941D1B25E030E0AE0161E0DF91CF91B8
:103960000C94C71A0F931F93CF93DF93EC018C0134
:103970000B5F1F4F45E050E0BC01C8010E94A1272A
:10398000892B49F445E050E067ED73E0CE010E94D9
:10399000A127892B51F0CE010E94A51C85E0FE01D4
:1039A000D80101900D928A95E1F7DF91CF911F9197
:1039B0000F910895CF93DF93EC010E94941CCE01E8
:1039C000DF91CF910C94B21CCF93DF93EC018091E7
:1039D000EC03811113C01092DD031092DC0385E724
:1039E00093E09093DF038093DE038AE390E090936B
:1039F000E1038093E00381E08093EC030E941D1BB0
:103A00006CED73E00E94AA1ACE01DF91CF910C9465
:103A1000DA1C8091FB03811113C01092F503109200
:103A2000F4038FEA93E09093F7038093F60388E121
:103A300090E09093F9038093F80381E08093FB0377
:103A40000E941D1B64EF73E00C94AA1A0F931F933E
:103A5000CF93DF93EB018A010E941D1B9801AE01F9
:103A600065E0DF91CF911F910F910C94C71ACF930E
:103A7000DF931F92CDB7DEB7198241E050E0BE015F
:103A80006F5F7F4F0E94261D0F90DF91CF910895A9
:103A90000C94371D0C94371DCF93DF931F92CDB735
:103AA000DEB76983633829F484E794E00E94D62561
:103AB00007C041E050E0BE016F5F7F4F0E94261DAE
:103AC0000F90DF91CF9108958AEF93E00C94091D38
:103AD000CF93DF93CDB7DEB769970FB6F894DEBF0B
:103AE0000FBECDBFFC01DB019C919F5F9C93BE018B
:103AF0006F5F7F4F89E1DB011D928A95E9F729E02D
:103B0000298384E08A8391E09D8383E08E832A87E2
:103B100021E22B879C879D879F8722E2288B25E3C4
:103B2000298B27E02B8B25E02C8B8E8B20E430E03B
:103B3000388F2F8B998F82818B83838180688D8BC7
:103B400049E150E080E00E948D2369960FB6F89419
:103B5000DEBF0FBECDBFDF91CF910895FC01838101
:103B600080640C94DE220A970C94AE1DFB01208128
:103B70002138B9F423812232A1F4DC0112962C9170
:103B8000129730E0448155814217530751F421E0E8
:103B900052962C9345E350E067EC73E080E80C9478
:103BA0008D2380E090E00895DC01FB0112968C915A
:103BB000129790E02481358182179307D1F4918187
:103BC0008081813A31F481E0913091F0933089F431
:103BD00011C0813271F49B3021F4828152968C9312
:103BE00005C09A3031F4828153968C9381E0089518
:103BF000089580E00895CF93DF93EC0181E08C83FA
:103C00008D839E012F5E3F4F3F832E83198618863A
:103C10001D861C861F861E86188A2EE531E0398394
:103C200028832CE631E03B872A878A8B8B8B81ECBB
:103C3000898B0E941020BE01DF91CF910C94C91F87
:103C400083E094E00C94FB1DCF93DF931F92CDB7DC
:103C5000DEB76983DC01ED91FC910280F381E02DF8
:103C600041E050E0BE016F5F7F4F09950F90DF91FB
:103C7000CF910895CF93DF93EC018C859D8597FFBD
:103C800005C082E00E94AD229D878C878C859D8532
:103C9000DF91CF91089583E00E94C42290E00895BF
:103CA00083E00C944125FC018485958597FD06C031
:103CB00082E00E94592290E00196089582E00E94DD
:103CC000592290E00895FC018485958597FD05C0F3
:103CD0002FEF3FEF35872487089582E00C94AD22C3
:103CE000CF93DF93EC0180912901882331F083E0A9
:103CF0000E94DE221816190634F081E090E09B83C2
:103D00008A8380E090E0DF91CF910895EEEFFFE7A6
:103D10002591349181E02B3F3C4D09F080E00895DE
:103D2000FC0190819E5F908342E450E06CEF73E071
:103D300080E80C948D23FC0181819081913A59F4A3
:103D4000813209F065C047E050E062E271E080E056
:103D50000E948D235BC0913209F05AC0833269F40E
:103D600082819381A0E0B0E080931E0190931F01B7
:103D7000A0932001B093210149C0803239F467E05B
:103D800070E082E291E00E94B42340C0823209F0E8
:103D90003DC08281809329010E94861E882319F0EC
:103DA000EEEFFAE002C0E0E0F8E0809122019091AD
:103DB0002301A0912401B0912501803B9440A105ED
:103DC000B10541F58091290180FD24C0EE3F8AE0D4
:103DD000F80751F080819181873727E7920721F01A
:103DE0009093FF0A8093FE0A87E797E79183808389
:103DF00080916000809367049BE088E10FB6F8949F
:103E0000A895809360000FBE9093600081E00895B4
:103E100080E008958081918187379747B9F7A89509
:103E20008091600088618093600080916704809336
:103E30006000EE3F8AE0F80739F08091FE0A909129
:103E4000FF0A91838083E2CF1092FF0A1092FE0A4C
:103E5000DDCF2FEF3FEFFC01358724870895E7E1A1
:103E6000F4E01382128288EE93E0A0E0B0E0848355
:103E70009583A683B78382E791E0918380838FEF58
:103E80009FEF958784870895EF92FF920F931F937A
:103E9000CF93DF937B01FC01C281D38100E010E06E
:103EA000209781F0E881F9810280F381E02DB7014C
:103EB000CE01099597FD08C0080F191F0884D98500
:103EC000C02DEECFC80102C08FEF9FEFDF91CF91E1
:103ED0001F910F91FF90EF9008950F931F93CF9331
:103EE000DF938B01FC01C281D381209771F0E881BF
:103EF000F9810480F581E02DB801CE010995009784
:103F000031F40884D985C02DF0CF80E090E0DF91B6
:103F1000CF911F910F9108950F931F93CF93DF932C
:103F20008B01FC01C281D381209771F0E881F98176
:103F30000680F781E02DB801CE010995080F111D0B
:103F40000884D985C02DF0CFF8011082DF91CF9180
:103F50001F910F9108950F931F93CF93DF938B01C0
:103F6000FC01C281D381209771F0E881F981019031
:103F7000F081E02DB801CE010995811105C00884BA
:103F8000D985C02DF0CF80E0DF91CF911F910F91A7
:103F90000895CF93DF93FC01DB01218114968C916E
:103FA000149790E0820F911D0897A4F5C281D381E8
:103FB000209719F47383628308C0888599850097D8
:103FC00011F0EC01FACFB987A887808112968C9303
:103FD0001297818113968C931397908115968C91EB
:103FE0001597890F808380E014969C911497891708
:103FF00098F41696CD91DC911797C80FD11D988132
:10400000C181D0E0C65DDE4F988391819F5F91832F
:104010008F5FEACF80E001C081E0DF91CF9108950A
:1040200080916C0481110DC082E08093680484E06B
:104030008093690410926B0410926A0481E080936B
:104040006C0488E694E008956115710579F0FB0130
:1040500001900020E9F73197AF01461B570BDC01B7
:10406000ED91FC910280F381E02D099480E090E0D5
:104070000895EF92FF920F931F93CF93DF938C01DC
:104080007B01C0E0D0E0F701EC0FFD1F64916623D7
:1040900061F0D801ED91FC910190F081E02DC80113
:1040A0000995892B11F02196EECFCE01DF91CF91AA
:1040B0001F910F91FF90EF900895DC01ED91FC911D
:1040C0000190F081E02D099460E871E00C942420C7
:1040D0000F931F93CF93DF93EC010E9439208C0143
:1040E000CE010E946420800F911FDF91CF911F911C
:1040F0000F9108958F929F92AF92BF92EF92FF928D
:104100000F931F93CF93DF93CDB7DEB7A1970FB671
:10411000F894DEBF0FBECDBF7C01FA01CB0119A21E
:10412000223008F42AE08E010F5D1F4F822E912C61
:10413000A12CB12CBF01A50194010E944827F901CF
:10414000CA01015011096A3014F4605D01C0695C54
:10415000D8016C93232B242B252B61F7B801C701C1
:104160000E942420A1960FB6F894DEBF0FBECDBFEB
:10417000DF91CF911F910F91FF90EF90BF90AF9083
:104180009F908F9008952115310541F4DC01ED9148
:10419000FC910190F081E02D642F09940C947A2019
:1041A0009A01462F50E060E070E00C94C3209A0121
:1041B000AB0160E070E00C94C3200F931F93CF938A
:1041C000DF93EC010E945026688779878A879B8756
:1041D000E881F9810484F585E02DCE01099597FFEA
:1041E00017C00E945026088519852A853B85DC0169
:1041F000CB01801B910BA20BB30B0C811D812E8177
:104200003F8180179107A207B30710F38FEF9FEF4D
:10421000DF91CF911F910F910895FF920F931F93FC
:10422000CF93DF93EC018B01F42ECE010E94DD20B1
:1042300097FD2DC08D32910519F19C012053310954
:104240002A30310520F1FF2019F08E329105D1F08E
:1042500001301105D1F00230110551F48D30910576
:1042600039F024F40997029718F00FC0809769F489
:10427000E881F9810284F385E02DCE010995D5CF3F
:104280008DE201C08EE290E002C08FEF9FEFDF91E0
:10429000CF911F910F91FF900895BF92CF92DF921F
:1042A000EF92FF920F931F93CF93DF938C01C42F54
:1042B00040E00E940D21FC0197FD47C0C12CD12C8C
:1042C0007601B12C0C2E000CDD0BEC17FD0709F16B
:1042D000ED32F105E1F0CF01C0970A97D0F4AAE0E2
:1042E000B0E0A70196010E9470276F01FF0FEE0852
:1042F000FF08DC01CB018C0D9D1DAE1DBF1D6C01A7
:104300007D0120E3C21AD108E108F10802C0BB24F4
:10431000B394D801ED91FC910284F385E02DC8019E
:104320000995C8010E94DD20FC01C0970A9768F238
:10433000CE17DF0751F2BB2061F066277727CB014C
:104340006C197D098E099F0906C060E070E0CB0101
:1043500002C0C701B601DF91CF911F910F91FF906D
:10436000EF90DF90CF90BF900895409177045091E7
:104370007804209175043091760442175307B4F401
:104380009091E8009570E1F39091E80092FD19C0DA
:104390008093F100809177049091780401968F7357
:1043A0009927892B19F48EEF8093E8008091770488
:1043B000909178040196909378048093770481E03B
:1043C000089580E00895DF92EF92FF920F931F937C
:1043D000CF93DF93D82EF92EE42E062F10E0C801DC
:1043E0000196880F0E94B52183E00E94B521CD2D52
:1043F000DF2D0C0F1D1FC017D10789F0E7FE03C08A
:10440000FE01849101C088810E94B521F82E80E0D0
:104410000E94B5218F2121968111EDCF01C081E04D
:10442000DF91CF911F910F91FF90EF90DF90089552
:104430008091D70081608093D70080EA8093D80074
:1044400089B5806189BD89B5826089BD09B400FEE6
:10445000FDCF61E070E080E090E00E9481268091D5
:10446000D8008F7C80618093D8008091E000807FAD
:104470008093E0000895CF93DF931F92CDB7DEB70E
:104480001982CE0101960E94901E0E941020BE014A
:104490006F5F7F4F0E94441F89810F90DF91CF9102
:1044A00008952FB7FC012083F89467706093E900AA
:1044B0000895CF93DF931F92CDB7DEB7682FCE015B
:1044C00001960E9451228091F20099819FBF0F9026
:1044D000DF91CF910895EF92FF920F931F93CF93A7
:1044E000DF931F92CDB7DEB790917B04992311F033
:1044F00057FF03C08FEF9FEF28C08A017B01682F11
:10450000CE0101960E9451222091F20030E0021764
:1045100013070CF49801822FF70194E6815030F0D4
:1045200090937C044091F1004193F8CF211531051F
:1045300021F08091F200882321F089818FBFC90189
:1045400004C08BE68093E800F8CF0F90DF91CF9105
:104550001F910F91FF90EF900895CF93DF931F92DB
:10456000CDB7DEB741E050E0BE016F5F7F4F0E94E4
:104570006B22019719F4898190E002C08FEF9FEFC1
:104580000F90DF91CF910895CF93DF931F92CDB716
:10459000DEB7682FCE0101960E9451229091E8006B
:1045A000892F807295FF04C09091F20080E4891BEE
:1045B00099819FBF0F90DF91CF9108955F926F9285
:1045C0007F928F929F92AF92BF92CF92DF92EF92A3
:1045D000FF920F931F93CF93DF931F92CDB7DEB758
:1045E000982E6B01B42E052F80917B04811103C09E
:1045F0008FEF9FEF76C08091790480FF05C0809196
:10460000E00082608093E000EB2CF02EA12C8AEF7A
:10461000882E892D8072682E892D8074582E9AE3F9
:10462000792EE114F10419F4AA2009F455C0892D5A
:104630000E94C422182F81110AC08A948820C1F2D6
:1046400061E070E080E090E00E948126EACF90E097
:10465000E816F9060CF41E2D692DCE0101960E9474
:1046600051228091E80085FF34C0812F90E0E81A44
:10467000F90A662029F01150A0F01092F100FBCF4A
:10468000F60197FE0AC0115050F024912093F100DA
:104690003196F9CF21912093F1001150D8F7C80E2F
:1046A000D91EAA2019F07092E8000BC08091E80092
:1046B00085FD09C07092E800AA24A394E114F104D6
:1046C00041F0A12C06C0E114F10419F451107092CC
:1046D000E80089818FBFA5CF84E680937D048B2D70
:1046E000902F0F90DF91CF911F910F91FF90EF903E
:1046F000DF90CF90BF90AF909F908F907F906F9002
:104700005F9008951092E900109278041092770457
:1047100090937604809375040895DF92EF92FF9250
:104720000F931F93CF93DF93D82E8A017B01E40E62
:10473000F51EEB01CE15DF0571F0D7FE03C0FE01BB
:10474000849101C088810E94B52121968111F2CF08
:104750008FEF9FEF01C0C801DF91CF911F910F91A3
:10476000FF90EF90DF900895CF93DF93EC019B01D2
:10477000B4E6ABEF21153105F1F0A9012134310583
:1047800014F040E450E08091E80082FFFCCF942FC9
:10479000FB01E21BF30BEC0FFD1F915028F0809101
:1047A000F10080833196F9CFB0937C04A093E800A8
:1047B000241B350BDFCFCB01DF91CF9108951F92E2
:1047C0000F920FB60F921124CF92DF92EF92FF92C9
:1047D0000F931F932F933F934F935F936F937F9309
:1047E0008F939F93AF93BF93EF93FF93CF93DF93F9
:1047F000CDB7DEB76C97DEBFCDBF1092E9008091D8
:10480000E80083FF1FC189E0FE017596FE2E0F2F81
:10481000815029F09091F10090833196F9CF84E690
:1048200080937C0482EF8093E8008D8987FF05C028
:104830009091E80090FFFCCF03C09EEF9093E800BA
:10484000982F907609F0D7C09E894F89588D2F896F
:10485000188D91110CC0803829F480917A048093CE
:10486000F10002C01092F1001092F100E4C091300A
:1048700051F48111E0C04130510509F0DCC0809154
:104880007A048D7F0BC0933061F48111D4C0413024
:10489000510509F0D0C080917A04826080937A0437
:1048A000CAC0953049F48091E80080FFFCCF822F88
:1048B00080688093E300BFC0963009F06FC0CB8C56
:1048C000DC8C123069F580E090E00E9482230E9427
:1048D0003B2299E09E012F5F3F4F7901F901292F7B
:1048E00011922A95E9F799831A8391E09E8390EAC1
:1048F00098879AEF99872091770430917804275F01
:104900003F4F3C832B838D83C6010E94822349E065
:1049100050E0B70180E00E948D230E943B228BC0B3
:10492000C6010E9482230E9410206F2D702F0E94CA
:104930006D1F009719F00CF07EC081C0113009F492
:104940006FC0133009F07BC08F89882309F46BC0D6
:10495000823029F440E866E08CE594E006C08130BE
:1049600039F440E86BE080E594E00E94E32155C013
:10497000833009F064C00E9410208E010F5F1F4F2A
:10498000B8010E948C1FF80101900020E9F73197CF
:10499000BF01601B710B40E0C801E7CF973009F4FD
:1049A0004EC0983021F481E08093F10044C09930EA
:1049B00009F041C0837009F042C0EBE2F1E081E010
:1049C00031E096E32081211109C08EE78093EA004F
:1049D0001092EA008F8980937B042DC08093E900B8
:1049E0003093EB0021912093EC009093ED008F5FCA
:1049F000873041F7EACF8B8D9C8D0E948223898D71
:104A0000811105C08F2D902F0E949B1E06C00E9411
:104A100010206F2D702F0E94AB1F882381F00BC0D8
:104A20006EE374E002C063E674E0FB01449150E081
:104A300080E80E948D238EEF8093E80003C081E21E
:104A40008093EB006C960FB6F894DEBF0FBECDBF1F
:104A5000DF91CF91FF91EF91BF91AF919F918F9196
:104A60007F916F915F914F913F912F911F910F9186
:104A7000FF90EF90DF90CF900F900FBE0F901F90A0
:104A800018958093E9008091F200882319F08AE359
:104A90008093E80008951F920F920FB60F92112491
:104AA0002F933F934F935F936F937F938F939F9336
:104AB000AF93BF93CF93EF93FF93C091E1008091A9
:104AC000E100837F8093E100C3FF0FC01092E900F3
:104AD00081E08093EB001092EC0082E38093ED0084
:104AE00010927B0488E08093F000C2FF15C083E041
:104AF0000E94412580917D04882329F080917D04C6
:104B0000815080937D0480917C04882329F08091DA
:104B10007C04815080937C04C4FF10C08091E2002B
:104B20008E7E81608093E2008091E1008F7E809391
:104B3000E100809179048E7E806111C0C0FF11C0B8
:104B40008091E2008E7E80618093E2008091E1009E
:104B50008E7E8093E100809179048E7E81608093C7
:104B60007904FF91EF91CF91BF91AF919F918F9178
:104B70007F916F915F914F913F912F910F900FBE59
:104B80000F901F90189510927B0410927A04109247
:104B900079040E941822E1EEF0E080818E7E80830D
:104BA0008DE08093E200559A209A08958091E0006C
:104BB0008D7F8093E0008091E00081FD08C08091AE
:104BC000790480FF04C080917A0481FD02C080E0F6
:104BD00008950E9418228091E00082608093E00096
:104BE00081E0089508950E94BD260E94F22584E781
:104BF00094E00E94C3250E942003C0E0D0E00E9400
:104C000029032097E1F30E940000F9CF1F920F9231
:104C10000FB60F9211242F933F938F939F93AF93CF
:104C2000BF9380917F0490918004A0918104B09102
:104C3000820430917E0423E0230F2D3720F4019667
:104C4000A11DB11D05C026E8230F0296A11DB11DAF
:104C500020937E0480937F0490938004A09381042A
:104C6000B09382048091830490918404A091850480
:104C7000B09186040196A11DB11D80938304909389
:104C80008404A0938504B0938604BF91AF919F9153
:104C90008F913F912F910F900FBE0F901F901895FD
:104CA0002FB7F89460917F04709180048091810403
:104CB000909182042FBF08953FB7F89480918304A8
:104CC00090918404A0918504B091860426B5A89B98
:104CD00005C02F3F19F00196A11DB11D3FBFBA2F8E
:104CE000A92F982F8827820F911DA11DB11DBC01EE
:104CF000CD0142E0660F771F881F991F4A95D1F7B3
:104D000008958F929F92AF92BF92CF92DF92EF92CF
:104D1000FF926B017C010E945C264B015C01C11477
:104D2000D104E104F10401F10E9413270E945C26E2
:104D3000DC01CB0188199909AA09BB09883E934077
:104D4000A105B10560F321E0C21AD108E108F1081C
:104D500088EE880E83E0981EA11CB11CC114D104FA
:104D6000E104F10419F7DBCFFF90EF90DF90CF90D3
:104D7000BF90AF909F908F900895789484B5826093
:104D800084BD84B5816084BD85B5826085BD85B5EF
:104D9000816085BDEEE6F0E0808181608083E1E89E
:104DA000F0E01082808182608083808181608083D6
:104DB000E0E8F0E0808181608083E1E9F0E08081DB
:104DC00082608083808181608083E0E9F0E080817F
:104DD00081608083E1ECF0E0808184608083808169
:104DE00082608083808181608083E3ECF0E0808159
:104DF00081608083E0ECF0E0808182608083E2EC7F
:104E0000F0E0808181608083EAE7F0E08081846067
:104E100080838081826080838081816080838081C3
:104E20008068808308950895991B79E004C0991FD4
:104E3000961708F0961B881F7A95C9F780950895F4
:104E4000AA1BBB1B51E107C0AA1FBB1FA617B707B0
:104E500010F0A61BB70B881F991F5A95A9F78095CC
:104E60009095BC01CD01089597FB072E16F4009490
:104E700007D077FD09D00E94202707FC05D03EF41B
:104E8000909581959F4F0895709561957F4F0895F6
:104E9000A1E21A2EAA1BBB1BFD010DC0AA1FBB1F3E
:104EA000EE1FFF1FA217B307E407F50720F0A21BB0
:104EB000B30BE40BF50B661F771F881F991F1A941D
:104EC00069F760957095809590959B01AC01BD0147
:104ED000CF010895EE0FFF1F0590F491E02D099486
:104EE0000E947B27A59F900DB49F900DA49F800DDD
:104EF000911D11240895A29FB001B39FC001A39FEB
:104F0000700D811D1124911DB29F700D811D112402
:104F1000911D0895FB01DC018D9105908019011010
:104F2000D9F3990B0895FB01DC014150504030F05A
:104F30008D910590801919F40020B9F7881B990B01
:104F40000895FB01DC0104C08D910190801921F4CA
:104F500041505040C8F7881B990B0895F999FECF2E
:104F600092BD81BDF89A992780B50895262FF999A9
:104F7000FECF1FBA92BD81BD20BD0FB6F894FA9A3C
:0C4F8000F99A0FBE01960895F894FFCF37
:104F8C0003035A0704003200014000010100011024
:104F9C007F02FFFFFA00C409FFFA0001E803FFFFDC
:104FAC00FFFF00E100000000000000C18081000054
:104FBC0000960197663534C69436F6F7963790917D
:104FCC00939200000000A4185C18ED18551800000E
:104FDC000000241ADC196A1ACD1900000000D41D37
:104FEC00681DB61D5518AE1DF6FF0000B31D000060
:104FFC000000241E701E4B1E501E531E631E3A1EB4
:10500C000D0A006E616E00696E66006F76660000B8
:00000001FF
