:100000000C94D2020C94FA020C94FA020C94FA02A8
:100010000C94FA020C94FA020C94FA020C94FA0270
:100020000C94FA020C94FA020C9457250C94EB23CE
:100030000C94FA020C94FA020C94FA020C94FA0250
:100040000C94FA020C94FA020C94FA020C94FA0240
:100050000C9450070C94FA020C94FA020C94122699
:100060000C94FA020C94FA020C94FA020C94FA0220
:100070000C94FA020C94FA020C94FA020C94FA0210
:100080000C94FA020C94FA020C94FA020C94FA0200
:100090000C94FA020C94FA020C94FA020C94FA02F0
:1000A0000C94FA020C94FA020C94FA02290014003F
:1000B0001A000800150017001C0018000C001200A0
:1000C00013002A00E20004001600070009000A00DD
:1000D0000B000D000E000F0033002800E1001D0092
:1000E0001B00060019000500110010003600370043
:1000F0003800E30000000000000000002C442B4406
:100100002C00E000000000000000000035001E0090
:100110001F002000210022002300240025002600CB
:1001200027000000E200B758B658CD58B558E95C32
:100130000000000000002F0030003400E1001D012D
:100140001B01E0011901EA5CE24C000000002D00F7
:100150002E00E30000000000000000002D44FFFF1F
:100160004C00E000000000000000000005443A00E0
:100170003B003C003D000000650046004700480091
:1001800000000000E2003E003F004000410000008F
:10019000000049004A004B0000000000E10042005E
:1001A000430044004500000000004C004D004E009C
:1001B0003100E3000000000000000000FFFF2D44BC
:1001C0002B00E000000000000000000004440000DC
:1001D000000000000000470054005F006000610064
:1001E0002D000000E2004A0052004D004B00390093
:1001F00055005C005D005E0057002800E1005000E3
:1002000051004F004E000000620059005A005B0090
:100210000000E3000000000000000000FFFFFFFFFF
:100220000000E00000000000000000002ED12FD1EF
:1002300030D131D132D133D150D151D152D153D12A
:1002400054D155D15CD134D136D138D13AD13ED107
:1002500043D147D149D14BD14DD14FD15DD135D1CA
:1002600037D139D13BD13FD144D148D14AD14CD1FA
:100270004ED156D100000000000000003CD13DD11D
:1002800045D146D100000000000000001E001E0005
:100290001E001E001E001E001E001E001E001E006E
:1002A0001E001E005CD114001A0008001500170083
:1002B0001C0018000C00120013002F005DD1040078
:1002C0001600070009000A000B000D000E000F00C9
:1002D0003300340000000000000000000600190098
:1002E000110010000000000000000000637573742E
:1002F0006F6D0064656661756C74006F6E6C794338
:100300007573746F6D006B65796D61702E006B6530
:10031000796D61702E637573746F6D0A6B65796D9D
:1003200061702E64656661756C740A6B65796D61C8
:10033000702E6F6E6C79437573746F6D00656570A8
:10034000726F6D2E6672656500656570726F6D2ED9
:10035000636F6E74656E747300656570726F6D2E79
:10036000636F6E74656E74730A656570726F6D2E5F
:1003700066726565002F006372630076657273694B
:100380006F6E0076616C69643F0064656661756CD0
:10039000744C617965720073657474696E67732E4D
:1003A0000073657474696E67732E64656661756C3D
:1003B000744C617965720A73657474696E67732E23
:1003C00076616C69643F0A73657474696E67732E35
:1003D00076657273696F6E0A73657474696E67739C
:1003E0002E6372630066616C7365007472756500DC
:1003F00068656C700068656C70000D0A2E00050160
:100400000906A101050719E029E715002501750175
:10041000950881029501750881019505750105080A
:100420001901290591029501750391019506750839
:10043000150025FF0507190029FF8100C0050C09DB
:1004400001A1018504150026FF0319002AFF039569
:100450000475108100C005010906A1018508050782
:1004600019E029E7150025017501950881020508A5
:100470001901290895087501910205077504950170
:100480008101190429DD15002501750195D9810225
:10049000750395018101C005010902A101850105CE
:1004A0000919012908150025019508750181020522
:1004B000010930093109381581257F7508950381B7
:1004C00006050C0A38021581257F750895018106FD
:1004D000C005010980A1018505150026FF0019004E
:1004E00029FF950175088100C005010902A10105D8
:1004F00009190129081500250195087501810205D2
:10050000010930093116000026FF7F751095028120
:100510000209381581257F750895018106C0080BF1
:1005200000020202010009040000010202000005AD
:1005300024001001052401010104240206052406FB
:1005400000010705810310004009040100020A00B0
:10055000000007050202400000070583024000007A
:1005600012010002EF020140EDFE60600001010295
:100570000301534F46542F485255460053706C693F
:10058000746F6772617068790004030904000704DE
:100590005F07380DA5129E16D519A41B941C701D5B
:1005A0002C1E3B1F11241FBECFEFDAE0DEBFCDBFF4
:1005B00011E0A0E0B1E0E4EAFFE402C005900D9292
:1005C000AE38B107D9F724E0AEE8B1E001C01D9222
:1005D000A238B207E1F712E0C2EDD2E004C02197E1
:1005E000FE010E948127C73CD107C9F70E94FF2561
:1005F0000C94D0270C9400008AE792E00E94440BF0
:1006000083E792E00E94EC098CEA92E00E94560F88
:1006100087EE92E00C943C158AE792E00E940D0C64
:1006200080E090E00895CF93DF93EC01BC0183E874
:1006300092E00E94520D019719F481E090E01AC0F7
:10064000BE0183E792E00E94760A0197B1F3BE01F2
:1006500088E792E00E948F0C019779F3BE0189E749
:1006600092E00E94160C31E020E0019709F030E0A2
:10067000832F922FDF91CF91089580E090E008952D
:1006800083E892E00E94760D80EC92E00E940611D1
:100690008CEA92E00E94540E87EE92E00C940015D2
:1006A00080EC92E00E941E118CEA92E00E944B0EB8
:1006B00080E090E008958FE891E00E940A0486E0CF
:1006C0000E94040A0C9495158FE891E00C94310473
:1006D000AF92BF92CF92DF92EF92FF920F93CF93A0
:1006E000DF93EC017B016A015901F9010081FA01F4
:1006F0002081FB014081BC0184EA92E00E94C40D8C
:100700000197C9F1F5010081888199819C012C55DF
:10071000314D2230310520F524EA280F01FF11C0A8
:1007200081E090E001C0880F2A95EAF790918E0150
:10073000892B80938E018330F1F480E00E943F0981
:100740001AC000FF18C081E090E001C0880F2A9510
:10075000EAF7809590918E01892380938E010BC0DA
:10076000F6012081F7014081BE0180EC92E00E94F9
:10077000A111019719F481E090E025C0F5010081F5
:10078000F6012081F7014081BE0183E293E00E94DF
:100790009915019781F3F5010081F6012081F70198
:1007A0004081BE018CEA92E00E94B30E019719F3DA
:1007B000F5010081F6012081F7014081BE0187EE3D
:1007C00092E00E948314DF91CF910F91FF90EF9000
:1007D000DF90CF90BF90AF900895CF93DF9300D07C
:1007E0001F92CDB7DEB769834A832B839E012D5FAD
:1007F0003F4FAE014E5F5F4FBE016F5F7F4F0E9464
:1008000068030F900F900F90DF91CF910895109291
:100810008E010895CF93DF9340E855E260E070E0E9
:1008200082E194E00E94351F0E94FC0285E991E07C
:100830000E9449040E94CF160E94DC170E94E6170E
:100840000E948708C0E0D0E06D2F8C2F0E942808FE
:10085000DF5FDC30C9F7CF5FC430A9F7DF91CF91FC
:1008600008950E945C26609390017093910180939B
:100870009201909393010E940C0385E991E00E94FC
:1008800042070E9440030E949D170E944E170C943D
:100890005003CF93DF930FB6F894A8958091600032
:1008A000886180936000109260000FBEA1E3B1E008
:1008B0004DE351E061E070E08D91E82FF0E024E03D
:1008C000F595E7952A95E1F721A18F70EB0102C01C
:1008D000CC0FDD1F8A95E2F7CE019C2F90959223D5
:1008E00091A392A1892B82A34A175B0729F7ADE355
:1008F000B1E041E451E061E070E08D91E82FF0E07B
:1009000094E0F595E7959A95E1F721A18F70EB01B9
:1009100002C0CC0FDD1F8A95E2F7CE01922F982BF3
:1009200091A392A1892B82A34A175B0731F780E13B
:10093000809381001092800080E295E3909387007D
:100940008093860081E18093810081E080936F0035
:10095000DF91CF910895FF920F931F93CF93DF9371
:100960000EEC11E0C6EDD1E0F12C38814981F8019F
:1009700080819181282F2170220F532F5170252BB8
:1009800009F014C1BC01769567956170660F31FB63
:10099000222720F9262B09F0FDC0BC01769567952A
:1009A000769567956170660F32FB222720F9262B1A
:1009B00009F0E4C0BC0176956795769567957695C4
:1009C00067956170660F33FB222720F9262B09F00B
:1009D000C9C0BC01729562956F7067277F706727E9
:1009E0006170660F34FB222720F9262B09F0AEC078
:1009F000BC0176956795729562956F7067277F70D9
:100A000067276170660F35FB222720F9262B09F036
:100A100091C0BC010024660F771F001C660F771F72
:100A2000001C672F702D6170660F36FB222720F99E
:100A3000262B09F073C0BC01660F672F661F770B6A
:100A400071956170660F37FB222720F9262B09F07C
:100A50005AC0292F2170220F342F3170232B09F017
:100A600047C041FB222720F9392F3270232BA9F5EB
:100A700092FB222720F9220F42FB332730F9232B48
:100A800009F593FB222720F9220F43FB442740F965
:100A9000242B71F489939993F3940E5F1F4FF4E024
:100AA000FF1263CFDF91CF911F910F91FF900895B7
:100AB0004BE06F2D80E090E00E946607F801808196
:100AC0009181E8CF4AE06F2D80E090E00E946607B8
:100AD0004981F80180819181D4CF49E06F2D80E078
:100AE00090E00E9466074981F80180819181C0CF22
:100AF00048E06F2D80E090E00E9466074981F80190
:100B000080819181AECF47E06F2D80E090E00E9420
:100B100066074981F801808191819BCF46E06F2D66
:100B200080E090E00E94660738814981F801808169
:100B3000918181CF45E06F2D80E090E00E946607B3
:100B400038814981F8018081918163CF44E06F2D24
:100B500080E090E00E94660738814981F801808139
:100B6000918146CF43E06F2D80E090E00E946607C0
:100B700038814981F801808191812BCF42E06F2D2E
:100B800080E090E00E94660738814981F801808109
:100B9000918110CF41E06F2D80E090E00E946607C8
:100BA00038814981F80180819181F7CE40E06F2D35
:100BB00080E090E00E94660738814981F8018081D9
:100BC0009181E0CE6430D8F44C30C8F4E62FF0E0E8
:100BD000EE0FFF1FEA53FE4F81E090E0A0E0B0E08F
:100BE00004C0880F991FAA1FBB1F4A95D2F7809592
:100BF000909520813181822393239183808308956E
:100C0000643088F44C3078F4E62FF0E0EE0FFF1FEC
:100C1000EA53FE4F8081918102C0969587954A954F
:100C2000E2F78170089580E00895E1E3F1E040E0AB
:100C300050E060E070E000009191A92FB0E084E006
:100C4000B595A7958A95E1F790962C9130E09F7025
:100C500002C0359527959A95E2F72170332781E0F8
:100C60002827042E02C0220F331F0A94E2F7622BBA
:100C7000732B4F5F5F4F4C305105E9F6CB01089560
:100C80003F924F925F926F927F928F929F92AF921C
:100C9000BF92CF92DF92EF92FF920F931F93CF9369
:100CA000DF93C6E9D1E03EECE32E31E0F32E4DE3D5
:100CB000A42E41E0B42E67013701312C88818823AE
:100CC00009F4DCC08150888302E010E020E090E06D
:100CD0008981882321F081508983022F192F8A81ED
:100CE0008111C9C004608B818111C2C008608C81F0
:100CF0008111BBC000618D818111B4C000628E8101
:100D00008111ADC000648F818111A6C00068888503
:100D100081119FC011608985811198C012608A85F8
:100D2000811191C014608B8581118AC01860F50112
:100D300081915F01882E912C959487949594879446
:100D40009594879495948794F40192A18F7044248C
:100D50004394512C01C0440C8A95EAF7892F8425CD
:100D600082A385E991E00E941506F6012191319157
:100D70006F01822793270823192302271327F401E1
:100D800082A1482642A2F701219131917F012027BB
:100D9000312720FF03C080910101888321FF03C018
:100DA00080910101898322FF03C0809101018A8320
:100DB00023FF03C0809101018B8324FF03C0809136
:100DC00001018C8325FF03C0809101018D8326FFE3
:100DD00003C0809101018E8327FF03C08091010130
:100DE0008F8330FF03C080910101888731FF03C0EA
:100DF00080910101898732FF03C0809101018A87B8
:100E000033FF03C0809101018B87F301019311939C
:100E10003F0133942C96F4E03F1250CFDF91CF91F5
:100E20001F910F91FF90EF90DF90CF90BF90AF9008
:100E30009F908F907F906F905F904F903F9008951C
:100E400081508B8774CF81508A876DCF815089877D
:100E500066CF815088875FCF81508F8358CF815074
:100E60008E8351CF81508D834ACF81508C8343CF65
:100E700081508B833CCF81508A8335CF03E010E0D3
:100E800021E025CF80919401882331F010929401C4
:100E900085E991E00E94400685E991E00C94AB045D
:100EA0001F920F920FB60F9211248F9381E08093BF
:100EB00094018F910F900FBE0F901F90189585B7DA
:100EC000806885BF85B7806885BF0895EF92FF92DF
:100ED0000F931F93CF93DF9300D0CDB7DEB79A83E4
:100EE0008983062FF42E122F643008F049C02BE0BE
:100EF000241708F445C0812F8270E82E11FF19C015
:100F000010FD17C089819A81009711F016FF05C066
:100F10006F2D802F0E9428080CC02CE0629FF001EA
:100F20001124E40FF11DEE0FFF1FE25FFD4F9183CF
:100F300080834F2D602F85E991E00E940006882371
:100F400051F010FF69C0E11067C04F2D602F85E997
:100F500091E00E94E20529813A8180E090E0281723
:100F6000390771F48CE0089FF0011124EF0DF11D99
:100F7000EE0FFF1FE25FFD4F808191819A8389838D
:100F8000212F4F2D602FCE0101960E94ED03892B5A
:100F900009F042C0212F4F2D602F89819A810E9434
:100FA00096099A83898320E030E082179307A1F1A4
:100FB000F9800A8106FF1AC007FD2EC003FF07C093
:100FC00011FF2AC08F2D902F0E94E01725C000FF2F
:100FD00023C011FD21C010FF1FC08F2D902F0E9434
:100FE000EA178F2D902F0E94EF1716C0812F817066
:100FF00011FF0AC0811102C061E001C060E08F2DC5
:10100000902F0E940C1708C0882331F017FF04C0EE
:101010008F2D902F0E945E170F900F90DF91CF9130
:101020001F910F91FF90EF90089550E09CE0699F11
:10103000400D511D1124FA0190E3899FE00DF11D2F
:101040001124EE0FFF1FE455FF4F859194910895F1
:10105000CF93DF93462F262F30E09CE0899FF0014D
:101060001124EF01C20FD31FCC0FDD1FC25FDD4F74
:10107000E252FE4FDF01A20FB31FE0910201F09197
:101080000301682F8C91099599838883DF91CF9113
:1010900008950F931F9380910001815040916F023A
:1010A000509170026091710270917202882389F0F0
:1010B0008A019B01082E04C0369527951795079540
:1010C0000A94D2F700FF03C080936E0204C08150DF
:1010D000EDCF10926E021F910F9108950F931F9301
:1010E00040916F0250917002609171027091720292
:1010F0008A019B0104C036952795179507958A9517
:10110000D2F7D901C80181701F910F910895DF9224
:10111000EF92FF920F931F93CF93DF9380E3EEED57
:10112000F1E0DF011D928A95E9F77F01D0E000E050
:1011300010E0D02EC0916E021C16B4F48C2F0E94C9
:101140006E08882379F0E0910201F09103014D2DA2
:101150006D2F8C2F0995019629F0F701E00FF11FF3
:10116000C08302C0C150E8CF0F5F1F4F0C30110584
:1011700001F7DF5F2CE0E20EF11CD430C1F6DF9105
:10118000CF911F910F91FF90EF90DF9008950F93F3
:101190001F9300916F0210917002209171023091A3
:1011A0007202B901A801082E04C07695679557957B
:1011B00047950A94D2F740FF28C041E050E060E034
:1011C00070E0082E04C0440F551F661F771F0A9455
:1011D000D2F7409550956095709540235123622336
:1011E000732340936F025093700260937102709367
:1011F000720290916E02891302C00E9449080E94F7
:1012000087081F910F910C943D031F910F91089532
:10121000CF9390910001891780F5C82F0E946E0826
:1012200081112BC081E090E0A0E0B0E00C2E04C062
:10123000880F991FAA1FBB1F0A94D2F740916F0213
:10124000509170026091710270917202842B952B03
:10125000A62BB72B80936F0290937002A09371021C
:10126000B093720280916E028C1710F40E944908AC
:101270000E948708CF910C943D03CF91089510925E
:101280006F021092700210927102109272020C940E
:10129000080980916E028F5F0C94080980916E029C
:1012A0000C94C708CF93C82F862F8270CA3248F19A
:1012B000CA52C13289F0C232C9F46170882329F060
:1012C000611103C0CF910C944909662369F1811122
:1012D0002BC0CF910C944E096170882311F06623C6
:1012E000C1F3662309F181111FC0ECCF882331F0CF
:1012F0008C2F0E946E08811117C012C060FD0CC0B7
:1013000013C0882389F060FD0FC08C2F0E946E08E7
:10131000882331F0CC2321F08C2FCF910C94C70877
:101320008C2FCF910C940809CF910895943429F40F
:10133000622F0E94520980E090E008950F931F935E
:10134000CF9390917502891718F080E090E01CC04F
:101350009CE0699FB001112490E3899F600D711D8D
:101360001124640F711D660F771F00917602109192
:101370007702060F171FC8010E94BA27C82FC8019D
:1013800001960E94BA279C2FCF911F910F9108952B
:1013900090917402891718F40E9415080895891B0A
:1013A0000E949E090895FF920F931F93CF93DF939E
:1013B000EC01F62E08811981C8010E94BA27F8169F
:1013C00021F06F2DC8010E94C227CE01DF91CF917D
:1013D0001F910F91FF9008958AE792E00E94440BBD
:1013E000809100018093740280E090E008958093E2
:1013F000750220E6829FC00111240E947B0B90930E
:1014000077028093760208958093000190917D0287
:1014100097FF03C02EE939E007C090917402980F3E
:101420009093000128EC39E03093030120930201EE
:101430000C94F709FF920F931F93CF93DF9300D083
:10144000CDB7DEB7F62E672F8C01000F111F8091EC
:10145000760290917702800F911F9A838983CE0143
:1014600001960E94D30980917602909177020196AD
:10147000080F191F1A8309836F2DCE0101960E9450
:10148000D3090F900F90DF91CF911F910F91FF9093
:101490000895EF92FF920F931F93CF93DF93082F3E
:1014A0007B01C0E0C017D9F0D0E010E0412F6D2FD4
:1014B0008C2FF70109954AE050E0BC0182E194E0ED
:1014C0000E94E32060E282E194E00E9469201F5FB5
:1014D0001C3061F7DF5FD43041F7CF5FE3CFDF919E
:1014E000CF911F910F91FF90EF900895CF93DF93CD
:1014F000EB014EE053E083E892E00E943D0D811144
:1015000087C047E050E066E073E0CE010E949F276D
:10151000892B09F07DC027966BEF72E0CE010E9407
:101520009627892BB9F582E194E00E94461E0A971E
:1015300089F460917D0267FB662760F94AE050E01C
:1015400082E194E00E94DC2060E282E194E00E946B
:10155000692061C041E060E070E082E194E00E94B7
:101560005921C62F862F0E94CD0B80917502809342
:101570000001CC2319F08EE999E007C09091740224
:10158000890F8093000188EC99E090930301809388
:10159000020141C063EF72E0CE010E949627892BC1
:1015A00029F465E178E08091740214C06CEE72E079
:1015B000CE010E949627892B59F582E194E00E9482
:1015C000461E0A9719F0C0E0D0E01BC06EE979E032
:1015D000809175020E94490A1EC08091750220E325
:1015E000829FC0011124C817D907A8F441E060E028
:1015F00070E082E194E00E945921CE010E941A0A13
:10160000219682E194E00E94461E0A9721F0E5CFE0
:1016100080E090E002C081E090E0DF91CF910895FA
:101620004AE050E0682F82E194E00E94DC2060E212
:1016300082E194E00C946920EF92FF920F931F9344
:10164000CF93DF9300D0CDB7DEB78DE7E82E82E0F1
:10165000F82E00E010E0F70161917F011A83098301
:10166000CE0101960E94D3090F5F1F4F0430110570
:1016700091F78DE792E00F900F90DF91CF911F913E
:101680000F91FF90EF9008950F931F93CF93DF93E7
:101690000DE712E0C0E0D0E0CE010E94BA27F801C9
:1016A00081938F012196C430D105B1F780917E02DC
:1016B0008F3F71F480917D02982F9F779F3719F4A7
:1016C00087FD10927D0281E080937E020E941C0BB8
:1016D00080E090E0DF91CF911F910F91089580916C
:1016E0007B02882329F080917F02909180020895E7
:1016F00080E090E008950F931F93CF93DF9300D085
:10170000CDB7DEB79A83898380917B02811116C0A1
:10171000009104011091050189819A81800F911F28
:10172000909305018093040142E0BE016F5F7F4FFB
:1017300081E892E00E94130DC80102C080E090E0B1
:101740000F900F90DF91CF911F910F9108950E94FC
:101750001C0B81E080937C020895CF93C82F809169
:101760000001C81758F48C2F0E943F0980917D0218
:1017700080789C2F9F77892B80937D02CE3730F025
:1017800080917D0280788E6780937D020E94A70BF6
:1017900080917D028F77CF91089590917D0280FB9B
:1017A00097F990937D02892F8F778F3721F4907866
:1017B0009E6790937D020C94A70B81E080937B023F
:1017C00060E181E892E00E94FA0C80917E02813013
:1017D00019F010927C02089520917F0230918002CE
:1017E00080918102909182022F3F4FEF340739F4AC
:1017F0009093800280937F020E94A70B03C028175A
:10180000390751F480917D028F77282F30E02E37F1
:10181000310514F40C943F09089580917B028111E5
:1018200002C00E94DD0B80E090E00895CF93DF932B
:10183000EB0141EA53E083E892E00E943D0D811103
:1018400028C049E050E067E973E0CE010E949F277D
:10185000892BF9F429966AE873E0CE010E94962755
:10186000892BA9F163E873E0CE010E949627892BAA
:1018700009F442C06BE773E0CE010E949627892BE2
:1018800009F444C067E773E0CE010E949627892BD4
:1018900019F080E090E040C00E946F0BEC01609175
:1018A0008102709182024AE050E082E194E00E945D
:1018B000E32065E773E082E194E00E9445204AE07E
:1018C00050E0BE0182E194E00E94E32023C082E167
:1018D00094E00E94461E0A9721F480917D028F7742
:1018E00017C041E060E070E082E194E00E9459217D
:1018F000862F0E94AD0B0EC080917C020E94590D74
:1019000060E282E194E00E94692004C080917E023E
:101910000E94100B81E090E0DF91CF9108950F932A
:101920001F93CF93DF9300D0CDB7DEB78B0149E58E
:1019300053E083E892E00E943D0D81110EC069E4FE
:1019400073E0C8010E949627892BF1F06DE373E0E4
:10195000C8010E949627892B19F080E090E043C0CF
:10196000809104019091050160E074E0681B790B9F
:101970004AE050E082E194E00E94E32060E282E1EC
:1019800094E00E9469202DC082E194E00E94461EEE
:1019900000E010E00A97F9F4C8010E94BA270E94FB
:1019A000100B0F5F1F4F011584E01807A9F719C02E
:1019B00041E060E070E082E194E00E9459211A83E6
:1019C0000983CE0101960E94D3090F5F1F4F0115B5
:1019D00084E0180731F082E194E00E94461E0A97E5
:1019E00039F781E090E00F900F90DF91CF911F9138
:1019F0000F910895FC01208131812170332781E00E
:101A0000861770F4408151815695479551834083E4
:101A1000220F331F41705527242B352B8F5FF0CFBA
:101A2000318320830895DC01FB01415000F1519185
:101A300068E070E081E02D913C911197952F9823FB
:101A400011F4932F02C0932F9095991F9927991FF6
:101A5000220F331F992319F095E02927305811964A
:101A60003C932E93880F6150710929F7DECF0895BA
:101A700010928202109281020895CF93DF93CB01DE
:101A8000EA0165EF73E00E949627892B39F4BE01C5
:101A900082E194E00E94742081E001C080E0DF9147
:101AA000CF91089540EF53E00E943D0D80E090E01B
:101AB0000895811103C065EE73E002C06BEE73E020
:101AC00082E194E00C94452082E194E00E945F1E44
:101AD000892B59F082E194E00E94461E0A9729F072
:101AE00082E194E00E946F1EF5CF0895EF92FF927D
:101AF0000F931F93CF9382E194E00E945F1E892B86
:101B0000D9F104E812E0C0E0CF5F82E194E00E94E6
:101B10006F1E7801F801808382E194E00E94461EE6
:101B20000A9741F00F5F1F4FF7018081803211F05B
:101B3000C03251F78C2F90E0FC01ED57FD4F208112
:101B4000203219F0FC01EC57FD4F108284E892E03E
:101B50000E9413036AEF73E082E194E00E94742014
:101B60000E94640D82E194E00E94461E0A9721F4CF
:101B700082E194E00E946F1E80E090E0CF911F917F
:101B80000F91FF90EF9008950F93DB018D919C9141
:101B90009C012D52314D2A32310518F080E090E041
:101BA00044C0202F2170302F327001FF1DC0211141
:101BB0001BC08D529091AB029F5F9093AB0267E088
:101BC0000E942027E82FF0E0EB55FD4F26E030E0A3
:101BD000291B310981E090E001C0880F2A95EAF7BE
:101BE0009081892B80831FC02223E9F031111BC013
:101BF0008091AB0281508093AB02811114C080911F
:101C0000A50280688093A50246E050E065EA72E094
:101C100082E194E00E947C1E86E0E5EAF2E0DF01CA
:101C20001D928A95E9F781E090E00F910895209147
:101C30009001309191014091AD025091AE02B901F5
:101C4000641B750BAB01609106017091070164176D
:101C5000750700F53093AE022093AD0280FF04C0FB
:101C600020E04091080112C081FF05C040910801A9
:101C7000419520E00BC082FF04C02091080121950E
:101C800004C083FF07C02091080140E060E080E0CD
:101C90000C94F71708950E944A180E944618109253
:101CA000B30280E090E008958091B302811103C0F7
:101CB0001092B60255C0209190013091910140914F
:101CC000B1025091B202B901641B750BAB01609176
:101CD0000C0170910D016417750708F041C0309335
:101CE000B2022093B1024091AF025091B002B9010B
:101CF000641B750BAB016091090170910A016417B7
:101D00007507A0F46091B60290910B01E62FF0E008
:101D10004FEF50E0491B5109E417F5071CF4960FEB
:101D20009093B6023093B0022093AF0280FF04C0BC
:101D300060910E01619506C081FF03C060910E01A4
:101D400001C060E082FF04C080910E01819506C051
:101D500083FF03C080910E0101C080E00E942D101E
:101D600080E090E008950F93CF93FB01818180354F
:101D700009F062C08081282F2072902F9270382F36
:101D8000307486FF16C0211114C0C82FCF7B01709C
:101D9000992341F0011102C00E94870F8C2F0E94ED
:101DA0005F0F78C0002309F475C08C2F0E94610F6B
:101DB00071C021111DC00170992309F440C00111A7
:101DC00065C020919001309191013093B20220932F
:101DD000B1023093B0022093AF02409106015091BE
:101DE0000701241B350B3093AE022093AD024EC089
:101DF000992309F44FC000FD4DC080FD02C090E062
:101E000001C092E021E0311101C020E0922B81FD60
:101E100002C020E001C024E0922B82FD02C020E03D
:101E200001C028E0922B83FD02C080E001C080E168
:101E3000892B0E948D0F2EC080E090E034C00023DB
:101E400049F180959091B30289238093B3028081F8
:101E5000982F937031F020E084FD0DC040E061E0E8
:101E600011C0982F9C7049F084FD09C020E040E02B
:101E700060E081E008C041E004C020E001C021E052
:101E800040E060E080E00E94021804C084FF05C0CA
:101E90000E94170E81E090E006C09091B302892B5A
:101EA0008093B302F7CFCF910F9108950E945B0FFB
:101EB00080E090E008950E94F3170C944E180C9463
:101EC0003C180E9441181092B70208955695479504
:101ED000640F751F3695279540E0820F931F0C9471
:101EE0005A181092B9021092B8021092BB021092C6
:101EF000BA028FEF9FE79093BF028093BE02909348
:101F0000BD028093BC0281E08093B7020895809166
:101F1000B70281110C94710F08950F931F93CF9303
:101F2000C82F8091B702811102C00E94710FC0FFBB
:101F300006C01092B702CF911F910F910895E091C2
:101F400011010E2F10E08091BE029091BF02B801E6
:101F50000E942C279B017093BF026093BE02809168
:101F6000BC029091BD02B8010E942C27AB01709376
:101F7000BD026093BC027C2F74708091B802909176
:101F8000B902E091BA02F091BB026C2F6670663024
:101F900071F4820F931F9093B9028093B802BA0133
:101FA0006E0F7F1F7093BB026093BA0234C0772319
:101FB00061F0D8011197A49FB001A59F700DB49F47
:101FC000700D1124E60FF71F04C0C1FD06C0E40F19
:101FD000F51FF093BB02E093BA02C4FF0CC0F801F6
:101FE0003197E29FB001E39F700DF29F700D1124B5
:101FF000860F971F04C0C3FD06C0820F931F9093E6
:10200000B9028093B8026091BA027091BB028091CC
:10201000B8029091B902CF911F910F910C94660F65
:1020200087FD0AC0889FC0011124880F892F881F4F
:10203000990B91958F5F089520E031E0281B3109BD
:10204000229FC001239F900D900D1124880F892F8E
:10205000881F990B919580950895EF92FF920F93A9
:102060001F93CF93DF93182F062F80911001E82E36
:10207000F12C112309F44CC0662381F123E6829FE1
:10208000C00111246CE870E00E94402761157105C1
:1020900009F07B01212F012E000C330B43E61402C3
:1020A000C00111246CE870E00E94402761157105A1
:1020B00009F09B01122F202F002E000C330B43E65A
:1020C0000402C00111246CE870E00E9440276115F1
:1020D000710509F09B01022F1123D1F08091B60206
:1020E0000E9410109091B502282F1203E0011124D4
:1020F000C90FD11D97FDDA95EC16FD0664F088270F
:1021000099278E199F09C817D90734F4EC0104C028
:10211000C0E0D0E001C0E7010023D9F08091B60211
:102120000E9410102091B402382F0303C001112423
:10213000820F911D27FD9A95E816F90664F0222773
:1021400033272E193F097C018217930724F4790164
:1021500002C0E12CF12C1092B70220910F0130E067
:10216000C701B9010E944027E62FCE01B9010E94A4
:102170004027862F20E040E06E2F0E94F717209125
:102180000F0130E0CE01B9010E9440278093B502D3
:10219000C701B9010E9440278093B402DF91CF911B
:1021A0001F910F91FF90EF90089520919001309131
:1021B00091018091E5029091E602281B390B81E0A4
:1021C00040911601509117014217530708F080E023
:1021D0000895883018F490E0805202C094E48E5D37
:1021E000262F20684FEF6FEF0E946607089562E088
:1021F0000C94E910E82FF0E0EE0FFF1FEB53FD4FBA
:1022000090819E7F908361E00C94E910CF93DF93DF
:10221000C0E0D0E0FE01EE0FFF1FEB53FD4F8081C9
:1022200080FF03C08C2F0E94F7102196C830D10583
:1022300089F780E090E0DF91CF9108950F931F938D
:10224000CF93DF9380E090E0FC01EE0FFF1FEB5394
:10225000FD4F208120FD05C0019680319105A1F739
:1022600009C00E94D510882329F081E08093C20222
:102270001092C102C0E0D0E090E08091C2028823B9
:10228000F9F08E01000F111F0B531D4FF8018081D3
:1022900083FF0EC02091C102222391F0877F8083AB
:1022A0008C2F0E94FA10F80180818D7F808307C0F7
:1022B00080FF06C081FD04C08C2F0E94FA1091E0BF
:1022C0002196C031D105C9F6992321F01092C2029E
:1022D0001092C10280E090E0DF91CF911F910F91A9
:1022E0000895FF920F931F93CF93DF93C0E0D0E048
:1022F0008E01000F111FF801EB53FD4F808180FB11
:10230000FF24F0F880FF04C00E94D510882391F0CC
:10231000F801EB53FD4F808181FBFF24F0F881FD34
:1023200009C083FBFF24F0F883FD04C02196C0316F
:10233000D105F1F68F2DDF91CF911F910F91FF9075
:102340000895CF92DF92EF92FF920F931F93CF9356
:10235000DF93DB01CD90DC90CFEFCC0D07FDACC05F
:10236000D22F142F7B010E94711196012150304C05
:10237000811135C02031310508F09EC0802F827058
:10238000902F917000FF0BC0811109C0D0E0CC0FDD
:10239000DD1FCB53DD4F88818D7F8883A8C08823C4
:1023A00009F4A5C09111A3C0809190019091910171
:1023B0009093E6028093E502EC2FF0E0EE0FFF1F12
:1023C000EB53FD4FBCE01B9FD00D1124D1838081C6
:1023D000826081608083F7018081918181C0902F2C
:1023E00092702031310508F050C0EC2FF0E0EE0F74
:1023F000FF1FDF01AB53BD4F8C9183FF0CC09923AE
:1024000009F475C000FD73C0D092C402C092C3022B
:10241000877F8C9318C000FF1CC0911168C08D7F0E
:102420008C9380919001909191012091E5023091DF
:10243000E602821B930B209114013091150128179D
:10244000390708F054C08C2F0E94FA101092C20273
:102450004EC0992309F44BC082608C938091C302D3
:102460009091C402D7014D915C91209190013091DF
:1024700091018417950719F5880F991FDC01AD5359
:10248000BD478C9182FD36C01AC09923A9F0D09225
:10249000C402C092C302D7018D919C91803E9105E8
:1024A00040F4F7018181843439F081E08093C202E5
:1024B00003C0883E9105A8F780E090E03DC03093CE
:1024C000E6022093E502EB53FD4F4CE0149FD00D44
:1024D0001124D183808181608083D7018D919C916B
:1024E0009093C4028093C3028C2F0E94F71081E066
:1024F00090E022C080911201909113018F3FBFEFB5
:102500009B0721F480911601909117014091E502FB
:102510005091E602241B350B8217930740F3EB53CF
:10252000FD4F808188608083F70180819181909345
:10253000C4028093C302DBCFDF91CF911F910F9133
:10254000FF90EF90DF90CF90089580E090E0FC0145
:10255000EE0FFF1FEB53FD4F208124602083019677
:1025600080319105A1F708959C01AC014151504C77
:10257000413068E0560710F4842F07C02251384CD0
:10258000213048E0340710F4822F90E008959C0138
:10259000AC014151504C413068E0560730F4252FD2
:1025A000332720523F4FC90108952251384C213022
:1025B00048E0340718F48AE2830F94E408951F93E7
:1025C000CF93DF93182F8F3F91F14091050350E097
:1025D000C0910603D09107033CE0632F0E9420279F
:1025E00020E0389FF0011124E252FE4FE90FF11D67
:1025F000A22F022E000CBB0BA417B507C4F4AA0F20
:10260000BB1FAA0FBB1FAC0FBD1F11968C9111975A
:1026100018130BC08C918F3F61F0082E000C990BA2
:10262000608170E08617970721F02F5FE1CF8FEF71
:1026300001C0822FDF91CF911F9108954091EB024D
:1026400050E090E0292F092E000C330B241735079A
:102650006CF4F901EE0FFF1F2E0F3F1FF901E4513B
:10266000FD4F2081281721F09F5FECCF8FEF089559
:10267000892F0895BF92CF92DF92EF92FF920F932E
:102680001F93CF93DF93CDB7DEB76D970FB6F89456
:10269000DEBF0FBECDBFC82ED62E1091EC02812F0B
:1026A0000E94DF12B82EACE0812F6A2F0E942027F3
:1026B000F82EE92EA89FD0011124A252BE4FA90FD7
:1026C000B11DE0910201F0910301492F682F8C9117
:1026D00009958C018151904C8230904108F467C07B
:1026E0002FEFB21287C081E08093EA028DE1E0E92A
:1026F000F3E0DE01119601900D928A95E1F7C0900A
:10270000AD038DE1EDEAF3E0A0E9B3E001900D92B5
:102710008A95E1F722E04E2D6F2DC8010E946607D1
:102720000E949D178DE1FE013196A0E9B3E0019072
:102730000D928A95E1F7D1FE07C023E04E2D6F2D53
:10274000C8010E9466070DC021E04E2D6F2D80E06C
:1027500090E00E9466078091EB02823010F0C092F8
:10276000AD031092EA0220E08091EB022817D0F42A
:10277000822F90E0DC01AA0FBB1FA80FB91FA45144
:10278000BD4F0196FC01EE0FFF1F8E0F9F1FFC0136
:10279000E451FD4FC080D180E280CD92DD92EC9279
:1027A0002F5FE2CF81508093EB0281E032C0C110F5
:1027B0001CC0809104038823A1F08091EB02823039
:1027C00080F0809118018F3F61F40E945C26709325
:1027D000E9026093E8028091EC028093180180E0A6
:1027E00018C0C8010E94B41203C0C8010E94C712D9
:1027F0008C0179CFCC20E9F2E0910603F091070338
:102800008B2D94E08902E00DF11D112402811381CA
:102810006ACF6D960FB6F894DEBF0FBECDBFDF91C5
:10282000CF911F910F91FF90EF90DF90CF90BF90CD
:102830000895CF93DF938F3FA1F0C82FD0E0DC172E
:1028400054F48091EB02882361F063E081E00E9400
:102850003A13DF5FF4CF61E080E0DF91CF910C9419
:102860003A13DF91CF910895CF93CCE08091EB02A2
:10287000882309F12091EC02822F6C2F0E942027DF
:10288000C89FF0011124E90FF11DEE0FFF1FE25F59
:10289000FD4F808191818151904C8230904158F060
:1028A000822F0E94DF128F3F31F463E080E00E94AC
:1028B0003A138111DBCFCF9108951F93CF93DF930C
:1028C000182F8091EB02883031F463E080E00E94A1
:1028D0003A130E943414C091EB02D0E0CE01880F6D
:1028E000991FC80FD91FC451DD4F18830E945C2661
:1028F0007A8369838091EB028F5F8093EB02DF9193
:10290000CF911F910895EF92FF920F931F93CF9352
:10291000DF93443008F06BC02C3008F068C007FD2E
:1029200066C07B0180911B01811109C0F701808184
:1029300091810E94B412F7019183808358C0C22F05
:10294000FCE04F9FC00D11248C2F0E94DF1290914C
:10295000EA0291114CC0D02FD170102F127001FFDC
:1029600013C0D11111C09091EB02911108C0F70171
:10297000208131812151304C22303041B0F58C2FF3
:102980000E945D1481E034C08C2F0E941E13DD2351
:1029900029F1111123C08F3F51F1C0911801CF3F90
:1029A000C1F00E9419140E94341481E08093EA025D
:1029B0008C2F6CE00E94202721E0492F682F80E0B7
:1029C00090E00E9466071092EA028FEF8093180150
:1029D000ADCF0E9419140E943414A8CF21E090E0DA
:1029E0008F3F09F420E0822F04C08F3F41F680E042
:1029F00090E0DF91CF911F910F91FF90EF9008959C
:102A0000CF93DF930E945C26EB01209118012F3FAA
:102A100051F12091E8023091E902621B730B809121
:102A2000040390E08617970714F561E080E00E94A8
:102A30003A130E9434148FEF8093180118C08091CC
:102A4000ED029091EE029E01281B390B8091190135
:102A500090911A018217930750F463E081E00E947D
:102A60003A130E9434148091EB028111E8CF80E088
:102A700090E0DF91CF910895ECEEF2E08FEF80834C
:102A800012821182339693E0E430F907C1F7109275
:102A9000EB0280E090E008958091240381113EC014
:102AA00010920D0310920C0310920E03109210035B
:102AB00010920F0381EE809308031092090386E2BF
:102AC00080930A0388E080930B0310921603109200
:102AD000150310921703109219031092180395EE24
:102AE000909311031092120397E290931303809333
:102AF000140310921F0310921E03109220031092D1
:102B000022031092210310921A0310921B031092B9
:102B10001C0310921D0381E08093240388E093E05E
:102B200090932E0380932D03089581E080932C03CE
:102B300008956F927F929F92AF92BF92CF92DF9251
:102B4000EF92FF920F931F93CF93DF93FB01A0802F
:102B5000B180B5016855714D6230710580F401FF97
:102B600023C000FD21C088E5A81681EDB80619F440
:102B700010922C0319C081E080932C0315C0309172
:102B80002C03311145C007FD43C0A114B10409F461
:102B90003FC0702F7270602F61700370C9F13BC02D
:102BA0009920B1F16111A9C081E090E0B9C0D801CC
:102BB0001696EC91EE2311F0C22F41E0AE14BF0443
:102BC00011F4992493942F5FE0912D03F0912E033B
:102BD0008F01B9E02B9F000D111D1124D801ED903C
:102BE000FC901197612C712CE614F70401F71296F2
:102BF000CD90DC90139780E090E0C816D906B9F626
:102C00001496CD90DC901597CD2889F6411157C0C8
:102C100080E090E085C0522F342F8F01772309F494
:102C200049C0611147C0D0E0C0E099249394A9E065
:102C3000DA9F50011124E0912D03F0912E03EA0D4B
:102C4000FB1D80819181C12CD12C8C159D0559F4DF
:102C500022813381E12CF12C2E153F0521F42481B2
:102C60003581232B21F1D8012D913C9182179307B7
:102C700049F4968280919001909191019087878389
:102C8000C1E013C08681882339F022E84FEF6FEF4F
:102C9000808191810E946607E0912D03F0912E03BF
:102CA000EA0DFB1D168210861782DF5FC0CF8C2FC6
:102CB00090E036C020E0C0E0912C40E085CFB9E044
:102CC000CB9FE0011124EC0FFD1FA481B58110976B
:102CD00021F4A0911C01B0911D018091900190916F
:102CE000910107811085801B910BA817B90708F087
:102CF00057CF1682108617828BCF711155CF22E8DD
:102D0000452F632F828193810E94660780912D0356
:102D100090912E03C80FD91F1E8218861F8244CFA0
:102D2000DF91CF911F910F91FF90EF90DF90CF90A7
:102D3000BF90AF909F907F906F90089583E293E053
:102D40000C944C15CF93DF9300D000D000D0CDB7BA
:102D5000DEB7DC0113967C936E93129715965C9305
:102D60004E93149716963C91169739837B836A830A
:102D70005D834C832E83ED91FC910190F081E02DD9
:102D800046E050E0BE016F5F7F4F099526960FB673
:102D9000F894DEBF0FBECDBFDF91CF91089580E9DB
:102DA00093E00E94921C82E393E00C94C519CF93A8
:102DB000C82F82E393E00E942E196C2F811105C069
:102DC00082E393E0CF910C945F1980E993E0CF9177
:102DD0000C94321CCF93C82F83FF04C081EE90E087
:102DE0000E94D716C0FF04C080EE90E00E94D71664
:102DF000C1FF04C082EE90E00E94D716C2FF04C05B
:102E000086EE90E00E94D716C4FF04C083EE90E0E7
:102E10000E94D716CF910895CF93DF93D82FC92F53
:102E2000907C662399F080912F03811102C010924B
:102E30003103809131038C2B80933103911104C0B5
:102E400080E28D0F883020F0D0932F03911108C0BD
:102E500080E28D0F883020F48C2F0E94EA1605C086
:102E6000809130038C2B809330038D2F9C2FDF912A
:102E7000CF910C94D716CF93C82F82E393E00E9492
:102E80002E196C2F811105C082E393E0CF910C9431
:102E9000871980E993E0CF910C94591C82E393E069
:102EA0000E94BE1910922F031092300380E993E024
:102EB0000E94821C82E793E00C94691BCF93DF93FE
:102EC000D82FC92F80913103892780933103892F0F
:102ED000807C21F480E28D0F883058F080912F03A0
:102EE0008D1302C010922F03809130038C278093A2
:102EF0003003C3FF04C081EE90E00E943B17C0FF87
:102F000004C080EE90E00E943B17C1FF04C082EE37
:102F100090E00E943B17C2FF04C086EE90E00E9442
:102F20003B17C4FF04C083EE90E00E943B178D2F37
:102F30009C2FDF91CF910C943B179091300380919F
:102F4000310389230E94EA1682E393E00E942E193E
:102F500060912F03811116C0662381F082E393E014
:102F60000E94871982E393E00E94311960912F0338
:102F700082E393E00E945F1910922F0382E393E0B3
:102F80000C943119662381F080E993E00E94591C6A
:102F900080E993E00E94D21B60912F0380E993E0C7
:102FA0000E94321C10922F0380E993E00E94D21BF2
:102FB00082E793E00C947C1B82E793E00C94A21BC5
:102FC000BC01737082E793E00C94541B85EF93E08F
:102FD0000C94561D682F85EF93E00C94581D85EFD7
:102FE00093E00C94541D8DED93E00C94F01C0F9322
:102FF000022F242F462F682F8DED93E00E94981CFE
:103000000F910895FF920F931F93CF93DF9300D0FA
:1030100000D01F92CDB7DEB7F62E142F722F95E099
:10302000EDEDF3E0DE01119601900D929A95E1F736
:103030009A813B815C810D81882311F060E001C0A1
:10304000692FFF2011F040E001C0432F112311F040
:1030500020E001C0252F711100E08DED93E00E946A
:10306000981C0F900F900F900F900F90DF91CF91C1
:103070001F910F91FF900895682F8DED93E00C94B0
:10308000A61C682F8DED93E00C94AB1C8DED93E0A6
:103090000C94A01C8DED93E00C94BE1CEEEFF3E0BD
:1030A000108A468557856485758520E088E094E020
:1030B0000C94A216242FAB01BC0188E094E00C9480
:1030C000A216FC0182818F5BFB01808381E0089561
:1030D000CF93DF93CDB7DEB769970FB6F894DEBF15
:1030E0000FBECDBFFC01DB019C919F5F9C93BE0195
:1030F0006F5F7F4F89E1DB011D928A95E9F729E037
:10310000298384E08A8391E09D8383E08E839F837B
:1031100098872A8721E22B879C879D879F8722E2B9
:10312000288B2FE3298B27E02B8B25E02C8B8E8B94
:1031300020E430E0388F2F8B998F82818B838381BD
:1031400080688D8B49E150E080E00E949923699668
:103150000FB6F894DEBF0FBECDBFDF91CF910895BB
:10316000FC01DB01828190E014962D913C91159732
:1031700082179307E1F511968C9111979C91913AE2
:1031800061F4813091F1833011F4848D03C0823079
:1031900071F5858D8093F10028C0913241F58B3017
:1031A00021F412968C91848F20C08A3011F4158EF0
:1031B0001CC08930E1F4CF0116962D913C911797F0
:1031C00013964C91423039F42130310581F461E09D
:1031D00070E04E9608C0413051F42830310539F482
:1031E00068E070E00B960E94C02381E0089580E0C3
:1031F0000895FC01DB018C918138B9F413968C9110
:103200001397823291F4828190E014962D913C9133
:1032100015972817390749F48285848F4FE350E0CA
:103220006EEF73E080E80C94992380E090E00895BD
:10323000FC0181E0848385839F01255E3F4F3783B6
:1032400026831186108625E431E03183208382872E
:10325000848F858F168E81EC838F0895FC01848D79
:103260000895EF92FF920F931F93CF93DF938C01FA
:10327000EC012B967C0183E1E80EF11C48E050E064
:10328000BE01C7010E94AD27892B81F0F80183811F
:1032900048E050E0BE0180640E94EA2228E0FE017E
:1032A000D70101900D922A95E1F702C08FEF9FEFB1
:1032B000DF91CF911F910F91FF90EF90089520E241
:1032C000260F283058F441E050E001C0440F2A9501
:1032D000EAF7FC012385422B438716C0FC013D968B
:1032E00020E030E04191641779F0411105C0FC0104
:1032F000E20FF31F658708C02F5F3F4F263031056F
:1033000089F780E090E0089581E090E0089520E260
:10331000260F283068F4622F21E030E001C0220F30
:103320006A95EAF72095FC0133852323238723C080
:10333000FC01AC014A5F5F4FDC011D962C911D978B
:10334000621303C01D961C921D9711964A175B07C6
:10335000A1F720E03585332351F0DC01A20FB11D28
:103360001D966C911D971D963C9365872F5F319636
:10337000E417F50779F781E090E008950B9628E0CF
:10338000FC0111922A95E9F70895CF93DF93EC01A0
:103390000E941C20BE010E94D51FCE010E94BE19B2
:1033A000CE01DF91CF910C94311982E393E00C941C
:1033B0001819FB018BE6808382E6818389E682838C
:1033C0008FE6838380E3848381E3858386E00895A9
:1033D000CF93DF93CDB7DEB769970FB6F894DEBF12
:1033E0000FBECDBFFC01DB018C918F5F8C93BE01C2
:1033F0006F5F7F4F89E1DB011D928A95E9F729E034
:10340000298384E08A8391E09D8383E08E832A87E9
:1034100021E22B879C879D879F8722E2288B27E0CC
:103420002B8B25E02C8B8E8B20E430E0388F2F8B7C
:10343000998F82818B8395858685998B8A8B8381F1
:1034400080688D8B49E150E080E00E949923699665
:103450000FB6F894DEBF0FBECDBFDF91CF910895B8
:10346000CF93DF93FC01DB01828190E014962D91D4
:103470003C91159782179307A9F511969C91119786
:103480008C91813A31F481E0913069F1933051F5BA
:103490002AC0813239F59B3021F412968C918787AE
:1034A00005C09A3029F412968C91808B81E01BC064
:1034B0009930C1F4EF0116968D919C911797823047
:1034C000910539F462E070E0CF0141960E94C0237B
:1034D00009C0019739F461E070E0CF0142960E9483
:1034E000C023198A80E0DF91CF910895EF92FF9277
:1034F0000F931F93CF93DF93FB012081213851F568
:103500002381223239F5DC0112962C9130E044817E
:10351000558142175307F1F4EC010B851C85E12C12
:10352000F12C0115110591F0F8014481558162815A
:10353000738180E80E9499238F3FFFEF9F0769F016
:10354000E80EF91ED8010D911C91EBCF81E08F8719
:10355000C70105C080E090E002C08FEF9FEFDF91D0
:10356000CF911F910F91FF90EF900895FC01A385DB
:10357000B485109719F47487638709C08D919C9165
:103580001197009711F0DC01F9CF6D937C9325859D
:103590003685DB0114968D919C911597820F931FB0
:1035A000968785870895AF92BF92CF92DF92EF9270
:1035B000FF920F931F93CF93DF931F92CDB7DEB788
:1035C0007C0169836A01590141E050E0BE016F5FEF
:1035D0007F4FFC0183810E94EA228C0197FD0BC082
:1035E000F7018381A501B60180640E94EA2297FD5C
:1035F00002C0800F911F0F90DF91CF911F910F910B
:10360000FF90EF90DF90CF90BF90AF900895CF9351
:10361000DF93EC0181E08C838D839E01265F3F4F19
:103620003F832E831986188621E531E0398328836C
:103630001C861B861E861D868F87888B198A1A8A90
:1036400081EC8A870E941C20BE01DF91CF910C94EF
:10365000D51F80916403811107C081E593E00E942A
:10366000071B81E08093640381E593E008958091D6
:103670008203811113C010926D0310926C038DE3CD
:1036800094E090936F0380936E0389E190E09093B0
:1036900071038093700381E0809382030E94291B51
:1036A0006CE673E00C94B61ADC0120E030E04D913A
:1036B0005D91452B41F4220F331FFC01E20FF31FF4
:1036C0007183608308952F5F3F4F2430310579F770
:1036D000089528E0FC0111922A95E9F70895CF9307
:1036E000DF93EC010E94291B28E030E0AE0164E08A
:1036F000DF91CF910C94D31A0F931F93CF93DF9345
:10370000EC018C01085F1F4F48E050E0BC01C8018C
:103710000E94AD27892B51F0CE010E946F1B88E0DB
:10372000FE01D80101900D928A95E1F7DF91CF91CA
:103730001F910F91089528E0FC0111922A95E9F755
:103740000C947C1B0C949B1B82E793E00C94371B1E
:103750008091CA03811113C010928B0310928A03C7
:1037600086E594E090938D0380938C0381E490E050
:1037700090938F0380938E0381E08093CA030E940D
:10378000291B6AE873E00C94B61ACF93DF93EC011F
:103790000E94291B2DE130E0AE0168E0DF91CF915E
:1037A0000C94D31AEF92FF920F931F93CF93DF9352
:1037B000EC017C018DE1E80EF11C4DE150E0BE0111
:1037C000C7010E94AD27892B09F443C00D8D1881D4
:1037D000802F80958123B1F04CE150E0BE016F5FF6
:1037E0007F4FCE014E960E94AD27892B59F01D8F39
:1037F0000E94291B2DE130E0A70168E00E94D31A46
:103800000D8F19C0812F80958023A9F04CE150E0E5
:10381000BE016F5F7F4FCE014E960E94AD27892B70
:1038200051F008830E94291B2DE130E0AE0168E0D1
:103830000E94D31A1883CE010E94C51B18161906C0
:1038400054F42DE1FE01D70101900D922A95E1F784
:1038500002C08FEF9FEFDF91CF911F910F91FF90EB
:10386000EF9008956E3D90F4262F26952695269587
:10387000FC01E20FF11D677081E090E001C0880F4C
:103880006A95EAF79181892B81830DC0605E68306B
:1038900068F421E030E001C0220F6A95EAF7FC01EC
:1038A0003081232B208381E090E0089580E090E038
:1038B00008956E3D98F4262F269526952695FC01B1
:1038C000E20FF11D677081E090E001C0880F6A95FA
:1038D000EAF780959181892381830EC0605E68300C
:1038E00070F421E030E001C0220F6A95EAF72095DC
:1038F000FC0130812323208381E090E0089580E063
:1039000090E008952DE1FC0111922A95E9F70895C0
:10391000CF93DF93EC010E94821CCE01DF91CF9107
:103920000C94C51B0C94881C80E993E00C94A81B94
:103930000F93FC0161834283238304830F910895D5
:1039400025E0FC0111922A95E9F70895FC012081F8
:10395000622B608308956095FC012081622360835F
:103960000895CF93DF93EC010E94291B25E030E0FE
:10397000AE0161E0DF91CF910C94D31A0F931F93A6
:10398000CF93DF93EC018C010B5F1F4F45E050E0BC
:10399000BC01C8010E94AD27892B49F445E050E0E5
:1039A00062ED73E0CE010E94AD27892B51F0CE016C
:1039B0000E94B11C85E0FE01D80101900D928A950C
:1039C000E1F7DF91CF911F910F910895CF93DF938E
:1039D000EC010E94A01CCE01DF91CF910C94BE1C83
:1039E000CF93DF93EC018091E703811113C0109214
:1039F000D8031092D70387E994E09093DA03809379
:103A0000D9038AE390E09093DC038093DB0381E0A9
:103A10008093E7030E94291B67ED73E00E94B61AAA
:103A2000CE01DF91CF910C94E61C8091F6038111B9
:103A300013C01092F0031092EF0381ED94E0909385
:103A4000F2038093F10388E190E09093F403809374
:103A5000F30381E08093F6030E94291B6FEE73E06D
:103A60000C94B61A0F931F93CF93DF93EB018A0147
:103A70000E94291B9801AE0165E0DF91CF911F9153
:103A80000F910C94D31ACF93DF931F92CDB7DEB76B
:103A9000198241E050E0BE016F5F7F4F0E94321DEE
:103AA0000F90DF91CF9108950C94431D0C94431D0A
:103AB000CF93DF931F92CDB7DEB76983633829F4C4
:103AC0008FE694E00E94E22507C041E050E0BE018D
:103AD0006F5F7F4F0E94321D0F90DF91CF9108954D
:103AE00085EF93E00C94151DCF93DF93CDB7DEB730
:103AF00069970FB6F894DEBF0FBECDBFFC01DB01A6
:103B00009C919F5F9C93BE016F5F7F4F89E1DB01BA
:103B10001D928A95E9F729E0298384E08A8391E060
:103B20009D8383E08E832A8721E22B879C879D8754
:103B30009F8722E2288B25E3298B27E02B8B25E02A
:103B40002C8B8E8B20E430E0388F2F8B998F8281E5
:103B50008B83838180688D8B49E150E080E00E94F7
:103B6000992369960FB6F894DEBF0FBECDBFDF91E3
:103B7000CF910895FC01838180640C94EA220A9716
:103B80000C94BA1DFB0120812138B9F42381223223
:103B9000A1F4DC0112962C91129730E044815581FA
:103BA0004217530751F421E052962C9345E350E01D
:103BB00069EE74E080E80C94992380E090E0089529
:103BC000DC01FB0112968C91129790E024813581E3
:103BD00082179307D1F491818081813A31F481E099
:103BE000913091F0933089F411C0813271F49B309F
:103BF00021F4828152968C9305C09A3031F48281EF
:103C000053968C9381E00895089580E00895CF93B2
:103C1000DF93EC0181E08C838D839E012F5E3F4F0B
:103C20003F832E83198618861D861C861F861E8656
:103C3000188A2DE531E0398328832BE631E03B8774
:103C40002A878A8B8B8B81EC898B0E941C20BE017A
:103C5000DF91CF910C94D51F8EEF93E00C94071E4B
:103C6000CF93DF931F92CDB7DEB76983DC01ED916F
:103C7000FC910280F381E02D41E050E0BE016F5FD6
:103C80007F4F09950F90DF91CF910895CF93DF93E8
:103C9000EC018C859D8597FF05C082E00E94B922CA
:103CA0009D878C878C859D85DF91CF91089583E0DA
:103CB0000E94D02290E0089583E00C944D25FC01F1
:103CC0008485958597FD06C082E00E94652290E07C
:103CD0000196089582E00E94652290E00895FC011B
:103CE0008485958597FD05C02FEF3FEF35872487A5
:103CF000089582E00C94B922CF93DF93EC01809178
:103D00002901882331F083E00E94EA22181619065F
:103D100034F081E090E09B838A8380E090E0DF9143
:103D2000CF910895EEEFFFE72591349181E02B3F8D
:103D30003C4D09F080E00895FC0190819E5F9083E6
:103D400042E450E06EE175E080E80C949923FC01B8
:103D500081819081913A59F4813209F065C047E040
:103D600050E062E271E080E00E9499235BC09132F2
:103D700009F05AC0833269F482819381A0E0B0E0F7
:103D800080931E0190931F01A0932001B093210105
:103D900049C0803239F467E070E082E291E00E942D
:103DA000C02340C0823209F03DC082818093290146
:103DB0000E94921E882319F0EEEFFAE002C0E0E0C4
:103DC000F8E08091220190912301A0912401B0910B
:103DD0002501803B9440A105B10541F58091290161
:103DE00080FD24C0EE3F8AE0F80751F08081918188
:103DF000873727E7920721F09093FF0A8093FE0A06
:103E000087E797E7918380838091600080936204C5
:103E10009BE088E10FB6F894A895809360000FBEF0
:103E20009093600081E0089580E008958081918101
:103E300087379747B9F7A89580916000886180938C
:103E400060008091620480936000EE3F8AE0F80792
:103E500039F08091FE0A9091FF0A91838083E2CF2E
:103E60001092FF0A1092FE0ADDCF2FEF3FEFFC0108
:103E7000358724870895E2E1F4E01382128288EE08
:103E800093E0A0E0B0E084839583A683B78381E7C5
:103E900091E0918380838FEF9FEF958784870895CA
:103EA000EF92FF920F931F93CF93DF937B01FC015F
:103EB000C281D38100E010E0209781F0E881F98190
:103EC0000280F381E02DB701CE01099597FD08C06E
:103ED000080F191F0884D985C02DEECFC80102C074
:103EE0008FEF9FEFDF91CF911F910F91FF90EF9098
:103EF00008950F931F93CF93DF938B01FC01C28131
:103F0000D381209771F0E881F9810480F581E02D5B
:103F1000B801CE010995009731F40884D985C02DE8
:103F2000F0CF80E090E0DF91CF911F910F91089545
:103F30000F931F93CF93DF938B01FC01C281D38139
:103F4000209771F0E881F9810680F781E02DB801B2
:103F5000CE010995080F111D0884D985C02DF0CF19
:103F6000F8011082DF91CF911F910F9108950F9367
:103F70001F93CF93DF938B01FC01C281D3812097E4
:103F800071F0E881F9810190F081E02DB801CE0156
:103F90000995811105C00884D985C02DF0CF80E036
:103FA000DF91CF911F910F910895CF93DF93FC0183
:103FB000DB01218114968C91149790E0820F911D62
:103FC0000897A4F5C281D381209719F47383628383
:103FD00008C088859985009711F0EC01FACFB98760
:103FE000A887808112968C931297818113968C9367
:103FF0001397908115968C911597890F808380E097
:1040000014969C911497891798F41696CD91DC918B
:104010001797C80FD11D9881C181D0E0C65DDE4FD2
:10402000988391819F5F91838F5FEACF80E001C089
:1040300081E0DF91CF9108958091670481110DC0D7
:1040400082E08093630484E08093640410926604A9
:104050001092650481E08093670483E694E00895FC
:104060006115710579F0FB0101900020E9F73197A6
:10407000AF01461B570BDC01ED91FC910280F381EF
:10408000E02D099480E090E00895EF92FF920F9365
:104090001F93CF93DF938C017B01C0E0D0E0F70149
:1040A000EC0FFD1F6491662361F0D801ED91FC9146
:1040B0000190F081E02DC8010995892B11F021961E
:1040C000EECFCE01DF91CF911F910F91FF90EF9036
:1040D0000895DC01ED91FC910190F081E02D0994AF
:1040E0006FE771E00C9430200F931F93CF93DF9311
:1040F000EC010E9445208C01CE010E947020800FAF
:10410000911FDF91CF911F910F9108958F929F92F0
:10411000AF92BF92EF92FF920F931F93CF93DF93D3
:10412000CDB7DEB7A1970FB6F894DEBF0FBECDBFF7
:104130007C01FA01CB0119A2223008F42AE08E0199
:104140000F5D1F4F822E912CA12CB12CBF01A50118
:1041500094010E945427F901CA01015011096A30E3
:1041600014F4605D01C0695CD8016C93232B242B8F
:10417000252B61F7B801C7010E943020A1960FB628
:10418000F894DEBF0FBECDBFDF91CF911F910F918D
:10419000FF90EF90BF90AF909F908F900895211562
:1041A000310541F4DC01ED91FC910190F081E02DAD
:1041B000642F09940C9486209A01462F50E060E009
:1041C00070E00C94CF209A01AB0160E070E00C9499
:1041D000CF200F931F93CF93DF93EC010E945C26B7
:1041E000688779878A879B87E881F9810484F585C8
:1041F000E02DCE01099597FF17C00E945C26088527
:1042000019852A853B85DC01CB01801B910BA20B14
:10421000B30B0C811D812E813F8180179107A2076E
:10422000B30710F38FEF9FEFDF91CF911F910F91A5
:104230000895FF920F931F93CF93DF93EC018B01AF
:10424000F42ECE010E94E92097FD2DC08D329105FC
:1042500019F19C01205331092A30310520F1FF204A
:1042600019F08E329105D1F001301105D1F00230F4
:10427000110551F48D30910539F024F40997029716
:1042800018F00FC0809769F4E881F9810284F38502
:10429000E02DCE010995D5CF8DE201C08EE290E0F0
:1042A00002C08FEF9FEFDF91CF911F910F91FF9091
:1042B0000895BF92CF92DF92EF92FF920F931F93D8
:1042C000CF93DF938C01C42F40E00E941921FC01A1
:1042D00097FD47C0C12CD12C7601B12C0C2E000CBF
:1042E000DD0BEC17FD0709F1ED32F105E1F0CF012F
:1042F000C0970A97D0F4AAE0B0E0A70196010E9407
:1043000076276F01FF0FEE08FF08DC01CB018C0D53
:104310009D1DAE1DBF1D6C017D0120E3C21AD10899
:10432000E108F10802C0BB24B394D801ED91FC91DF
:104330000284F385E02DC8010995C8010E94E92097
:10434000FC01C0970A9768F2CE17DF0751F2BB2035
:1043500061F066277727CB016C197D098E099F09CB
:1043600006C060E070E0CB0102C0C701B601DF917A
:10437000CF911F910F91FF90EF90DF90CF90BF9062
:10438000089540917204509173042091700430910B
:10439000710442175307B4F49091E8009570E1F36B
:1043A0009091E80092FD19C08093F1008091720411
:1043B0009091730401968F739927892B19F48EEFCE
:1043C0008093E80080917204909173040196909319
:1043D00073048093720481E0089580E00895DF9271
:1043E000EF92FF920F931F93CF93DF93D82EF92E66
:1043F000E42E062F10E0C8010196880F0E94C1210B
:1044000083E00E94C121CD2DDF2D0C0F1D1FC01791
:10441000D10789F0E7FE03C0FE01849101C08881C5
:104420000E94C121F82E80E00E94C1218F21219697
:104430008111EDCF01C081E0DF91CF911F910F91EC
:10444000FF90EF90DF9008958091D7008160809376
:10445000D70080EA8093D80089B5806189BD89B58D
:10446000826089BD09B400FEFDCF61E070E080E0AC
:1044700090E00E948D268091D8008F7C806180938F
:10448000D8008091E000807F8093E0000895CF9372
:10449000DF931F92CDB7DEB71982CE0101960E943D
:1044A0009C1E0E941C20BE016F5F7F4F0E94501F08
:1044B00089810F90DF91CF9108952FB7FC01208360
:1044C000F89467706093E9000895CF93DF931F928B
:1044D000CDB7DEB7682FCE0101960E945D22809194
:1044E000F20099819FBF0F90DF91CF910895EF92D5
:1044F000FF920F931F93CF93DF931F92CDB7DEB739
:1045000090917604992311F057FF03C08FEF9FEF2E
:1045100028C08A017B01682FCE0101960E945D228E
:104520002091F20030E0021713070CF49801822F5B
:10453000F70194E6815030F0909377044091F100B8
:104540004193F8CF2115310521F08091F2008823A5
:1045500021F089818FBFC90104C08BE68093E800F8
:10456000F8CF0F90DF91CF911F910F91FF90EF90B7
:104570000895CF93DF931F92CDB7DEB741E050E0AF
:10458000BE016F5F7F4F0E947722019719F48981E6
:1045900090E002C08FEF9FEF0F90DF91CF910895D1
:1045A000CF93DF931F92CDB7DEB7682FCE01019670
:1045B0000E945D229091E800892F807295FF04C0CF
:1045C0009091F20080E4891B99819FBF0F90DF9149
:1045D000CF9108955F926F927F928F929F92AF9248
:1045E000BF92CF92DF92EF92FF920F931F93CF93E0
:1045F000DF931F92CDB7DEB7982E6B01B42E052F37
:1046000080917604811103C08FEF9FEF76C0809177
:10461000740480FF05C08091E00082608093E00018
:10462000EB2CF02EA12C8AEF882E892D8072682E1B
:10463000892D8074582E9AE3792EE114F10419F42F
:10464000AA2009F455C0892D0E94D022182F81116B
:104650000AC08A948820C1F261E070E080E090E0B6
:104660000E948D26EACF90E0E816F9060CF41E2D84
:10467000692DCE0101960E945D228091E80085FFA0
:1046800034C0812F90E0E81AF90A662029F0115011
:10469000A0F01092F100FBCFF60197FE0AC0115076
:1046A00050F024912093F1003196F9CF219120937D
:1046B000F1001150D8F7C80ED91EAA2019F0709237
:1046C000E8000BC08091E80085FD09C07092E80009
:1046D000AA24A394E114F10441F0A12C06C0E11432
:1046E000F10419F451107092E80089818FBFA5CFB1
:1046F00084E6809378048B2D902F0F90DF91CF91DB
:104700001F910F91FF90EF90DF90CF90BF90AF90EF
:104710009F908F907F906F905F9008951092E90026
:104720001092730410927204909371048093700439
:104730000895DF92EF92FF920F931F93CF93DF9331
:10474000D82E8A017B01E40EF51EEB01CE15DF05A4
:1047500071F0D7FE03C0FE01849101C088810E94E0
:10476000C12121968111F2CF8FEF9FEF01C0C801C7
:10477000DF91CF911F910F91FF90EF90DF900895FF
:10478000CF93DF93EC019B01B4E6ABEF211531052C
:10479000F1F0A9012134310514F040E450E080919A
:1047A000E80082FFFCCF942FFB01E21BF30BEC0F20
:1047B000FD1F915028F08091F10080833196F9CF50
:1047C000B0937704A093E800241B350BDFCFCB0117
:1047D000DF91CF9108951F920F920FB60F9211247F
:1047E000CF92DF92EF92FF920F931F932F933F93FD
:1047F0004F935F936F937F938F939F93AF93BF93E9
:10480000EF93FF93CF93DF93CDB7DEB76C97DEBF07
:10481000CDBF1092E9008091E80083FF1FC189E0BD
:10482000FE017596FE2E0F2F815029F09091F10018
:1048300090833196F9CF84E68093770482EF80935A
:10484000E8008D8987FF05C09091E80090FFFCCFBC
:1048500003C09EEF9093E800982F907609F0D7C0A0
:104860009E894F89588D2F89188D91110CC08038E1
:1048700029F4809175048093F10002C01092F10038
:104880001092F100E4C0913051F48111E0C0413048
:10489000510509F0DCC0809175048D7F0BC0933009
:1048A00061F48111D4C04130510509F0D0C080912C
:1048B0007504826080937504CAC0953049F4809174
:1048C000E80080FFFCCF822F80688093E300BFC0A8
:1048D000963009F06FC0CB8CDC8C123069F580E02B
:1048E00090E00E948E230E94472299E09E012F5F54
:1048F0003F4F7901F901292F11922A95E9F7998300
:104900001A8391E09E8390EA98879AEF9987209185
:10491000720430917304275F3F4F3C832B838D8358
:10492000C6010E948E2349E050E0B70180E00E945A
:1049300099230E9447228BC0C6010E948E230E94A9
:104940001C206F2D702F0E94791F009719F00CF01A
:104950007EC081C0113009F46FC0133009F07BC0F4
:104960008F89882309F46BC0823029F440E86CE019
:104970008CE795E006C0813039F440E869E082E7D1
:1049800095E00E94EF2155C0833009F064C00E9479
:104990001C208E010F5F1F4FB8010E94981FF80165
:1049A00001900020E9F73197BF01601B710B40E0D7
:1049B000C801E7CF973009F44EC0983021F481E068
:1049C0008093F10044C0993009F041C0837009F030
:1049D00042C0EBE2F1E081E031E096E32081211179
:1049E00009C08EE78093EA001092EA008F898093D5
:1049F00076042DC08093E9003093EB002191209341
:104A0000EC009093ED008F5F873041F7EACF8B8DFC
:104A10009C8D0E948E23898D811105C08F2D902F32
:104A20000E94A71E06C00E941C206F2D702F0E949E
:104A3000B71F882381F00BC060E675E002C069E80B
:104A400075E0FB01449150E080E80E9499238EEFCD
:104A50008093E80003C081E28093EB006C960FB670
:104A6000F894DEBF0FBECDBFDF91CF91FF91EF91E4
:104A7000BF91AF919F918F917F916F915F914F9176
:104A80003F912F911F910F91FF90EF90DF90CF906A
:104A90000F900FBE0F901F9018958093E9008091A2
:104AA000F200882319F08AE38093E80008951F92AA
:104AB0000F920FB60F9211242F933F934F935F9352
:104AC0006F937F938F939F93AF93BF93CF93EF9306
:104AD000FF93C091E1008091E100837F8093E1002A
:104AE000C3FF0FC01092E90081E08093EB001092A9
:104AF000EC0082E38093ED001092760488E08093CE
:104B0000F000C2FF15C083E00E944D25809178041B
:104B1000882329F0809178048150809378048091D3
:104B20007704882329F0809177048150809377045B
:104B3000C4FF10C08091E2008E7E81608093E2000D
:104B40008091E1008F7E8093E100809174048E7EDD
:104B5000806111C0C0FF11C08091E2008E7E806133
:104B60008093E2008091E1008E7E8093E10080914D
:104B700074048E7E816080937404FF91EF91CF91D5
:104B8000BF91AF919F918F917F916F915F914F9165
:104B90003F912F910F900FBE0F901F90189510927C
:104BA000760410927504109274040E942422E1EE9F
:104BB000F0E080818E7E80838DE08093E200559AC4
:104BC000209A08958091E0008D7F8093E00080918D
:104BD000E00081FD08C08091740480FF04C08091D2
:104BE000750481FD02C080E008950E942422809116
:104BF000E00082608093E00081E0089508950E94C3
:104C0000C9260E94FE258FE694E00E94CF250E94CF
:104C10005B03C0E0D0E00E9464032097E1F30E94B0
:104C20000000F9CF1F920F920FB60F9211242F930D
:104C30003F938F939F93AF93BF9380917A0490910A
:104C40007B04A0917C04B0917D043091790423E031
:104C5000230F2D3720F40196A11DB11D05C026E8B4
:104C6000230F0296A11DB11D2093790480937A042D
:104C700090937B04A0937C04B0937D0480917E0488
:104C800090917F04A0918004B09181040196A11DB0
:104C9000B11D80937E0490937F04A0938004B09311
:104CA0008104BF91AF919F918F913F912F910F9070
:104CB0000FBE0F901F9018952FB7F89460917A044B
:104CC00070917B0480917C0490917D042FBF0895A6
:104CD0003FB7F89480917E0490917F04A091800466
:104CE000B091810426B5A89B05C02F3F19F001960D
:104CF000A11DB11D3FBFBA2FA92F982F8827820F62
:104D0000911DA11DB11DBC01CD0142E0660F771FB1
:104D1000881F991F4A95D1F708958F929F92AF925D
:104D2000BF92CF92DF92EF92FF926B017C010E94C3
:104D300068264B015C01C114D104E104F10401F1C6
:104D40000E941F270E946826DC01CB01881999095F
:104D5000AA09BB09883E9340A105B10560F321E093
:104D6000C21AD108E108F10888EE880E83E0981E87
:104D7000A11CB11CC114D104E104F10419F7DBCF6B
:104D8000FF90EF90DF90CF90BF90AF909F908F906B
:104D90000895789484B5826084BD84B5816084BDB3
:104DA00085B5826085BD85B5816085BDEEE6F0E0A4
:104DB000808181608083E1E8F0E010828081826000
:104DC0008083808181608083E0E8F0E08081816081
:104DD0008083E1E9F0E0808182608083808181606E
:104DE0008083E0E9F0E0808181608083E1ECF0E0A5
:104DF0008081846080838081826080838081816003
:104E00008083E3ECF0E0808181608083E0ECF0E07F
:104E1000808182608083E2ECF0E080818160808329
:104E2000EAE7F0E080818460808380818260808313
:104E30008081816080838081806880830895089567
:104E4000991B79E004C0991F961708F0961B881FDC
:104E50007A95C9F780950895AA1BBB1B51E107C03D
:104E6000AA1FBB1FA617B70710F0A61BB70B881FFA
:104E7000991F5A95A9F780959095BC01CD01089589
:104E800097FB072E16F4009407D077FD09D00E94F7
:104E90002C2707FC05D03EF4909581959F4F0895EF
:104EA000709561957F4F0895A1E21A2EAA1BBB1B36
:104EB000FD010DC0AA1FBB1FEE1FFF1FA217B307E6
:104EC000E407F50720F0A21BB30BE40BF50B661FFC
:104ED000771F881F991F1A9469F7609570958095C0
:104EE00090959B01AC01BD01CF0108950E948727D9
:104EF000A59F900DB49F900DA49F800D911D11242E
:104F00000895EE0FFF1F0590F491E02D0994A29FE4
:104F1000B001B39FC001A39F700D811D1124911D8D
:104F2000B29F700D811D1124911D0895FB01DC01BC
:104F30008D91059080190110D9F3990B0895FB010B
:104F4000DC014150504030F08D910590801919F4EA
:104F50000020B9F7881B990B0895FB01DC0104C000
:104F60008D910190801921F441505040C8F7881B61
:104F7000990B0895F999FECF92BD81BDF89A9927B2
:104F800080B50895262FF999FECF1FBA92BD81BD35
:104F900020BD0FB6F894FA9AF99A0FBE01960895BB
:044FA000F894FFCFB3
:104FA400060315080400320001400001010001104D
:104FB4007F02FFFFFA00C409FFFA0001E803FFFFC4
:104FC400FFFF00E100000000000000C1808100003C
:104FD40000F0F1F4F5F6F767663635349790919260
:104FE4009300000000B0186818F918611800000058
:104FF40000301AE819761AD91900000000E01D746F
:105004001DC21D6118BA1DF6FF0000BF1D0000007F
:1050140000301E7C1E571E5C1E5F1E6F1E461E0D3A
:0E5024000A006E616E00696E66006F766600AF
:00000001FF
