:100000000C94AA020C94D2020C94D2020C94D20248
:100010000C94D2020C94D2020C94D2020C94D20210
:100020000C94D2020C94D2020C9438220C94CC2062
:100030000C94D2020C94D2020C94D2020C94D202F0
:100040000C94D2020C94D2020C94D2020C94D202E0
:100050000C941E040C94D2020C94D2020C94F32241
:100060000C94D2020C94D2020C94D2020C94D202C0
:100070000C94D2020C94D2020C94D2020C94D202B0
:100080000C94D2020C94D2020C94D2020C94D202A0
:100090000C94D2020C94D2020C94D2020C94D20290
:1000A0000C94D2020C94D2020C94D2022E004C007A
:1000B0002A00E10047C900001E00140004001D00D2
:1000C00034004D001F001A0016001B00E1022A0038
:1000D000200008000700060050002C002100150039
:1000E000090019004F004A00220017000A0005000D
:1000F000000076C2500001440000E30B0000E30062
:100100004F0001440000E2090000E20023001C004F
:100110000B00110000003AC0240018000D00100070
:1001200052004B0025000C000E0036005100280044
:10013000260012000F0037002F002B0027001300AD
:1001400045CA380030004E002D00310045C3E5009F
:100150002B4400002900000000000000FFFF000009
:100160003A001E0820082208000000003B001F087B
:1001700021082308000000003C002F0826082F005B
:10018000000000003D00300827083000000000009B
:100190003E00310835003508000000000000FFFF78
:1001A00000000000000000000000FFFF0000000051
:1001B000000000003F005200510024080000000031
:1001C0004000240021001E00000000004100250026
:1001D00022001F00370000004200260023002000FC
:1001E0002700000043002508000031002E00000019
:1001F0004400450000000000FFFF00000000000078
:1002000000000000000000000000000000000000EE
:10021000000000000000000004500000000000008A
:10022000000001500250000041500000000000009A
:1002300008500000425000000000000000000000D4
:1002400000000000000000000000000000000000AE
:10025000000000000000000000000000000000009E
:10026000000000000000000000000000000000008E
:10027000E95C0000000000000000B658EA5C0000E5
:10028000000000000000B558E24C00000000000033
:10029000FFFF00000000000000000000CD5800003B
:1002A00000000000637573746F6D006465666175AE
:1002B0006C74006F6E6C79437573746F6D006B6551
:1002C000796D61702E006B65796D61702E63757349
:1002D000746F6D0A6B65796D61702E64656661750A
:1002E0006C740A6B65796D61702E6F6E6C794375F5
:1002F00073746F6D00656570726F6D2E66726565E3
:1003000000656570726F6D2E636F6E74656E7473C9
:1003100000656570726F6D2E636F6E74656E7473B9
:100320000A656570726F6D2E66726565002F0063D9
:1003300072630076657273696F6E0076616C6964D2
:100340003F0064656661756C744C61796572007319
:10035000657474696E67732E0073657474696E6773
:10036000732E64656661756C744C617965720A738D
:10037000657474696E67732E76616C69643F0A7385
:10038000657474696E67732E76657273696F6E0A31
:1003900073657474696E67732E6372630066616C53
:1003A000736500747275650068656C700068656CD3
:1003B00070000D0A2E0005010906A101050719E0CC
:1003C00029E7150025017501950881029501750839
:1003D000810195057501050819012905910295010D
:1003E0007503910195067508150025FF050719008D
:1003F00029FF8100C0050C0901A101850415002613
:10040000FF0319002AFF03950475108100C0050140
:100410000906A1018508050719E029E7150025014E
:1004200075019508810205081901290895087501CB
:1004300091020507750495018101190429DD150054
:100440002501750195D98102750395018101C005CA
:10045000010902A1018501050919012908150025D5
:100460000195087501810205010930093109381526
:1004700081257F750895038106050C0A38021581D0
:10048000257F750895018106C005010980A10185B8
:1004900005150026FF00190029FF95017508810048
:1004A000C005010902A10105091901290815002546
:1004B0000195087501810205010930093116000016
:1004C00026FF7F75109502810209381581257F75F9
:1004D0000895018106C0080B000202020100090410
:1004E00000000102020000052400100105240101A2
:1004F00001042402060524060001070581031000FB
:100500004009040100020A00000007050202400041
:10051000000705830240000012010002EF020140C3
:10052000EDFE07130001010203014572676F446F7E
:100530007820455A004572676F446F7820455A000D
:10054000040309046806A00DB61685187519511A1A
:100550000D1B1C1C11241FBECFEFDAE0DEBFCDBF88
:1005600011E0A0E0B1E0E6E6F9E402C005900D92EA
:10057000A038B107D9F724E0A0E8B1E001C01D928E
:10058000AB3CB207E1F712E0CAEAD2E004C021971F
:10059000FE010E946224C23AD107C9F70E94E022FC
:1005A0000C94B1240C94000089E193E00E94AC0B00
:1005B00082E193E00E94540A87E593E00E9473135E
:1005C00083E493E00C946B0F89E193E00E94750C37
:1005D00080E090E00895EF92FF920F931F93CF93E6
:1005E000DF93EC01162FF42E022F242F462FBC018F
:1005F00087E593E00E94B9128130910539F02F2DE3
:10060000412FBE0183E493E00E94C80EDF91CF9199
:100610001F910F91FF90EF900895CF93DF93EC011E
:10062000BC0182E193E00E94DE0A019719F481E0A7
:1006300090E01AC0BE0182E293E00E94BA0D0197D9
:10064000B1F3BE0187E193E00E94F70C019779F3C3
:10065000BE0188E193E00E947E0C31E020E001972A
:1006600009F030E0832F922FDF91CF91089580E041
:1006700090E0089582E293E00E94DE0D87E593E02A
:100680000E94371383E493E00C94690E83E493E0B3
:100690000C94600E0F931F93CF93C0E000912A013A
:1006A00010912B0140E06C2FC8010E944D06CF5FD6
:1006B000C430C1F7C1E041E06C2FC8010E944D0673
:1006C0002FEF80E792E0215080409040E1F700C09A
:1006D0000000CF5FC43079F7C1E040E06C2FC80163
:1006E0000E944D062FEF80E792E02150804090401D
:1006F000E1F700C00000CF5FC43079F7CF911F91C0
:100700000F91089580E891E00E948F0385E00E9498
:100710006C0A0C944A0380E891E00C94B603CF93E2
:10072000DF9340E855E260E070E08BE594E00E94E2
:10073000161C0E94D40285E891E00E94CE030E941C
:10074000B0130E94BD140E94C7140E94EF08C0E0BD
:10075000D0E06D2F8C2F0E949008DF5FD630C9F754
:10076000CF5FCE30A9F7DF91CF9108950E943D234E
:10077000609381017093820180938301909384013F
:100780000E94E40285E891E00E9411060E943A036B
:100790000E947E140E942F140C9446030F931F9303
:1007A000CF93DF930FB6F894A8958091600088618D
:1007B00080936000109260000FBE64E670E080E0FD
:1007C00090E00E946E2300E810E089EAF80180833F
:1007D000C1E8D0E089E0888324982C983F988AB1BA
:1007E0008F7C8AB96E98479A8BB180638BB9769A61
:1007F00084E092E00E94AA068FE090E09093890046
:100800008093880090938B0080938A0090938D0052
:1008100080938C0080E18883F801108280E295E368
:10082000909387008093860081E1888381E08093A4
:100830006F00DF91CF911F910F9108951F920F923A
:100840000FB60F9211248F9381E0809301018F9155
:100850000F900FBE0F901F9018954F925F926F925E
:100860007F928F929F92AF92BF92CF92DF92EF9240
:10087000FF920F931F93CF93DF931092010184E0B7
:1008800092E00E944207C6E8D1E02FEE822E21E0DE
:10089000922E38EEE32E31E0F32E67015401412C05
:1008A000512CB4C08150888302E012E020E090E037
:1008B0008981882321F081508983022F192F8A8111
:1008C0008111CEC00460102F8B818111CFC00860D0
:1008D000102F8C818111C1C00061102F8D81811179
:1008E000B9C00062102FB20184E092E00E940A07B2
:1008F000F70191917F01702E709479228123782ADB
:10090000972590FF03C080910201888391FF03C067
:1009100080910201898392FF03C0809102018A8342
:1009200093FF03C0809102018B8394FF03C08091E9
:1009300002018C8395FF03C0809102018D83F60133
:1009400071926F01B201695F7F4F8AA5882309F414
:100950007BC081508AA712E092E0692E20E090E0EF
:100960008BA5882321F081508BA7122F692E8CA58F
:10097000811167C01460612E8DA581115FC0186060
:10098000612E8EA5811157C01061612E8FA5811136
:100990004FC01062612E84E092E00E940A07F501C8
:1009A00091915F01712E709479228621782A972582
:1009B00090FF03C0809102018AA791FF03C080913C
:1009C00002018BA792FF03C0809102018CA793FFC5
:1009D00003C0809102018DA794FF03C080910201A2
:1009E0008EA795FF03C0809102018FA7F401719239
:1009F0004F01B20184E092E00E94F006FFEF4F1A2F
:100A00005F0A269687E04816510499F1B20184E006
:100A100092E00E94C706B20184E092E00E94F006D4
:100A2000888181113FCF03E013E021E091E040CFC6
:100A300081508FA7B0CF81508EA7A8CF81508DA7AE
:100A4000A0CF81508CA798CF13E083E0682E21E0DF
:100A500091E086CF81508D8346CF81508C833ECFED
:100A600081508A838B81882309F431CF81508B8315
:100A700030CFDF91CF911F910F91FF90EF90DF90DA
:100A8000CF90BF90AF909F908F907F906F905F902E
:100A90004F9008953F924F925F926F927F928F9204
:100AA0009F92AF92BF92CF92DF92EF92FF920F93FD
:100AB0001F93CF93DF93C8EED1E006EF11E0312C06
:100AC0004AC0432F31FB662460F8712CB301660FD6
:100AD000771F81FB222720F9262B09F097C042FBC4
:100AE000EE24E0F8F12CB701660F771F82FB222776
:100AF00020F9262B09F07FC043FBCC24C0F8D12C71
:100B0000B601660F771F83FB222720F9262B09F0F9
:100B100067C044FBAA24A0F8B12CB501660F771F6B
:100B200084FB222720F9262B09F04FC045FB88249F
:100B300080F8912CA401440F551F85FB882780F96C
:100B4000282F242B09F5F80131938F013394219636
:100B5000FEE03F1641F1F8018081388130FB4424EA
:100B600040F8512CA201440F551F282F2170242B2F
:100B700009F4A7CF40E0632D80E090E00E94CE070B
:100B8000F801808138819DCF45E0632D80E090E0C1
:100B90000E94CE073881F80131938F01339421965A
:100BA000FEE03F12D8CFDF91CF911F910F91FF90C0
:100BB000EF90DF90CF90BF90AF909F908F907F90FD
:100BC0006F905F904F903F90089544E0632D80E0D8
:100BD00090E00E94CE07F80180813881432FA6CF94
:100BE00043E0632D80E090E00E94CE07F801808111
:100BF0003881432F8ECF42E0632D80E090E00E9449
:100C0000CE07F80180813881432F76CF41E0632DF4
:100C100080E090E00E94CE07F80180813881432F68
:100C20005ECFCF93DF93EC0180910101882329F0FF
:100C300010920101CE010E942D04CE01DF91CF91CF
:100C40000C944A056E30A8F4463098F4E62FF0E094
:100C5000E652FE4F81E090E0A0E0B0E004C0880FD3
:100C6000991FAA1FBB1F4A95D2F7809590818923AF
:100C7000808308956E3078F4463068F4E62FF0E013
:100C8000E652FE4F808190E002C0959587954A9587
:100C9000E2F78170089580E0089570E024B16C5F00
:100CA0007F4F81E090E001C0880F6A95EAF7442306
:100CB00039F0922F982B94B995B1892B85B9089565
:100CC0008095922F982394B995B1892385B9089579
:100CD00080E2809304020895CF930E94830768EE18
:100CE00073E080E090E00E946E2380E40E94890718
:100CF000C82F81112AC080E00E94B307C82F81113C
:100D000024C080E00E94B307C82F81111EC08FE36A
:100D10000E94B307C82F811118C00E94AB0780E45E
:100D20000E948907C82F811110C08CE00E94B30770
:100D3000C82F81110AC080E00E94B307C82F81111B
:100D400004C08FE30E94B307C82F0E94AB078C2F0B
:100D5000CF910895CF93DF93EC010E946C068883B6
:100D600080B38C7080BB81B3836F81BB84B18F6093
:100D700084B985B18F6085B98AB18C608AB98BB12D
:100D80008C608BB93E9A469ADF91CF9108951F935C
:100D9000CF93DF93FC012081222321F0DF91CF91BB
:100DA0001F910895162FEC0180E40E948907888323
:100DB000882329F0DF91CF911F910C94AB0782E13A
:100DC0000E94B30788838111F5CF81E090E001C0D4
:100DD000880F1A95EAF780950E94B3078883EACFB7
:100DE000FB01E45DFE4F9081E92FF0E0F595E7957A
:100DF000F595E795F595E795F595E79532A1292FB6
:100E00002F7081E090E001C0880F2A95EAF78327D0
:100E100082A30895CF93DF936730710544F4FC01FA
:100E20002081222381F080E0DF91CF9108959FB14E
:100E30008FB1807F869586959370892B80958F736F
:100E4000DF91CF910895EC0180E40E9489078883A7
:100E5000882339F0C0E00E94AB078C2FDF91CF913F
:100E6000089583E10E94B30788838111F3CF81E461
:100E70000E94890788838111EDCF0E94C407C82F83
:100E8000C095E9CF0F931F93CF93DF93EC0180912F
:100E9000090281110DC00E943D23609305027093E9
:100EA0000602809307029093080281E08093090272
:100EB0008881882319F10E943D2300910502109139
:100EC00006022091070230910802DC01CB01801B51
:100ED000910BA20BB30B88389341A105B10570F0BB
:100EE000CE010E946C0688830E943D236093050218
:100EF000709306028093070290930802DF91CF91CE
:100F00001F910F9108951092B9008AE08093B80064
:100F1000089594EA9093BC009091BC0097FFFCCF99
:100F20009091B900987F983021F0903111F081E0D4
:100F300008958093BB0084E88093BC008091BC003E
:100F400087FFFCCF8091B900887F883111F0803411
:100F500071F780E0089584E98093BC008091BC0023
:100F600084FDFCCF08958093BB0084E88093BC008F
:100F70008091BC0087FFFCCF9091B900987F81E001
:100F8000983209F480E0089584E88093BC00809151
:100F9000BC0087FFFCCF8091BB000895EF92FF92C9
:100FA0000F931F93CF93DF9300D0CDB7DEB79A8313
:100FB0008983062FF42E122F6E3008F049C025E0E9
:100FC000241708F445C0812F8270E82E11FF19C044
:100FD00010FD17C089819A81009711F016FF05C096
:100FE0006F2D802F0E9490080CC026E0629FF001B8
:100FF0001124E40FF11DEE0FFF1FEB59FD4F9183FC
:1010000080834F2D602F85E891E00E943A06882367
:1010100051F010FF69C0E11067C04F2D602F85E8C7
:1010200091E00E94220629813A8180E090E0281711
:10103000390771F486E0089FF0011124EF0DF11DCE
:10104000EE0FFF1FEB59FD4F808191819A838983B9
:10105000212F4F2D602FCE0101960E94EB02892B8C
:1010600009F042C0212F4F2D602F89819A810E9463
:10107000FE099A83898320E030E082179307A1F16B
:10108000F9800A8106FF1AC007FD2EC003FF07C0C2
:1010900011FF2AC08F2D902F0E94C11425C000FF80
:1010A00023C011FD21C010FF1FC08F2D902F0E9463
:1010B000CB148F2D902F0E94D01416C0812F8170D9
:1010C00011FF0AC0811102C061E001C060E08F2DF4
:1010D000902F0E94ED1308C0882331F017FF04C041
:1010E0008F2D902F0E943F140F900F90DF91CF9182
:1010F0001F910F91FF90EF90089550E096E0699F47
:10110000400D511D1124FA0194E5899FE00DF11D58
:101110001124EE0FFF1FE455FF4F85919491089520
:10112000CF93DF93462F262F30E096E0899FF00182
:101130001124EF01C20FD31FCC0FDD1FCB59DD4FA0
:10114000EF5EFD4FDF01A20FB31FE0910301F091AD
:101150000401682F8C91099599838883DF91CF9141
:1011600008950F931F9380910001815040910E03C9
:1011700050910F036091100370911103882389F03F
:101180008A019B01082E04C036952795179507956F
:101190000A94D2F700FF03C080930D0304C081506E
:1011A000EDCF10920D031F910F9108950F931F9390
:1011B00040910E0350910F03609110037091110341
:1011C0008A019B0104C036952795179507958A9546
:1011D000D2F7D901C80181701F910F910895DF9254
:1011E000EF92FF920F931F93CF93DF9384E5E1E19A
:1011F000F2E0DF011D928A95E9F77F01D0E000E07F
:1012000010E0D02EC0910D031C16B4F48C2F0E9458
:10121000D608882379F0E0910301F09104014D2D67
:101220006D2F8C2F0995019629F0F701E00FF11F22
:10123000C08302C0C150E8CF0F5F1F4F06301105B9
:1012400001F7DF5F26E0E20EF11CDE30C1F6DF9130
:10125000CF911F910F91FF90EF90DF9008950F9322
:101260001F9300910E0310910F03209110033091F2
:101270001103B901A801082E04C07695679557950A
:1012800047950A94D2F740FF28C041E050E060E063
:1012900070E0082E04C0440F551F661F771F0A9484
:1012A000D2F7409550956095709540235123622365
:1012B000732340930E0350930F03609310037093B6
:1012C000110390910D03891302C00E94B1080E947E
:1012D000EF081F910F910C9437031F910F91089500
:1012E000CF9390910001891780F5C82F0E94D608EE
:1012F00081112BC081E090E0A0E0B0E00C2E04C092
:10130000880F991FAA1FBB1F0A94D2F740910E03A2
:1013100050910F036091100370911103842B952B52
:10132000A62BB72B80930E0390930F03A09310036B
:10133000B093110380910D038C1710F40E94B10833
:101340000E94EF08CF910C943703CF91089510922B
:101350000E0310920F0310921003109211030C94BD
:10136000700980910D038F5F0C94700980910D03BB
:101370000C942F09CF93C82F862F8270CA3248F160
:10138000CA52C13289F0C232C9F46170882329F08F
:10139000611103C0CF910C94B109662369F18111E9
:1013A0002BC0CF910C94B6096170882311F066238D
:1013B000C1F3662309F181111FC0ECCF882331F0FE
:1013C0008C2F0E94D608811117C012C060FD0CC07E
:1013D00013C0882389F060FD0FC08C2F0E94D608AF
:1013E000882331F0CC2321F08C2FCF910C942F093E
:1013F0008C2FCF910C947009CF910895943429F4D7
:10140000622F0E94BA0980E090E008950F931F9325
:10141000CF9390911403891718F080E090E01CC0DE
:1014200096E0699FB001112494E5899F600D711DBC
:101430001124640F711D660F771F00911503109121
:101440001603060F171FC8010E949B24C82FC8014E
:1014500001960E949B249C2FCF911F910F9108957C
:1014600090911303891718F40E947D080895891B31
:101470000E94060A0895FF920F931F93CF93DF9364
:10148000EC01F62E08811981C8010E949B24F816F0
:1014900021F06F2DC8010E94A324CE01DF91CF91CE
:1014A0001F910F91FF90089589E193E00E94AC0B8A
:1014B000809100018093130380E090E00895809371
:1014C000140328EA829FC00111240E94E30B909329
:1014D00016038093150308958093000190911C03D7
:1014E00097FF03C026E03AE007C090911303980FDE
:1014F0009093000120E33AE030930401209303012C
:101500000C945F0AFF920F931F93CF93DF9300D049
:10151000CDB7DEB7F62E672F8C01000F111F80911B
:10152000150390911603800F911F9A838983CE0132
:1015300001960E943B0A8091150390911603019633
:10154000080F191F1A8309836F2DCE0101960E947F
:101550003B0A0F900F90DF91CF911F910F91FF9059
:101560000895EF92FF920F931F93CF93DF93082F6D
:101570007B01C0E0C017D9F0D0E010E0412F6D2F03
:101580008C2FF70109954AE050E0BC018BE594E00F
:101590000E94C41D60E28BE594E00E944A1D1F5F1B
:1015A000163061F7DF5FDE3041F7CF5FE3CFDF91C9
:1015B000CF911F910F91FF90EF900895CF93DF93FC
:1015C000EB0146EC52E082E293E00E94A50D81110E
:1015D00087C047E050E06EEB72E0CE010E948024AD
:1015E000892B09F07DC0279663EB72E0CE010E9443
:1015F0007724892BB9F58BE594E00E94271B0A9785
:1016000089F460911C0367FB662760F94AE050E0AB
:101610008BE594E00E94BD1D60E28BE594E00E94A2
:101620004A1D61C041E060E070E08BE594E00E94FB
:101630003A1EC62F862F0E94350C8091140380938A
:101640000001CC2319F086E09AE007C090911303C3
:10165000890F8093000180E39AE0909304018093C6
:10166000030141C06BEA72E0CE010E947724892B0E
:1016700029F46DE778E08091130314C064EA72E006
:10168000CE010E947724892B59F58BE594E00E94C6
:10169000271B0A9719F0C0E0D0E01BC066E07AE093
:1016A000809114030E94B10A1EC08091140324E5A6
:1016B000829FC0011124C817D907A8F441E060E057
:1016C00070E08BE594E00E943A1ECE010E94820AEF
:1016D00021968BE594E00E94271B0A9721F0E5CF25
:1016E00080E090E002C081E090E0DF91CF9108952A
:1016F0004AE050E0682F8BE594E00E94BD1D60E257
:101700008BE594E00C944A1DEF92FF920F931F9388
:10171000CF93DF9300D0CDB7DEB78CE1E82E83E026
:10172000F82E00E010E0F70161917F011A83098330
:10173000CE0101960E943B0A0F5F1F4F0430110536
:1017400091F78CE193E00F900F90DF91CF911F9173
:101750000F91FF90EF9008950F931F93CF93DF9316
:101760000CE113E0C0E0D0E0CE010E949B24F80120
:1017700081938F012196C430D105B1F780911D036B
:101780008F3F71F480911C03982F9F779F3719F436
:1017900087FD10921C0381E080931D030E94840B3F
:1017A00080E090E0DF91CF911F910F91089580919B
:1017B0001A03882329F080911E0390911F03089536
:1017C00080E090E008950F931F93CF93DF9300D0B4
:1017D000CDB7DEB79A83898380911A03811116C031
:1017E000009105011091060189819A81800F911F56
:1017F000909306018093050142E0BE016F5F7F4F29
:1018000080E293E00E947B0DC80102C080E090E07E
:101810000F900F90DF91CF911F910F9108950E942B
:10182000840B81E080931B030895CF93C82F809190
:101830000001C81758F48C2F0E94A70980911C033F
:1018400080789C2F9F77892B80931C03CE3730F0B4
:1018500080911C0380788E6780931C030E940F0C7C
:1018600080911C038F77CF91089590911C0380FB8A
:1018700097F990931C03892F8F778F3721F49078F5
:101880009E6790931C030C940F0C81E080931A03C5
:1018900060E180E293E00E94620D80911D0381303F
:1018A00019F010921B03089520911E0330911F031D
:1018B00080912003909121032F3F4FEF340739F49B
:1018C00090931F0380931E030E940F0C03C02817E0
:1018D000390751F480911C038F77282F30E02E3781
:1018E000310514F40C94A709089580911A0381110D
:1018F00002C00E94450C80E090E00895CF93DF93F2
:10190000EB0149E553E082E293E00E94A50D8111CD
:1019100028C049E050E06FE473E0CE010E948024CB
:10192000892BF9F4299662E473E0CE010E947724B2
:10193000892BA9F16BE373E0CE010E947724892BF8
:1019400009F442C063E373E0CE010E947724892B3F
:1019500009F444C06FE273E0CE010E947724892B22
:1019600019F080E090E040C00E94D70BEC0160913C
:101970002003709121034AE050E08BE594E00E943F
:10198000C41D6DE273E08BE594E00E94261D4AE0E1
:1019900050E0BE018BE594E00E94C41D23C08BE59E
:1019A00094E00E94271B0A9721F480911C038F77F3
:1019B00017C041E060E070E08BE594E00E943A1EC1
:1019C000862F0E94150C0EC080911B030E94C10D32
:1019D00060E28BE594E00E944A1D04C080911D03E3
:1019E0000E94780B81E090E0DF91CF9108950F93F2
:1019F0001F93CF93DF9300D0CDB7DEB78B0141E1CA
:101A000053E082E293E00E94A50D81110EC061E0D7
:101A100073E0C8010E947724892BF1F065EF72E032
:101A2000C8010E947724892B19F080E090E043C020
:101A3000809105019091060160E074E0681B790BCC
:101A40004AE050E08BE594E00E94C41D60E28BE523
:101A500094E00E944A1D2DC08BE594E00E94271B54
:101A600000E010E00A97F9F4C8010E949B240E944C
:101A7000780B0F5F1F4F011584E01807A9F719C0F5
:101A800041E060E070E08BE594E00E943A1E1A832A
:101A90000983CE0101960E943B0A0F5F1F4F01157B
:101AA00084E0180731F08BE594E00E94271B0A9729
:101AB00039F781E090E00F900F90DF91CF911F9167
:101AC0000F910895FC01208131812170332781E03D
:101AD000861770F440815181569547955183408314
:101AE000220F331F41705527242B352B8F5FF0CFEA
:101AF000318320830895DC01FB01415000F15191B5
:101B000068E070E081E02D913C911197952F98232A
:101B100011F4932F02C0932F9095991F9927991F25
:101B2000220F331F992319F095E029273058119679
:101B30003C932E93880F6150710929F7DECF0895E9
:101B400010922103109220030895CF93DF93CB01CD
:101B5000EA016DEA73E00E947724892B39F4BE0113
:101B60008BE594E00E94551D81E001C080E0DF918B
:101B7000CF91089548EA53E00E94A50D80E090E0DF
:101B80000895811103C06DE973E002C063EA73E058
:101B90008BE594E00C94261D8BE594E00E94401B9D
:101BA000892B59F08BE594E00E94271B0A9729F0B6
:101BB0008BE594E00E94501BF5CF0895EF92FF92C1
:101BC0000F931F93CF938BE594E00E94401B892BCA
:101BD000D9F103E213E0C0E0CF5F8BE594E00E940F
:101BE000501B7801F80180838BE594E00E94271B4D
:101BF0000A9741F00F5F1F4FF7018081803211F08B
:101C0000C03251F78C2F90E0FC01EE5DFC4F20813B
:101C1000203219F0FC01ED5DFC4F108283E293E06D
:101C20000E940D0362EB73E08BE594E00E94551D6A
:101C30000E94CC0D8BE594E00E94271B0A9721F4AB
:101C40008BE594E00E94501B80E090E0CF911F91C3
:101C50000F91FF90EF9008952091810130918201C2
:101C60004091440350914503B901641B750BAB01CE
:101C700060910701709108016417750700F53093B2
:101C800045032093440380FF04C020E040910901F4
:101C900012C081FF05C040910901419520E00BC0B1
:101CA00082FF04C020910901219504C083FF07C071
:101CB0002091090140E060E080E00C94D814089580
:101CC0000E942B150E94271510924A0380E090E095
:101CD000089580914A03811103C010924D0355C0AD
:101CE0002091810130918201409148035091490334
:101CF000B901641B750BAB0160910D0170910E0170
:101D00006417750708F041C03093490320934803D6
:101D10004091460350914703B901641B750BAB0119
:101D200060910A0170910B0164177507A0F460912E
:101D30004D0390910C01E62FF0E04FEF50E0491B6E
:101D40005109E417F5071CF4960F90934D03309357
:101D500047032093460380FF04C060910F01619503
:101D600006C081FF03C060910F0101C060E082FFE7
:101D700004C080910F01819506C083FF03C080914C
:101D80000F0101C080E00E94421080E090E00895C1
:101D90000F93CF93FB018181803509F062C0808170
:101DA000282F2072902F9270382F307486FF16C023
:101DB000211114C0C82FCF7B0170992341F001116C
:101DC00002C00E949C0F8C2F0E94740F78C00023C9
:101DD00009F475C08C2F0E94760F71C021111DC0AF
:101DE0000170992309F440C0011165C0209181015F
:101DF0003091820130934903209348033093470385
:101E0000209346034091070150910801241B350B94
:101E100030934503209344034EC0992309F44FC0E7
:101E200000FD4DC080FD02C090E001C092E021E0C5
:101E3000311101C020E0922B81FD02C020E001C0E1
:101E400024E0922B82FD02C020E001C028E0922B0A
:101E500083FD02C080E001C080E1892B0E94A20FB7
:101E60002EC080E090E034C0002349F1809590912D
:101E70004A03892380934A038081982F937031F01D
:101E800020E084FD0DC040E061E011C0982F9C70FF
:101E900049F084FD09C020E040E060E081E008C036
:101EA00041E004C020E001C021E040E060E080E0CB
:101EB0000E94E31404C084FF05C00E942C0E81E040
:101EC00090E006C090914A03892B80934A03F7CF94
:101ED000CF910F9108950E94700F80E090E00895D7
:101EE0000E94D4140C942F150C941D150E942215D9
:101EF00010924E03089556954795640F751F3695B9
:101F0000279540E0820F931F0C943B1510925003CD
:101F100010924F0310925203109251038FEF9FE7DC
:101F200090935603809355039093540380935303E7
:101F300081E080934E03089580914E0381110C94AB
:101F4000860F08950F931F93CF93C82F80914E0350
:101F5000811102C00E94860FC0FF06C010924E037E
:101F6000CF911F910F910895E09112010E2F10E073
:101F70008091550390915603B8010E940D249B0156
:101F800070935603609355038091530390915403CB
:101F9000B8010E940D24AB01709354036093530366
:101FA0007C2F747080914F0390915003E091510306
:101FB000F09152036C2F6670663071F4820F931F9C
:101FC0009093500380934F03BA016E0F7F1F70935D
:101FD00052036093510334C0772361F0D801119705
:101FE000A49FB001A59F700DB49F700D1124E60F42
:101FF000F71F04C0C1FD06C0E40FF51FF0935203A4
:10200000E0935103C4FF0CC0F8013197E29FB00187
:10201000E39F700DF29F700D1124860F971F04C06F
:10202000C3FD06C0820F931F9093500380934F030C
:10203000609151037091520380914F03909150032E
:10204000CF911F910F910C947B0F87FD0AC0889F41
:10205000C0011124880F892F881F990B91958F5FDC
:10206000089520E031E0281B3109229FC001239F01
:10207000900D900D1124880F892F881F990B919531
:1020800080950895EF92FF920F931F93CF93DF9364
:10209000182F062F80911101E82EF12C112309F43D
:1020A0004CC0662381F123E6829FC00111246CE8B5
:1020B00070E00E9421246115710509F07B01212F38
:1020C000012E000C330B43E61402C00111246CE80E
:1020D00070E00E9421246115710509F09B01122F07
:1020E000202F002E000C330B43E60402C001112404
:1020F0006CE870E00E9421246115710509F09B01D4
:10210000022F1123D1F080914D030E942510909150
:102110004C03282F1203E0011124C90FD11D97FD94
:10212000DA95EC16FD0664F0882799278E199F0929
:10213000C817D90734F4EC0104C0C0E0D0E001C0F6
:10214000E7010023D9F080914D030E9425102091D2
:102150004B03382F0303C0011124820F911D27FD6B
:102160009A95E816F90664F0222733272E193F09BD
:102170007C018217930724F4790102C0E12CF12C31
:1021800010924E032091100130E0C701B9010E9466
:102190002124E62FCE01B9010E942124862F20E0C0
:1021A00040E06E2F0E94D8142091100130E0CE0143
:1021B000B9010E94212480934C03C701B9010E94F8
:1021C000212480934B03DF91CF911F910F91FF90BA
:1021D000EF9008959C01AC014151504C413068E0B2
:1021E000560710F4842F07C02251384C213048E0A4
:1021F000340710F4822F90E008959C01AC01415106
:10220000504C413068E0560730F4252F33272052D8
:102210003F4FC90108952251384C213048E034071E
:1022200018F48AE2830F94E408951F93CF93DF9309
:10223000182F8F3F91F14091750350E0C0917603C4
:10224000D091770336E0632F0E94012420E0389F6D
:10225000F0011124EF5EFD4FE90FF11DA22F022EB8
:10226000000CBB0BA417B507C4F4AA0FBB1FAA0F21
:10227000BB1FAC0FBD1F11968C91119718130BC08B
:102280008C918F3F61F0082E000C990B608170E0FB
:102290008617970721F02F5FE1CF8FEF01C0822FC4
:1022A000DF91CF911F91089540915B0350E090E042
:1022B000292F092E000C330B241735076CF4F90174
:1022C000EE0FFF1F2E0F3F1FF901E45AFC4F208134
:1022D000281721F09F5FECCF8FEF0895892F089585
:1022E000BF92CF92DF92EF92FF920F931F93CF9303
:1022F000DF93CDB7DEB76D970FB6F894DEBF0FBE94
:10230000CDBFC82ED62E10915C03812F0E941511CF
:10231000B82EA6E0812F6A2F0E940124F82EE92E04
:10232000A89FD0011124AF5EBD4FA90FB11DE09150
:102330000301F0910401492F682F8C9109958C01BC
:102340008151904C8230904108F467C02FEFB21257
:1023500087C081E080935A038DE1E9EDF3E0DE016F
:10236000119601900D928A95E1F7C090F6038DE1E8
:10237000E6EFF3E0A9EDB3E001900D928A95E1F765
:1023800022E04E2D6F2DC8010E94CE070E947E14C0
:102390008DE1FE013196A9EDB3E001900D928A9591
:1023A000E1F7D1FE07C023E04E2D6F2DC8010E943A
:1023B000CE070DC021E04E2D6F2D80E090E00E94F1
:1023C000CE0780915B03823010F0C092F60310922A
:1023D0005A0320E080915B032817D0F4822F90E00D
:1023E000DC01AA0FBB1FA80FB91FA45ABC4F01964E
:1023F000FC01EE0FFF1F8E0F9F1FFC01E45AFC4FE4
:10240000C080D180E280CD92DD92EC922F5FE2CF4E
:10241000815080935B0381E032C0C1101CC0809169
:1024200074038823A1F080915B03823080F0809157
:1024300013018F3F61F40E943D2370935903609311
:10244000580380915C038093130180E018C0C80199
:102450000E94EA1003C0C8010E94FD108C0179CFD0
:10246000CC20E9F2E0917603F09177038B2D94E094
:102470008902E00DF11D1124028113816ACF6D964E
:102480000FB6F894DEBF0FBECDBFDF91CF911F9185
:102490000F91FF90EF90DF90CF90BF900895CF9372
:1024A000DF938F3FA1F0C82FD0E0DC1754F4809168
:1024B0005B03882361F063E081E00E947011DF5FBD
:1024C000F4CF61E080E0DF91CF910C947011DF9147
:1024D000CF910895CF93C6E080915B03882309F1E3
:1024E00020915C03822F6C2F0E940124C89FF00171
:1024F0001124E90FF11DEE0FFF1FEB59FD4F8081F5
:1025000091818151904C8230904158F0822F0E94ED
:1025100015118F3F31F463E080E00E94701181114A
:10252000DBCFCF9108951F93CF93DF93182F809126
:102530005B03883031F463E080E00E9470110E94F8
:102540006A12C0915B03D0E0CE01880F991FC80FBB
:10255000D91FC45ADC4F18830E943D237A836983B4
:1025600080915B038F5F80935B03DF91CF911F911D
:102570000895EF92FF920F931F93CF93DF934E3006
:1025800008F06CC0263008F069C007FD67C07B0109
:1025900080911601811109C0F701808191810E940B
:1025A000EA10F7019183808359C0842F880F480F68
:1025B000440FC42FC20F8C2F0E94151190915A0303
:1025C00091114CC0D02FD170102F127001FF13C089
:1025D000D11111C090915B03911108C0F7012081C6
:1025E00031812151304C22303041B0F58C2F0E9486
:1025F000931281E034C08C2F0E945411DD2329F105
:10260000111123C08F3F51F1C0911301CF3FC1F091
:102610000E944F120E946A1281E080935A038C2F0D
:1026200066E00E94012421E0492F682F80E090E0BD
:102630000E94CE0710925A038FEF80931301ACCF04
:102640000E944F120E946A12A7CF21E090E08F3FB4
:1026500009F420E0822F04C08F3F41F680E090E033
:10266000DF91CF911F910F91FF90EF900895CF933D
:10267000DF930E943D23EB01209113012F3F51F185
:102680002091580330915903621B730B809174039E
:1026900090E08617970714F561E080E00E947011C2
:1026A0000E946A128FEF8093130118C080915D031E
:1026B00090915E039E01281B390B8091140190912B
:1026C00015018217930750F463E081E00E947011B6
:1026D0000E946A1280915B038111E8CF80E090E054
:1026E000DF91CF910895ECE5F3E08FEF80831282C4
:1026F0001182339693E0E437F907C1F710925B0338
:1027000080E090E00895CF93DF9300D000D000D018
:10271000CDB7DEB7DC0113967C936E9312971596B6
:102720005C934E93149716963C91169739837B834E
:102730006A835D834C832E83ED91FC910190F0813F
:10274000E02D46E050E0BE016F5F7F4F0995269671
:102750000FB6F894DEBF0FBECDBFDF91CF910895C5
:1027600089ED93E00E9473198BE793E00C94A61611
:10277000CF93C82F8BE793E00E940F166C2F811127
:1027800005C08BE793E0CF910C94401689ED93E060
:10279000CF910C941319CF93C82F83FF04C081EEFF
:1027A00090E00E94B813C0FF04C080EE90E00E9449
:1027B000B813C1FF04C082EE90E00E94B813C2FFBC
:1027C00004C086EE90E00E94B813C4FF04C083EEFC
:1027D00090E00E94B813CF910895CF93DF93D82F44
:1027E000C92F907C662399F080917803811102C0F3
:1027F00010927A0380917A038C2B80937A03911143
:1028000004C080E28D0F883020F0D09378039111BE
:1028100008C080E28D0F883020F48C2F0E94CB13EB
:1028200005C0809179038C2B809379038D2F9C2F89
:10283000DF91CF910C94B813CF93C82F8BE793E01F
:102840000E940F166C2F811105C08BE793E0CF918A
:102850000C94681689ED93E0CF910C943A198BE7AC
:1028600093E00E949F16109278031092790389EDED
:1028700093E00E9463198BEB93E00C944A18CF937A
:10288000DF93D82FC92F80917A03892780937A0309
:10289000892F807C21F480E28D0F883058F0809160
:1028A00078038D1302C010927803809179038C27EE
:1028B00080937903C3FF04C081EE90E00E941C1452
:1028C000C0FF04C080EE90E00E941C14C1FF04C051
:1028D00082EE90E00E941C14C2FF04C086EE90E0DD
:1028E0000E941C14C4FF04C083EE90E00E941C14DC
:1028F0008D2F9C2FDF91CF910C941C149091790314
:1029000080917A0389230E94CB138BE793E00E9486
:102910000F1660917803811116C0662381F08BE752
:1029200093E00E9468168BE793E00E941216609174
:1029300078038BE793E00E944016109278038BE7B0
:1029400093E00C941216662381F089ED93E00E94C7
:102950003A1989ED93E00E94B3186091780389EDEC
:1029600093E00E9413191092780389ED93E00E947E
:10297000B3188BEB93E00C945D188BEB93E00C9405
:102980008318BC0173708BEB93E00C9435188EE3C5
:1029900094E00C94371A682F8EE394E00C94391A63
:1029A0008EE394E00C94351A86E294E00C94D119ED
:1029B0000F93022F242F462F682F86E294E00E9467
:1029C00079190F910895FF920F931F93CF93DF937F
:1029D00000D000D01F92CDB7DEB7F62E142F722F85
:1029E00095E0E6E2F4E0DE01119601900D929A95F1
:1029F000E1F79A813B815C810D81882311F060E0D1
:102A000001C0692FFF2011F040E001C0432F1123C6
:102A100011F020E001C0252F711100E086E294E062
:102A20000E9479190F900F900F900F900F90DF91E7
:102A3000CF911F910F91FF900895682F86E294E047
:102A40000C948719682F86E294E00C948C1986E226
:102A500094E00C94811986E294E00C949F19E7E4C9
:102A6000F4E0108A468557856485758520E081E508
:102A700094E00C948313242FAB01BC0181E594E016
:102A80000C948313FC0182818F5BFB01808381E0C6
:102A90000895CF93DF93CDB7DEB769970FB6F8945B
:102AA000DEBF0FBECDBFFC01DB019C919F5F9C93FD
:102AB000BE016F5F7F4F89E1DB011D928A95E9F7C7
:102AC00029E0298384E08A8391E09D8383E08E83DB
:102AD0009F8398872A8721E22B879C879D879F87E2
:102AE00022E2288B2FE3298B27E02B8B25E02C8BF0
:102AF0008E8B20E430E0388F2F8B998F82818B83EF
:102B0000838180688D8B49E150E080E00E947A20CB
:102B100069960FB6F894DEBF0FBECDBFDF91CF919F
:102B20000895FC01DB01828190E014962D913C9187
:102B3000159782179307E1F511968C9111979C9147
:102B4000913A61F4813091F1833011F4848D03C0A6
:102B5000823071F5858D8093F10028C0913241F566
:102B60008B3021F412968C91848F20C08A3011F41E
:102B7000158E1CC08930E1F4CF0116962D913C9141
:102B8000179713964C91423039F42130310581F476
:102B900061E070E04E9608C0413051F428303105B4
:102BA00039F468E070E00B960E94A12081E008955E
:102BB00080E00895FC01DB018C918138B9F4139613
:102BC0008C911397823291F4828190E014962D912A
:102BD0003C9115972817390749F48285848F4FE374
:102BE00050E066EB73E080E80C947A2080E090E09F
:102BF0000895FC0181E0848385839F01255E3F4F1A
:102C0000378326831186108627E331E031832083C2
:102C10008287848F858F168E81EC838F0895FC01C7
:102C2000848D0895EF92FF920F931F93CF93DF93BC
:102C30008C01EC012B967C0183E1E80EF11C48E04D
:102C400050E0BE01C7010E948E24892B81F0F8015B
:102C5000838148E050E0BE0180640E94CB1F28E0E1
:102C6000FE01D70101900D922A95E1F702C08FEF86
:102C70009FEFDF91CF911F910F91FF90EF900895FB
:102C800020E2260F283058F441E050E001C0440F04
:102C90002A95EAF7FC012385422B438716C0FC01E5
:102CA0003D9620E030E04191641779F0411105C074
:102CB000FC01E20FF31F658708C02F5F3F4F2630EE
:102CC000310589F780E090E0089581E090E0089573
:102CD00020E2260F283068F4622F21E030E001C0A6
:102CE000220F6A95EAF72095FC0133852323238779
:102CF00023C0FC01AC014A5F5F4FDC011D962C91A3
:102D00001D97621303C01D961C921D9711964A17BA
:102D10005B07A1F720E03585332351F0DC01A20FDA
:102D2000B11D1D966C911D971D963C9365872F5F75
:102D30003196E417F50779F781E090E008950B9656
:102D400028E0FC0111922A95E9F70895CF93DF93CB
:102D5000EC010E94FD1CBE010E94B61CCE010E9427
:102D60009F16CE01DF91CF910C9412168BE793E062
:102D70000C94F915FB018BE6808382E6818389E65A
:102D800082838FE6838380E3848381E3858386E087
:102D90000895CF93DF93CDB7DEB769970FB6F89458
:102DA000DEBF0FBECDBFFC01DB018C918F5F8C932A
:102DB000BE016F5F7F4F89E1DB011D928A95E9F7C4
:102DC00029E0298384E08A8391E09D8383E08E83D8
:102DD0002A8721E22B879C879D879F8722E2288B69
:102DE00027E02B8B25E02C8B8E8B20E430E0388F76
:102DF0002F8B998F82818B8395858685998B8A8B82
:102E0000838180688D8B49E150E080E00E947A20C8
:102E100069960FB6F894DEBF0FBECDBFDF91CF919C
:102E20000895CF93DF93FC01DB01828190E014963B
:102E30002D913C91159782179307A9F511969C91B6
:102E400011978C91813A31F481E0913069F193309E
:102E500051F52AC0813239F59B3021F412968C91BC
:102E6000878705C09A3029F412968C91808B81E077
:102E70001BC09930C1F4EF0116968D919C91179764
:102E80008230910539F462E070E0CF0141960E94F2
:102E9000A12009C0019739F461E070E0CF014296AA
:102EA0000E94A120198A80E0DF91CF910895EF92CE
:102EB000FF920F931F93CF93DF93FB012081213863
:102EC00051F52381223239F5DC0112962C9130E044
:102ED0004481558142175307F1F4EC010B851C85A1
:102EE000E12CF12C0115110591F0F8014481558177
:102EF0006281738180E80E947A208F3FFFEF9F07F5
:102F000069F0E80EF91ED8010D911C91EBCF81E01C
:102F10008F87C70105C080E090E002C08FEF9FEF70
:102F2000DF91CF911F910F91FF90EF900895FC01D9
:102F3000A385B485109719F47487638709C08D91B0
:102F40009C911197009711F0DC01F9CF6D937C9360
:102F500025853685DB0114968D919C911597820FFE
:102F6000931F968785870895AF92BF92CF92DF9285
:102F7000EF92FF920F931F93CF93DF931F92CDB7E2
:102F8000DEB77C0169836A01590141E050E0BE016E
:102F90006F5F7F4FFC0183810E94CB1F8C0197FDE7
:102FA0000BC0F7018381A501B60180640E94CB1F8D
:102FB00097FD02C0800F911F0F90DF91CF911F915D
:102FC0000F91FF90EF90DF90CF90BF90AF9008955A
:102FD000CF93DF93EC0181E08C838D839E01265F8C
:102FE0003F4F3F832E831986188623E431E03983CF
:102FF00028831C861B861E861D868F87888B198AD0
:103000001A8A81EC8A870E94FD1CBE01DF91CF9154
:103010000C94B61C8091AD03811107C08AE993E03E
:103020000E94E81781E08093AD038AE993E0089558
:103030008091CB03811113C01092B6031092B50397
:1030400085EF93E09093B8038093B70389E190E014
:103050009093BA038093B90381E08093CB030E94DD
:103060000A1865EB73E00C949717DC0120E030E060
:103070004D915D91452B41F4220F331FFC01E20F6E
:10308000F31F7183608308952F5F3F4F2430310514
:1030900079F7089528E0FC0111922A95E9F708953F
:1030A000CF93DF93EC010E940A1828E030E0AE01D4
:1030B00064E0DF91CF910C94B4170F931F93CF93DB
:1030C000DF93EC018C01085F1F4F48E050E0BC012A
:1030D000C8010E948E24892B51F0CE010E94501805
:1030E00088E0FE01D80101900D928A95E1F7DF9109
:1030F000CF911F910F91089528E0FC0111922A951C
:10310000E9F70C945D180C947C188BEB93E00C940D
:10311000181880911304811113C01092D4031092D7
:10312000D3038EE094E09093D6038093D50381E49B
:1031300090E09093D8038093D70381E080931304A9
:103140000E940A1863ED73E00C949717CF93DF93F6
:10315000EC010E940A182DE130E0AE0168E0DF9139
:10316000CF910C94B417EF92FF920F931F93CF93CC
:10317000DF93EC017C018DE1E80EF11C4DE150E0A4
:10318000BE01C7010E948E24892B09F443C00D8D16
:103190001881802F80958123B1F04CE150E0BE0171
:1031A0006F5F7F4FCE014E960E948E24892B59F07F
:1031B0001D8F0E940A182DE130E0A70168E00E94EF
:1031C000B4170D8F19C0812F80958023A9F04CE191
:1031D00050E0BE016F5F7F4FCE014E960E948E245D
:1031E000892B51F008830E940A182DE130E0AE01CE
:1031F00068E00E94B4171883CE010E94A618181622
:10320000190654F42DE1FE01D70101900D922A9583
:10321000E1F702C08FEF9FEFDF91CF911F910F91E8
:10322000FF90EF9008956E3D90F4262F26952695F9
:103230002695FC01E20FF11D677081E090E001C06E
:10324000880F6A95EAF79181892B81830DC0605EB2
:10325000683068F421E030E001C0220F6A95EAF797
:10326000FC013081232B208381E090E0089580E0F1
:1032700090E008956E3D98F4262F26952695269584
:10328000FC01E20FF11D677081E090E001C0880F42
:103290006A95EAF780959181892381830EC0605EEB
:1032A000683070F421E030E001C0220F6A95EAF73F
:1032B0002095FC0130812323208381E090E0089554
:1032C00080E090E008952DE1FC0111922A95E9F744
:1032D0000895CF93DF93EC010E946319CE01DF9133
:1032E000CF910C94A6180C94691989ED93E00C9475
:1032F00089180F93FC0161834283238304830F9118
:10330000089525E0FC0111922A95E9F70895FC0142
:103310002081622B608308956095FC0120816223E7
:1033200060830895CF93DF93EC010E940A1825E093
:1033300030E0AE0161E0DF91CF910C94B4170F93B0
:103340001F93CF93DF93EC018C010B5F1F4F45E080
:1033500050E0BC01C8010E948E24892B49F445E04D
:1033600050E06BE174E0CE010E948E24892B51F075
:10337000CE010E94921985E0FE01D80101900D92C4
:103380008A95E1F7DF91CF911F910F910895CF9327
:10339000DF93EC010E948119CE01DF91CF910C9453
:1033A0009F19CF93DF93EC0180913004811113C0FA
:1033B00010922104109220048FE494E0909323044F
:1033C000809322048AE390E0909325048093240460
:1033D00081E0809330040E940A1860E274E00E9449
:1033E0009717CE01DF91CF910C94C71980913F04BC
:1033F000811113C0109239041092380489E894E0C6
:1034000090933B0480933A0488E190E090933D04CC
:1034100080933C0481E080933F040E940A1868E393
:1034200074E00C9497170F931F93CF93DF93EB01E6
:103430008A010E940A189801AE0165E0DF91CF91E0
:103440001F910F910C94B417CF93DF931F92CDB7B8
:10345000DEB7198241E050E0BE016F5F7F4F0E94EE
:10346000131A0F90DF91CF9108950C94241A0C94A5
:10347000241ACF93DF931F92CDB7DEB769836338E9
:1034800029F488EB94E00E94C32207C041E050E099
:10349000BE016F5F7F4F0E94131A0F90DF91CF9193
:1034A00008958EE394E00C94F619CF93DF93CDB793
:1034B000DEB769970FB6F894DEBF0FBECDBFFC0133
:1034C000DB019C919F5F9C93BE016F5F7F4F89E101
:1034D000DB011D928A95E9F729E0298384E08A833C
:1034E00091E09D8383E08E832A8721E22B879C874E
:1034F0009D879F8722E2288B25E3298B27E02B8B52
:1035000025E02C8B8E8B20E430E0388F2F8B998F29
:1035100082818B83838180688D8B49E150E080E0DC
:103520000E947A2069960FB6F894DEBF0FBECDBF19
:10353000DF91CF910895FC01838180640C94CB1FAF
:103540000A970C949B1AFB0120812138B9F423813E
:103550002232A1F4DC0112962C91129730E04481C2
:1035600055814217530751F421E052962C9345E3BD
:1035700050E061EA74E080E80C947A2080E090E00A
:103580000895DC01FB0112968C91129790E0248142
:10359000358182179307D1F491818081813A31F48A
:1035A00081E0913091F0933089F411C0813271F44F
:1035B0009B3021F4828152968C9305C09A3031F46D
:1035C000828153968C9381E00895089580E0089558
:1035D000CF93DF93EC0181E08C838D839E012F5E7E
:1035E0003F4F3F832E83198618861D861C861F86B3
:1035F0001E86188A2FE431E0398328832DE531E0D7
:103600003B872A878A8B8B8B81EC898B0E94FD1CE0
:10361000BE01DF91CF910C94B61C87E494E00C942A
:10362000E81ACF93DF931F92CDB7DEB76983DC0131
:10363000ED91FC910280F381E02D41E050E0BE016C
:103640006F5F7F4F09950F90DF91CF910895CF93D2
:10365000DF93EC018C859D8597FF05C082E00E9479
:103660009A1F9D878C878C859D85DF91CF910895CA
:1036700083E00E94B11F90E0089583E00C942E2215
:10368000FC018485958597FD06C082E00E94461F57
:1036900090E00196089582E00E94461F90E0089510
:1036A000FC018485958597FD05C02FEF3FEF358799
:1036B0002487089582E00C949A1FCF93DF93EC0146
:1036C00080912201882331F083E00E94CB1F1816DD
:1036D000190634F081E090E09B838A8380E090E0DB
:1036E000DF91CF910895EEEFFFE72591349181E0CE
:1036F0002B3F3C4D09F080E00895FC0190819E5FD6
:10370000908342E450E066ED74E080E80C947A2007
:10371000FC0181819081913A59F4813209F065C0B0
:1037200047E050E06BE171E080E00E947A205BC0EE
:10373000913209F05AC0833269F482819381A0E00A
:10374000B0E08093170190931801A0931901B093F2
:103750001A0149C0803239F467E070E08BE191E0F2
:103760000E94A12040C0823209F03DC08281809336
:1037700022010E94731B882319F0EEEFFAE002C0C9
:10378000E0E0F8E080911B0190911C01A0911D01E7
:10379000B0911E01803B9440A105B10541F5809197
:1037A000220180FD24C0EE3F8AE0F80751F08081BD
:1037B0009181873727E7920721F09093FF0A809342
:1037C000FE0A87E797E7918380838091600080936A
:1037D000AB049BE088E10FB6F894A8958093600055
:1037E0000FBE9093600081E0089580E0089580818D
:1037F000918187379747B9F7A895809160008861D4
:10380000809360008091AB0480936000EE3F8AE07B
:10381000F80739F08091FE0A9091FF0A9183808326
:10382000E2CF1092FF0A1092FE0ADDCF2FEF3FEF9A
:10383000FC01358724870895EBE5F4E013821282BA
:1038400088EE93E0A0E0B0E084839583A683B783FD
:1038500083E691E0918380838FEF9FEF9587848744
:103860000895EF92FF920F931F93CF93DF937B0105
:10387000FC01C281D38100E010E0209781F0E88153
:10388000F9810280F381E02DB701CE01099597FD02
:1038900008C0080F191F0884D985C02DEECFC801B4
:1038A00002C08FEF9FEFDF91CF911F910F91FF909B
:1038B000EF9008950F931F93CF93DF938B01FC013B
:1038C000C281D381209771F0E881F9810480F5816C
:1038D000E02DB801CE010995009731F40884D9850F
:1038E000C02DF0CF80E090E0DF91CF911F910F913C
:1038F00008950F931F93CF93DF938B01FC01C28137
:10390000D381209771F0E881F9810680F781E02D5D
:10391000B801CE010995080F111D0884D985C02D65
:10392000F0CFF8011082DF91CF911F910F91089590
:103930000F931F93CF93DF938B01FC01C281D3813F
:10394000209771F0E881F9810190F081E02DB801B4
:10395000CE010995811105C00884D985C02DF0CF0D
:1039600080E0DF91CF911F910F910895CF93DF9366
:10397000FC01DB01218114968C91149790E0820F59
:10398000911D0897A4F5C281D381209719F4738300
:10399000628308C088859985009711F0EC01FACF01
:1039A000B987A887808112968C931297818113968C
:1039B0008C931397908115968C911597890F80831E
:1039C00080E014969C911497891798F41696CD91DF
:1039D000DC911797C80FD11D9881C181D0E0CD5DD2
:1039E000DE4F988391819F5F91838F5FEACF80E064
:1039F00001C081E0DF91CF9108958091B0048111E1
:103A00000DC082E08093AC0484E08093AD041092FA
:103A1000AF041092AE0481E08093B0048CEA94E08D
:103A200008956115710579F0FB0101900020E9F717
:103A30003197AF01461B570BDC01ED91FC910280E1
:103A4000F381E02D099480E090E00895EF92FF92D9
:103A50000F931F93CF93DF938C017B01C0E0D0E0E5
:103A6000F701EC0FFD1F6491662361F0D801ED9121
:103A7000FC910190F081E02DC8010995892B11F08E
:103A80002196EECFCE01DF91CF911F910F91FF9044
:103A9000EF900895DC01ED91FC910190F081E02D13
:103AA000099461E771E00C94111D0F931F93CF935C
:103AB000DF93EC010E94261D8C01CE010E94511D56
:103AC000800F911FDF91CF911F910F9108958F92D9
:103AD0009F92AF92BF92EF92FF920F931F93CF935B
:103AE000DF93CDB7DEB7A1970FB6F894DEBF0FBE58
:103AF000CDBF7C01FA01CB0119A2223008F42AE0E3
:103B00008E010F5D1F4F822E912CA12CB12CBF0175
:103B1000A50194010E943524F901CA01015011093F
:103B20006A3014F4605D01C0695CD8016C93232B8A
:103B3000242B252B61F7B801C7010E94111DA19606
:103B40000FB6F894DEBF0FBECDBFDF91CF911F91AE
:103B50000F91FF90EF90BF90AF909F908F9008953E
:103B60002115310541F4DC01ED91FC910190F081CA
:103B7000E02D642F09940C94671D9A01462F50E0A4
:103B800060E070E00C94B01D9A01AB0160E070E061
:103B90000C94B01D0F931F93CF93DF93EC010E9401
:103BA0003D23688779878A879B87E881F981048428
:103BB000F585E02DCE01099597FF17C00E943D23A2
:103BC000088519852A853B85DC01CB01801B910B7B
:103BD000A20BB30B0C811D812E813F8180179107B1
:103BE000A207B30710F38FEF9FEFDF91CF911F91E3
:103BF0000F910895FF920F931F93CF93DF93EC01E2
:103C00008B01F42ECE010E94CA1D97FD2DC08D326E
:103C1000910519F19C01205331092A30310520F119
:103C2000FF2019F08E329105D1F001301105D1F04D
:103C30000230110551F48D30910539F024F40997C3
:103C4000029718F00FC0809769F4E881F981028427
:103C5000F385E02DCE010995D5CF8DE201C08EE22E
:103C600090E002C08FEF9FEFDF91CF911F910F91F6
:103C7000FF900895BF92CF92DF92EF92FF920F9341
:103C80001F93CF93DF938C01C42F40E00E94FA1D55
:103C9000FC0197FD47C0C12CD12C7601B12C0C2E14
:103CA000000CDD0BEC17FD0709F1ED32F105E1F039
:103CB000CF01C0970A97D0F4AAE0B0E0A70196011F
:103CC0000E9457246F01FF0FEE08FF08DC01CB01B3
:103CD0008C0D9D1DAE1DBF1D6C017D0120E3C21A20
:103CE000D108E108F10802C0BB24B394D801ED91DA
:103CF000FC910284F385E02DC8010995C8010E945A
:103D0000CA1DFC01C0970A9768F2CE17DF0751F26F
:103D1000BB2061F066277727CB016C197D098E09DE
:103D20009F0906C060E070E0CB0102C0C701B60188
:103D3000DF91CF911F910F91FF90EF90DF90CF9087
:103D4000BF9008954091BB045091BC042091B904E8
:103D50003091BA0442175307B4F49091E80095707B
:103D6000E1F39091E80092FD19C08093F1008091F9
:103D7000BB049091BC0401968F739927892B19F489
:103D80008EEF8093E8008091BB049091BC04019673
:103D90009093BC048093BB0481E0089580E0089573
:103DA000DF92EF92FF920F931F93CF93DF93D82E62
:103DB000F92EE42E062F10E0C8010196880F0E940C
:103DC000A21E83E00E94A21ECD2DDF2D0C0F1D1F11
:103DD000C017D10789F0E7FE03C0FE01849101C03E
:103DE00088810E94A21EF82E80E00E94A21E8F21D0
:103DF00021968111EDCF01C081E0DF91CF911F911C
:103E00000F91FF90EF90DF9008958091D70081602F
:103E10008093D70080EA8093D80089B5806189BDFE
:103E200089B5826089BD09B400FEFDCF61E070E014
:103E300080E090E00E946E238091D8008F7C8061AA
:103E40008093D8008091E000807F8093E000089507
:103E5000CF93DF931F92CDB7DEB71982CE010196C3
:103E60000E947D1B0E94FD1CBE016F5F7F4F0E9460
:103E7000311C89810F90DF91CF9108952FB7FC01FC
:103E80002083F89467706093E9000895CF93DF93DF
:103E90001F92CDB7DEB7682FCE0101960E943E1F5C
:103EA0008091F20099819FBF0F90DF91CF9108958B
:103EB000EF92FF920F931F93CF93DF931F92CDB793
:103EC000DEB79091BF04992311F057FF03C08FEF25
:103ED0009FEF28C08A017B01682FCE0101960E94C6
:103EE0003E1F2091F20030E0021713070CF49801F6
:103EF000822FF70194E6815030F09093C0044091F6
:103F0000F1004193F8CF2115310521F08091F200A5
:103F1000882321F089818FBFC90104C08BE680937B
:103F2000E800F8CF0F90DF91CF911F910F91FF9094
:103F3000EF900895CF93DF931F92CDB7DEB741E0A6
:103F400050E0BE016F5F7F4F0E94581F019719F428
:103F5000898190E002C08FEF9FEF0F90DF91CF91AA
:103F60000895CF93DF931F92CDB7DEB7682FCE01B0
:103F700001960E943E1F9091E800892F807295FF64
:103F800004C09091F20080E4891B99819FBF0F903B
:103F9000DF91CF9108955F926F927F928F929F925F
:103FA000AF92BF92CF92DF92EF92FF920F931F9347
:103FB000CF93DF931F92CDB7DEB7982E6B01B42E4F
:103FC000052F8091BF04811103C08FEF9FEF76C052
:103FD0008091BD0480FF05C08091E00082608093E5
:103FE000E000EB2CF02EA12C8AEF882E892D807218
:103FF000682E892D8074582E9AE3792EE114F104ED
:1040000019F4AA2009F455C0892D0E94B11F182F58
:1040100081110AC08A948820C1F261E070E080E0DA
:1040200090E00E946E23EACF90E0E816F9060CF4C7
:104030001E2D692DCE0101960E943E1F8091E80041
:1040400085FF34C0812F90E0E81AF90A662029F034
:104050001150A0F01092F100FBCFF60197FE0AC0BC
:10406000115050F024912093F1003196F9CF219115
:104070002093F1001150D8F7C80ED91EAA2019F0CC
:104080007092E8000BC08091E80085FD09C0709235
:10409000E800AA24A394E114F10441F0A12C06C085
:1040A000E114F10419F451107092E80089818FBF76
:1040B000A5CF84E68093C1048B2D902F0F90DF91C4
:1040C000CF911F910F91FF90EF90DF90CF90BF9015
:1040D000AF909F908F907F906F905F900895109217
:1040E000E9001092BC041092BB049093BA04809330
:1040F000B9040895DF92EF92FF920F931F93CF932D
:10410000DF93D82E8A017B01E40EF51EEB01CE155C
:10411000DF0571F0D7FE03C0FE01849101C08881E4
:104120000E94A21E21968111F2CF8FEF9FEF01C056
:10413000C801DF91CF911F910F91FF90EF90DF9019
:104140000895CF93DF93EC019B01B4E6ABEF21150B
:104150003105F1F0A9012134310514F040E450E0BB
:104160008091E80082FFFCCF942FFB01E21BF30B50
:10417000EC0FFD1F915028F08091F1008083319663
:10418000F9CFB093C004A093E800241B350BDFCF18
:10419000CB01DF91CF9108951F920F920FB60F922E
:1041A0001124CF92DF92EF92FF920F931F932F93E0
:1041B0003F934F935F936F937F938F939F93AF93AF
:1041C000BF93EF93FF93CF93DF93CDB7DEB76C9799
:1041D000DEBFCDBF1092E9008091E80083FF1FC1D0
:1041E00089E0FE017596FE2E0F2F815029F09091E7
:1041F000F10090833196F9CF84E68093C00482EF7A
:104200008093E8008D8987FF05C09091E80090FFBA
:10421000FCCF03C09EEF9093E800982F907609F0B2
:10422000D7C09E894F89588D2F89188D91110CC048
:10423000803829F48091BE048093F10002C010926E
:10424000F1001092F100E4C0913051F48111E0C00E
:104250004130510509F0DCC08091BE048D7F0BC058
:10426000933061F48111D4C04130510509F0D0C0C0
:104270008091BE0482608093BE04CAC0953049F428
:104280008091E80080FFFCCF822F80688093E3005C
:10429000BFC0963009F06FC0CB8CDC8C123069F552
:1042A00080E090E00E946F200E94281F99E09E010C
:1042B0002F5F3F4F7901F901292F11922A95E9F7D4
:1042C00099831A8391E09E8390EA98879AEF998761
:1042D0002091BB043091BC04275F3F4F3C832B836C
:1042E0008D83C6010E946F2049E050E0B70180E055
:1042F0000E947A200E94281F8BC0C6010E946F2056
:104300000E94FD1C6F2D702F0E945A1C009719F0FF
:104310000CF07EC081C0113009F46FC0133009F079
:104320007BC08F89882309F46BC0823029F440E870
:104330006AE085E395E006C0813039F440E86AE040
:104340008AE295E00E94D01E55C0833009F064C017
:104350000E94FD1C8E010F5F1F4FB8010E94791C47
:10436000F80101900020E9F73197BF01601B710B44
:1043700040E0C801E7CF973009F44EC0983021F4EF
:1043800081E08093F10044C0993009F041C083700E
:1043900009F042C0E4E2F1E081E031E096E32081FF
:1043A000211109C08EE78093EA001092EA008F89FC
:1043B0008093BF042DC08093E9003093EB002191DE
:1043C0002093EC009093ED008F5F873041F7EACFA8
:1043D0008B8D9C8D0E946F20898D811105C08F2D42
:1043E000902F0E94881B06C00E94FD1C6F2D702F0D
:1043F0000E94981C882381F00BC068E175E002C020
:1044000060E475E0FB01449150E080E80E947A206E
:104410008EEF8093E80003C081E28093EB006C96FE
:104420000FB6F894DEBF0FBECDBFDF91CF91FF91E5
:10443000EF91BF91AF919F918F917F916F915F911C
:104440004F913F912F911F910F91FF90EF90DF902F
:10445000CF900F900FBE0F901F9018958093E9009A
:104460008091F200882319F08AE38093E800089590
:104470001F920F920FB60F9211242F933F934F93D9
:104480005F936F937F938F939F93AF93BF93CF93DC
:10449000EF93FF93C091E1008091E100837F8093CF
:1044A000E100C3FF0FC01092E90081E08093EB00B0
:1044B0001092EC0082E38093ED001092BF0488E03C
:1044C0008093F000C2FF15C083E00E942E228091ED
:1044D000C104882329F08091C10481508093C104D4
:1044E0008091C004882329F08091C004815080937A
:1044F000C004C4FF10C08091E2008E7E8160809372
:10450000E2008091E1008F7E8093E1008091BD0404
:104510008E7E806111C0C0FF11C08091E2008E7E4E
:1045200080618093E2008091E1008E7E8093E100C3
:104530008091BD048E7E81608093BD04FF91EF91D8
:10454000CF91BF91AF919F918F917F916F915F912B
:104550004F913F912F910F900FBE0F901F90189584
:104560001092BF041092BE041092BD040E94051F59
:10457000E1EEF0E080818E7E80838DE08093E2002A
:10458000559A209A08958091E0008D7F8093E000F5
:104590008091E00081FD08C08091BD0480FF04C0CF
:1045A0008091BE0481FD02C080E008950E94051F35
:1045B0008091E00082608093E00081E0089508959A
:1045C0000E94AA230E94DF2288EB94E00E94B0227E
:1045D0000E948203C0E0D0E00E948B032097E1F3A9
:1045E0000E940000F9CF1F920F920FB60F92112474
:1045F0002F933F938F939F93AF93BF938091C30467
:104600009091C404A091C504B091C6043091C20435
:1046100023E0230F2D3720F40196A11DB11D05C005
:1046200026E8230F0296A11DB11D2093C20480939A
:10463000C3049093C404A093C504B093C6048091AE
:10464000C7049091C804A091C904B091CA0401960E
:10465000A11DB11D8093C7049093C804A093C90401
:10466000B093CA04BF91AF919F918F913F912F91C9
:104670000F900FBE0F901F9018952FB7F894609170
:10468000C3047091C4048091C5049091C6042FBFE7
:1046900008953FB7F8948091C7049091C804A09101
:1046A000C904B091CA0426B5A89B05C02F3F19F0D4
:1046B0000196A11DB11D3FBFBA2FA92F982F8827A2
:1046C000820F911DA11DB11DBC01CD0142E0660FFD
:1046D000771F881F991F4A95D1F708958F929F924F
:1046E000AF92BF92CF92DF92EF92FF926B017C016B
:1046F0000E9449234B015C01C114D104E104F1047F
:1047000001F10E9400240E944923DC01CB01881999
:104710009909AA09BB09883E9340A105B10560F338
:1047200021E0C21AD108E108F10888EE880E83E082
:10473000981EA11CB11CC114D104E104F10419F7A5
:10474000DBCFFF90EF90DF90CF90BF90AF909F9026
:104750008F900895789484B5826084BD84B581601B
:1047600084BD85B5826085BD85B5816085BDEEE679
:10477000F0E0808181608083E1E8F0E01082808158
:1047800082608083808181608083E0E8F0E08081C6
:1047900081608083E1E9F0E08081826080838081B4
:1047A00081608083E0E9F0E0808181608083E1ECDA
:1047B000F0E080818460808380818260808380815A
:1047C00081608083E3ECF0E0808181608083E0ECB5
:1047D000F0E0808182608083E2ECF0E080818160A3
:1047E0008083EAE7F0E0808184608083808182605A
:1047F0008083808181608083808180688083089548
:104800000895991B79E004C0991F961708F0961B2C
:10481000881F7A95C9F780950895AA1BBB1B51E1A3
:1048200007C0AA1FBB1FA617B70710F0A61BB70B20
:10483000881F991F5A95A9F780959095BC01CD01C5
:10484000089597FB072E16F4009407D077FD09D042
:104850000E940D2407FC05D03EF4909581959F4F52
:104860000895709561957F4F0895A1E21A2EAA1BB5
:10487000BB1BFD010DC0AA1FBB1FEE1FFF1FA21710
:10488000B307E407F50720F0A21BB30BE40BF50B0D
:10489000661F771F881F991F1A9469F76095709596
:1048A000809590959B01AC01BD01CF0108950E94B8
:1048B0006824A59F900DB49F900DA49F800D911D1D
:1048C00011240895EE0FFF1F0590F491E02D099437
:1048D000A29FB001B39FC001A39F700D811D112441
:1048E000911DB29F700D811D1124911D0895FB0132
:1048F000DC018D91059080190110D9F3990B089571
:10490000FB01DC014150504030F08D910590801941
:1049100019F40020B9F7881B990B0895FB01DC01FD
:1049200004C08D910190801921F441505040C8F786
:10493000881B990B0895F999FECF92BD81BDF89A15
:10494000992780B50895262FF999FECF1FBA92BDF9
:1049500081BD20BD0FB6F894FA9AF99A0FBE019660
:064960000895F894FFCF5A
:104966000301057D08040032000140000101000139
:10497600107F02FFFA0001FFFFFFFF00E1000000C9
:1049860000000000C1808100000085013031323313
:104996009293660000000091154915DA154215003C
:1049A6000000001117C9165717BA1600000000C1FB
:1049B6001A551AA31A42159B1AF6FF0000A01A00F0
:1049C600000000111B5D1B381B3D1B401B501B27A5
:1049D6001B0D0A006E616E00696E66006F766600DA
:00000001FF
