:100000000C94AC020C94D4020C94D4020C94D40240
:100010000C94D4020C94D4020C94D4020C94D40208
:100020000C94D4020C94D4020C9494250C9428249F
:100030000C94D4020C94D4020C94D4020C94D402E8
:100040000C94D4020C94D4020C94D4020C94D402D8
:100050000C9443040C94D4020C94D4020C944F26B8
:100060000C94D4020C94D4020C94D4020C94D402B8
:100070000C94D4020C94D4020C94D4020C94D402A8
:100080000C94D4020C94D4020C94D4020C94D40298
:100090000C94D4020C94D4020C94D4020C94D40288
:1000A0000C94D4020C94D4020C94D4022E004C0074
:1000B0002A00E10047C900001E00140004001D00D2
:1000C00034004D001F001A0016001B00E1022A0038
:1000D000200008000700060050002C002100150039
:1000E000090019004F004A00220017000A0005000D
:1000F000000076C2500001440000E30B0000E30062
:100100004F0001440000E2090000E20023001C004F
:100110000B00110000003AC0240018000D00100070
:1001200052004B0025000C000E0036005100280044
:10013000260012000F0037002F002B0027001300AD
:1001400045CA380030004E002D00310045C3E5009F
:100150002B4400002900000000000000FFFF000009
:100160003A001E0820082208000000003B001F087B
:1001700021082308000000003C002F0826082F005B
:10018000000000003D00300827083000000000009B
:100190003E00310835003508000000000000FFFF78
:1001A00000000000000000000000FFFF0000000051
:1001B000000000003F005200510024080000000031
:1001C0004000240021001E00000000004100250026
:1001D00022001F00370000004200260023002000FC
:1001E0002700000043002508000031002E00000019
:1001F0004400450000000000FFFF00000000000078
:1002000000000000000000000000000000000000EE
:10021000000000000000000004500000000000008A
:10022000000001500250000041500000000000009A
:1002300008500000425000000000000000000000D4
:1002400000000000000000000000000000000000AE
:10025000000000000000000000000000000000009E
:10026000000000000000000000000000000000008E
:10027000E95C0000000000000000B658EA5C0000E5
:10028000000000000000B558E24C00000000000033
:10029000FFFF00000000000000000000CD5800003B
:1002A00000000000637573746F6D006465666175AE
:1002B0006C74006F6E6C79437573746F6D006B6551
:1002C000796D61702E006B65796D61702E63757349
:1002D000746F6D0A6B65796D61702E64656661750A
:1002E0006C740A6B65796D61702E6F6E6C794375F5
:1002F00073746F6D00656570726F6D2E66726565E3
:1003000000656570726F6D2E636F6E74656E7473C9
:1003100000656570726F6D2E636F6E74656E7473B9
:100320000A656570726F6D2E66726565002F0063D9
:1003300072630076657273696F6E0076616C6964D2
:100340003F0064656661756C744C61796572007319
:10035000657474696E67732E0073657474696E6773
:10036000732E64656661756C744C617965720A738D
:10037000657474696E67732E76616C69643F0A7385
:10038000657474696E67732E76657273696F6E0A31
:1003900073657474696E67732E6372630066616C53
:1003A000736500747275650068656C700068656CD3
:1003B00070000D0A2E0005010906A101050719E0CC
:1003C00029E7150025017501950881029501750839
:1003D000810195057501050819012905910295010D
:1003E0007503910195067508150025FF050719008D
:1003F00029FF8100C0050C0901A101850415002613
:10040000FF0319002AFF03950475108100C0050140
:100410000906A1018508050719E029E7150025014E
:1004200075019508810205081901290895087501CB
:1004300091020507750495018101190429DD150054
:100440002501750195D98102750395018101C005CA
:10045000010902A1018501050919012908150025D5
:100460000195087501810205010930093109381526
:1004700081257F750895038106050C0A38021581D0
:10048000257F750895018106C005010980A10185B8
:1004900005150026FF00190029FF95017508810048
:1004A000C005010902A10105091901290815002546
:1004B0000195087501810205010930093116000016
:1004C00026FF7F75109502810209381581257F75F9
:1004D0000895018106C0080B000202020100090410
:1004E00000000102020000052400100105240101A2
:1004F00001042402060524060001070581031000FB
:100500004009040100020A00000007050202400041
:10051000000705830240000012010002EF020140C3
:10052000EDFE07130001010203014572676F446F7E
:100530007820455A004572676F446F7820455A000D
:10054000040309048D06C50DE112DB16121AE11B26
:10055000D11CAD1D691E781F11241FBECFEFDAE03C
:10056000DEBFCDBF11E0A0E0B1E0EEE1F0E502C0FA
:1005700005900D92A838B107D9F725E0A8E8B1E0B9
:1005800001C01D92A132B207E1F712E0CCEAD2E03D
:1005900004C02197FE010E94BE27C23AD107C9F7C5
:1005A0000E943C260C940D280C94000081E293E0FC
:1005B0000E94D10B8AE193E00E94790A8BE493E0D8
:1005C0000E94900F86E893E00C94791581E293E005
:1005D0000E949A0C80E090E00895EF92FF920F93B2
:1005E0001F93CF93DF93EC01162FF42EE22E022FF0
:1005F000242F462FBC018FE593E00E94DB11019769
:1006000019F481E090E01AC00E2D2F2D412FBE016C
:1006100082EC93E00E94D615019799F32F2D412F7C
:10062000BE018BE493E00E94ED0E019751F32F2D54
:10063000412FBE0186E893E00E94BF14DF91CF9165
:100640001F910F91FF90EF900895CF93DF93EC01EE
:10065000BC018AE193E00E94030B019719F481E049
:1006600090E01AC0BE018AE293E00E94DF0D01977C
:10067000B1F3BE018FE193E00E941C0D019779F365
:10068000BE0180E293E00E94A30C31E020E00197DC
:1006900009F030E0832F922FDF91CF91089580E011
:1006A00090E008958AE293E00E94030E8FE593E0C4
:1006B0000E9440118BE493E00E948E0E86E893E046
:1006C0000C943D158FE593E00E9458118BE493E064
:1006D0000E94850E80E090E008950F931F93CF93C2
:1006E000C0E0009132011091330140E06C2FC8014D
:1006F0000E947206CF5FC430C1F7C1E041E06C2FA9
:10070000C8010E9472062FEF80E792E021508040DE
:100710009040E1F700C00000CF5FC43079F7C1E03E
:1007200040E06C2FC8010E9472062FEF80E792E034
:10073000215080409040E1F700C00000CF5FC430FE
:1007400079F7CF911F910F91089588E891E00E9469
:10075000B40385E00E94910A0E94D2150C946D03A7
:1007600088E891E00C94DB03CF93DF9340E855E2F7
:1007700060E070E081EB94E00E94721F0E94D6025C
:100780008DE891E00E94F3030E940C170E94191853
:100790000E9423180E941409C0E0D0E06D2F8C2F16
:1007A0000E94B508DF5FD630C9F7CF5FCE30A9F71A
:1007B000DF91CF9108950E949926609389017093EB
:1007C0008A0180938B0190938C010E94E6028DE850
:1007D00091E00E9436060E9452030E94DA170E949E
:1007E0008B170C9462030F931F93CF93DF930FB675
:1007F000F894A895809160008861809360001092C1
:1008000060000FBE64E670E080E090E00E94CA26BF
:1008100000E810E089EAF8018083C1E8D0E089E0CF
:10082000888324982C983F988AB18F7C8AB96E98D7
:10083000479A8BB180638BB9769A8CE092E00E94E4
:10084000CF068FE090E0909389008093880090938A
:100850008B0080938A0090938D0080938C0080E1C0
:100860008883F801108280E295E39093870080935B
:10087000860081E1888381E080936F00DF91CF91D2
:100880001F910F9108951F920F920FB60F9211248E
:100890008F9381E0809301018F910F900FBE0F9095
:1008A0001F9018954F925F926F927F928F929F92B6
:1008B000AF92BF92CF92DF92EF92FF920F931F936E
:1008C000CF93DF93109201018CE092E00E946707C2
:1008D000CEE8D1E027EF822E21E0922E30EFE32EFA
:1008E00031E0F32E67015401412C512CB4C08150EA
:1008F000888302E012E020E090E08981882321F0E3
:1009000081508983022F192F8A818111CEC0046002
:10091000102F8B818111CFC00860102F8C81811125
:10092000C1C00061102F8D818111B9C00062102FEC
:10093000B2018CE092E00E942F07F70191917F01B4
:10094000702E709479228123782A972590FF03C016
:1009500080910201888391FF03C080910201898305
:1009600092FF03C0809102018A8393FF03C08091AC
:1009700002018B8394FF03C0809102018C8395FF59
:1009800003C0809102018D83F60171926F01B20163
:10099000695F7F4F8AA5882309F47BC081508AA7AD
:1009A00012E092E0692E20E090E08BA5882321F0F0
:1009B00081508BA7122F692E8CA5811167C01460FE
:1009C000612E8DA581115FC01860612E8EA58111E9
:1009D00057C01061612E8FA581114FC01062612E2A
:1009E0008CE092E00E942F07F50191915F01712E3A
:1009F000709479228621782A972590FF03C08091F0
:100A000002018AA791FF03C0809102018BA792FF88
:100A100003C0809102018CA793FF03C08091020163
:100A20008DA794FF03C0809102018EA795FF03C09C
:100A3000809102018FA7F40171924F01B2018CE005
:100A400092E00E941507FFEF4F1A5F0A269687E093
:100A50004816510499F1B2018CE092E00E94EC0634
:100A6000B2018CE092E00E941507888181113FCF8E
:100A700003E013E021E091E040CF81508FA7B0CF99
:100A800081508EA7A8CF81508DA7A0CF81508CA771
:100A900098CF13E083E0682E21E091E086CF81506B
:100AA0008D8346CF81508C833ECF81508A838B814A
:100AB000882309F431CF81508B8330CFDF91CF91E0
:100AC0001F910F91FF90EF90DF90CF90BF90AF906C
:100AD0009F908F907F906F905F904F9008953F927E
:100AE0004F925F926F927F928F929F92AF92BF923E
:100AF000CF92DF92EF92FF920F931F93CF93DF93EA
:100B0000C0EFD1E00EEF11E0312C4AC0432F31FB92
:100B1000662460F8712CB301660F771F81FB2227D2
:100B200020F9262B09F097C042FBEE24E0F8F12CC7
:100B3000B701660F771F82FB222720F9262B09F0C9
:100B40007FC043FBCC24C0F8D12CB601660F771FC1
:100B500083FB222720F9262B09F067C044FBAA2437
:100B6000A0F8B12CB501660F771F84FB222720F96E
:100B7000262B09F04FC045FB882480F8912CA40156
:100B8000440F551F85FB882780F9282F242B09F552
:100B9000F80131938F0133942196FEE03F1641F125
:100BA000F8018081388130FB442440F8512CA201A7
:100BB000440F551F282F2170242B09F4A7CF40E0A4
:100BC000632D80E090E00E94F307F8018081388176
:100BD0009DCF45E0632D80E090E00E94F3073881CF
:100BE000F80131938F0133942196FEE03F12D8CF64
:100BF000DF91CF911F910F91FF90EF90DF90CF90F9
:100C0000BF90AF909F908F907F906F905F904F902C
:100C10003F90089544E0632D80E090E00E94F30748
:100C2000F80180813881432FA6CF43E0632D80E017
:100C300090E00E94F307F80180813881432F8ECF26
:100C400042E0632D80E090E00E94F307F80180818C
:100C50003881432F76CF41E0632D80E090E00E9401
:100C6000F307F80180813881432F5ECFCF93DF9364
:100C7000EC0180910101882329F010920101CE013D
:100C80000E945204CE01DF91CF910C946F056E301B
:100C9000A8F4463098F4E62FF0E0EE51FE4F81E0E4
:100CA00090E0A0E0B0E004C0880F991FAA1FBB1F0E
:100CB0004A95D2F7809590818923808308956E307C
:100CC00078F4463068F4E62FF0E0EE51FE4F808174
:100CD00090E002C0959587954A95E2F78170089556
:100CE00080E0089570E024B16C5F7F4F81E090E078
:100CF00001C0880F6A95EAF7442339F0922F982BA8
:100D000094B995B1892B85B908958095922F982330
:100D100094B995B1892385B9089580E280930C0236
:100D20000895CF930E94A80768EE73E080E090E0FA
:100D30000E94CA2680E40E94AE07C82F81112AC0F3
:100D400080E00E94D807C82F811124C080E00E9453
:100D5000D807C82F81111EC08FE30E94D807C82F63
:100D6000811118C00E94D00780E40E94AE07C82FEE
:100D7000811110C08CE00E94D807C82F81110AC0D1
:100D800080E00E94D807C82F811104C08FE30E9421
:100D9000D807C82F0E94D0078C2FCF910895CF93EA
:100DA000DF93EC010E949106888380B38C7080BB36
:100DB00081B3836F81BB84B18F6084B985B18F604B
:100DC00085B98AB18C608AB98BB18C608BB93E9A37
:100DD000469ADF91CF9108951F93CF93DF93FC0143
:100DE0002081222321F0DF91CF911F910895162FAA
:100DF000EC0180E40E94AE078883882329F0DF910C
:100E0000CF911F910C94D00782E10E94D80788836C
:100E10008111F5CF81E090E001C0880F1A95EAF7C3
:100E200080950E94D8078883EACFFB01EC5CFE4FD7
:100E30009081E92FF0E0F595E795F595E795F59523
:100E4000E795F595E79532A1292F2F7081E090E085
:100E500001C0880F2A95EAF7832782A30895CF93CC
:100E6000DF936730710544F4FC012081222381F077
:100E700080E0DF91CF9108959FB18FB1807F8695FB
:100E800086959370892B80958F73DF91CF9108950C
:100E9000EC0180E40E94AE078883882339F0C0E02B
:100EA0000E94D0078C2FDF91CF91089583E10E949B
:100EB000D80788838111F3CF81E40E94AE0788832D
:100EC0008111EDCF0E94E907C82FC095E9CF0F939C
:100ED0001F93CF93DF93EC018091110281110DC01C
:100EE0000E94992660930D0270930E0280930F0268
:100EF0009093100281E0809311028881882319F178
:100F00000E94992600910D0210910E0220910F026D
:100F100030911002DC01CB01801B910BA20BB30BB3
:100F200088389341A105B10570F0CE010E94910669
:100F300088830E94992660930D0270930E0280931D
:100F40000F0290931002DF91CF911F910F9108959E
:100F50001092B9008AE08093B800089594EA9093C3
:100F6000BC009091BC0097FFFCCF9091B900987F96
:100F7000983021F0903111F081E008958093BB000A
:100F800084E88093BC008091BC0087FFFCCF8091F7
:100F9000B900887F883111F0803471F780E00895BE
:100FA00084E98093BC008091BC0084FDFCCF08954F
:100FB0008093BB0084E88093BC008091BC0087FFD5
:100FC000FCCF9091B900987F81E0983209F480E0DD
:100FD000089584E88093BC008091BC0087FFFCCF1B
:100FE0008091BB000895EF92FF920F931F93CF93D0
:100FF000DF9300D0CDB7DEB79A838983062FF42E16
:10100000122F6E3008F049C025E0241708F445C0BF
:10101000812F8270E82E11FF19C010FD17C0898141
:101020009A81009711F016FF05C06F2D802F0E9446
:10103000B5080CC026E0629FF0011124E40FF11DF9
:10104000EE0FFF1FE359FD4F918380834F2D602FDB
:101050008DE891E00E945F06882351F010FF69C07F
:10106000E11067C04F2D602F8DE891E00E94470688
:1010700029813A8180E090E02817390771F486E0F1
:10108000089FF0011124EF0DF11DEE0FFF1FE35932
:10109000FD4F808191819A838983212F4F2D602F6D
:1010A000CE0101960E94ED02892B09F042C0212F4A
:1010B0004F2D602F89819A810E94230A9A83898308
:1010C00020E030E082179307A1F1F9800A8106FF42
:1010D0001AC007FD2EC003FF07C011FF2AC08F2DC5
:1010E000902F0E941D1825C000FF23C011FD21C0B4
:1010F00010FF1FC08F2D902F0E9427188F2D902F2B
:101100000E942C1816C0812F817011FF0AC0811116
:1011100002C061E001C060E08F2D902F0E9449174E
:1011200008C0882331F017FF04C08F2D902F0E9434
:101130009B170F900F90DF91CF911F910F91FF9010
:10114000EF90089550E096E0699F400D511D1124E5
:10115000FA0194E5899FE00DF11D1124EE0FFF1FA8
:10116000E455FF4F859194910895CF93DF93462FD7
:10117000262F30E096E0899FF0011124EF01C20F85
:10118000D31FCC0FDD1FC359DD4FE75EFD4FDF01DD
:10119000A20FB31FE0910301F0910401682F8C911D
:1011A000099599838883DF91CF9108950F931F93B9
:1011B0008091000181504091160350911703609176
:1011C000180370911903882389F08A019B01082E66
:1011D00004C036952795179507950A94D2F700FF16
:1011E00003C08093150304C08150EDCF1092150306
:1011F0001F910F9108950F931F93409116035091E3
:10120000170360911803709119038A019B0104C0B0
:1012100036952795179507958A95D2F7D901C80174
:1012200081701F910F910895DF92EF92FF920F93BB
:101230001F93CF93DF9384E5E9E1F2E0DF011D9294
:101240008A95E9F77F01D0E000E010E0D02EC09150
:1012500015031C16B4F48C2F0E94FB08882379F028
:10126000E0910301F09104014D2D6D2F8C2F099514
:10127000019629F0F701E00FF11FC08302C0C150B1
:10128000E8CF0F5F1F4F0630110501F7DF5F26E043
:10129000E20EF11CDE30C1F6DF91CF911F910F916C
:1012A000FF90EF90DF9008950F931F930091160326
:1012B000109117032091180330911903B901A80167
:1012C000082E04C076956795579547950A94D2F7EE
:1012D00040FF28C041E050E060E070E0082E04C00C
:1012E000440F551F661F771F0A94D2F740955095FB
:1012F0006095709540235123622373234093160316
:10130000509317036093180370931903909115037A
:10131000891302C00E94D6080E9414091F910F91E0
:101320000C944F031F910F910895CF93909100015A
:10133000891780F5C82F0E94FB0881112BC081E01E
:1013400090E0A0E0B0E00C2E04C0880F991FAA1F07
:10135000BB1F0A94D2F74091160350911703609176
:10136000180370911903842B952BA62BB72B809310
:10137000160390931703A0931803B0931903809159
:1013800015038C1710F40E94D6080E941409CF91FF
:101390000C944F03CF9108951092160310921703E7
:1013A00010921803109219030C949509809115035B
:1013B0008F5F0C949509809115030C945409CF9379
:1013C000C82F862F8270CA3248F1CA52C13289F0C2
:1013D000C232C9F46170882329F0611103C0CF9132
:1013E0000C94D609662369F181112BC0CF910C941E
:1013F000DB096170882311F06623C1F3662309F1CC
:1014000081111FC0ECCF882331F08C2F0E94FB0884
:10141000811117C012C060FD0CC013C0882389F071
:1014200060FD0FC08C2F0E94FB08882331F0CC2375
:1014300021F08C2FCF910C9454098C2FCF910C94C8
:101440009509CF910895943429F4622F0E94DF0901
:1014500080E090E008950F931F93CF9390911C0329
:10146000891718F080E090E01CC096E0699FB001F9
:10147000112494E5899F600D711D1124640F711D65
:10148000660F771F00911D0310911E03060F171F93
:10149000C8010E94F727C82FC80101960E94F727AC
:1014A0009C2FCF911F910F91089590911B03891745
:1014B00018F40E94A2080895891B0E942B0A08951F
:1014C000FF920F931F93CF93DF93EC01F62E0881C9
:1014D0001981C8010E94F727F81621F06F2DC80165
:1014E0000E94FF27CE01DF91CF911F910F91FF90B6
:1014F000089581E293E00E94D10B809100018093D6
:101500001B0380E090E0089580931C0328EA829FEB
:10151000C00111240E94080C90931E0380931D03A8
:101520000895809300019091240397FF03C02BE25C
:101530003AE007C090911B03980F9093000125E5B6
:101540003AE030930401209303010C94840AFF9243
:101550000F931F93CF93DF9300D0CDB7DEB7F62E56
:10156000672F8C01000F111F80911D0390911E03A6
:10157000800F911F9A838983CE0101960E94600A91
:1015800080911D0390911E030196080F191F1A8365
:1015900009836F2DCE0101960E94600A0F900F9073
:1015A000DF91CF911F910F91FF900895EF92FF92DD
:1015B0000F931F93CF93DF93082F7B01C0E0C017D9
:1015C000D9F0D0E010E0412F6D2F8C2FF701099555
:1015D0004AE050E0BC0181EB94E00E94202160E2EF
:1015E00081EB94E00E94A6201F5F163061F7DF5F59
:1015F000DE3041F7CF5FE3CFDF91CF911F910F91A5
:10160000FF90EF900895CF93DF93EB0146EC52E00B
:101610008AE293E00E94CA0D811187C047E050E042
:101620006EEB72E0CE010E94DC27892B09F07DC0B1
:10163000279663EB72E0CE010E94D327892BB9F580
:1016400081EB94E00E94831E0A9789F46091240341
:1016500067FB662760F94AE050E081EB94E00E9466
:10166000192160E281EB94E00E94A62061C041E074
:1016700060E070E081EB94E00E949621C62F862FF7
:101680000E945A0C80911C0380930001CC2319F016
:101690008BE29AE007C090911B03890F80930001B1
:1016A00085E59AE0909304018093030141C06BEAC1
:1016B00072E0CE010E94D327892B29F462EA78E0F8
:1016C00080911B0314C064EA72E0CE010E94D3270C
:1016D000892B59F581EB94E00E94831E0A9719F03B
:1016E000C0E0D0E01BC06BE27AE080911C030E9456
:1016F000D60A1EC080911C0324E5829FC0011124DC
:10170000C817D907A8F441E060E070E081EB94E0ED
:101710000E949621CE010E94A70A219681EB94E0B7
:101720000E94831E0A9721F0E5CF80E090E002C07E
:1017300081E090E0DF91CF9108954AE050E0682F7A
:1017400081EB94E00E94192160E281EB94E00C941B
:10175000A620EF92FF920F931F93CF93DF9300D0B9
:10176000CDB7DEB784E2E82E83E0F82E00E010E08B
:10177000F70161917F011A830983CE0101960E94CE
:10178000600A0F5F1F4F0430110591F784E293E068
:101790000F900F90DF91CF911F910F91FF90EF90DD
:1017A00008950F931F93CF93DF9304E213E0C0E0FB
:1017B000D0E0CE010E94F727F80181938F01219696
:1017C000C430D105B1F7809125038F3F71F480912A
:1017D0002403982F9F779F3719F487FD10922403D5
:1017E00081E0809325030E94A90B80E090E0DF91C7
:1017F000CF911F910F91089580912203882329F0A2
:101800008091260390912703089580E090E0089549
:101810000F931F93CF93DF9300D0CDB7DEB79A839A
:10182000898380912203811116C0009105011091D6
:10183000060189819A81800F911F90930601809300
:10184000050142E0BE016F5F7F4F88E293E00E9496
:10185000A00DC80102C080E090E00F900F90DF91D2
:10186000CF911F910F9108950E94A90B81E0809361
:1018700023030895CF93C82F80910001C81758F40F
:101880008C2F0E94CC098091240380789C2F9F7715
:10189000892B80932403CE3730F080912403807805
:1018A0008E67809324030E94340C809124038F77E9
:1018B000CF9108959091240380FB97F9909324038E
:1018C000892F8F778F3721F490789E679093240328
:1018D0000C94340C81E08093220360E188E293E071
:1018E0000E94870D80912503813019F01092230307
:1018F0000895209126033091270380912803909129
:1019000029032F3F4FEF340739F490932703809337
:1019100026030E94340C03C02817390751F4809124
:1019200024038F77282F30E02E37310514F40C94E0
:10193000CC09089580912203811102C00E946A0C93
:1019400080E090E00895CF93DF93EB0149E553E009
:101950008AE293E00E94CA0D811128C049E050E05C
:101960006FE473E0CE010E94DC27892BF9F42996FD
:1019700062E473E0CE010E94D327892BA9F16BE3C7
:1019800073E0CE010E94D327892B09F442C063E3A0
:1019900073E0CE010E94D327892B09F444C06FE283
:1019A00073E0CE010E94D327892B19F080E090E0EC
:1019B00040C00E94FC0BEC01609128037091290348
:1019C0004AE050E081EB94E00E9420216DE273E058
:1019D00081EB94E00E9482204AE050E0BE0181EB5E
:1019E00094E00E94202123C081EB94E00E94831E9A
:1019F0000A9721F4809124038F7717C041E060E0BB
:101A000070E081EB94E00E949621862F0E943A0CB0
:101A10000EC0809123030E94E60D60E281EB94E00A
:101A20000E94A62004C0809125030E949D0B81E0A6
:101A300090E0DF91CF9108950F931F93CF93DF93A1
:101A400000D0CDB7DEB78B0141E153E08AE293E0ED
:101A50000E94CA0D81110EC061E073E0C8010E94AE
:101A6000D327892BF1F065EF72E0C8010E94D327DC
:101A7000892B19F080E090E043C08091050190919E
:101A8000060160E074E0681B790B4AE050E081EBEE
:101A900094E00E94202160E281EB94E00E94A62065
:101AA0002DC081EB94E00E94831E00E010E00A97B5
:101AB000F9F4C8010E94F7270E949D0B0F5F1F4F8A
:101AC000011584E01807A9F719C041E060E070E053
:101AD00081EB94E00E9496211A830983CE0101963E
:101AE0000E94600A0F5F1F4F011584E0180731F054
:101AF00081EB94E00E94831E0A9739F781E090E021
:101B00000F900F90DF91CF911F910F910895FC01DD
:101B1000208131812170332781E0861770F4408164
:101B200051815695479551834083220F331F417051
:101B30005527242B352B8F5FF0CF318320830895D9
:101B4000DC01FB01415000F1519168E070E081E05F
:101B50002D913C911197952F982311F4932F02C04A
:101B6000932F9095991F9927991F220F331F99231F
:101B700019F095E02927305811963C932E93880F41
:101B80006150710929F7DECF089510922903109250
:101B900028030895CF93DF93CB01EA016DEA73E048
:101BA0000E94D327892B39F4BE0181EB94E00E9477
:101BB000B12081E001C080E0DF91CF91089548EA33
:101BC00053E00E94CA0D80E090E00895811103C0A7
:101BD0006DE973E002C063EA73E081EB94E00C947A
:101BE000822081EB94E00E949C1E892B59F081EBAE
:101BF00094E00E94831E0A9729F081EB94E00E94F2
:101C0000AC1EF5CF0895EF92FF920F931F93CF93E1
:101C100081EB94E00E949C1E892BD9F10BE213E02A
:101C2000C0E0CF5F81EB94E00E94AC1E7801F80128
:101C3000808381EB94E00E94831E0A9741F00F5F3E
:101C40001F4FF7018081803211F0C03251F78C2F85
:101C500090E0FC01E65DFC4F2081203219F0FC0190
:101C6000E55DFC4F10828BE293E00E94250362EB5E
:101C700073E081EB94E00E94B1200E94F10D81EBB2
:101C800094E00E94831E0A9721F481EB94E00E9465
:101C9000AC1E80E090E0CF911F910F91FF90EF90EC
:101CA00008952091890130918A0140914C0350910F
:101CB0004D03B901641B750BAB0160910701709175
:101CC00008016417750700F530934D0320934C030A
:101CD00080FF04C020E04091090112C081FF05C0CF
:101CE00040910901419520E00BC082FF04C0209182
:101CF0000901219504C083FF07C02091090140E03C
:101D000060E080E00C94341808950E9487180E94C7
:101D100083181092520380E090E00895809152035E
:101D2000811103C01092550355C020918901309153
:101D30008A014091500350915103B901641B750B06
:101D4000AB0160910D0170910E016417750708F0E9
:101D500041C0309351032093500340914E03509162
:101D60004F03B901641B750BAB0160910A017091BF
:101D70000B0164177507A0F46091550390910C0155
:101D8000E62FF0E04FEF50E0491B5109E417F5074B
:101D90001CF4960F9093550330934F0320934E03FA
:101DA00080FF04C060910F01619506C081FF03C0F0
:101DB00060910F0101C060E082FF04C080910F01BB
:101DC000819506C083FF03C080910F0101C080E0B0
:101DD0000E94671080E090E008950F93CF93FB017D
:101DE0008181803509F062C08081282F2072902F78
:101DF0009270382F307486FF16C0211114C0C82F7E
:101E0000CF7B0170992341F0011102C00E94C10FE4
:101E10008C2F0E94990F78C0002309F475C08C2F75
:101E20000E949B0F71C021111DC00170992309F4FC
:101E300040C0011165C02091890130918A01309321
:101E400051032093500330934F0320934E0340914E
:101E5000070150910801241B350B30934D0320934B
:101E60004C034EC0992309F44FC000FD4DC080FDC6
:101E700002C090E001C092E021E0311101C020E0F9
:101E8000922B81FD02C020E001C024E0922B82FD54
:101E900002C020E001C028E0922B83FD02C080E058
:101EA00001C080E1892B0E94C70F2EC080E090E026
:101EB00034C0002349F18095909152038923809387
:101EC00052038081982F937031F020E084FD0DC083
:101ED00040E061E011C0982F9C7049F084FD09C07A
:101EE00020E040E060E081E008C041E004C020E084
:101EF00001C021E040E060E080E00E943F1804C0A3
:101F000084FF05C00E94510E81E090E006C09091D0
:101F10005203892B80935203F7CFCF910F910895ED
:101F20000E94950F80E090E008950E9430180C9474
:101F30008B180C9479180E947E18109256030895FD
:101F400056954795640F751F3695279540E0820F8B
:101F5000931F0C94971810925803109257031092E5
:101F60005A03109259038FEF9FE790935E0380937B
:101F70005D0390935C0380935B0381E08093560341
:101F800008958091560381110C94AB0F08950F931F
:101F90001F93CF93C82F80915603811102C00E94D6
:101FA000AB0FC0FF06C010925603CF911F910F9147
:101FB0000895E09112010E2F10E080915D03909141
:101FC0005E03B8010E9469279B0170935E036093D2
:101FD0005D0380915B0390915C03B8010E946927C7
:101FE000AB0170935C0360935B037C2F74708091F2
:101FF000570390915803E0915903F0915A036C2FC5
:102000006670663071F4820F931F9093580380932B
:102010005703BA016E0F7F1F70935A0360935903E1
:1020200034C0772361F0D8011197A49FB001A59F18
:10203000700DB49F700D1124E60FF71F04C0C1FD91
:1020400006C0E40FF51FF0935A03E0935903C4FF51
:102050000CC0F8013197E29FB001E39F700DF29F31
:10206000700D1124860F971F04C0C3FD06C0820F98
:10207000931F909358038093570360915903709175
:102080005A038091570390915803CF911F910F915C
:102090000C94A00F87FD0AC0889FC0011124880FEF
:1020A000892F881F990B91958F5F089520E031E06B
:1020B000281B3109229FC001239F900D900D1124F0
:1020C000880F892F881F990B919580950895EF921D
:1020D000FF920F931F93CF93DF93182F062F8091BA
:1020E0001101E82EF12C112309F44CC0662381F173
:1020F00023E6829FC00111246CE870E00E947D27D6
:102100006115710509F07B01212F012E000C330BA5
:1021100043E61402C00111246CE870E00E947D27A0
:102120006115710509F09B01122F202F002E000C64
:10213000330B43E60402C00111246CE870E00E94F6
:102140007D276115710509F09B01022F1123D1F044
:10215000809155030E944A1090915403282F120336
:10216000E0011124C90FD11D97FDDA95EC16FD068B
:1021700064F0882799278E199F09C817D90734F466
:10218000EC0104C0C0E0D0E001C0E7010023D9F0B9
:10219000809155030E944A1020915303382F030366
:1021A000C0011124820F911D27FD9A95E816F906AA
:1021B00064F0222733272E193F097C0182179307E9
:1021C00024F4790102C0E12CF12C109256032091E5
:1021D000100130E0C701B9010E947D27E62FCE0132
:1021E000B9010E947D27862F20E040E06E2F0E94DB
:1021F00034182091100130E0CE01B9010E947D27F2
:1022000080935403C701B9010E947D278093530333
:10221000DF91CF911F910F91FF90EF900895209142
:10222000890130918A018091840390918503281B54
:10223000390B81E040911701509118014217530763
:1022400008F080E00895883018F490E0805202C0D1
:1022500094E48E5D262F20684FEF6FEF0E94F30706
:10226000089562E00C942311E82FF0E0EE0FFF1FB9
:10227000EC59FC4F90819E7F908361E00C94231178
:10228000CF93DF93C0E0D0E0FE01EE0FFF1FEC59CB
:10229000FC4F808180FF03C08C2F0E94311121965A
:1022A000C830D10589F780E090E0DF91CF910895A3
:1022B0000F931F93CF93DF9380E090E0FC01EE0F2C
:1022C000FF1FEC59FC4F208120FD05C00196803195
:1022D0009105A1F709C00E940F11882329F081E020
:1022E0008093610310926003C0E0D0E090E08091A1
:1022F00061038823F9F08E01000F111F0C591C4F48
:10230000F801808183FF0EC020916003222391F0A9
:10231000877F80838C2F0E943411F80180818D7F0C
:10232000808307C080FF06C081FD04C08C2F0E94FF
:10233000341191E02196C031D105C9F6992321F0DD
:10234000109261031092600380E090E0DF91CF91E2
:102350001F910F910895FF920F931F93CF93DF93D7
:10236000C0E0D0E08E01000F111FF801EC59FC4FC6
:10237000808180FBFF24F0F880FF04C00E940F11D1
:10238000882391F0F801EC59FC4F808181FBFF24F8
:10239000F0F881FD09C083FBFF24F0F883FD04C041
:1023A0002196C031D105F1F68F2DDF91CF911F918C
:1023B0000F91FF900895CF92DF92EF92FF920F93CB
:1023C0001F93CF93DF93DB01CD90DC90CFEFCC0D4B
:1023D00007FDADC0122FD42F7B010E94AB119601D7
:1023E0002150304C811136C02031310508F09FC09A
:1023F000802F8270902F917000FF0BC0811109C057
:10240000D0E0CC0FDD1FCC59DC4F88818D7F8883D5
:10241000AAC0882309F4A7C09111A5C080918901A1
:1024200090918A019093850380938403EC2FF0E0D0
:10243000EE0FFF1FEC59FC4F4D2F440FD40FDD0F53
:10244000D10FD1838081826081608083F701808198
:10245000918182C0902F92702031310508F050C0D8
:10246000EC2FF0E0EE0FFF1FDF01AC59BC4F8C9159
:1024700083FF0CC0992309F476C000FD74C0D0928C
:102480006303C0926203877F8C9318C000FF1CC057
:10249000911169C08D7F8C938091890190918A01FF
:1024A0002091840330918503821B930B20911501A9
:1024B000309116012817390708F055C08C2F0E945B
:1024C0003411109261034FC0992309F44CC082600B
:1024D0008C938091620390916303D7014D915C913D
:1024E0002091890130918A018417950719F5880F89
:1024F000991FDC01AE59BC478C9182FD37C01AC0D0
:102500009923A9F0D0926303C0926203D7018D9101
:102510009C91803E910540F4F7018181843439F02B
:1025200081E08093610303C0883E9105A8F780E0B5
:1025300090E03EC03093850320938403EC59FC4F18
:102540004D2F440FD40FDD0FD10FD18380818160D7
:102550008083D7018D919C91909363038093620354
:102560008C2F0E94311181E090E022C080911301F4
:10257000909114018F3FBFEF9B0721F480911701C9
:10258000909118014091840350918503241B350BD1
:102590008217930740F3EC59FC4F80818860808359
:1025A000F701808191819093630380936203DBCF75
:1025B000DF91CF911F910F91FF90EF90DF90CF901F
:1025C000089580E090E0FC01EE0FFF1FEC59FC4FF6
:1025D000208124602083019680319105A1F7089520
:1025E0009C01AC014151504C413068E0560710F459
:1025F000842F07C02251384C213048E0340710F4B2
:10260000822F90E008959C01AC014151504C413023
:1026100068E0560730F4252F332720523F4FC90179
:1026200008952251384C213048E0340718F48AE2EA
:10263000830F94E408951F93CF93DF93182F8F3F58
:1026400091F14091A40350E0C091A503D091A6035D
:1026500036E0632F0E945D2720E0389FF0011124AF
:10266000E75EFD4FE90FF11DA22F022E000CBB0B00
:10267000A417B507C4F4AA0FBB1FAA0FBB1FAC0F4A
:10268000BD1F11968C91119718130BC08C918F3F21
:1026900061F0082E000C990B608170E08617970797
:1026A00021F02F5FE1CF8FEF01C0822FDF91CF911B
:1026B0001F91089540918A0350E090E0292F092E40
:1026C000000C330B241735076CF4F901EE0FFF1FD4
:1026D0002E0F3F1FF901E557FC4F2081281721F0ED
:1026E0009F5FECCF8FEF0895892F0895BF92CF920F
:1026F000DF92EF92FF920F931F93CF93DF93CDB7AB
:10270000DEB76D970FB6F894DEBF0FBECDBFC82EF3
:10271000D62E10918B03812F0E941B13B82EA6E09A
:10272000812F6A2F0E945D27F82EE92EA89FD001E5
:102730001124A75EBD4FA90FB11DE0910301F091D7
:102740000401492F682F8C9109958C018151904C7F
:102750008230904108F467C02FEFB21287C081E049
:10276000809389038DE1EFE2F4E0DE0111960190A0
:102770000D928A95E1F7C0904C048DE1ECE4F4E011
:10278000AFE2B4E001900D928A95E1F722E04E2D80
:102790006F2DC8010E94F3070E94DA178DE1FE0138
:1027A0003196AFE2B4E001900D928A95E1F7D1FE47
:1027B00007C023E04E2D6F2DC8010E94F3070DC006
:1027C00021E04E2D6F2D80E090E00E94F307809174
:1027D0008A03823010F0C0924C041092890320E0EA
:1027E00080918A032817D0F4822F90E0DC01AA0F91
:1027F000BB1FA80FB91FA557BC4F0196FC01EE0FD8
:10280000FF1F8E0F9F1FFC01E557FC4FC080D1803A
:10281000E280CD92DD92EC922F5FE2CF81508093E7
:102820008A0381E032C0C1101CC08091A3038823B9
:10283000A1F080918A03823080F0809119018F3F4E
:1028400061F40E94992670938803609387038091B6
:102850008B038093190180E018C0C8010E94F01218
:1028600003C0C8010E9403138C0179CFCC20E9F288
:10287000E091A503F091A6038B2D94E08902E00D71
:10288000F11D1124028113816ACF6D960FB6F89461
:10289000DEBF0FBECDBFDF91CF911F910F91FF9093
:1028A000EF90DF90CF90BF900895CF93DF938F3F4D
:1028B000A1F0C82FD0E0DC1754F480918A0388235C
:1028C00061F063E081E00E947613DF5FF4CF61E0A6
:1028D00080E0DF91CF910C947613DF91CF91089532
:1028E000CF93C6E080918A03882309F120918B035E
:1028F000822F6C2F0E945D27C89FF0011124E90FE1
:10290000F11DEE0FFF1FE359FD4F80819181815131
:10291000904C8230904158F0822F0E941B138F3FC1
:1029200031F463E080E00E9476138111DBCFCF9118
:1029300008951F93CF93DF93182F80918A038830D7
:1029400031F463E080E00E9476130E947014C0911D
:102950008A03D0E0CE01880F991FC80FD91FC55731
:10296000DC4F18830E9499267A83698380918A03B9
:102970008F5F80938A03DF91CF911F910895EF922B
:10298000FF920F931F93CF93DF934E3008F06CC0EC
:10299000263008F069C007FD67C07B0180911C01EB
:1029A000811109C0F701808191810E94F012F70125
:1029B0009183808359C0842F880F480F440FC42F00
:1029C000C20F8C2F0E941B139091890391114CC050
:1029D000D02FD170102F127001FF13C0D11111C070
:1029E00090918A03911108C0F70120813181215112
:1029F000304C22303041B0F58C2F0E94991481E088
:102A000034C08C2F0E945A13DD2329F1111123C0E9
:102A10008F3F51F1C0911901CF3FC1F00E94551471
:102A20000E94701481E0809389038C2F66E00E94DD
:102A30005D2721E0492F682F80E090E00E94F30796
:102A4000109289038FEF80931901ACCF0E94551427
:102A50000E947014A7CF21E090E08F3F09F420E09E
:102A6000822F04C08F3F41F680E090E0DF91CF914C
:102A70001F910F91FF90EF900895CF93DF930E94E5
:102A80009926EB01209119012F3F51F120918703E5
:102A900030918803621B730B8091A30390E086172B
:102AA000970714F561E080E00E9476130E9470148D
:102AB0008FEF8093190118C080918C0390918D0342
:102AC0009E01281B390B80911A0190911B018217DE
:102AD000930750F463E081E00E9476130E94701423
:102AE00080918A038111E8CF80E090E0DF91CF915F
:102AF0000895EBE8F3E08FEF808312821182339622
:102B000093E0E33AF907C1F710928A0380E090E07E
:102B100008958091C30381113EC01092AC031092BE
:102B2000AB031092AD031092AF031092AE0381EE8F
:102B30008093A7031092A80386E28093A90388E0FC
:102B40008093AA031092B5031092B4031092B603B7
:102B50001092B8031092B70395EE9093B0031092C1
:102B6000B10397E29093B2038093B3031092BE0334
:102B70001092BD031092BF031092C1031092C003C4
:102B80001092B9031092BA031092BB031092BC03C7
:102B900081E08093C30387EA93E09093CD03809311
:102BA000CC03089581E08093CB0308956F927F92C8
:102BB0009F92AF92BF92CF92DF92EF92FF920F93CC
:102BC0001F93CF93DF93FB01A080B180B5016855BF
:102BD000714D6230710580F401FF23C000FD21C0FA
:102BE00088E5A81681EDB80619F41092CB0319C038
:102BF00081E08093CB0315C03091CB03311145C0E8
:102C000007FD43C0A114B10409F43FC0702F7270D6
:102C1000602F61700370C9F13BC09920B1F161115F
:102C2000A9C081E090E0B9C0D8011696EC91EE23DE
:102C300011F0C22F41E0AE14BF0411F49924939413
:102C40002F5FE091CC03F091CD038F01B9E02B9F72
:102C5000000D111D1124D801ED90FC901197612CED
:102C6000712CE614F70401F71296CD90DC901397BF
:102C700080E090E0C816D906B9F61496CD90DC90A5
:102C80001597CD2889F6411157C080E090E085C0A6
:102C9000522F342F8F01772309F449C0611147C0A7
:102CA000D0E0C0E099249394A9E0DA9F5001112468
:102CB000E091CC03F091CD03EA0DFB1D8081918161
:102CC000C12CD12C8C159D0559F422813381E12C26
:102CD000F12C2E153F0521F424813581232B21F180
:102CE000D8012D913C918217930749F496828091E7
:102CF000890190918A0190878783C1E013C0868102
:102D0000882339F022E84FEF6FEF808191810E9494
:102D1000F307E091CC03F091CD03EA0DFB1D168281
:102D200010861782DF5FC0CF8C2F90E036C020E086
:102D3000C0E0912C40E085CFB9E0CB9FE0011124A9
:102D4000EC0FFD1FA481B581109721F4A0911D0106
:102D5000B0911E018091890190918A0107811085AF
:102D6000801B910BA817B90708F057CF1682108661
:102D700017828BCF711155CF22E8452F632F8281A7
:102D800093810E94F3078091CC039091CD03C80FEB
:102D9000D91F1E8218861F8244CFDF91CF911F91C9
:102DA0000F91FF90EF90DF90CF90BF90AF909F90EA
:102DB0007F906F90089582EC93E00C948915CF93E7
:102DC000DF9300D000D000D0CDB7DEB7DC01139682
:102DD0007C936E93129715965C934E931497169668
:102DE0003C91169739837B836A835D834C832E8362
:102DF000ED91FC910190F081E02D46E050E0BE01A4
:102E00006F5F7F4F099526960FB6F894DEBF0FBE11
:102E1000CDBFDF91CF9108958FE294E00E94CF1C47
:102E200081ED93E00C94021ACF93C82F81ED93E0CB
:102E30000E946B196C2F811105C081ED93E0CF9139
:102E40000C949C198FE294E0CF910C946F1CCF935B
:102E5000C82F83FF04C081EE90E00E941417C0FFCA
:102E600004C080EE90E00E941417C1FF04C082EEFF
:102E700090E00E941417C2FF04C086EE90E00E940A
:102E80001417C4FF04C083EE90E00E941417CF9182
:102E90000895CF93DF93D82FC92F907C662399F0A4
:102EA0008091CE03811102C01092D0038091D00393
:102EB0008C2B8093D003911104C080E28D0F883059
:102EC00020F0D093CE03911108C080E28D0F88309E
:102ED00020F48C2F0E94271705C08091CF038C2BE4
:102EE0008093CF038D2F9C2FDF91CF910C941417DB
:102EF000CF93C82F81ED93E00E946B196C2F811145
:102F000005C081ED93E0CF910C94C4198FE294E059
:102F1000CF910C94961C81ED93E00E94FB191092C6
:102F2000CE031092CF038FE294E00E94BF1C81E198
:102F300094E00C94A61BCF93DF93D82FC92F8091D8
:102F4000D00389278093D003892F807C21F480E2ED
:102F50008D0F883058F08091CE038D1302C01092EF
:102F6000CE038091CF038C278093CF03C3FF04C08F
:102F700081EE90E00E947817C0FF04C080EE90E0E0
:102F80000E947817C1FF04C082EE90E00E9478177B
:102F9000C2FF04C086EE90E00E947817C4FF04C010
:102FA00083EE90E00E9478178D2F9C2FDF91CF91B8
:102FB0000C9478179091CF038091D00389230E94BD
:102FC000271781ED93E00E946B196091CE03811168
:102FD00016C0662381F081ED93E00E94C41981ED53
:102FE00093E00E946E196091CE0381ED93E00E9400
:102FF0009C191092CE0381ED93E00C946E19662318
:1030000081F08FE294E00E94961C8FE294E00E948F
:103010000F1C6091CE038FE294E00E946F1C10920F
:10302000CE038FE294E00E940F1C81E194E00C94A7
:10303000B91B81E194E00C94DF1BBC01737081E14A
:1030400094E00C94911B84E994E00C94931D682FF8
:1030500084E994E00C94951D84E994E00C94911D0E
:103060008CE794E00C942D1D0F93022F242F462FF4
:10307000682F8CE794E00E94D51C0F910895FF9271
:103080000F931F93CF93DF9300D000D01F92CDB743
:10309000DEB7F62E142F722F95E0ECE7F4E0DE0198
:1030A000119601900D929A95E1F79A813B815C818E
:1030B0000D81882311F060E001C0692FFF2011F01D
:1030C00040E001C0432F112311F020E001C0252F63
:1030D000711100E08CE794E00E94D51C0F900F90D6
:1030E0000F900F900F90DF91CF911F910F91FF9054
:1030F0000895682F8CE794E00C94E31C682F8CE70C
:1031000094E00C94E81C8CE794E00C94DD1C8CE7B4
:1031100094E00C94FB1CEDE9F4E0108A4685578599
:103120006485758520E087EA94E00C94DF16242FEF
:10313000AB01BC0187EA94E00C94DF16FC018281AC
:103140008F5BFB01808381E00895CF93DF93CDB740
:10315000DEB769970FB6F894DEBF0FBECDBFFC0196
:10316000DB019C919F5F9C93BE016F5F7F4F89E164
:10317000DB011D928A95E9F729E0298384E08A839F
:1031800091E09D8383E08E839F8398872A8721E245
:103190002B879C879D879F8722E2288B2FE3298B93
:1031A00027E02B8B25E02C8B8E8B20E430E0388FB2
:1031B0002F8B998F82818B83838180688D8B49E1EE
:1031C00050E080E00E94D62369960FB6F894DEBFE7
:1031D0000FBECDBFDF91CF910895FC01DB0182814D
:1031E00090E014962D913C91159782179307E1F585
:1031F00011968C9111979C91913A61F4813091F1E3
:10320000833011F4848D03C0823071F5858D8093F5
:10321000F10028C0913241F58B3021F412968C9147
:10322000848F20C08A3011F4158E1CC08930E1F4DF
:10323000CF0116962D913C91179713964C914230E1
:1032400039F42130310581F461E070E04E9608C018
:10325000413051F42830310539F468E070E00B96C4
:103260000E94FD2381E0089580E00895FC01DB01C8
:103270008C918138B9F413968C911397823291F422
:10328000828190E014962D913C911597281739076B
:1032900049F48285848F4FE350E066EB73E080E869
:1032A0000C94D62380E090E00895FC0181E08483B3
:1032B00085839F01255E3F4F3783268311861086C5
:1032C0002FE331E0318320838287848F858F168EB0
:1032D00081EC838F0895FC01848D0895EF92FF9215
:1032E0000F931F93CF93DF938C01EC012B967C01FE
:1032F00083E1E80EF11C48E050E0BE01C7010E94E6
:10330000EA27892B81F0F801838148E050E0BE0173
:1033100080640E94272328E0FE01D70101900D92CE
:103320002A95E1F702C08FEF9FEFDF91CF911F91B8
:103330000F91FF90EF90089520E2260F283058F467
:1033400041E050E001C0440F2A95EAF7FC012385D3
:10335000422B438716C0FC013D9620E030E04191AE
:10336000641779F0411105C0FC01E20FF31F658776
:1033700008C02F5F3F4F2630310589F780E090E08D
:10338000089581E090E0089520E2260F283068F447
:10339000622F21E030E001C0220F6A95EAF7209504
:1033A000FC0133852323238723C0FC01AC014A5F42
:1033B0005F4FDC011D962C911D97621303C01D9673
:1033C0001C921D9711964A175B07A1F720E03585DF
:1033D000332351F0DC01A20FB11D1D966C911D9796
:1033E0001D963C9365872F5F3196E417F50779F7B3
:1033F00081E090E008950B9628E0FC0111922A9557
:10340000E9F70895CF93DF93EC010E945920BE01A4
:103410000E941220CE010E94FB19CE01DF91CF91B4
:103420000C946E1981ED93E00C945519FB018BE619
:10343000808382E6818389E682838FE6838380E3CB
:10344000848381E3858386E00895CF93DF93CDB7AE
:10345000DEB769970FB6F894DEBF0FBECDBFFC0193
:10346000DB018C918F5F8C93BE016F5F7F4F89E191
:10347000DB011D928A95E9F729E0298384E08A839C
:1034800091E09D8383E08E832A8721E22B879C87AE
:103490009D879F8722E2288B27E02B8B25E02C8BB2
:1034A0008E8B20E430E0388F2F8B998F82818B8335
:1034B00095858685998B8A8B838180688D8B49E180
:1034C00050E080E00E94D62369960FB6F894DEBFE4
:1034D0000FBECDBFDF91CF910895CF93DF93FC0155
:1034E000DB01828190E014962D913C911597821713
:1034F0009307A9F511969C9111978C91813A31F41B
:1035000081E0913069F1933051F52AC0813239F56B
:103510009B3021F412968C91878705C09A3029F44C
:1035200012968C91808B81E01BC09930C1F4EF0121
:1035300016968D919C9117978230910539F462E02F
:1035400070E0CF0141960E94FD2309C0019739F434
:1035500061E070E0CF0142960E94FD23198A80E06D
:10356000DF91CF910895EF92FF920F931F93CF9326
:10357000DF93FB012081213851F52381223239F577
:10358000DC0112962C9130E044815581421753079B
:10359000F1F4EC010B851C85E12CF12C01151105D2
:1035A00091F0F801448155816281738180E80E9425
:1035B000D6238F3FFFEF9F0769F0E80EF91ED80171
:1035C0000D911C91EBCF81E08F87C70105C080E092
:1035D00090E002C08FEF9FEFDF91CF911F910F918D
:1035E000FF90EF900895FC01A385B485109719F41E
:1035F0007487638709C08D919C911197009711F092
:10360000DC01F9CF6D937C9325853685DB0114961B
:103610008D919C911597820F931F968785870895AA
:10362000AF92BF92CF92DF92EF92FF920F931F93D0
:10363000CF93DF931F92CDB7DEB77C0169836A0118
:10364000590141E050E0BE016F5F7F4FFC01838173
:103650000E9427238C0197FD0BC0F7018381A501F0
:10366000B60180640E94272397FD02C0800F911F3E
:103670000F90DF91CF911F910F91FF90EF90DF900E
:10368000CF90BF90AF900895CF93DF93EC0181E08E
:103690008C838D839E01265F3F4F3F832E83198647
:1036A00018862BE431E0398328831C861B861E860E
:1036B0001D868F87888B198A1A8A81EC8A870E94D7
:1036C0005920BE01DF91CF910C9412208091030408
:1036D000811107C080EF93E00E94441B81E080933A
:1036E000030480EF93E0089580912104811113C0B9
:1036F00010920C0410920B0485EF93E090930E044B
:1037000080930D0489E190E09093100480930F045E
:1037100081E0809321040E94661B6BE074E00C94AE
:10372000F31ADC0120E030E04D915D91452B41F42E
:10373000220F331FFC01E20FF31F71836083089592
:103740002F5F3F4F2430310579F7089528E0FC01C1
:1037500011922A95E9F70895CF93DF93EC010E9427
:10376000661B28E030E0AE0164E0DF91CF910C945D
:10377000101B0F931F93CF93DF93EC018C01085F15
:103780001F4F48E050E0BC01C8010E94EA27892B86
:1037900051F0CE010E94AC1B88E0FE01D8010190DF
:1037A0000D928A95E1F7DF91CF911F910F910895C6
:1037B00028E0FC0111922A95E9F70C94B91B0C94AE
:1037C000D81B81E194E00C94741B809169048111F1
:1037D00013C010922A04109229048EE094E0909372
:1037E0002C0480932B0481E490E090932E0480932A
:1037F0002D0481E0809369040E94661B69E274E0F5
:103800000C94F31ACF93DF93EC010E94661B2DE119
:1038100030E0AE0168E0DF91CF910C94101BEF9285
:10382000FF920F931F93CF93DF93EC017C018DE107
:10383000E80EF11C4DE150E0BE01C7010E94EA27ED
:10384000892B09F443C00D8D1881802F8095812329
:10385000B1F04CE150E0BE016F5F7F4FCE014E965C
:103860000E94EA27892B59F01D8F0E94661B2DE1CB
:1038700030E0A70168E00E94101B0D8F19C0812F56
:1038800080958023A9F04CE150E0BE016F5F7F4F2F
:10389000CE014E960E94EA27892B51F008830E94A0
:1038A000661B2DE130E0AE0168E00E94101B18831A
:1038B000CE010E94021C1816190654F42DE1FE01D7
:1038C000D70101900D922A95E1F702C08FEF9FEF8B
:1038D000DF91CF911F910F91FF90EF9008956E3D72
:1038E00090F4262F269526952695FC01E20FF11DD2
:1038F000677081E090E001C0880F6A95EAF79181D6
:10390000892B81830DC0605E683068F421E030E06F
:1039100001C0220F6A95EAF7FC013081232B208336
:1039200081E090E0089580E090E008956E3D98F485
:10393000262F269526952695FC01E20FF11D67702E
:1039400081E090E001C0880F6A95EAF78095918147
:10395000892381830EC0605E683070F421E030E01E
:1039600001C0220F6A95EAF72095FC0130812323DC
:10397000208381E090E0089580E090E008952DE1BB
:10398000FC0111922A95E9F70895CF93DF93EC019A
:103990000E94BF1CCE01DF91CF910C94021C0C94AD
:1039A000C51C8FE294E00C94E51B0F93FC0161832E
:1039B0004283238304830F91089525E0FC01119233
:1039C0002A95E9F70895FC012081622B6083089510
:1039D0006095FC012081622360830895CF93DF937B
:1039E000EC010E94661B25E030E0AE0161E0DF9152
:1039F000CF910C94101B0F931F93CF93DF93EC0187
:103A00008C010B5F1F4F45E050E0BC01C8010E94D4
:103A1000EA27892B49F445E050E061E774E0CE01E4
:103A20000E94EA27892B51F0CE010E94EE1C85E00E
:103A3000FE01D80101900D928A95E1F7DF91CF91B7
:103A40001F910F910895CF93DF93EC010E94DD1C2D
:103A5000CE01DF91CF910C94FB1CCF93DF93EC014F
:103A600080918604811113C010927704109276041D
:103A70008FE494E090937904809378048AE390E053
:103A800090937B0480937A0481E0809386040E9463
:103A9000661B66E774E00E94F31ACE01DF91CF91B6
:103AA0000C94231D80919504811113C010928F04F2
:103AB00010928E0489E894E090939104809390048E
:103AC00088E190E0909393048093920481E0809346
:103AD00095040E94661B6EE874E00C94F31A0F9331
:103AE0001F93CF93DF93EB018A010E94661B98011D
:103AF000AE0165E0DF91CF911F910F910C94101BE7
:103B0000CF93DF931F92CDB7DEB7198241E050E02B
:103B1000BE016F5F7F4F0E946F1D0F90DF91CF91AD
:103B200008950C94801D0C94801DCF93DF931F92F9
:103B3000CDB7DEB76983633829F48EE095E00E9443
:103B40001F2607C041E050E0BE016F5F7F4F0E941B
:103B50006F1D0F90DF91CF91089584E994E00C944C
:103B6000521DCF93DF93CDB7DEB769970FB6F894A8
:103B7000DEBF0FBECDBFFC01DB019C919F5F9C931C
:103B8000BE016F5F7F4F89E1DB011D928A95E9F7E6
:103B900029E0298384E08A8391E09D8383E08E83FA
:103BA0002A8721E22B879C879D879F8722E2288B8B
:103BB00025E3298B27E02B8B25E02C8B8E8B20E4B3
:103BC00030E0388F2F8B998F82818B83838180683F
:103BD0008D8B49E150E080E00E94D62369960FB6B4
:103BE000F894DEBF0FBECDBFDF91CF910895FC01E9
:103BF000838180640C9427230A970C94F71DFB01A2
:103C000020812138B9F423812232A1F4DC011296FB
:103C10002C91129730E0448155814217530751F49B
:103C200021E052962C9345E350E061EA74E080E88D
:103C30000C94D62380E090E00895DC01FB011296FD
:103C40008C91129790E02481358182179307D1F4EB
:103C500091818081813A31F481E0913091F093300B
:103C600089F411C0813271F49B3021F48281529623
:103C70008C9305C09A3031F4828153968C9381E005
:103C80000895089580E00895CF93DF93EC0181E0DB
:103C90008C838D839E012F5E3F4F3F832E83198639
:103CA00018861D861C861F861E86188A27E531E029
:103CB0003983288325E631E03B872A878A8B8B8BE3
:103CC00081EC898B0E945920BE01DF91CF910C9429
:103CD00012208DE994E00C94441ECF93DF931F9241
:103CE000CDB7DEB76983DC01ED91FC910280F381F1
:103CF000E02D41E050E0BE016F5F7F4F09950F90CE
:103D0000DF91CF910895CF93DF93EC018C859D8552
:103D100097FF05C082E00E94F6229D878C878C85E4
:103D20009D85DF91CF91089583E00E940D2390E05F
:103D3000089583E00C948A25FC018485958597FD80
:103D400006C082E00E94A22290E00196089582E0DF
:103D50000E94A22290E00895FC018485958597FD3C
:103D600005C02FEF3FEF35872487089582E00C943C
:103D7000F622CF93DF93EC0180912A01882331F062
:103D800083E00E9427231816190634F081E090E0A2
:103D90009B838A8380E090E0DF91CF910895EEEFDE
:103DA000FFE72591349181E02B3F3C4D09F080E005
:103DB0000895FC0190819E5F908342E450E066ED9F
:103DC00074E080E80C94D623FC0181819081913AC3
:103DD00059F4813209F065C047E050E063E271E0D8
:103DE00080E00E94D6235BC0913209F05AC0833232
:103DF00069F482819381A0E0B0E080931F019093E9
:103E00002001A0932101B093220149C0803239F4EE
:103E100067E070E083E291E00E94FD2340C08232BF
:103E200009F03DC0828180932A010E94CF1E882321
:103E300019F0EEEFFAE002C0E0E0F8E08091230133
:103E400090912401A0912501B0912601803B9440DE
:103E5000A105B10541F580912A0180FD24C0EE3F06
:103E60008AE0F80751F080819181873727E7920730
:103E700021F09093FF0A8093FE0A87E797E79183EA
:103E8000808380916000809301059BE088E10FB6FC
:103E9000F894A895809360000FBE9093600081E035
:103EA000089580E008958081918187379747B9F719
:103EB000A8958091600088618093600080910105E1
:103EC00080936000EE3F8AE0F80739F08091FE0AA7
:103ED0009091FF0A91838083E2CF1092FF0A1092A3
:103EE000FE0ADDCF2FEF3FEFFC01358724870895D1
:103EF000E1EBF4E01382128288EE93E0A0E0B0E000
:103F000084839583A683B7838BE691E09183808336
:103F10008FEF9FEF958784870895EF92FF920F931D
:103F20001F93CF93DF937B01FC01C281D38100E01B
:103F300010E0209781F0E881F9810280F381E02D83
:103F4000B701CE01099597FD08C0080F191F088415
:103F5000D985C02DEECFC80102C08FEF9FEFDF9152
:103F6000CF911F910F91FF90EF9008950F931F93A2
:103F7000CF93DF938B01FC01C281D381209771F035
:103F8000E881F9810480F581E02DB801CE01099521
:103F9000009731F40884D985C02DF0CF80E090E0FF
:103FA000DF91CF911F910F9108950F931F93CF939E
:103FB000DF938B01FC01C281D381209771F0E881EE
:103FC000F9810680F781E02DB801CE010995080F2F
:103FD000111D0884D985C02DF0CFF8011082DF9122
:103FE000CF911F910F9108950F931F93CF93DF935C
:103FF0008B01FC01C281D381209771F0E881F981A6
:104000000190F081E02DB801CE010995811105C024
:104010000884D985C02DF0CF80E0DF91CF911F912A
:104020000F910895CF93DF93FC01DB01218114965A
:104030008C91149790E0820F911D0897A4F5C2818E
:10404000D381209719F47383628308C0888599858A
:10405000009711F0EC01FACFB987A88780811296FA
:104060008C931297818113968C9313979081159658
:104070008C911597890F808380E014969C911497FA
:10408000891798F41696CD91DC911797C80FD11D1A
:104090009881C181D0E0C55DDE4F988391819F5F9B
:1040A00091838F5FEACF80E001C081E0DF91CF9103
:1040B00008958091060581110DC082E0809302056C
:1040C00084E080930305109205051092040581E0B9
:1040D0008093060582E095E008956115710579F0F9
:1040E000FB0101900020E9F73197AF01461B570B08
:1040F000DC01ED91FC910280F381E02D099480E0D8
:1041000090E00895EF92FF920F931F93CF93DF9368
:104110008C017B01C0E0D0E0F701EC0FFD1F649142
:10412000662361F0D801ED91FC910190F081E02DC2
:10413000C8010995892B11F02196EECFCE01DF91B0
:10414000CF911F910F91FF90EF900895DC01ED91B9
:10415000FC910190F081E02D099469E771E00C94E5
:104160006D200F931F93CF93DF93EC010E94822069
:104170008C01CE010E94AD20800F911FDF91CF9165
:104180001F910F9108958F929F92AF92BF92EF92DD
:10419000FF920F931F93CF93DF93CDB7DEB7A19715
:1041A0000FB6F894DEBF0FBECDBF7C01FA01CB0184
:1041B00019A2223008F42AE08E010F5D1F4F822ED3
:1041C000912CA12CB12CBF01A50194010E94912733
:1041D000F901CA01015011096A3014F4605D01C08F
:1041E000695CD8016C93232B242B252B61F7B80134
:1041F000C7010E946D20A1960FB6F894DEBF0FBED6
:10420000CDBFDF91CF911F910F91FF90EF90BF90A5
:10421000AF909F908F9008952115310541F4DC01F6
:10422000ED91FC910190F081E02D642F09940C94A4
:10423000C3209A01462F50E060E070E00C940C21FE
:104240009A01AB0160E070E00C940C210F931F9376
:10425000CF93DF93EC010E949926688779878A873C
:104260009B87E881F9810484F585E02DCE010995CD
:1042700097FF17C00E949926088519852A853B85D6
:10428000DC01CB01801B910BA20BB30B0C811D81B8
:104290002E813F8180179107A207B30710F38FEF9C
:1042A0009FEFDF91CF911F910F910895FF920F9390
:1042B0001F93CF93DF93EC018B01F42ECE010E946C
:1042C000262197FD2DC08D32910519F19C012053B7
:1042D00031092A30310520F1FF2019F08E32910585
:1042E000D1F001301105D1F00230110551F48D30BB
:1042F000910539F024F40997029718F00FC08097C0
:1043000069F4E881F9810284F385E02DCE010995F5
:10431000D5CF8DE201C08EE290E002C08FEF9FEF1B
:10432000DF91CF911F910F91FF900895BF92CF928F
:10433000DF92EF92FF920F931F93CF93DF938C0145
:10434000C42F40E00E945621FC0197FD47C0C12CBC
:10435000D12C7601B12C0C2E000CDD0BEC17FD07D7
:1043600009F1ED32F105E1F0CF01C0970A97D0F4E1
:10437000AAE0B0E0A70196010E94B3276F01FF0FEA
:10438000EE08FF08DC01CB018C0D9D1DAE1DBF1D8D
:104390006C017D0120E3C21AD108E108F10802C0D6
:1043A000BB24B394D801ED91FC910284F385E02DF8
:1043B000C8010995C8010E942621FC01C0970A97EF
:1043C00068F2CE17DF0751F2BB2061F0662777272E
:1043D000CB016C197D098E099F0906C060E070E071
:1043E000CB0102C0C701B601DF91CF911F910F91A0
:1043F000FF90EF90DF90CF90BF900895409111050E
:104400005091120520910F05309110054217530766
:10441000B4F49091E8009570E1F39091E80092FD7A
:1044200019C08093F10080911105909112050196B9
:104430008F739927892B19F48EEF8093E800809170
:104440001105909112050196909312058093110524
:1044500081E0089580E00895DF92EF92FF920F933C
:104460001F93CF93DF93D82EF92EE42E062F10E062
:10447000C8010196880F0E94FE2183E00E94FE2160
:10448000CD2DDF2D0C0F1D1FC017D10789F0E7FEC2
:1044900003C0FE01849101C088810E94FE21F82E94
:1044A00080E00E94FE218F2121968111EDCF01C075
:1044B00081E0DF91CF911F910F91FF90EF90DF90FE
:1044C00008958091D70081608093D70080EA80931F
:1044D000D80089B5806189BD89B5826089BD09B47C
:1044E00000FEFDCF61E070E080E090E00E94CA260F
:1044F0008091D8008F7C80618093D8008091E0000B
:10450000807F8093E0000895CF93DF931F92CDB713
:10451000DEB71982CE0101960E94D91E0E94592051
:10452000BE016F5F7F4F0E948D1F89810F90DF91C9
:10453000CF9108952FB7FC012083F89467706093A2
:10454000E9000895CF93DF931F92CDB7DEB7682FB0
:10455000CE0101960E949A228091F20099819FBF1C
:104560000F90DF91CF910895EF92FF920F931F93D9
:10457000CF93DF931F92CDB7DEB7909115059923A6
:1045800011F057FF03C08FEF9FEF28C08A017B0116
:10459000682FCE0101960E949A222091F20030E00D
:1045A000021713070CF49801822FF70194E681504B
:1045B00030F0909316054091F1004193F8CF21150A
:1045C000310521F08091F200882321F089818FBF8D
:1045D000C90104C08BE68093E800F8CF0F90DF910B
:1045E000CF911F910F91FF90EF900895CF93DF939C
:1045F0001F92CDB7DEB741E050E0BE016F5F7F4F45
:104600000E94B422019719F4898190E002C08FEFD3
:104610009FEF0F90DF91CF910895CF93DF931F927B
:10462000CDB7DEB7682FCE0101960E949A229091F5
:10463000E800892F807295FF04C09091F20080E419
:10464000891B99819FBF0F90DF91CF9108955F9251
:104650006F927F928F929F92AF92BF92CF92DF9292
:10466000EF92FF920F931F93CF93DF931F92CDB7DB
:10467000DEB7982E6B01B42E052F809115058111A0
:1046800003C08FEF9FEF76C08091130580FF05C0B8
:104690008091E00082608093E000EB2CF02EA12C52
:1046A0008AEF882E892D8072682E892D8074582E6D
:1046B0009AE3792EE114F10419F4AA2009F455C003
:1046C000892D0E940D23182F81110AC08A948820F9
:1046D000C1F261E070E080E090E00E94CA26EACF7B
:1046E00090E0E816F9060CF41E2D692DCE01019616
:1046F0000E949A228091E80085FF34C0812F90E0CB
:10470000E81AF90A662029F01150A0F01092F10081
:10471000FBCFF60197FE0AC0115050F02491209370
:10472000F1003196F9CF21912093F1001150D8F783
:10473000C80ED91EAA2019F07092E8000BC0809113
:10474000E80085FD09C07092E800AA24A394E11452
:10475000F10441F0A12C06C0E114F10419F4511048
:104760007092E80089818FBFA5CF84E680931705FA
:104770008B2D902F0F90DF91CF911F910F91FF9074
:10478000EF90DF90CF90BF90AF909F908F907F90F1
:104790006F905F9008951092E900109212051092A8
:1047A00011059093100580930F050895DF92EF9205
:1047B000FF920F931F93CF93DF93D82E8A017B0133
:1047C000E40EF51EEB01CE15DF0571F0D7FE03C038
:1047D000FE01849101C088810E94FE2121968111F1
:1047E000F2CF8FEF9FEF01C0C801DF91CF911F91F2
:1047F0000F91FF90EF90DF900895CF93DF93EC013E
:104800009B01B4E6ABEF21153105F1F0A90121348C
:10481000310514F040E450E08091E80082FFFCCFC5
:10482000942FFB01E21BF30BEC0FFD1F915028F0BE
:104830008091F10080833196F9CFB0931605A09353
:10484000E800241B350BDFCFCB01DF91CF9108951A
:104850001F920F920FB60F921124CF92DF92EF9218
:10486000FF920F931F932F933F934F935F936F93F9
:104870007F938F939F93AF93BF93EF93FF93CF93C8
:10488000DF93CDB7DEB76C97DEBFCDBF1092E900E6
:104890008091E80083FF1FC189E0FE017596FE2E1E
:1048A0000F2F815029F09091F10090833196F9CF2C
:1048B00084E68093160582EF8093E8008D8987FF58
:1048C00005C09091E80090FFFCCF03C09EEF90934D
:1048D000E800982F907609F0D7C09E894F89588DAF
:1048E0002F89188D91110CC0803829F480911405FE
:1048F0008093F10002C01092F1001092F100E4C028
:10490000913051F48111E0C04130510509F0DCC013
:10491000809114058D7F0BC0933061F48111D4C058
:104920004130510509F0D0C0809114058260809318
:104930001405CAC0953049F48091E80080FFFCCF8F
:10494000822F80688093E300BFC0963009F06FC06B
:10495000CB8CDC8C123069F580E090E00E94CB2398
:104960000E94842299E09E012F5F3F4F7901F90157
:10497000292F11922A95E9F799831A8391E09E8352
:1049800090EA98879AEF9987209111053091120546
:10499000275F3F4F3C832B838D83C6010E94CB232F
:1049A00049E050E0B70180E00E94D6230E948422B3
:1049B0008BC0C6010E94CB230E9459206F2D702FFF
:1049C0000E94B61F009719F00CF07EC081C0113014
:1049D00009F46FC0133009F07BC08F89882309F474
:1049E0006BC0823029F440E86AE085E395E006C0B8
:1049F000813039F440E86AE08AE295E00E942C2296
:104A000055C0833009F064C00E9459208E010F5FA9
:104A10001F4FB8010E94D51FF80101900020E9F74F
:104A20003197BF01601B710B40E0C801E7CF9730A1
:104A300009F44EC0983021F481E08093F10044C025
:104A4000993009F041C0837009F042C0ECE2F1E016
:104A500081E031E096E32081211109C08EE7809347
:104A6000EA001092EA008F89809315052DC080938B
:104A7000E9003093EB0021912093EC009093ED003E
:104A80008F5F873041F7EACF8B8D9C8D0E94CB23BF
:104A9000898D811105C08F2D902F0E94E41E06C0C4
:104AA0000E9459206F2D702F0E94F41F882381F0DF
:104AB0000BC068E175E002C060E475E0FB01449161
:104AC00050E080E80E94D6238EEF8093E80003C078
:104AD00081E28093EB006C960FB6F894DEBF0FBEB8
:104AE000CDBFDF91CF91FF91EF91BF91AF919F919A
:104AF0008F917F916F915F914F913F912F911F9176
:104B00000F91FF90EF90DF90CF900F900FBE0F901E
:104B10001F9018958093E9008091F200882319F086
:104B20008AE38093E80008951F920F920FB60F92C8
:104B300011242F933F934F935F936F937F938F93A2
:104B40009F93AF93BF93CF93EF93FF93C091E100F7
:104B50008091E100837F8093E100C3FF0FC010923A
:104B6000E90081E08093EB001092EC0082E38093F7
:104B7000ED001092150588E08093F000C2FF15C08B
:104B800083E00E948A2580911705882329F080916F
:104B9000170581508093170580911605882329F009
:104BA00080911605815080931605C4FF10C0809136
:104BB000E2008E7E81608093E2008091E1008F7E32
:104BC0008093E100809113058E7E806111C0C0FF4B
:104BD00011C08091E2008E7E80618093E20080911E
:104BE000E1008E7E8093E100809113058E7E8160CE
:104BF00080931305FF91EF91CF91BF91AF919F915A
:104C00008F917F916F915F914F913F912F910F9075
:104C10000FBE0F901F901895109215051092140555
:104C2000109213050E946122E1EEF0E080818E7EF9
:104C300080838DE08093E200559A209A08958091B8
:104C4000E0008D7F8093E0008091E00081FD08C04E
:104C50008091130580FF04C08091140581FD02C07E
:104C600080E008950E9461228091E000826080933C
:104C7000E00081E0089508950E9406270E943B26E7
:104C80008EE095E00E940C260E94A503C0E0D0E0D3
:104C90000E94B0032097E1F30E940000F9CF1F9219
:104CA0000F920FB60F9211242F933F938F939F93E0
:104CB000AF93BF938091190590911A05A0911B05A0
:104CC000B0911C053091180523E0230F2D3720F4F7
:104CD0000196A11DB11D05C026E8230F0296A11D56
:104CE000B11D209318058093190590931A05A09380
:104CF0001B05B0931C0580911D0590911E05A09188
:104D00001F05B09120050196A11DB11D80931D05C1
:104D100090931E05A0931F05B0932005BF91AF91FE
:104D20009F918F913F912F910F900FBE0F901F90E9
:104D300018952FB7F8946091190570911A05809114
:104D40001B0590911C052FBF08953FB7F8948091E3
:104D50001D0590911E05A0911F05B091200526B557
:104D6000A89B05C02F3F19F00196A11DB11D3FBFA3
:104D7000BA2FA92F982F8827820F911DA11DB11D31
:104D8000BC01CD0142E0660F771F881F991F4A952D
:104D9000D1F708958F929F92AF92BF92CF92DF92F8
:104DA000EF92FF926B017C010E94A5264B015C01F2
:104DB000C114D104E104F10401F10E945C270E94B6
:104DC000A526DC01CB0188199909AA09BB09883EEF
:104DD0009340A105B10560F321E0C21AD108E108B2
:104DE000F10888EE880E83E0981EA11CB11CC11446
:104DF000D104E104F10419F7DBCFFF90EF90DF90CD
:104E0000CF90BF90AF909F908F900895789484B585
:104E1000826084BD84B5816084BD85B5826085BDB6
:104E200085B5816085BDEEE6F0E08081816080839C
:104E3000E1E8F0E01082808182608083808181607F
:104E40008083E0E8F0E0808181608083E1E9F0E048
:104E5000808182608083808181608083E0E9F0E0EE
:104E6000808181608083E1ECF0E0808184608083D8
:104E7000808182608083808181608083E3ECF0E0C8
:104E8000808181608083E0ECF0E0808182608083BB
:104E9000E2ECF0E0808181608083EAE7F0E08081ED
:104EA0008460808380818260808380818160808350
:104EB00080818068808308950895991B79E004C0FB
:104EC000991F961708F0961B881F7A95C9F7809549
:104ED0000895AA1BBB1B51E107C0AA1FBB1FA61741
:104EE000B70710F0A61BB70B881F991F5A95A9F793
:104EF00080959095BC01CD01089597FB072E16F47F
:104F0000009407D077FD09D00E94692707FC05D0DF
:104F10003EF4909581959F4F0895709561957F4FD0
:104F20000895A1E21A2EAA1BBB1BFD010DC0AA1FEA
:104F3000BB1FEE1FFF1FA217B307E407F50720F002
:104F4000A21BB30BE40BF50B661F771F881F991F7D
:104F50001A9469F760957095809590959B01AC01C6
:104F6000BD01CF0108950E94C427A59F900DB49F55
:104F7000900DA49F800D911D11240895EE0FFF1F29
:104F80000590F491E02D0994A29FB001B39FC00158
:104F9000A39F700D811D1124911DB29F700D811D65
:104FA0001124911D0895FB01DC018D91059080195C
:104FB0000110D9F3990B0895FB01DC0141505040D9
:104FC00030F08D910590801919F40020B9F7881BF5
:104FD000990B0895FB01DC0104C08D9101908019AB
:104FE00021F441505040C8F7881B990B0895F99956
:104FF000FECF92BD81BDF89A992780B50895262FDE
:10500000F999FECF1FBA92BD81BD20BD0FB6F894AD
:0E501000FA9AF99A0FBE01960895F894FFCF10
:10501E00030105A208040032000140000101000155
:10502E00107F02FFFFFA00C409FFFA0001E803FF38
:10503E00FFFFFF00E100000000000000C1808100C2
:10504E0000008D013031323392936600000000ED86
:10505E0018A51836199E18000000006D1A251AB3EF
:10506E001A161A000000001D1EB11DFF1D9E18F716
:10507E001DF6FF0000FC1D000000006D1EB91E9401
:10508E001E991E9C1EAC1E831E0D0A006E616E00C4
:08509E00696E66006F76660082
:00000001FF
