:100000000C94A1030C94C9030C94C9030C94C90368
:100010000C94C9030C94C9030C94C9030C94C90330
:100020000C94C9030C94C9030C94A8340C943C336D
:100030000C94C9030C94C9030C94C9030C94C90310
:100040000C94C9030C94C9030C94C9030C94C90300
:100050000C94C9030C94C9030C94C9030C94633524
:100060000C94C9030C94C9030C94C9030C94C903E0
:100070000C94C9030C94C9030C94C9030C94C903D0
:100080000C94C9030C94C9030C94C9030C94C903C0
:100090000C94AA260C94C9030C94C9030C94C903AC
:1000A0000C94C9030C94C9030C94C9033318381871
:1000B00042184A1852185D186218671871182C18DF
:1000C0002E186C6F63616C6C79206275696C7400BA
:1000D0004B6579626F617264696F204D6F64656C06
:1000E000203031202D204B616C6569646F73636F24
:1000F0007065200008710400007F04CF037D04E1D7
:10010000037B04F3037904070460043704640422C6
:100110000416041204001E04372738000000FFFFF5
:100120001E001F002000210022000043E000E40028
:10013000016023002400250026002700014435002B
:1001400014001A000800150017002B002A002C00CC
:1001500028001C0018000C00120013002E004B0099
:1001600004001600070009000A002900E300E2006D
:10017000E6000B000D000E000F00330034004E00AF
:100180001D001B000600190005002C44E100E500DD
:100190002C44110010003600370038002D00FFFFFE
:1001A000FFFFFFFFFFFFFFFFFFFFFFFFFFFFFFFF5F
:1001B0000060FFFF2400250026005600FFFFFFFF20
:1001C000FFFFFFFFFFFFFFFFFFFFFFFFFFFFFFFF3F
:1001D000FFFFFFFF2100220023005700FFFFFFFF6A
:1001E000FFFFFFFFFFFFFFFFFFFFFFFFFFFFFFFF1F
:1001F000FFFFFFFF1E001F0020002E00FFFFFFFF7C
:10020000FFFFFFFFFFFFFFFFFFFFFFFFFFFFFFFFFE
:10021000FFFFFFFF27003700550054002800FFFFB5
:100220003A003B003C003D003E003900FFFFFFFF6D
:10023000B6583F00400041004200430044002B00FC
:10024000FFFF0150FFFF4250605029504C00280032
:10025000CD58B5582F0830082F00300045004A000F
:10026000045002500850415025502A50FFFFFFFF14
:1002700065005000510052004F00FFFFFFFF4D008E
:1002800046004900FFFF44502650FFFFFFFFFFFFDD
:10029000FFFFE24CEA5CE95CFFFF31003108030438
:1002A0000B0C13141A1B24252B2C33343B3C020556
:1002B0000A0D1215191C23262A2D32353A3D010646
:1002C000090E1116181D2227292E3136393E000736
:1002D000080F10171F1E2120282F3037383F636F5B
:1002E0006C6F726D61702E6D617000637573746FE9
:1002F0006D0064656661756C74006F6E6C79437532
:1003000073746F6D006B65796D61702E006B65792C
:100310006D61702E637573746F6D0A6B65796D61B5
:10032000702E64656661756C740A6B65796D6170B9
:100330002E6F6E6C79437573746F6D0065657072A6
:100340006F6D2E6672656500656570726F6D2E63E8
:100350006F6E74656E747300656570726F6D2E6379
:100360006F6E74656E74730A656570726F6D2E665C
:10037000726565002F006372630076657273696F42
:100380006E0076616C69643F0064656661756C74CB
:100390004C617965720073657474696E67732E00C1
:1003A00073657474696E67732E64656661756C74C9
:1003B0004C617965720A73657474696E67732E7621
:1003C000616C69643F0A73657474696E67732E7635
:1003D000657273696F6E0A73657474696E67732EE4
:1003E0006372630066616C736500747275650068A2
:1003F000656C700068656C70000D0A2E009F9FDFB1
:10040000FB1FF197793FF11F1717F9F9996FF68FD5
:100410006939D311F1FD9BB99D9FF99F1F9FFD9FE6
:10042000D73FFC6F6699F99969D9DF6996F966CF6C
:10043000F356F496B4CFF8F9881FFE16FF8F24D731
:10044000EB9F8F966970616C65747465001E08344B
:100450000820082108220824083400260827082537
:10046000082E0836002D00370038002700330833E7
:100470000036082E00370838081F082F00310030DA
:100480000023082D0835002F0831083008350800F2
:10049000000000000000000000000000000000005C
:1004A0000000000000000000000000010101010147
:1004B0000101010101010101020202020202020224
:1004C00003030303030303040404040405050505EF
:1004D00006060606070707070808080909090A0AA1
:1004E0000A0B0B0B0C0C0D0D0D0E0E0F0F10101137
:1004F00011121213131414151516161718181919AA
:100500001A1B1B1C1D1D1E1F2020212223232425F6
:1005100026272728292A2B2C2D2E2F303132323313
:1005200034363738393A3B3C3D3E3F404243444500
:100530004648494A4B4D4E4F515253555657595ABA
:100540005C5D5F606263656668696B6D6E70727337
:100550007577787A7C7E7F81838587898A8C8E9077
:10056000929496989A9C9EA0A2A4A7A9ABADAFB175
:10057000B4B6B8BABDBFC1C4C6C8CBCDD0D2D5D72A
:10058000DADCDFE1E4E7E9ECEFF1F4F7F9FCFF0591
:10059000010906A101050719E029E71500250175E4
:1005A0000195088102950175088101950575010580
:1005B00008190129059102950175039101950675A8
:1005C00008150025FF0507190029FF8100C0050C4B
:1005D0000901A1018504150026FF0319002AFF0364
:1005E000950475108100C005010906A10185080563
:1005F0000719E029E7150025017501950881020515
:1006000008190129089508750191020507750495D7
:10061000018101190429DD15002501750195D98194
:1006200002750395018101C005010902A10185013F
:100630000509190129081500250195087501810290
:1006400005010930093109381581257F75089503A1
:100650008106050C0A38021581257F7508950181F0
:1006600006C005010980A1018505150026FF0019B6
:100670000029FF950175088100C005010902A1014B
:100680000509190129081500250195087501810240
:1006900005010930093116000026FF7F751095020B
:1006A000810209381581257F750895018106C008EA
:1006B0000B00020202010009040000010202000016
:1006C000052400100105240101010424020605246B
:1006D0000600010705810310004009040100020A19
:1006E00000000007050202400000070583024000E9
:1006F0000012010002EF0201400912012300010172
:100700000203014B6579626F617264696F004D6F1E
:1007100064656C2030310004030904006208F90AA2
:100720009B0EE411BC14B715CA1508175D17D41732
:10073000371F2223C828972A962B722C2E2D3D2E48
:100740006C0811241FBECFEFDAE0DEBFCDBF12E090
:10075000A0E0B1E0EAE9FEE602C005900D92A83003
:10076000B107D9F726E0A8E0B2E001C01D92A33A94
:10077000B207E1F713E0C0EAD3E004C02197FE011D
:100780000E94BB36CE38D107C9F70E9450350C9471
:1007900040370C9400000895089508950895FC01D1
:1007A000892B69F086EA91E0918380837383628369
:1007B0001582148281E0868317828FEF8087CF01B4
:1007C0000895FC01892B69F082EB91E0918380838D
:1007D000738362831582148281E0868317828FEF90
:1007E0008087CF010895FC01892B79F08AE991E097
:1007F0009183808373836283148281E085838091F7
:1008000063029091640297838683CF0108950097D5
:1008100041F02EE831E0FC01318320837383628351
:1008200014820895009739F028E531E0FC01318306
:10083000208373836283FB014083089586E295E001
:100840000C942623FF920F931F93CF93DF93EC0119
:100850008B01F42E009711F00E948814F801F082A9
:10086000CE01DF91CF911F910F91FF900895FF92DC
:100870000F931F93CF93DF93EC018B01F42E00971E
:1008800011F00E949311F801F082CE01DF91CF9117
:100890001F910F91FF900895882319F0813091F0F6
:1008A0002FC061FF2DC060FD2BC060ED70E081E8BE
:1008B00094E00E94CD1862EC70E081E894E00E9420
:1008C000CD181EC090915A02911102C080935A0215
:1008D00061FF16C060FD0DC00E94AD3524E230E01E
:1008E00040E050E00E9499366C5F60930A0261E03C
:1008F00001C060E080910A0290910B020E94DE2309
:1009000080E090E00895009719F0029761F0089553
:1009100060E070E080E00E94C7140E944B1581E007
:1009200080936B04089510926B0460E070E080E0A7
:100930000E94C71480916E0490916F04DC01ED91C8
:10094000FC910280F381E02D09940C94830482E2EF
:1009500094E00E94A70C8BE194E00E944F0B83E788
:1009600094E00E94B6168AE694E00E9454158EED3B
:1009700094E00E94C42184EB94E00E94881C80EAE9
:1009800094E00E94091B80E090E0089582E294E0E8
:100990000E94700D8CE494E00E94270F80E090E0AC
:1009A00008958EE494E00E945A0F86E194E00E943C
:1009B000DB0A80E090E008958BE294E00E94D90E7B
:1009C0008AE694E00E9487158EE494E00E94C00FAE
:1009D00087EB94E00E94681D8EED94E00E948821D0
:1009E00081E894E00E94231980EA94E00E94071AAB
:1009F0008DE994E00E94561980E090E0089583E725
:100A000094E00E94BB1687EB94E00E94801D84EB6B
:100A100094E00E94161D81E894E00E941E1980EA6D
:100A200094E00E94FE1980E090E00895E4EFF0E089
:100A3000849108959B0144E0849FC0011124BC016E
:100A40006B507F4F44E050E0C9010C94FD3608958F
:100A5000CF9382E692E00E944D06C1E0C093B604B7
:100A600010920E0110920F018FEF8093100166E932
:100A70008FE794E00E94CE1766E98DE794E00E942C
:100A8000D11780910C02811106C088E092E00E948B
:100A9000B614C0930C0288E092E0909369048093AE
:100AA000680481E794E00E94DF1785E00E94670BED
:100AB00065E086E194E0CF910C94CB0A82E692E067
:100AC0000C947406AF92BF92CF92DF92EF92FF9296
:100AD0000F93CF93DF93EC017B016A015901F90178
:100AE0000081FA012081FB014081BC018AE694E08B
:100AF0000E946515019719F481E090E062C0F5014C
:100B00000081F6012081F7014081BE0187EB94E06E
:100B10000E94031E019781F3F5010081F6012081F7
:100B2000F7014081BE018EED94E00E940C210197F7
:100B300019F3F5010081F6012081F7014081BE0122
:100B40008AE195E00E941D220197B1F2F501008132
:100B5000F6012081F7014081BE0180E694E00E9409
:100B60009D11019749F2F5010081F6012081F701FD
:100B70004081BE0184E694E00E949814019709F434
:100B8000BBCFF5010081F6012081F7014081BE0154
:100B900081E894E00E94F918019709F4ADCFF501BE
:100BA0000081F6012081F7014081BE0180EA94E0D6
:100BB0000E94661A31E020E0019709F030E0832FAF
:100BC000922FDF91CF910F91FF90EF90DF90CF9018
:100BD000BF90AF900895CF93DF9300D01F92CDB711
:100BE000DEB769834A832B839E012D5F3F4FAE01A1
:100BF0004E5F5F4FBE016F5F7F4F0E9462050F9097
:100C00000F900F90DF91CF910895CF93DF93EC0178
:100C1000688179818BE194E00E94D90B019741F1C1
:100C2000688179818BE294E00E94B50E019701F111
:100C30006881798181E294E00E94790D0197C1F089
:100C40006881798180E294E00E94F20D019781F041
:100C50006881798186E194E00E94EA0A019741F077
:100C60006881798181E694E0DF91CF910C94B11293
:100C700081E090E0DF91CF910895CF93DF9300D092
:100C8000CDB7DEB79A838983CE0101960E9405060F
:100C90000F900F90DF91CF910895CF93DF9340E8AD
:100CA00055E260E070E083E396E00E94372E0E94F8
:100CB000A70487E692E00E9494060E94A1230E9466
:100CC000C1240E94CB240E949509C0E0D0E06D2F82
:100CD0008C2F0E943609DF5FD031C9F7CF5FC43057
:100CE000A9F7DF91CF9108950E94AD35609363021B
:100CF0007093640280936502909366020E94C6041A
:100D000087E692E00E94EC070E94DC040E948224A5
:100D10000E9420240C94FF043F9A479A08956E9AEB
:100D2000769824982C980895CF93DF93EC010FB612
:100D3000F894A8958091600088618093600010927B
:100D400060000FBE64E670E080E090E00E94DE3557
:100D5000CE010E948C06CE010E948F061882198255
:100D60001A821B821C821D821E821F828CE080934D
:100D7000B800DF91CF910895E42FF0E080E1689F03
:100D8000E00DF11D1124E256FD4F84910895613468
:100D900020F060E070E080E00895E62F062E000C61
:100DA000FF0B603244F4CF01880F991FE80FF91F41
:100DB000E851FD4F08C0B097CF01880F991FE80F89
:100DC000F91FE158FD4F60817181828108950F9371
:100DD0001F93CF93DF9367FD43C0D42F8901C62FA4
:100DE0006032E4F40E94C706D81307C081E01713ED
:100DF00005C0061303C080E001C081E090910101AD
:100E0000892B809301016C2FCC0F770BFB01EE0F28
:100E1000FF1FE60FF71FE851FD4F1FC0603404F5B8
:100E20000E94C706D81307C081E0171305C0061338
:100E300003C080E001C081E090910101892B809383
:100E400001016C2FCC0F770B60527109FB01EE0F83
:100E5000FF1FE60FF71FE158FD4F00831183D28378
:100E6000DF91CF911F910F9108950F931F93E42F5E
:100E7000F0E030E1639FE00DF11D1124E256FD4FDB
:100E80006491422F98011F910F910C94E706809175
:100E90000101882311F188EE92E00E94D6258FE7A8
:100EA00092E00E94D62588EE92E00E94D6258FE738
:100EB00092E00E94D62588EE92E00E94D6258FE728
:100EC00092E00E94D62588EE92E00E94D6258FE718
:100ED00092E00E94D625109201010895CF93DF93EE
:100EE000EC0188819981AA81BB8188879987AA872B
:100EF000BB878C819D81AE81BF818C879D87AE87AA
:100F0000BF8788EE92E00E945F25882341F088EE3B
:100F100092E00E949225688379838A839B838FE77E
:100F200092E00E945F25882341F08FE792E00E94C3
:100F300092256C837D838E839F83DF91CF9108956B
:100F4000DF92EF92FF920F931F93CF93DF93082FBF
:100F5000C62FD42FD22E641303C06623C9F0D62F18
:100F600010E0C0FBEE24E0F8F12CC701880F991FB8
:100F70002D2F2170282B39F04D2D411B602F80E043
:100F800090E00E947408C695D6951F5F183049F707
:100F9000DF91CF911F910F91FF90EF90DF90089517
:100FA0000F931F93CF938C01C0E0F8010F5F1F4F89
:100FB00027E0408560818C2F0E94A0072FE0F80178
:100FC000438563818C2F0E94A007CF5FC43069F7EF
:100FD000CF911F910F910895CF93DF93EC010E9461
:100FE0006E07CE01DF91CF910C94D0076430C0F42E
:100FF0004031B0F4E62FF0E0242F277043FF03C008
:10100000E958FD4F02C0E558FD4F80E890E002C06E
:10101000959587952A95E2F780959081892380831D
:1010200008956430D8F44031C8F4842F877070E09C
:1010300020E830E002C0359527958A95E2F7FB015C
:1010400043FF03C0E958FD4F02C0E558FD4F8081C2
:1010500090E02823392381E0232B09F480E00895D0
:1010600070E0E42FF0E0DC01A60FB71F483028F451
:101070008C9190E027E030E005C014968C9190E0D0
:101080002FE030E02E1B3F0B02C0959587952A95E7
:10109000E2F7817008956150462F4F7062956F702E
:1010A0000C943008FC0160817181828193810E94DF
:1010B000C136282F64817581868197810E94C1364F
:1010C000820F089560E088EE92E00E94472563E079
:1010D0008FE792E00C9447258FE792E00E94462527
:1010E00088EE92E00C944625EF92FF920F931F93A7
:1010F000CF93DF9300D0CDB7DEB79A838983062FD5
:10110000F42E122F643008F049C02FE0241708F4A1
:1011100045C0812F8270E82E11FF19C010FD17C045
:1011200089819A81009711F016FF05C06F2D802FDD
:101130000E9436090CC020E1629FF0011124E40FE7
:10114000F11DEE0FFF1FEF56FC4F918380834F2D53
:10115000602F87E692E00E941108882351F010FF6B
:1011600069C0E11067C04F2D602F87E692E00E94B2
:10117000F60729813A8180E090E02817390771F459
:1011800080E1089FF0011124EF0DF11DEE0FFF1F0C
:10119000EF56FC4F808191819A838983212F4F2DB7
:1011A000602FCE0101960E94EB05892B09F042C009
:1011B000212F4F2D602F89819A810E94A40A9A8342
:1011C000898320E030E082179307A1F1F9800A813A
:1011D00006FF1AC007FD2EC003FF07C011FF2AC07B
:1011E0008F2D902F0E94C52425C000FF23C011FD24
:1011F00021C010FF1FC08F2D902F0E94CF248F2D54
:10120000902F0E94D42416C0812F817011FF0AC034
:10121000811102C061E001C060E08F2D902F0E941B
:10122000DE2308C0882331F017FF04C08F2D902FD4
:101230000E9430240F900F90DF91CF911F910F915A
:10124000FF90EF90089550E090E1699F400D511D8F
:101250001124FA0190E4899FE00DF11D1124EE0F95
:10126000FF1FE25EFE4F859194910895CF93DF9327
:10127000462F262F30E090E1899FF0011124EF01E5
:10128000C20FD31FCC0FDD1FCF56DC4FEF5AFC4FE0
:10129000DF01A20FB31FE0910201F0910301682F5B
:1012A0008C91099599838883DF91CF9108950F934D
:1012B0001F938091000181504091120450911304BA
:1012C0006091140470911504882389F08A019B01B0
:1012D000082E04C036952795179507950A94D2F7DE
:1012E00000FF03C08093110404C08150EDCF109221
:1012F00011041F910F9108950F931F9340911204B1
:101300005091130460911404709115048A019B019B
:1013100004C036952795179507958A95D2F7D90178
:10132000C80181701F910F910895DF92EF92FF9293
:101330000F931F93CF93DF9380E4E1E5F3E0DF01A8
:101340001D928A95E9F77F01D0E000E010E0D02EF1
:10135000C09111041C16B4F48C2F0E947C098823C0
:1013600079F0E0910201F09103014D2D6D2F8C2F4A
:101370000995019629F0F701E00FF11FC08302C023
:10138000C150E8CF0F5F1F4F0031110501F7DF5F3C
:1013900020E1E20EF11CD430C1F6DF91CF911F9114
:1013A0000F91FF90EF90DF9008950F931F9300919E
:1013B0001204109113042091140430911504B90102
:1013C000A801082E04C076956795579547950A940D
:1013D000D2F740FF28C041E050E060E070E0082E06
:1013E00004C0440F551F661F771F0A94D2F740951B
:1013F0005095609570954023512362237323409349
:101400001204509313046093140470931504909184
:101410001104891302C00E9457090E9495091F9167
:101420000F910C94D1041F910F910895CF93909137
:101430000001891780F5C82F0E947C0981112BC0FB
:1014400081E090E0A0E0B0E00C2E04C0880F991F6E
:10145000AA1FBB1F0A94D2F74091120450911304A3
:101460006091140470911504842B952BA62BB72B37
:101470008093120490931304A0931404B093150462
:10148000809111048C1710F40E9457090E9495094D
:10149000CF910C94D104CF91089510921204109220
:1014A000130410921404109215040C94160A8091DF
:1014B00011048F5F0C94160A809111040C94D509C5
:1014C000CF93C82F862F8270CA3248F1CA52C132D8
:1014D00089F0C232C9F46170882329F0611103C018
:1014E000CF910C94570A662369F181112BC0CF91DB
:1014F0000C945C0A6170882311F06623C1F36623A3
:1015000009F181111FC0ECCF882331F08C2F0E948C
:101510007C09811117C012C060FD0CC013C0882364
:1015200089F060FD0FC08C2F0E947C09882331F068
:10153000CC2321F08C2FCF910C94D5098C2FCF91F7
:101540000C94160ACF910895943429F4622F0E94C6
:10155000600A80E090E008956091110460931704A0
:1015600080911804861730F08091190490911A0424
:101570000C9469120895242F8091170490911804F7
:10158000981740F0462F682F8091190490911A0403
:101590000C94871208958091190490911A04892B54
:1015A00049F4862F609318040E94081290931A043D
:1015B000809319040895FC0190818091160198137D
:1015C00006C080916E0490916F040E94AC0A80E086
:1015D00090E008950F932091190430911A0400911E
:1015E00018044EED52E081E694E00E944B130F91F7
:1015F00008958FEF8093160408950F931F93CF9350
:1016000090911D04891718F080E090E020C0282FE9
:10161000862F90E034E0239F800D911D112424E05B
:10162000880F991F2A95E1F7840F911D880F991F44
:1016300000911E0410911F04080F191FC8010E9479
:101640002A37C82FC80101960E942A379C2FCF91B4
:101650001F910F91089590911C04891718F40E940E
:1016600023090895891B0E94FD0A0895FF920F9394
:101670001F93CF93DF93EC01F62E08811981C801E7
:101680000E942A37F81621F06F2DC8010E943237C8
:10169000CE01DF91CF911F910F91FF90089582E2CB
:1016A00094E00E94A70C8091000180931C0480E0CC
:1016B00090E0089580931D0420E8829FC0011124CA
:1016C0000E94DE0C90931F0480931E040895809363
:1016D00000019091250497FF03C02DEF3AE007C069
:1016E00090911C04980F909300012BE23BE0309303
:1016F0000301209302010C945A0BFF920F931F9346
:10170000CF93DF9300D0CDB7DEB7F62E672F8C01D5
:10171000000F111F80911E0490911F04800F911FD4
:101720009A838983CE0101960E94360B80911E0414
:1017300090911F040196080F191F1A8309836F2DBA
:10174000CE0101960E94360B0F900F90DF91CF9142
:101750001F910F91FF900895EF92FF920F931F93A7
:10176000CF93DF93082F7B01C0E0C017D9F0D0E002
:1017700010E0412F6D2F8C2FF70109954AE050E0C2
:10178000BC0183E396E00E94E52F60E283E396E0EC
:101790000E946B2F1F5F103161F7DF5FD43041F77C
:1017A000CF5FE3CFDF91CF911F910F91FF90EF902B
:1017B0000895CF93DF93EB014DE053E08BE294E08B
:1017C0000E94A00E811187C047E050E065E073E001
:1017D000CE010E940F37892B09F07DC027966AEF52
:1017E00072E0CE010E940637892BB9F583E396E0BB
:1017F0000E94482D0A9789F46091250467FB6627AB
:1018000060F94AE050E083E396E00E94DE2F60E258
:1018100083E396E00E946B2F61C041E060E070E0DE
:1018200083E396E00E94AA30C62F862F0E94300DD7
:1018300080911D0480930001CC2319F08DEF9AE074
:1018400007C090911C04890F809300018BE29BE0FC
:10185000909303018093020141C062EF72E0CE01D8
:101860000E940637892B29F463E279E080911C04F9
:1018700014C06BEE72E0CE010E940637892B59F539
:1018800083E396E00E94482D0A9719F0C0E0D0E06B
:101890001BC06DEF7AE080911D040E94AC0B1EC04E
:1018A00080911D0420E4829FC0011124C817D9072C
:1018B000A8F441E060E070E083E396E00E94AA3083
:1018C000CE010E947D0B219683E396E00E94482D75
:1018D0000A9721F0E5CF80E090E002C081E090E03F
:1018E000DF91CF9108954AE050E0682F83E396E0BE
:1018F0000E94DE2F60E283E396E00C946B2FEF9260
:10190000FF920F931F93CF93DF9300D0CDB7DEB735
:1019100085E2E82E84E0F82E00E010E0F701619106
:101920007F011A830983CE0101960E94360B0F5F57
:101930001F4F0430110591F785E294E00F900F904E
:10194000DF91CF911F910F91FF90EF9008950F932A
:101950001F93CF93DF9305E214E0C0E0D0E0CE0107
:101960000E942A37F80181938F012196C430D10556
:10197000B1F7809126048F3F71F480912504982F50
:101980009F779F3719F487FD1092250481E080939B
:1019900026040E947F0C80E090E0DF91CF911F91A0
:1019A0000F91089580912304882329F080912704C2
:1019B00090912804089580E090E008950F931F937C
:1019C000CF93DF9300D0CDB7DEB79A838983809120
:1019D0002304811116C00091040110910501898131
:1019E0009A81800F911F909305018093040142E03A
:1019F000BE016F5F7F4F89E294E00E94760EC801BE
:101A000002C080E090E00F900F90DF91CF911F9186
:101A10000F9108950E947F0C81E080932404089523
:101A2000CF93C82F80910001C81758F48C2F0E94C3
:101A30004D0A8091250480789C2F9F77892B809375
:101A40002504CE3730F08091250480788E6780930E
:101A500025040E940A0D809125048F77CF91089567
:101A60009091250480FB97F990932504892F8F7717
:101A70008F3721F490789E67909325040C940A0D7B
:101A800081E08093230460E189E294E00E945D0E8E
:101A900080912604813019F0109224040895209139
:101AA0002704309128048091290490912A042F3F23
:101AB0004FEF340739F490932804809327040E9451
:101AC0000A0D03C02817390751F4809125048F7738
:101AD000282F30E02E37310514F40C944D0A089568
:101AE00080912304811102C00E94400D80E090E0AB
:101AF0000895CF93DF93EB0140EA53E08BE294E04B
:101B00000E94A00E811128C049E050E066E973E010
:101B1000CE010E940F37892BF9F4299669E873E00A
:101B2000CE010E940637892BA9F162E873E0CE014D
:101B30000E940637892B09F442C06AE773E0CE01A0
:101B40000E940637892B09F444C066E773E0CE0192
:101B50000E940637892B19F080E090E040C00E9477
:101B6000D20CEC016091290470912A044AE050E003
:101B700083E396E00E94E52F64E773E083E396E059
:101B80000E94472F4AE050E0BE0183E396E00E94A6
:101B9000E52F23C083E396E00E94482D0A9721F4A5
:101BA000809125048F7717C041E060E070E083E307
:101BB00096E00E94AA30862F0E94100D0EC08091E0
:101BC00024040E94BC0E60E283E396E00E946B2F27
:101BD00004C0809126040E94730C81E090E0DF91A4
:101BE000CF9108950F931F93CF93DF9300D0CDB77C
:101BF000DEB78B0148E553E08BE294E00E94A00E33
:101C000081110EC068E473E0C8010E940637892B79
:101C1000F1F06CE373E0C8010E940637892B19F0DC
:101C200080E090E043C0809104019091050160E064
:101C300074E0681B790B4AE050E083E396E00E9471
:101C4000E52F60E283E396E00E946B2F2DC083E3D3
:101C500096E00E94482D00E010E00A97F9F4C801D0
:101C60000E942A370E94730C0F5F1F4F011584E0FA
:101C70001807A9F719C041E060E070E083E396E03F
:101C80000E94AA301A830983CE0101960E94360B66
:101C90000F5F1F4F011584E0180731F083E396E0D2
:101CA0000E94482D0A9739F781E090E00F900F903D
:101CB000DF91CF911F910F910895FC012081318117
:101CC0002170332781E0861770F440815181569549
:101CD000479551834083220F331F41705527242B92
:101CE000352B8F5FF0CF318320830895DC01FB011A
:101CF000415000F1519168E070E081E02D913C91FC
:101D00001197952F982311F4932F02C0932F90953C
:101D1000991F9927991F220F331F992319F095E0D6
:101D20002927305811963C932E93880F61507109E2
:101D300029F7DECF089510922A04109229040895FD
:101D4000CF93DF93CB01EA0164EF73E00E94063783
:101D5000892B39F4BE0183E396E00E94762F81E05F
:101D600001C080E0DF91CF9108954FEE53E00E94D3
:101D7000A00E80E090E00895811103C064EE73E04E
:101D800002C06AEE73E083E396E00C94472F83E38E
:101D900096E00E94612D892B59F083E396E00E9422
:101DA000482D0A9729F083E396E00E94712DF5CF24
:101DB0000895EF92FF920F931F93CF9383E396E0E2
:101DC0000E94612D892BD9F10CE214E0C0E0CF5FB5
:101DD00083E396E00E94712D7801F801808383E30C
:101DE00096E00E94482D0A9741F00F5F1F4FF701C0
:101DF0008081803211F0C03251F78C2F90E0FC01CD
:101E0000E55DFB4F2081203219F0FC01E45DFB4FC2
:101E100010828CE294E00E943D0669EF73E083E358
:101E200096E00E94762F0E94C70E83E396E00E9400
:101E3000482D0A9721F483E396E00E94712D80E0FB
:101E400090E0CF911F910F91FF90EF9008959091A6
:101E500095068091060190FF0FC081111AC08091F4
:101E60004D04811106C081E080934D0480E090E034
:101E70000EC081E090E00BC08111109206018091AC
:101E80004D04882331F010924D0482E090E00E94CE
:101E9000A50480E090E00895462FA0916E04B091D3
:101EA0006F04ED91FC9111970680F781E02D682F6A
:101EB000CD0109949F92AF92BF92CF92DF92EF92A1
:101EC000FF920F931F93CF93DF9310924F0401E57E
:101ED00013E0A12CB12CC0E0D0E09C2EE0910201D7
:101EE000F09103014C2F6B2DD801AC0FBD1F8C91CD
:101EF0000995492F9C018150904C4097E0F08091CA
:101F00000D01882319F150EEC52ED12C2C153D055D
:101F100038F097EEE92EF12CE216F30648F401C0F2
:101F200080E091E0443409F090E0882311F0892F9B
:101F3000982F992359F0E0914F0481E08E0F809300
:101F40004F04F0E0E05BFB4F9A0C90822196C03189
:101F5000D10519F6B39480E1A80E005F1F4F84E00D
:101F6000B812B9CF80E090E0DF91CF911F910F912F
:101F7000FF90EF90DF90CF90BF90AF909F9008952B
:101F8000AF92BF92CF92DF92EF92FF920F931F9387
:101F9000CF93DF9320914F04211102C00E945A0F6A
:101FA000A12C80914F04A81608F06AC0EA2DF0E039
:101FB000E05BFB4FC0811C2F1F70812F90E0D0E0B1
:101FC000C81BD90BD7FD2F9654E0D595C7955A95C8
:101FD000E1F79E0164E0220F331F6A95E1F72F5A63
:101FE0003C4FD901A80FB91FE0910201F091030104
:101FF000412F6C2F8C910995082FB92E292FAC01F8
:102000004150504C4031510580F40E942B1F8823D1
:1020100039F02091070130910801409109011BC05E
:10202000802F9B2D0E94071F0EC040EEC42ED12C86
:102030008C159D05A8F037EEE32EF12CE816F90675
:1020400078F00E946F248823A9F020910A01309132
:102050000B0140910C01612F8C2F0E943E150EC088
:10206000243461F4802F0A3210F086ED800F0E9434
:102070007C09E9CF612F8C2F0E944C0FA39491CF44
:1020800080E090E0DF91CF911F910F91FF90EF9052
:10209000DF90CF90BF90AF9008956F927F928F9214
:1020A000BF92CF92DF92EF92FF920F931F93CF9345
:1020B000DF936C01B42E3801822EC62F00E010E0B1
:1020C0007801D0E0C6010E2C02C0969587950A943F
:1020D000E2F780FF07C0482D93016B2D6D0F8C2F09
:1020E0000E943E15DF5F8FEFE81AF80AD43051F7EF
:1020F0000C5F1F4FCF5F0031110511F7DF91CF91BA
:102100001F910F91FF90EF90DF90CF90BF908F9035
:102110007F906F900C944B15CF92DF92EF920F93BC
:102120001F936801E22E8430910580F0883291057A
:1021300068F42E2D8601E82FE450F0E0EE0FFF1F2B
:10214000E350FC4F859194910E944D101F910F9187
:10215000EF90DF90CF9008950F931F9300910E01A1
:1021600010910F01209110010E948C101F910F916E
:102170000895AF92BF92CF92DF92EF92FF920F93AA
:102180001F93CF93DF93E12CF12CC0E0D0E030E03F
:1021900070E010E050E0A0E0B0E06B01CC0EDD1E7E
:1021A000F701EA0FFB1F5C0102C0B694A794EA9501
:1021B000E2F7F5012C153D0549F45A01AA0EBB1EA4
:1021C0000A151B0519F48E2F81700CC01196A430CE
:1021D000B10531F72196E4E0EE0EF11CC430D105D3
:1021E000D1F680E0DF91CF911F910F91FF90EF909A
:1021F000DF90CF90BF90AF9008950F93FC01843093
:10220000910568F0889758F4E450F0E0EE0FFF1F56
:10221000E350FC4F859194910E94B91001C080E079
:102220000F9108950F931F93CF93DF93FC01162F07
:10223000D42F86819781209163023091640240916E
:10224000110150911201D83058F462817381261B1C
:10225000370BC1E04217530708F0C0E042E00CC062
:102260008085918564817581261B370BC1E04217FB
:10227000530708F0C0E04AE00D2F212F60E00E94D4
:10228000FD10882311F0CC2339F020E030E040E04D
:102290006D2F812F0E943E15DF91CF911F910F91DD
:1022A00008950F931F9300E010E020E00E948C102F
:1022B0001F910F910895CF93DF93EC018E819F8141
:1022C0000097A9F020916302309164024A815B81FA
:1022D000241B350B409111015091120142175307F5
:1022E00030F442E060E00E9451111E821F82888516
:1022F00099850097A9F020916302309164024C8186
:102300005D81241B350B4091110150911201421740
:10231000530730F44AE060E00E9451111886198694
:10232000DF91CF910895FC0184E691E09183808351
:10233000168217821086118608950F931F93CF93EC
:10234000DF93FC01908180911601981336C007FD40
:1023500034C0FB01408151814430510570F1483255
:10236000510558F501FF29C0E0916E04F0916F040A
:10237000A0916302B0916402283040F48681978175
:1023800057834683B383A28312E007C0808591857B
:1023900051874087B583A4831AE0EB0128813981F6
:1023A0008217930721F0412F60E00E945111412FC5
:1023B00060E0888199810E94AC1080E090E0DF911C
:1023C000CF911F910F9108958FEF8093600408952E
:1023D0004AE050E0682F83E396E00E94DE2F60E23F
:1023E00083E396E00C946B2F80916B0481110FC0F6
:1023F00060E070E00E94C71480916E0490916F04B9
:10240000DC01ED91FC910280F381E02D09940895A7
:10241000CF93C82F8091620490916304892B41F47B
:1024200080E390E00E94DE0C90936304809362044A
:1024300020E2C29FC0011124CF910C94DE0CCF93F7
:10244000DF93EB019B0136952795820F931F0E9426
:102450002A37C0FF82958F70DF91CF910895EF9258
:10246000FF920F931F93CF93DF9300D01F92CDB7AE
:10247000DEB7009162041091630493E0899F000D20
:10248000111D1124C8010E942A37F82E8983C80122
:1024900001960E942A37E82E8A83C80102960E947C
:1024A0002A3780958B83E094EA82F094F9826981DF
:1024B0007A818B810F900F900F90DF91CF911F91B8
:1024C0000F91FF90EF9008950E941F120E942F120B
:1024D00008950F931F93CF93DF938C0120E2629FA7
:1024E000000D111D1124C0E0D0E0BE01C8010E9402
:1024F0006412AB01682F8C2F0E94C0142196C03447
:10250000D10599F7DF91CF911F910F9108950F9306
:102510001F93CF93342F8C0140E2649F000D111D57
:102520001124422F632F87E692E00E94BC06C82F39
:10253000682F880F770BC8010E946412AB01682FC7
:102540008C2F0E94C014CF911F910F91089583E3A7
:1025500096E00E94482D21E00A9709F020E0822FA2
:1025600008958F929F92AF92BF92CF92DF92EF9297
:10257000FF920F931F93CF93DF9300D000D01F9251
:10258000CDB7DEB78B0145E454E08BE294E00E94C6
:10259000A00E81112BC065E474E0C8010E940637CB
:1025A000892B21F50E94A712882391F010E0812F3A
:1025B0000E942F12062FF72E0E94E8118F2D0E94E5
:1025C000E811802F0E94E8111F5F103181F74FC082
:1025D000C12CD12CCE0101965C014E0194E0890EF4
:1025E000911C0E94A712811140C003C080E090E0BE
:1025F00040C041E060E070E083E396E00E94AA30D2
:10260000062F41E060E070E083E396E00E94AA308C
:10261000162F41E060E070E083E396E00E94AA306C
:1026200000950B8310951A8360956983009162046D
:10263000109163040C0D1D1D75010A191B09C801B9
:102640008E0D9F1DF70161917F019D838C83C401D5
:102650000E94360BE814F90491F7F3E0CF0ED11C79
:1026600080E3C816D10409F0BCCF0E94F41181E0C8
:1026700090E00F900F900F900F900F90DF91CF91FF
:102680001F910F91FF90EF90DF90CF90BF90AF9090
:102690009F908F900895AF92BF92CF92DF92EF926A
:1026A000FF920F931F93CF93DF9300D0CDB7DEB788
:1026B0007B015A0169018BE294E00E94A00E811116
:1026C00059C0B501C7010E940637892B09F052C0D5
:1026D00080E2089F800111240E94A712E12CF12CB6
:1026E000882309F442C0E016F10609F448C0C70186
:1026F0008C0D9D1D0E942A37A82EB12C82958F70BB
:102700000E94E811B5016F704AE050E083E396E063
:102710000E94333060E283E396E00E946B2F8FEFDC
:10272000E81AF80AE0CFE016F10639F141E060E07E
:1027300070E083E396E00E94AA30B62E41E060E0AC
:1027400070E083E396E00E94AA30C7018C0D9D1DC6
:102750009A83898380E1B89E600D1124CE01019691
:102760000E94360B8FEFE81AF80A0E94A712811117
:1027700004C0D9CF80E090E004C00E94F41181E051
:1027800090E00F900F90DF91CF911F910F91FF90EC
:10279000EF90DF90CF90BF90AF9008950F931F936D
:1027A000CF93DF93EB0198814FEF50E06FEF70E034
:1027B000913E58F02FEF30E0F901E91BF109CF010C
:1027C0000E94D115E62F382F17C08EE190E00E94AD
:1027D000D115E62F272F4881489FC00111240FEF04
:1027E00010E0B8010E948536362F429FC0011124A7
:1027F000B8010E948536762F9881913E10F0915055
:1028000003C0903418F09051988305C0903210F0B6
:102810009052FACF18826E2F832FDF91CF911F91A4
:102820000F910895AF92BF92CF92DF92EF92FF92F5
:102830000F931F93CF93DF931F92CDB7DEB72091F5
:10284000680430916904232B09F456C02091630277
:1028500030916402DC0114964D915C911597241B14
:10286000350B40911301509114014217530708F0A2
:1028700043C08C016C01B6E0CB0ED11CF12C56018B
:10288000E12CF501808189838823A1F0809168047F
:1028900090916904DC01ED91FC910190F081E02DB3
:1028A000BE016F5F7F4F09959B01482F6E2D8F2DC5
:1028B0000E943E158981F50181935F0181110AC053
:1028C0002091650430916604409167046E2D8F2D30
:1028D0000E943E15E394F0E1EF12D3CFF39480E130
:1028E000C80ED11CA4E0FA12CACF80916302909165
:1028F0006402F801958384830F90DF91CF911F913B
:102900000F91FF90EF90DF90CF90BF90AF90089520
:10291000FC0180E791E09183808373836283158259
:102920001482369680E4DF011D928A95E9F70895B6
:102930000F934430B8F42031A8F4FC0190818091C9
:10294000160198130FC001FF0DC0E0916E04F091C5
:102950006F0480E1489FE00DF11D1124E20FF11D8D
:102960008FEF868380E090E00F9108952CE731E0AF
:10297000FC013183208308958FEF809364040895D0
:102980009A01462F682F87E692E00C94E706CF92D3
:10299000DF92EF92CF936B01E82EC0E06E2DA6017F
:1029A0008C2F0E94C014CF5FC034C1F7CF91EF903D
:1029B000DF90CF900895909170048917D8F4809398
:1029C00016010E94442390936F0480936E048091BB
:1029D0006B0481110FC060E070E00E94C714809109
:1029E0006E0490916F04DC01ED91FC910280F38103
:1029F000E02D09940895809116018F5F8093160150
:102A000090917004891708F080E00C94DB14809199
:102A10001601811102C080917004815080931601CB
:102A2000809116010C94DB14EF92FF921F93CF93C9
:102A3000DF9300D000D0CDB7DEB77C0110E08091ED
:102A40007004181788F4BE016F5F7F4F812F0E94BA
:102A50001A0589819A81E816F90621F4812F0E94CE
:102A6000DB1402C01F5FEBCF0F900F900F900F9001
:102A7000DF91CF911F91FF90EF9008950F931F93D7
:102A80008901242F462F682F87E692E00E943507A0
:102A90001F910F91089580916B04811104C087E606
:102AA00092E00C944707089560E070E080E00E9497
:102AB000C7140E942705809116018F3F19F480E00A
:102AC0000E94DB1480E090E008950F93FB01818168
:102AD0008334C9F401FF0CC000FD0AC0FB01208152
:102AE000318180E093E48217930729F40E94FB145C
:102AF00081E090E00AC081E093E428173907C1F72C
:102B00000E940715F5CF80E090E00F910895809125
:102B10006B04811129C0209163023091640280917D
:102B20006C0490916D04281B390B8091150190E085
:102B300082179307C8F40E944B15209115018091CC
:102B40006C0490916D04820F911D90936D0480939D
:102B50006C0480916E0490916F04DC01ED91FC9106
:102B60000480F581E02D099580E090E008950E94B1
:102B7000160580937004089560E070E080E00E9484
:102B8000C7140895862F642F20E030E040E00E94B3
:102B90003E15089582E891E0909372048093710449
:102BA00008950F931F93CF93DF936115710521F45F
:102BB000642F742F842F61C026E0289FD001299FA5
:102BC000B00D11248B2F9927AE7FBB27EFEFF0E0DC
:102BD000EF01C61BD70BC49F9001C59F300DD49F3A
:102BE000300D11246A9FE0016B9FD00D7A9FD00DAC
:102BF0001124CD2FDD278F010C1B1D0B049FE0013D
:102C0000059FD00D149FD00D11248F010A1B1B0BA3
:102C1000069FD001079FB00D169FB00D11246B2F9A
:102C20007727E61BF70BE49FD001E59FB00DF49FDB
:102C3000B00D112482309105A1F038F4009769F0AD
:102C40000197B1F49D2F742F0AC08330910569F06C
:102C5000049771F49B2F732F0EC0942F7B2F432F5B
:102C60000AC0932F742F4B2F06C0932F7D2F03C0C4
:102C7000942F732F4D2F642F892FDF91CF911F91A8
:102C80000F910895209163023091640290E1499F71
:102C9000200D311D1124A4E036952795AA95E1F762
:102CA000922F27FD9095990F999FF0011124EF2FF6
:102CB000FF27AF01440F551F4E0F5F1F9E9F9001CE
:102CC0009F9F300D1124232F3327220F331F421BC8
:102CD000530B56954795405B50E070E090E00E94A2
:102CE000D1150895EF92FF921F93CF93DF938091B8
:102CF0001C018F3F31F481E5E82E83E0F82E10E0CF
:102D000013C090911D019F3FB1F39093770480937E
:102D1000760423C02196C031D10541F41F5F80E1C4
:102D2000E80EF11C1430C9F0C0E0D0E0E0910201DF
:102D3000F09103014C2F612FD701AC0FBD1F8C9177
:102D4000099520911A0130911B012817390711F7B5
:102D500010937704C093760403C081E080937804D5
:102D6000DF91CF911F91FF90EF9008950E9472160E
:102D700080E090E0089580917804811132C08091C4
:102D80006302909164022091740430917504821B57
:102D9000930B20911701309118012817390798F4E7
:102DA00081E08093780480916E0490916F04DC013F
:102DB000ED91FC910680F781E02D409176046091C1
:102DC000770409950EC040E06FEF809119010E94D1
:102DD00042169B01482F60917604809177040E94EF
:102DE0003E1580E090E00895FC012481309163025B
:102DF000321B333360F02E5C24830280F381E02D9C
:102E000040E0618180810E9442160E94C7140895AB
:102E1000E9E7F4E08AEA80838FEF818308950F93D6
:102E20001F93CF93DF93EC01EA81FB814E815F8199
:102E30009181292F30E08091630290916402841B7C
:102E4000950B28173907A0F5240F351F3F832E83D4
:102E50008C812D819081082F299F0019112440E039
:102E600050E060E00E94C014003434F440E050E0D0
:102E700060E0802F0E94C0149C811D81892F810FEA
:102E80008C8381508F3310F4100F04C011951D8373
:102E90009C8310E440E050E06FEF8C810E94C014EE
:102EA000103434F44FEF50E060E0812F0E94C014E2
:102EB000DF91CF911F910F910895EBE7F4E085E04A
:102EC000808386E981830895CF93DF93EC01EA81C3
:102ED000FB8120819F8180916302891B2817E0F488
:102EE000920F9F83418150E0688570E08C819D81C5
:102EF0000E94D1159B01482F5E818C819D81850F99
:102F0000911D8F3F910510F08F5F91099D838C83F8
:102F1000842FB9010E94C714DF91CF9108951F93A8
:102F2000CF93DF93EC01EA81FB8120819F81809127
:102F30006302891B281770F5920F9F8310E08C8124
:102F40009D81212F2595259530E12302800D911D2E
:102F500011248F3F910510F08F5F9109EA81FB8169
:102F6000418150E0688570E00E94D115AB01682F67
:102F7000812F0E94C0141F5F103409F72E818C81AD
:102F80009D81820F911D8F3F910510F08F5F9109F8
:102F90009D838C83DF91CF911F910895FC01618304
:102FA0000895FC0161830895EFE7F4E098E29083CF
:102FB00082E38183EDE7F4E09083818308950C94AC
:102FC0001415CF93C42F262F20684FEF6FEF0E9468
:102FD0007408C11105C00E948224CF910C942F2542
:102FE000CF9108950F931F93CF93DF93C62F042F94
:102FF000122FFC01D49141FF06C0422F62E08D2FB9
:103000009C2F0E94E11700FF06C0412F61E08D2F29
:103010009C2F0E94E117DF91CF911F910F9108958E
:10302000EF92FF920F931F93CF93DF93CB01009703
:1030300009F461C0F12CE12C8C010F5F1F4FFC01E2
:10304000449150E0FA013197EB30F10508F053C09C
:10305000EA5AFF4F0C94BB36F12C45C00E948224E3
:103060000E942F2540C00296F801E4908C013BC0DD
:10307000EC012296F801649170E080E090E00E94FB
:10308000DE352DC0F80164918C010D5F1F4F2F2D8F
:1030900042E00FC0F80164918C010D5F1F4F2F2D8E
:1030A00041E007C0F80164918C010D5F1F4F20E0E3
:1030B00043E002960E94F21716C0EC0122962F2DD3
:1030C00042E009C0EC0122962F2D41E004C0EC0142
:1030D000229620E043E060E0C8010E94F2178E01D2
:1030E00002C0FF24F3946E2D70E080E090E00E9417
:1030F000DE35C801A1CFDF91CF911F910F91FF90D5
:10310000EF90089580E090E06134B8F46A3360F5A0
:10311000603229F148F46A30F1F018F46830C8F4EC
:1031200008956B31D1F008956133D8F4E62FF0E0C3
:10313000EE0FFF1FE55FFB4F2DC0613628F46B35A6
:10314000D0F498E083EC0EC06B37E0F06F37E0F01E
:10315000089582E207C088E2089589E208958CE22A
:1031600008958DEE860F0895E62FF0E0EE0FFF1F15
:10317000E750FC4F0FC0E62FF0E0EE0FFF1FEB53C0
:10318000FC4F08C083EAEECFE62FF0E0EE0FFF1F02
:10319000EF56FC4F859194910895EF92FF920F9313
:1031A0001F93CF93DF937C018B01F8016491662319
:1031B000B9F0C7010E948218EC0180E090E0C817C6
:1031C000D90719F40F5F1F4FF0CF40E062E0CE0146
:1031D0000E94E11740E061E0CE010E94E117F2CFCA
:1031E00080E090E0DF91CF911F910F91FF90EF90E1
:1031F00008950F93FB0181818036C9F48091840486
:103200008830C0F49081E82FF0E0BF01660F771F8F
:10321000E60FF71FEB57FB4F908390E1499F200D7E
:103220001124218302838F5F8093840403C080E094
:1032300090E002C081E090E00F9108951092840424
:1032400080E090E00895CF93C0E080918404C81797
:1032500048F58C2F90E0FC01EE0FFF1FDF01A80F57
:10326000B91FAB57BB4F11962C912F3F19F42093E8
:10327000830406C0322F32953F70309383042F7041
:10328000209382048E0F9F1FFC01EB57FB4F62813E
:1032900080810E944C04BC0181E894E00E941018D7
:1032A000CF5FD3CF80E090E0CF910895BF92CF92CF
:1032B000DF92EF92FF920F931F93CF93DF9310E073
:1032C00000915301101708F059C0C12FD0E06E01D2
:1032D00023E0CC0CDD1C2A95E1F7E12CF12C82E0F7
:1032E000C80ED11CBE2CF601EE0DFF1DEA5EFE4F8E
:1032F0006491662379F087E692E00E944B08882368
:1033000061F0EFEFEE1AFE0AF5E0EF16F10451F767
:1033100095E0B92EFF24F39401C0F12C87E692E0EA
:103320000E945208B81228C0FF2031F18091630238
:103330009091640220919E0430919F04821B930B14
:1033400020911E0130911F0128173907A8F4FE01B2
:1033500083E0EE0FFF1F8A95E1F7EA5EFE4F2591AD
:103360003491812FF9010995809163029091640253
:1033700090939F0480939E041F5FA4CF80E090E011
:10338000DF91CF911F910F91FF90EF90DF90CF9041
:10339000BF90089520916302309164024091A1048E
:1033A0005091A204B901641B750BAB01609120011F
:1033B000709121016417750700F53093A2042093E2
:1033C000A10480FF04C020E04091220112C081FFCF
:1033D00005C040912201419520E00BC082FF04C04E
:1033E00020912201219504C083FF07C02091220172
:1033F00040E060E080E00C94DC2408950E942F25DA
:103400000E942B251092A70480E090E008958091FF
:10341000A704811103C01092AA0455C02091630231
:10342000309164024091A5045091A604B901641B37
:10343000750BAB0160912601709127016417750728
:1034400008F041C03093A6042093A5044091A30442
:103450005091A404B901641B750BAB016091230169
:103460007091240164177507A0F46091AA049091EB
:103470002501E62FF0E04FEF50E0491B5109E4171A
:10348000F5071CF4960F9093AA043093A40420939C
:10349000A30480FF04C060912801619506C081FFEC
:1034A00003C06091280101C060E082FF04C08091E8
:1034B0002801819506C083FF03C08091280101C0C7
:1034C00080E00E94E01B80E090E008950F93CF938E
:1034D000FB018181803509F062C08081282F207234
:1034E000902F9270382F307486FF16C0211114C0AF
:1034F000C82FCF7B0170992341F0011102C00E94B7
:103500003A1B8C2F0E94121B78C0002309F475C04F
:103510008C2F0E94141B71C021111DC001709923B2
:1035200009F440C0011165C020916302309164022A
:103530003093A6042093A5043093A4042093A304FD
:103540004091200150912101241B350B3093A2049E
:103550002093A1044EC0992309F44FC000FD4DC033
:1035600080FD02C090E001C092E021E0311101C075
:1035700020E0922B81FD02C020E001C024E0922BCC
:1035800082FD02C020E001C028E0922B83FD02C032
:1035900080E001C080E1892B0E94401B2EC080E0AA
:1035A00090E034C0002349F180959091A7048923CD
:1035B0008093A7048081982F937031F020E084FDE0
:1035C0000DC040E061E011C0982F9C7049F084FD6F
:1035D00009C020E040E060E081E008C041E004C0B4
:1035E00020E001C021E040E060E080E00E94E724AC
:1035F00004C084FF05C00E94CA1981E090E006C0A3
:103600009091A704892B8093A704F7CFCF910F91B6
:1036100008950E940E1B80E090E008950E94D82437
:103620000C9433250C9421250E9426251092AB047E
:10363000089556954795640F751F3695279540E078
:10364000820F931F0C943F251092AD041092AC048E
:103650001092AF041092AE048FEF9FE79093B304E3
:103660008093B2049093B1048093B00481E080937E
:10367000AB0408958091AB0481110C94241B089530
:103680000F931F93CF93C82F8091AB04811102C079
:103690000E94241BC0FF06C01092AB04CF911F9163
:1036A0000F910895E0912B010E2F10E08091B2044C
:1036B0009091B304B8010E9471369B017093B304DA
:1036C0006093B2048091B0049091B104B8010E945B
:1036D0007136AB017093B1046093B0047C2F7470A9
:1036E0008091AC049091AD04E091AE04F091AF04F0
:1036F0006C2F6670663071F4820F931F9093AD0447
:103700008093AC04BA016E0F7F1F7093AF04609377
:10371000AE0434C0772361F0D8011197A49FB001A3
:10372000A59F700DB49F700D1124E60FF71F04C004
:10373000C1FD06C0E40FF51FF093AF04E093AE04A3
:10374000C4FF0CC0F8013197E29FB001E39F700DF8
:10375000F29F700D1124860F971F04C0C3FD06C091
:10376000820F931F9093AD048093AC046091AE04DC
:103770007091AF048091AC049091AD04CF911F91F2
:103780000F910C94191B87FD0AC0889FC00111245A
:10379000880F892F881F990B91958F5F089520E0DE
:1037A00031E0281B3109229FC001239F900D900D0D
:1037B0001124880F892F881F990B91958095089562
:1037C000EF92FF920F931F93CF93DF93182F062F43
:1037D00080912A01E82EF12C112309F44CC06623B4
:1037E00081F123E6829FC00111246CE870E00E9401
:1037F00085366115710509F07B01212F012E000C22
:10380000330B43E61402C00111246CE870E00E94FF
:1038100085366115710509F09B01122F202F002EAE
:10382000000C330B43E60402C00111246CE870E085
:103830000E9485366115710509F09B01022F112345
:10384000D1F08091AA040E94C31B9091A904282F53
:103850001203E0011124C90FD11D97FDDA95EC1672
:10386000FD0664F0882799278E199F09C817D90784
:1038700034F4EC0104C0C0E0D0E001C0E701002353
:10388000D9F08091AA040E94C31B2091A804382F6C
:103890000303C0011124820F911D27FD9A95E8169C
:1038A000F90664F0222733272E193F097C0182177D
:1038B000930724F4790102C0E12CF12C1092AB049F
:1038C0002091290130E0C701B9010E948536E62F19
:1038D000CE01B9010E948536862F20E040E06E2F90
:1038E0000E94DC242091290130E0CE01B9010E9420
:1038F00085368093A904C701B9010E94853680935B
:10390000A804DF91CF911F910F91FF90EF90089540
:1039100080E090E008959F92AF92BF92CF92DF92A5
:10392000EF92FF920F931F93CF93DF938091160135
:103930000E94DB1481E5E82E83E0F82EC0E000E071
:1039400010E0D02FE0910201F0910301402F6C2F85
:10395000D701A00FB11F8C910995982EB92EA92ED1
:10396000E0910201F0910301402F6C2F8091B60489
:103970000995292D3B2D4091B60454E44217530775
:1039800021F4C0932D0100932C012817390739F435
:10399000C12CD12C2C153D0511F0AA2071F080917D
:1039A0006E0490916F04DC01ED91FC910680F7812B
:1039B000E02D4D2F6C2F09950AC020912F013091D9
:1039C0003001409131016D2F8C2F0E943E150F5F09
:1039D0001F4F0031110509F0B4CFCF5FB0E1EB0EFE
:1039E000F11CC43009F0ABCF80912D01853090F4EB
:1039F00080912C01813170F440E06FEF80912E01B5
:103A00000E9442169B01482F60912C0180912D014C
:103A10000E943E15DF91CF911F910F91FF90EF9083
:103A2000DF90CF90BF90AF909F900895CF93DF939A
:103A3000EC018091B6040E947C099091B50481113B
:103A400009C0992379F0809116010E94DB1410922D
:103A5000B50408C0911103C081E08093B504CE0184
:103A60000E948B1C80E090E0DF91CF91089520911F
:103A70006302309164028091DC049091DD04281B84
:103A8000390B81E0409136015091370142175307BD
:103A900008F080E00895883018F490E0805202C069
:103AA00094E48E5D262F20684FEF6FEF0E9474081C
:103AB000089562E00C944B1DE82FF0E0EE0FFF1F1D
:103AC000E454FB4F90819E7F908361E00C944B1DEA
:103AD000CF93DF93C0E0D0E0FE01EE0FFF1FE45470
:103AE000FB4F808180FF03C08C2F0E94591D2196BF
:103AF000C830D10589F780E090E0DF91CF9108953B
:103B00000F931F93CF93DF9380E090E0FC01EE0FC3
:103B1000FF1FE454FB4F208120FD05C0019680313A
:103B20009105A1F709C00E94371D882329F081E083
:103B30008093B9041092B804C0E0D0E090E0809186
:103B4000B9048823F9F08E01000F111F04541B4F94
:103B5000F801808183FF0EC02091B804222391F0E8
:103B6000877F80838C2F0E945C1DF80180818D7F70
:103B7000808307C080FF06C081FD04C08C2F0E9497
:103B80005C1D91E02196C031D105C9F6992321F041
:103B90001092B9041092B80480E090E0DF91CF91C8
:103BA0001F910F910895FF920F931F93CF93DF936F
:103BB000C0E0D0E08E01000F111FF801E454FB4F6C
:103BC000808180FBFF24F0F880FF04C00E94371D35
:103BD000882391F0F801E454FB4F808181FBFF249E
:103BE000F0F881FD09C083FBFF24F0F883FD04C0D9
:103BF0002196C031D105F1F68F2DDF91CF911F9124
:103C00000F91FF900895CF92DF92EF92FF920F9362
:103C10001F93CF93DF93DB01CD90DC90CFEFCC0DE2
:103C200007FDACC0D22F142F7B010E94D31D96013B
:103C30002150304C811135C02031310508F09EC033
:103C4000802F8270902F917000FF0BC0811109C0EE
:103C5000D0E0CC0FDD1FC454DB4F88818D7F88837B
:103C6000A8C0882309F4A5C09111A3C08091630264
:103C7000909164029093DD048093DC04EC2FF0E0DB
:103C8000EE0FFF1FE454FB4FB0E11B9FD00D11243A
:103C9000D1838081826081608083F70180819181FE
:103CA00081C0902F92702031310508F050C0EC2F68
:103CB000F0E0EE0FFF1FDF01A454BB4F8C9183FF98
:103CC0000CC0992309F475C000FD73C0D092BB04E9
:103CD000C092BA04877F8C9318C000FF1CC091115A
:103CE00068C08D7F8C9380916302909164022091D3
:103CF000DC043091DD04821B930B20913401309160
:103D000035012817390708F054C08C2F0E945C1D1C
:103D10001092B9044EC0992309F44BC082608C9371
:103D20008091BA049091BB04D7014D915C91209190
:103D30006302309164028417950719F5880F991F63
:103D4000DC01A654BB478C9182FD36C01AC0992372
:103D5000A9F0D092BB04C092BA04D7018D919C9176
:103D6000803E910540F4F7018181843439F081E08F
:103D70008093B90403C0883E9105A8F780E090E0E5
:103D80003DC03093DD042093DC04E454FB4F40E15C
:103D9000149FD00D1124D183808181608083D7014D
:103DA0008D919C919093BB048093BA048C2F0E94B8
:103DB000591D81E090E022C0809132019091330141
:103DC0008F3FBFEF9B0721F480913601909137011F
:103DD0004091DC045091DD04241B350B82179307BE
:103DE00040F3E454FB4F808188608083F701808139
:103DF00091819093BB048093BA04DBCFDF91CF9184
:103E00001F910F91FF90EF90DF90CF9008951F9337
:103E1000CF93DF938150C82FD0E0CC0FDD1FFE0180
:103E2000E454FB4F8081182F117080FF04C00E9462
:103E3000371D882359F0C454DB4F888181FB11273B
:103E400010F981FD03C083FB112710F9812FDF9149
:103E5000CF911F9108958150E82FF0E0EE0FFF1FE2
:103E6000E454FB4F808183FB882780F9089580E02C
:103E700090E0FC01EE0FFF1FE454FB4F2081246013
:103E80002083019680319105A1F708959C01AC0132
:103E90004151504C413068E0560710F4842F07C060
:103EA0002251384C213048E0340710F4822F90E042
:103EB00008959C01AC014151504C413068E05607D7
:103EC00030F4252F332720523F4FC9010895225146
:103ED000384C213048E0340718F48AE2830F94E428
:103EE00008958F3FA1F12091FC0430E04091FD0442
:103EF0005091FE0490E0E82FE295EF7060E1E69FBC
:103F0000F0011124EF5AFC4F682F6F70E60FF11D7E
:103F1000A92F092E000CBB0BA217B307C4F4AA0FDC
:103F2000BB1FAA0FBB1FA40FB51F11966C91119751
:103F300086130BC06C916F3F61F0062E000C770B5F
:103F4000A081B0E06A177B0721F09F5FE1CF8FEF80
:103F50000895892F08954091E20450E090E0292FC0
:103F6000092E000C330B241735076CF4F901EE0F02
:103F7000FF1F2E0F3F1FF901ED51FB4F2081281726
:103F800021F09F5FECCF8FEF0895892F0895BF92A6
:103F9000CF92DF92EF92FF920F931F93CF93DF9315
:103FA000CDB7DEB76D970FB6F894DEBF0FBECDBFAD
:103FB000C82ED62E1091E304812F0E94711FB82EB7
:103FC000012F02950F701F7020E1029FD001112474
:103FD000AF5ABC4FA10FB11DE0910201F091030156
:103FE000412F602F8C9109957C018151904C82303A
:103FF000904108F467C02FEFB21287C081E0809330
:10400000E1048DE1E1EBF5E0DE01119601900D9206
:104010008A95E1F7C090CE058DE1EEECF5E0A1EBDD
:10402000B5E001900D928A95E1F722E0412F602FD3
:10403000C7010E9474080E9482248DE1FE0131961E
:10404000A1EBB5E001900D928A95E1F7D1FE07C092
:1040500023E0412F602FC7010E9474080DC021E0AA
:10406000412F602F80E090E00E9474088091E2046C
:10407000823010F0C092CE051092E10420E08091D1
:10408000E2042817D0F4822F90E0DC01AA0FBB1FB6
:10409000A80FB91FAD51BB4F0196FC01EE0FFF1FDA
:1040A0008E0F9F1FFC01ED51FB4FC080D180E2803D
:1040B000CD92DD92EC922F5FE2CF81508093E204AB
:1040C00081E032C0C1101CC08091FB048823A1F0A4
:1040D0008091E204823080F0809138018F3F61F45A
:1040E0000E94AD357093E0046093DF048091E30497
:1040F0008093380180E018C0C7010E94461F03C0AA
:10410000C7010E94591F7C0179CFCC20E9F2E091D0
:10411000FD04F091FE048B2D94E08902E00DF11D69
:104120001124E280F3806ACF6D960FB6F894DEBF5B
:104130000FBECDBFDF91CF911F910F91FF90EF90F8
:10414000DF90CF90BF900895CF93DF938F3FA1F082
:10415000C82FD0E0DC1754F48091E204882361F08A
:1041600063E081E00E94C71FDF5FF4CF61E080E081
:10417000DF91CF910C94C71FDF91CF91089580916B
:10418000E204882311F18091E304E82FE295EF70B7
:10419000982F9F7020E1E29FF0011124E90FF11D9B
:1041A000EE0FFF1FEF56FC4F208131812151304C23
:1041B0002230304150F00E94711F8F3F31F463E094
:1041C00080E00E94C71F8111DACF08951F93CF931B
:1041D000DF93182F8091E204883031F463E080E0AF
:1041E0000E94C71F0E94BF20C091E204D0E0CE0110
:1041F000880F991FC80FD91FCD51DB4F18830E941C
:10420000AD357A8369838091E2048F5F8093E20405
:10421000DF91CF911F910895EF92FF920F931F931B
:10422000CF93DF93443008F06AC0203108F067C0B4
:1042300007FD65C07B0180913B01811109C0F70139
:10424000808191810E94461FF7019183808357C02E
:10425000C22FF0E14F9FC00D11248C2F0E94711FBF
:104260009091E10491114BC0D02FD170102F12709A
:1042700001FF13C0D11111C09091E204911108C047
:10428000F701208131812151304C22303041A8F595
:104290008C2F0E94E62081E033C08C2F0E94AB1F40
:1042A000DD2321F1111122C08F3F49F1C091380166
:1042B000CF3FB9F00E94A4200E94BF2081E08093EC
:1042C000E1044C2F4F706C2F62956F7021E080E0FD
:1042D00090E00E9474081092E1048FEF80933801FF
:1042E000AECF0E94A4200E94BF20A9CF21E090E081
:1042F0008F3F09F420E0822F04C08F3F49F680E011
:1043000090E0DF91CF911F910F91FF90EF90089572
:10431000CF93DF930E94AD35EB01209138012F3F01
:1043200051F12091DF043091E004621B730B809106
:10433000FB0490E08617970714F561E080E00E9487
:10434000C71F0E94BF208FEF8093380118C0809153
:10435000E4049091E5049E01281B390B80913901FA
:1043600090913A018217930750F463E081E00E9434
:10437000C71F0E94BF208091E2048111E8CF80E036
:1043800090E0DF91CF910895E3EEF4E08FEF80832A
:1043900012821182339694E0EB3FF907C1F7109235
:1043A000E20480E090E0089580911B0581113EC0F9
:1043B000109204051092030510920505109207054E
:1043C0001092060581EE8093FF041092000586E2AC
:1043D0008093010588E08093020510920D051092EC
:1043E0000C0510920E051092100510920F0595EE17
:1043F000909308051092090597E290930A0580931F
:104400000B051092160510921505109217051092C3
:1044100019051092180510921105109212051092AC
:1044200013051092140581E080931B058FEF94E033
:10443000909325058093240508956F927F929F9213
:10444000AF92BF92CF92DF92EF92FF920F931F93A2
:10445000CF93DF93FB01A080B180B5016855714D0A
:104460006230710580F401FF23C000FD21C088E5A2
:10447000A81681EDB80619F41092230519C081E041
:104480008093230515C030912305311145C007FDE8
:1044900043C0A114B10409F43FC0702F7270602FA3
:1044A00061700370C9F13BC09920B1F16111A9C0DD
:1044B00081E090E0B9C0D8011696EC91EE2311F09E
:1044C000C22F41E0AE14BF0411F4992493942F5FDE
:1044D000E0912405F09125058F01B9E02B9F000D97
:1044E000111D1124D801ED90FC901197612C712CB5
:1044F000E614F70401F71296CD90DC90139780E054
:1045000090E0C816D906B9F61496CD90DC901597B0
:10451000CD2889F6411157C080E090E085C0522F28
:10452000342F8F01772309F449C0611147C0D0E0CF
:10453000C0E099249394A9E0DA9F50011124E091FE
:104540002405F0912505EA0DFB1D80819181C12C88
:10455000D12C8C159D0559F422813381E12CF12C4D
:104560002E153F0521F424813581232B21F1D8011B
:104570002D913C918217930749F4968280916302B2
:104580009091640290878783C1E013C0868188235D
:1045900039F022E84FEF6FEF808191810E9474081B
:1045A000E0912405F0912505EA0DFB1D1682108689
:1045B0001782DF5FC0CF8C2F90E036C020E0C0E0D4
:1045C000912C40E085CFB9E0CB9FE0011124EC0FA6
:1045D000FD1FA481B581109721F4A0913C01B091F9
:1045E0003D01809163029091640207811085801BD8
:1045F000910BA817B90708F057CF168210861782BB
:104600008BCF711155CF22E8452F632F8281938183
:104610000E9474088091240590912505C80FD91F28
:104620001E8218861F8244CFDF91CF911F910F9178
:10463000FF90EF90DF90CF90BF90AF909F907F90D2
:104640006F9008958AE195E00C94D42183E595E07C
:104650000E940F2861E0811160E08091E00081609C
:104660008093E00060935D0583E595E00E94122849
:1046700068EE73E080E090E00E94DE358091E0001B
:104680008E7F8093E00008951F93CF93DF9300D037
:1046900000D0CDB7DEB790913E019817C9F0182F22
:1046A00080933E01BE016F5F7F4F0E941A05EB8130
:1046B000FC81309719F489819A8106C069817A81D9
:1046C000412F84E192E00995909328058093270576
:1046D00080912705909128050F900F900F900F90D3
:1046E000DF91CF911F910895CF93DF9300D000D039
:1046F00000D0CDB7DEB7DC0113967C936E93129792
:1047000015965C934E93149716963C9116973983A1
:104710007B836A835D834C832E83ED91FC910190B2
:10472000F081E02D46E050E0BE016F5F7F4F0995BC
:1047300026960FB6F894DEBF0FBECDBFDF91CF91A6
:10474000089581EB95E00E94942B83E595E00C940D
:10475000A928CF93C82F83E595E00E940F286C2FDE
:10476000811105C083E595E0CF910C94432881EB3E
:1047700095E0CF910C94342BCF93C82F83FF04C0C6
:1047800081EE90E00E94A923C0FF04C080EE90E07B
:104790000E94A923C1FF04C082EE90E00E94A923D9
:1047A000C2FF04C086EE90E00E94A923C4FF04C0AB
:1047B00083EE90E00E94A923CF910895CF93DF93D9
:1047C000D82FC92F907C662399F0809129058111FB
:1047D00002C010922B0580912B058C2B80932B050A
:1047E000911104C080E28D0F883020F0D09329050C
:1047F000911108C080E28D0F883020F48C2F0E9428
:10480000BC2305C080912A058C2B80932A058D2F0F
:104810009C2FDF91CF910C94A923CF93C82F83E5D0
:1048200095E00E940F286C2F811105C083E595E06B
:10483000CF910C946B2881EB95E0CF910C945B2B7E
:1048400083E595E00E94A2281092290510922A057E
:1048500081EB95E00E94842B83E995E00C945C2A1F
:10486000CF93DF93D82FC92F80912B058927809371
:104870002B05892F807C21F480E28D0F883058F041
:10488000809129058D1302C01092290580912A0577
:104890008C2780932A05C3FF04C081EE90E00E941C
:1048A0000D24C0FF04C080EE90E00E940D24C1FFE3
:1048B00004C082EE90E00E940D24C2FF04C086EE88
:1048C00090E00E940D24C4FF04C083EE90E00E949B
:1048D0000D248D2F9C2FDF91CF910C940D24CF931D
:1048E000C82F83E595E00E940F286C2F811105C029
:1048F00083E595E0CF910C94B92881EB95E0CF91B9
:104900000C94252B90912A0580912B0589230E94D8
:10491000BC2383E595E00E940F2860912905811151
:1049200016C0662381F083E595E00E946B2883E53D
:1049300095E00E9415286091290583E595E00E9485
:1049400043281092290583E595E00C9415286623E9
:1049500081F081EB95E00E945B2B81EB95E00E945A
:10496000C52A6091290581EB95E00E94342B1092B5
:10497000290581EB95E00E94C52A83E995E00C9416
:104980006F2A83E995E00C94952ABC01737083E942
:1049900095E00C94472A86E196E00C94582C682FF9
:1049A00086E196E00C945A2C86E196E00C94562C05
:1049B0008EEF95E00C94F22B0F93022F242F462FAD
:1049C000682F8EEF95E00E949A2B0F910895FF9229
:1049D0000F931F93CF93DF9300D000D01F92CDB7DA
:1049E000DEB7F62E142F722F95E0EEEFF5E0DE0124
:1049F000119601900D929A95E1F79A813B815C8125
:104A00000D81882311F060E001C0692FFF2011F0B3
:104A100040E001C0432F112311F020E001C0252FF9
:104A2000711100E08EEF95E00E949A2B0F900F908D
:104A30000F900F900F90DF91CF911F910F91FF90EA
:104A40000895682F8EEF95E00C94A82B682F8EEFB9
:104A500095E00C94AD2B8EEF95E00C94A22B8EEF8D
:104A600095E00C94C02BEFE1F6E0108A468557855F
:104A70006485758520E089E296E00C947423242FE8
:104A8000AB01BC0189E296E00C9474230895FC010B
:104A9000E859FF4F10823697262F30E0318320836C
:104AA0003297686570E07183608380913F019FEF6A
:104AB000980F90933F0181110C94E82508950F936E
:104AC0001F93CF93DF9300D000D01F92CDB7DEB7F6
:104AD0008C01FC01E05AFF4F21E045E0BE016F5F11
:104AE0007F4F80810E9400268981813081F4F80106
:104AF000EC59FF4F8A81808331968B818083319678
:104B00008C81808331968D81808381E001C080E03B
:104B10000F900F900F900F900F90DF91CF911F91FA
:104B20000F9108958C599F4FFC01608171818281A2
:104B3000938108950F93CF93DF93CDB7DEB7699735
:104B40000FB6F894DEBF0FBECDBF20E8260F298335
:104B5000DE01129628E1629FB001112420E030E0CE
:104B6000F901E60FF71FE80FF91FE081F0E0E157C8
:104B7000FB4FE491ED932F5F3F4F2831310581F7D3
:104B8000FC01E05AFF4F00E021E049E1BE016F5F08
:104B90007F4F80810E94482669960FB6F894DEBF49
:104BA0000FBECDBFDF91CF910F910895CF93DF93CB
:104BB000EC01C859DF4F688121E0260F28830E944D
:104BC0009A258881843009F41882DF91CF91089565
:104BD0001092520581E08093500510924F05589A2B
:104BE000599AE9EBF0E080818E7F808380818D7F10
:104BF000808388E48093B80085E48093BC000895A6
:104C0000413208F043C0909152059111FCCF91E0E0
:104C100090935205209350052FEF20932C0510926E
:104C20002E05240F20932D05909351059091510549
:104C3000880F892B8093510580914F05813061F455
:104C400010924F05809151058093BB008091BC006C
:104C500083FDF8CF85EC01C085EE8093BC00809188
:104C600052058130E1F380912E05841710F44091B4
:104C70002E05AFE2B5E0962FFB018E2F891B84171E
:104C800018F48D918193F9CF842F089580E00895D1
:104C90000F93413208F04AC0909152059111FCCF18
:104CA00032E030935205009350053FEF30932C05CE
:104CB00010922E0540932D05562FAFE2B5E0FB0173
:104CC0003E2F351B341718F431913D93F9CF1092D4
:104CD000510530915105880F832B809351058091A8
:104CE0004F05813061F410924F05809151058093FA
:104CF000BB008091BC0083FDF8CF85EC01C085EE40
:104D00008093BC00222321F0809152058230D1F3A0
:104D100080912C05803331F08F3F49F0803221F4AF
:104D200092E005C093E003C094E001C091E0892FB8
:104D30000F91089585ED8093BC008091BC0084FDA7
:104D4000FCCF10925205089585EC8093BC00109220
:104D5000520508951F920F920FB60F9211242F93B0
:104D60003F934F935F936F937F938F939F93AF93F3
:104D7000BF93EF93FF938091B900887F883239F118
:104D800070F4803109F130F4882309F466C088306A
:104D9000D9F067C08831D9F0803279F162C08034AF
:104DA000D9F150F4803349F1883309F05AC0809327
:104DB0002C050E94A42655C0803511F18835A1F13B
:104DC000883409F04EC04BC08091510510C09091BD
:104DD0002E0580912D05981798F5E0912E0581E01C
:104DE0008E0F80932E05F0E0E15DFA4F8081809375
:104DF000BB0085EC8093BC0034C080932C052FC091
:104E0000E0912E0581E08E0F80932E058091BB00EE
:104E1000F0E0E15DFA4F808390912E0580912D05A1
:104E2000981738F385E8E6CFE0912E0581E08E0FE4
:104E300080932E058091BB00F0E0E15DFA4F808306
:104E40008091500581110BC081E080934F0584EA69
:104E50008093BC001092520504C010922C050E9451
:104E60009A26FF91EF91BF91AF919F918F917F9182
:104E70006F915F914F913F912F910F900FBE0F90C7
:104E80001F901895FC0182818F5BFB01808381E07C
:104E90000895CF93DF93CDB7DEB769970FB6F89437
:104EA000DEBF0FBECDBFFC01DB019C919F5F9C93D9
:104EB000BE016F5F7F4F89E1DB011D928A95E9F7A3
:104EC00029E0298384E08A8391E09D8383E08E83B7
:104ED0009F8398872A8721E22B879C879D879F87BE
:104EE00022E2288B2FE3298B27E02B8B25E02C8BCC
:104EF0008E8B20E430E0388F2F8B998F82818B83CB
:104F0000838180688D8B49E150E080E00E94EA3225
:104F100069960FB6F894DEBF0FBECDBFDF91CF917B
:104F20000895FC01DB01828190E014962D913C9163
:104F3000159782179307E1F511968C9111979C9123
:104F4000913A61F4813091F1833011F4848D03C082
:104F5000823071F5858D8093F10028C0913241F542
:104F60008B3021F412968C91848F20C08A3011F4FA
:104F7000158E1CC08930E1F4CF0116962D913C911D
:104F8000179713964C91423039F42130310581F452
:104F900061E070E04E9608C0413051F42830310590
:104FA00039F468E070E00B960E94113381E00895B7
:104FB00080E00895FC01DB018C918138B9F41396EF
:104FC0008C911397823291F4828190E014962D9106
:104FD0003C9115972817390749F48285848F4FE350
:104FE00050E06FE875E080E80C94EA3280E090E0F1
:104FF0000895FC0181E0848385839F01255E3F4FF6
:1050000037832683118610862EEB31E0318320838F
:105010008287848F858F168E81EC838F0895FC01A3
:10502000848D0895FC01648F0895EF92FF920F9391
:105030001F93CF93DF938C01EC012B967C0183E1CE
:10504000E80EF11C48E050E0BE01C7010E941D3788
:10505000892B81F0F801838148E050E0BE01806433
:105060000E943B3228E0FE01D70101900D922A9563
:10507000E1F702C08FEF9FEFDF91CF911F910F916A
:10508000FF90EF90089520E2260F283058F441E079
:1050900050E001C0440F2A95EAF7FC012385422B1A
:1050A000438716C0FC013D9620E030E04191641733
:1050B00079F0411105C0FC01E20FF31F658708C0BC
:1050C0002F5F3F4F2630310589F780E090E008954B
:1050D00081E090E0089520E2260F283068F4622FE6
:1050E00021E030E001C0220F6A95EAF72095FC012B
:1050F00033852323238723C0FC01AC014A5F5F4F24
:10510000DC011D962C911D97621303C01D961C9205
:105110001D9711964A175B07A1F720E035853323C9
:1051200051F0DC01A20FB11D1D966C911D971D96CB
:105130003C9365872F5F3196E417F50779F781E097
:1051400090E008950B9628E0FC0111922A95E9F76A
:105150000895CF93DF93EC010E941E2FBE010E94A1
:10516000D72ECE010E94A228CE01DF91CF910C94C0
:105170001528605E683050F4FC01838590E002C021
:10518000959587956A95E2F78170089580E0089576
:1051900083E595E00C94F927FB018BE6808382E69A
:1051A000818389E682838FE6838380E3848381E33E
:1051B000858386E00895CF93DF93CDB7DEB76997F7
:1051C0000FB6F894DEBF0FBECDBFFC01DB018C91A2
:1051D0008F5F8C93BE016F5F7F4F89E1DB011D9272
:1051E0008A95E9F729E0298384E08A8391E09D8309
:1051F00083E08E832A8721E22B879C879D879F8768
:1052000022E2288B27E02B8B25E02C8B8E8B20E451
:1052100030E0388F2F8B998F82818B83958586859F
:10522000998B8A8B838180688D8B49E150E080E087
:105230000E94EA3269960FB6F894DEBF0FBECDBF6A
:10524000DF91CF910895CF93DF93FC01DB01828141
:1052500090E014962D913C91159782179307A9F52C
:1052600011969C9111978C91813A31F481E09130A3
:1052700069F1933051F52AC0813239F59B3021F420
:1052800012968C91878705C09A3029F412968C91DA
:10529000808B81E01BC09930C1F4EF0116968D918F
:1052A0009C9117978230910539F462E070E0CF014C
:1052B00041960E94113309C0019739F461E070E012
:1052C000CF0142960E941133198A80E0DF91CF917D
:1052D0000895EF92FF920F931F93CF93DF93FB01FB
:1052E0002081213851F52381223239F5DC011296D3
:1052F0002C9130E04481558142175307F1F4EC01C1
:105300000B851C85E12CF12C0115110591F0F8019C
:10531000448155816281738180E80E94EA328F3F27
:10532000FFEF9F0769F0E80EF91ED8010D911C915F
:10533000EBCF81E08F87C70105C080E090E002C01D
:105340008FEF9FEFDF91CF911F910F91FF90EF9023
:105350000895FC01A385B485109719F474876387B9
:1053600009C08D919C911197009711F0DC01F9CF44
:105370006D937C9325853685DB0114968D919C91E8
:105380001597820F931F968785870895AF92BF92D6
:10539000CF92DF92EF92FF920F931F93CF93DF9301
:1053A0001F92CDB7DEB77C0169836A01590141E0E4
:1053B00050E0BE016F5F7F4FFC0183810E943B3252
:1053C0008C0197FD0BC0F7018381A501B6018064B4
:1053D0000E943B3297FD02C0800F911F0F90DF911A
:1053E000CF911F910F91FF90EF90DF90CF90BF90E2
:1053F000AF900895CF93DF93EC0181E08C838D8390
:105400009E01265F3F4F3F832E83198618862AEC24
:1054100031E0398328831C861B861E861D868F8774
:10542000888B198A1A8A81EC8A870E941E2FBE01F6
:10543000DF91CF910C94D72E80918505811107C003
:1054400082E795E00E94FA2981E08093850582E752
:1054500095E008958091A305811113C010928E05E7
:1054600010928D058EEC95E09093900580938F05BA
:1054700089E190E0909392058093910581E080937B
:10548000A3050E941C2A6DE875E00C94A929DC0193
:1054900020E030E04D915D91452B41F4220F331F08
:1054A000FC01E20FF31F7183608308952F5F3F4F6C
:1054B0002430310579F7089528E0FC0111922A95EE
:1054C000E9F70895CF93DF93EC010E941C2A28E0AE
:1054D00030E0AE0164E0DF91CF910C94C6290F93C8
:1054E0001F93CF93DF93EC018C01085F1F4F48E0BF
:1054F00050E0BC01C8010E941D37892B51F0CE013C
:105500000E94622A88E0FE01D80101900D928A95DE
:10551000E1F7DF91CF911F910F91089528E0FC01F1
:1055200011922A95E9F70C946F2A0C948E2A83E93C
:1055300095E00C942A2A8091EB05811113C01092FA
:10554000AC051092AB0587EE95E09093AE05809385
:10555000AD0581E490E09093B0058093AF0581E0C4
:105560008093EB050E941C2A6BEA75E00C94A92934
:10557000CF93DF93EC010E941C2A2DE130E0AE01B5
:1055800068E0DF91CF910C94C629EF92FF920F93C0
:105590001F93CF93DF93EC017C018DE1E80EF11CAA
:1055A0004DE150E0BE01C7010E941D37892B09F46F
:1055B00043C00D8D1881802F80958123B1F04CE17F
:1055C00050E0BE016F5F7F4FCE014E960E941D37A7
:1055D000892B59F01D8F0E941C2A2DE130E0A70174
:1055E00068E00E94C6290D8F19C0812F8095802305
:1055F000A9F04CE150E0BE016F5F7F4FCE014E96A7
:105600000E941D37892B51F008830E941C2A2DE12E
:1056100030E0AE0168E00E94C6291883CE010E94E6
:10562000B82A1816190654F42DE1FE01D70101908D
:105630000D922A95E1F702C08FEF9FEFDF91CF9196
:105640001F910F91FF90EF900895605E683050F4C5
:10565000FC01808190E002C0959587956A95E2F7FC
:105660008170089580E008956E3D90F4262F269570
:1056700026952695FC01E20FF11D677081E090E010
:1056800001C0880F6A95EAF79181892B81830DC04B
:10569000605E683068F421E030E001C0220F6A9556
:1056A000EAF7FC013081232B208381E090E008950C
:1056B00080E090E008956E3D98F4262F269526957B
:1056C0002695FC01E20FF11D677081E090E001C0BA
:1056D000880F6A95EAF780959181892381830EC0AE
:1056E000605E683070F421E030E001C0220F6A95FE
:1056F000EAF72095FC0130812323208381E090E0AC
:10570000089580E090E008952DE1FC0111922A9522
:10571000E9F70895CF93DF93EC010E94842BCE012B
:10572000DF91CF910C94B82A0C948A2B81EB95E0F1
:105730000C949B2A0F93FC0161834283238304838F
:105740000F91089525E0FC0111922A95E9F708953B
:10575000FC012081622B608308956095FC0120810B
:10576000622360830895CF93DF93EC010E941C2A8B
:1057700025E030E0AE0161E0DF91CF910C94C629C5
:105780000F931F93CF93DF93EC018C010B5F1F4F9F
:1057900045E050E0BC01C8010E941D37892B49F447
:1057A00045E050E063EF75E0CE010E941D37892B84
:1057B00051F0CE010E94B32B85E0FE01D80101908B
:1057C0000D928A95E1F7DF91CF911F910F91089586
:1057D000CF93DF93EC010E94A22BCE01DF91CF91FA
:1057E0000C94C02BCF93DF93EC01809108068111BC
:1057F00013C01092F9051092F80588E296E0909394
:10580000FB058093FA058AE390E09093FD05809371
:10581000FC0581E0809308060E941C2A68EF75E071
:105820000E94A929CE01DF91CF910C94E82B8091A1
:105830001706811113C0109211061092100682E60D
:1058400096E0909313068093120688E190E090937F
:1058500015068093140681E0809317060E941C2A87
:1058600060E176E00C94A9290F931F93CF93DF9307
:10587000EB018A010E941C2A9801AE0165E0DF91CC
:10588000CF911F910F910C94C629CF93DF931F9254
:10589000CDB7DEB7198241E050E0BE016F5F7F4FA8
:1058A0000E94342C0F90DF91CF9108950C94452CD9
:1058B0000C94452CCF93DF931F92CDB7DEB769834D
:1058C000633829F480E996E00E94333507C041E04F
:1058D00050E0BE016F5F7F4F0E94342C0F90DF912C
:1058E000CF91089586E196E00C94172CCF93DF9327
:1058F000CDB7DEB769970FB6F894DEBF0FBECDBF48
:10590000FC01DB019C919F5F9C93BE016F5F7F4F09
:1059100089E1DB011D928A95E9F729E0298384E07A
:105920008A8391E09D8383E08E832A8721E22B87FF
:105930009C879D879F8722E2288B25E3298B27E080
:105940002B8B25E02C8B8E8B20E430E0388F2F8B37
:10595000998F82818B83838180688D8B49E150E0B0
:1059600080E00E94EA3269960FB6F894DEBF0FBE5F
:10597000CDBFDF91CF910895FC01838180640C94A9
:105980003B320A970C94BC2CFB0120812138B9F4DE
:1059900023812232A1F4DC0112962C91129730E07F
:1059A000448155814217530751F421E052962C93BC
:1059B00045E350E06AE776E080E80C94EA3280E064
:1059C00090E00895DC01FB0112968C91129790E013
:1059D0002481358182179307D1F491818081813AA6
:1059E00031F481E0913091F0933089F411C081322B
:1059F00071F49B3021F4828152968C9305C09A30C9
:105A000031F4828153968C9381E00895089580E06B
:105A10000895CF93DF93EC0181E08C838D839E0109
:105A20002F5E3F4F3F832E83198618861D861C8666
:105A30001F861E86188A26ED31E03983288324EEDE
:105A400031E03B872A878A8B8B8B81EC898B0E9484
:105A50001E2FBE01DF91CF910C94D72E8FE196E0DF
:105A60000C94092DCF93DF931F92CDB7DEB76983D6
:105A7000DC01ED91FC910280F381E02D41E050E0EA
:105A8000BE016F5F7F4F09950F90DF91CF91089511
:105A9000CF93DF93EC018C859D8597FF05C082E055
:105AA0000E940A329D878C878C859D85DF91CF91DE
:105AB000089583E00E94213290E0089583E00C94E1
:105AC0009E34FC018485958597FD06C082E00E9486
:105AD000B63190E00196089582E00E94B63190E0E0
:105AE0000895FC018485958597FD05C02FEF3FEF54
:105AF00035872487089582E00C940A32CF93DF9390
:105B0000EC0180914B01882331F083E00E943B320D
:105B10001816190634F081E090E09B838A8380E0B8
:105B200090E0DF91CF910895EEEFFFE7259134915A
:105B300081E02B3F3C4D09F080E00895FC0190810D
:105B40009E5F908342E450E06FEA76E080E80C9438
:105B5000EA32FC0181819081913A59F4813209F055
:105B600065C047E050E064E471E080E00E94EA3202
:105B70005BC0913209F05AC0833269F4828193810B
:105B8000A0E0B0E08093400190934101A0934201D6
:105B9000B093430149C0803239F467E070E084E497
:105BA00091E00E94113340C0823209F03DC08281F1
:105BB00080934B010E94942D882319F0EEEFFAE0B8
:105BC00002C0E0E0F8E08091440190914501A0918D
:105BD0004601B0914701803B9440A105B10541F5D4
:105BE00080914B0180FD24C0EE3F8AE0F80751F020
:105BF00080819181873727E7920721F09093FF0AF0
:105C00008093FE0A87E797E7918380838091600005
:105C1000809383069BE088E10FB6F894A895809363
:105C200060000FBE9093600081E0089580E00895C9
:105C30008081918187379747B9F7A8958091600057
:105C40008861809360008091830680936000EE3FBE
:105C50008AE0F80739F08091FE0A9091FF0A91835B
:105C60008083E2CF1092FF0A1092FE0ADDCF2FEF61
:105C70003FEFFC01358724870895E3E3F6E01382C4
:105C8000128288EE93E0A0E0B0E084839583A6833F
:105C9000B7838AEE91E0918380838FEF9FEF9587A2
:105CA00084870895EF92FF920F931F93CF93DF9312
:105CB0007B01FC01C281D38100E010E0209781F0DC
:105CC000E881F9810280F381E02DB701CE010995C9
:105CD00097FD08C0080F191F0884D985C02DEECF85
:105CE000C80102C08FEF9FEFDF91CF911F910F91FD
:105CF000FF90EF9008950F931F93CF93DF938B0145
:105D0000FC01C281D381209771F0E881F981048080
:105D1000F581E02DB801CE010995009731F4088492
:105D2000D985C02DF0CF80E090E0DF91CF911F9119
:105D30000F9108950F931F93CF93DF938B01FC0175
:105D4000C281D381209771F0E881F9810680F781C3
:105D5000E02DB801CE010995080F111D0884D985E1
:105D6000C02DF0CFF8011082DF91CF911F910F91DC
:105D700008950F931F93CF93DF938B01FC01C28192
:105D8000D381209771F0E881F9810190F081E02DB5
:105D9000B801CE010995811105C00884D985C02DAF
:105DA000F0CF80E0DF91CF911F910F910895CF93B5
:105DB000DF93FC01DB01218114968C91149790E014
:105DC000820F911D0897A4F5C281D381209719F401
:105DD0007383628308C088859985009711F0EC0170
:105DE000FACFB987A887808112968C931297818108
:105DF00013968C931397908115968C911597890F14
:105E0000808380E014969C911497891798F41696D5
:105E1000CD91DC911797C80FD11D9881C181D0E039
:105E2000C45BDE4F988391819F5F91838F5FEACF40
:105E300080E001C081E0DF91CF91089580918806D4
:105E400081110DC082E08093840684E080938506F2
:105E5000109287061092860681E08093880684E877
:105E600096E008956115710579F0FB01019000201D
:105E7000E9F73197AF01461B570BDC01ED91FC911F
:105E80000280F381E02D099480E090E00895EF9284
:105E9000FF920F931F93CF93DF938C017B01C0E0A0
:105EA000D0E0F701EC0FFD1F6491662361F0D8018B
:105EB000ED91FC910190F081E02DC8010995892BAD
:105EC00011F02196EECFCE01DF91CF911F910F916E
:105ED000FF90EF900895DC01ED91FC910190F0812D
:105EE000E02D099468EF71E00C94322F0F931F930B
:105EF000CF93DF93EC010E94472F8C01CE010E94CB
:105F0000722F800F911FDF91CF911F910F910895F4
:105F10008F929F92AF92BF92EF92FF920F931F9337
:105F2000CF93DF93CDB7DEB7A1970FB6F894DEBF5E
:105F30000FBECDBF7C01FA01CB0119A2223008F4BB
:105F40002AE08E010F5D1F4F822E912CA12CB12CC7
:105F5000BF01A50194010E949936F901CA010150BF
:105F600011096A3014F4605D01C0695CD8016C935A
:105F7000232B242B252B61F7B801C7010E94322F58
:105F8000A1960FB6F894DEBF0FBECDBFDF91CF91C3
:105F90001F910F91FF90EF90BF90AF909F908F90C7
:105FA00008952115310541F4DC01ED91FC9101903A
:105FB000F081E02D642F09940C94882F9A01462FCC
:105FC00050E060E070E00C94D12F9A01AB0160E0EA
:105FD00070E00C94D12FCF92DF92EF92FF920F934B
:105FE0001F93CF93DF932115310581F4DC01ED91EF
:105FF000FC910190F081E02D642FDF91CF911F91F2
:106000000F91FF90EF90DF90CF9009942A303105E7
:1060100001F577FF1DC06A017B01EC016DE20E9472
:106020006B2F8C0144275527BA014C195D096E0965
:106030007F092AE0CE010E94882F800F911FDF91F7
:10604000CF911F910F91FF90EF90DF90CF90089527
:106050002AE0DF91CF911F910F91FF90EF90DF9099
:10606000CF900C94882F9A01AB01770F660B770BBA
:106070000C94EB2F0F931F93CF93DF93EC010E94AF
:10608000AD35688779878A879B87E881F9810484A1
:10609000F585E02DCE01099597FF17C00E94AD351B
:1060A000088519852A853B85DC01CB01801B910B76
:1060B000A20BB30B0C811D812E813F8180179107AC
:1060C000A207B30710F38FEF9FEFDF91CF911F91DE
:1060D0000F910895FF920F931F93CF93DF93EC01DD
:1060E0008B01F42ECE010E943A3097FD2DC08D32E7
:1060F000910519F19C01205331092A30310520F115
:10610000FF2019F08E329105D1F001301105D1F048
:106110000230110551F48D30910539F024F40997BE
:10612000029718F00FC0809769F4E881F981028422
:10613000F385E02DCE010995D5CF8DE201C08EE229
:1061400090E002C08FEF9FEFDF91CF911F910F91F1
:10615000FF900895BF92CF92DF92EF92FF920F933C
:106160001F93CF93DF938C01C42F40E00E946A30CD
:10617000FC0197FD47C0C12CD12C7601B12C0C2E0F
:10618000000CDD0BEC17FD0709F1ED32F105E1F034
:10619000CF01C0970A97D0F4AAE0B0E0A70196011A
:1061A0000E94C9366F01FF0FEE08FF08DC01CB012A
:1061B0008C0D9D1DAE1DBF1D6C017D0120E3C21A1B
:1061C000D108E108F10802C0BB24B394D801ED91D5
:1061D000FC910284F385E02DC8010995C8010E9455
:1061E0003A30FC01C0970A9768F2CE17DF0751F2E8
:1061F000BB2061F066277727CB016C197D098E09DA
:106200009F0906C060E070E0CB0102C0C701B60183
:10621000DF91CF911F910F91FF90EF90DF90CF9082
:10622000BF90089540919306509194062091910655
:106230003091920642175307B4F49091E80095709C
:10624000E1F39091E80092FD19C08093F1008091F4
:1062500093069091940601968F739927892B19F4D0
:106260008EEF8093E80080919306909194060196BA
:10627000909394068093930681E0089580E00895BA
:10628000DF92EF92FF920F931F93CF93DF93D82E5D
:10629000F92EE42E062F10E0C8010196880F0E9407
:1062A000123183E00E941231CD2DDF2D0C0F1D1F06
:1062B000C017D10789F0E7FE03C0FE01849101C039
:1062C00088810E941231F82E80E00E9412318F21C5
:1062D00021968111EDCF01C081E0DF91CF911F9117
:1062E0000F91FF90EF90DF9008958091D70081602B
:1062F0008093D70080EA8093D80089B5806189BDFA
:1063000089B5826089BD09B400FEFDCF61E070E00F
:1063100080E090E00E94DE358091D8008F7C806123
:106320008093D8008091E000807F8093E000089502
:10633000CF93DF931F92CDB7DEB71982CE010196BE
:106340000E949E2D0E941E2FBE016F5F7F4F0E94F4
:10635000522E89810F90DF91CF9108952FB7FC01C4
:106360002083F89467706093E9000895CF93DF93DA
:106370001F92CDB7DEB7682FCE0101960E94AE31D5
:106380008091F20099819FBF0F90DF91CF91089586
:10639000EF92FF920F931F93CF93DF931F92CDB78E
:1063A000DEB790919706992311F057FF03C08FEF46
:1063B0009FEF28C08A017B01682FCE0101960E94C1
:1063C000AE312091F20030E0021713070CF498016F
:1063D000822FF70194E6815030F090939806409117
:1063E000F1004193F8CF2115310521F08091F200A1
:1063F000882321F089818FBFC90104C08BE6809377
:10640000E800F8CF0F90DF91CF911F910F91FF908F
:10641000EF900895CF93DF931F92CDB7DEB741E0A1
:1064200050E0BE016F5F7F4F0E94C831019719F4A1
:10643000898190E002C08FEF9FEF0F90DF91CF91A5
:106440000895CF93DF931F92CDB7DEB7682FCE01AB
:1064500001960E94AE319091E800892F807295FFDD
:1064600004C09091F20080E4891B99819FBF0F9036
:10647000DF91CF9108955F926F927F928F929F925A
:10648000AF92BF92CF92DF92EF92FF920F931F9342
:10649000CF93DF931F92CDB7DEB7982E6B01B42E4A
:1064A000052F80919706811103C08FEF9FEF76C073
:1064B0008091950680FF05C08091E0008260809306
:1064C000E000EB2CF02EA12C8AEF882E892D807213
:1064D000682E892D8074582E9AE3792EE114F104E8
:1064E00019F4AA2009F455C0892D0E942132182FD1
:1064F00081110AC08A948820C1F261E070E080E0D6
:1065000090E00E94DE35EACF90E0E816F9060CF440
:106510001E2D692DCE0101960E94AE318091E800BA
:1065200085FF34C0812F90E0E81AF90A662029F02F
:106530001150A0F01092F100FBCFF60197FE0AC0B7
:10654000115050F024912093F1003196F9CF219110
:106550002093F1001150D8F7C80ED91EAA2019F0C7
:106560007092E8000BC08091E80085FD09C0709230
:10657000E800AA24A394E114F10441F0A12C06C080
:10658000E114F10419F451107092E80089818FBF71
:10659000A5CF84E6809399068B2D902F0F90DF91E5
:1065A000CF911F910F91FF90EF90DF90CF90BF9010
:1065B000AF909F908F907F906F905F900895109212
:1065C000E90010929406109293069093920680939D
:1065D00091060895DF92EF92FF920F931F93CF934E
:1065E000DF93D82E8A017B01E40EF51EEB01CE1558
:1065F000DF0571F0D7FE03C0FE01849101C08881E0
:106600000E94123121968111F2CF8FEF9FEF01C0CE
:10661000C801DF91CF911F910F91FF90EF90DF9014
:106620000895CF93DF93EC019B01B4E6ABEF211506
:106630003105F1F0A9012134310514F040E450E0B6
:106640008091E80082FFFCCF942FFB01E21BF30B4B
:10665000EC0FFD1F915028F08091F100808331965E
:10666000F9CFB0939806A093E800241B350BDFCF39
:10667000CB01DF91CF9108951F920F920FB60F9229
:106680001124CF92DF92EF92FF920F931F932F93DB
:106690003F934F935F936F937F938F939F93AF93AA
:1066A000BF93EF93FF93CF93DF93CDB7DEB76C9794
:1066B000DEBFCDBF1092E9008091E80083FF1FC1CB
:1066C00089E0FE017596FE2E0F2F815029F09091E2
:1066D000F10090833196F9CF84E68093980682EF9B
:1066E0008093E8008D8987FF05C09091E80090FFB6
:1066F000FCCF03C09EEF9093E800982F907609F0AE
:10670000D7C09E894F89588D2F89188D91110CC043
:10671000803829F4809196068093F10002C010928F
:10672000F1001092F100E4C0913051F48111E0C009
:106730004130510509F0DCC0809196068D7F0BC079
:10674000933061F48111D4C04130510509F0D0C0BB
:1067500080919606826080939606CAC0953049F46F
:106760008091E80080FFFCCF822F80688093E30057
:10677000BFC0963009F06FC0CB8CDC8C123069F54D
:1067800080E090E00E94DF320E94983199E09E0103
:106790002F5F3F4F7901F901292F11922A95E9F7CF
:1067A00099831A8391E09E8390EA98879AEF99875C
:1067B0002091930630919406275F3F4F3C832B83B3
:1067C0008D83C6010E94DF3249E050E0B70180E0CE
:1067D0000E94EA320E9498318BC0C6010E94DF32CB
:1067E0000E941E2F6F2D702F0E947B2E009719F094
:1067F0000CF07EC081C0113009F46FC0133009F075
:106800007BC08F89882309F46BC0823029F440E86B
:1068100068E08EE097E006C0813039F440E86AE035
:1068200083E097E00E94403155C0833009F064C096
:106830000E941E2F8E010F5F1F4FB8010E949A2EDB
:10684000F80101900020E9F73197BF01601B710B3F
:1068500040E0C801E7CF973009F44EC0983021F4EA
:1068600081E08093F10044C0993009F041C0837009
:1068700009F042C0EDE4F1E081E031E096E32081EF
:10688000211109C08EE78093EA001092EA008F89F7
:10689000809397062DC08093E9003093EB002191FF
:1068A0002093EC009093ED008F5F873041F7EACFA3
:1068B0008B8D9C8D0E94DF32898D811105C08F2DBB
:1068C000902F0E94A92D06C00E941E2F6F2D702FA1
:1068D0000E94B92E882381F00BC061EF76E002C0E0
:1068E00067E177E0FB01449150E080E80E94EA32E2
:1068F0008EEF8093E80003C081E28093EB006C96FA
:106900000FB6F894DEBF0FBECDBFDF91CF91FF91E0
:10691000EF91BF91AF919F918F917F916F915F9117
:106920004F913F912F911F910F91FF90EF90DF902A
:10693000CF900F900FBE0F901F9018958093E90095
:106940008091F200882319F08AE38093E80008958B
:106950001F920F920FB60F9211242F933F934F93D4
:106960005F936F937F938F939F93AF93BF93CF93D7
:10697000EF93FF93C091E1008091E100837F8093CA
:10698000E100C3FF0FC01092E90081E08093EB00AB
:106990001092EC0082E38093ED001092970688E05D
:1069A0008093F000C2FF15C083E00E949E34809166
:1069B0009906882329F08091990681508093990641
:1069C00080919806882329F08091980681508093C1
:1069D0009806C4FF10C08091E2008E7E8160809393
:1069E000E2008091E1008F7E8093E1008091950626
:1069F0008E7E806111C0C0FF11C08091E2008E7E4A
:106A000080618093E2008091E1008E7E8093E100BE
:106A1000809195068E7E816080939506FF91EF911F
:106A2000CF91BF91AF919F918F917F916F915F9126
:106A30004F913F912F910F900FBE0F901F9018957F
:106A40001092970610929606109295060E94753144
:106A5000E1EEF0E080818E7E80838DE08093E20025
:106A6000559A209A08958091E0008D7F8093E000F0
:106A70008091E00081FD08C08091950680FF04C0F0
:106A80008091960681FD02C080E008950E947531D4
:106A90008091E00082608093E00081E00895089595
:106AA0000E941A360E944F3580E996E00E942035F8
:106AB0000E942805C0E0D0E00E945E052097E1F327
:106AC0000E940000F9CF1F920F920FB60F9211246F
:106AD0002F933F938F939F93AF93BF9380919B0688
:106AE00090919C06A0919D06B0919E0630919A06C9
:106AF00023E0230F2D3720F40196A11DB11D05C001
:106B000026E8230F0296A11DB11D20939A068093BB
:106B10009B0690939C06A0939D06B0939E06809141
:106B20009F069091A006A091A106B091A2060196A1
:106B3000A11DB11D80939F069093A006A093A1066E
:106B4000B093A206BF91AF919F918F913F912F91EA
:106B50000F900FBE0F901F9018952FB7F89460916B
:106B60009B0670919C0680919D0690919E062FBF7A
:106B700008953FB7F89480919F069091A006A09148
:106B8000A106B091A20626B5A89B05C02F3F19F01B
:106B90000196A11DB11D3FBFBA2FA92F982F88279D
:106BA000820F911DA11DB11DBC01CD0142E0660FF8
:106BB000771F881F991F4A95D1F708958F929F924A
:106BC000AF92BF92CF92DF92EF92FF926B017C0166
:106BD0000E94B9354B015C01C114D104E104F104F8
:106BE00001F10E9470360E94B935DC01CB01881991
:106BF0009909AA09BB09883E9340A105B10560F334
:106C000021E0C21AD108E108F10888EE880E83E07D
:106C1000981EA11CB11CC114D104E104F10419F7A0
:106C2000DBCFFF90EF90DF90CF90BF90AF909F9021
:106C30008F900895789484B5826084BD84B5816016
:106C400084BD85B5826085BD85B5816085BDEEE674
:106C5000F0E0808181608083E1E8F0E01082808153
:106C600082608083808181608083E0E8F0E08081C1
:106C700081608083E1E9F0E08081826080838081AF
:106C800081608083E0E9F0E0808181608083E1ECD5
:106C9000F0E0808184608083808182608083808155
:106CA00081608083E3ECF0E0808181608083E0ECB0
:106CB000F0E0808182608083E2ECF0E0808181609E
:106CC0008083EAE7F0E08081846080838081826055
:106CD0008083808181608083808180688083089543
:106CE0000895AA1BBB1B51E107C0AA1FBB1FA61713
:106CF000B70710F0A61BB70B881F991F5A95A9F765
:106D000080959095BC01CD01089597FB072E16F450
:106D1000009407D077FD09D00E94713607FC05D09A
:106D20003EF4909581959F4F0895709561957F4FA2
:106D30000895A1E21A2EAA1BBB1BFD010DC0AA1FBC
:106D4000BB1FEE1FFF1FA217B307E407F50720F0D4
:106D5000A21BB30BE40BF50B661F771F881F991F4F
:106D60001A9469F760957095809590959B01AC0198
:106D7000BD01CF010895EE0FFF1F0590F491E02DA6
:106D800009940E94D4368F93CB010E94D4360C9480
:106D9000DB360E94EE36A59F900DB49F900DA49F08
:106DA000800D911D112408950E94DE368F93892F46
:106DB0000E94DE3699270F90800D0895082E81706D
:106DC00006940694811D0694811D0694811D0694E7
:106DD000811D0694811D0694801D0895A29FB00117
:106DE000B39FC001A39F700D811D1124911DB29FFF
:106DF000700D811D1124911D0895FB01DC0102C05D
:106E000005900D9241505040D8F70895FB01DC01E8
:106E10008D91059080190110D9F3990B0895FB010C
:106E2000DC014150504030F08D910590801919F4EB
:106E30000020B9F7881B990B0895FB01DC0104C001
:106E40008D910190801921F441505040C8F7881B62
:106E5000990B0895F999FECF92BD81BDF89A9927B3
:106E600080B50895262FF999FECF1FBA92BD81BD36
:106E700020BD0FB6F894FA9AF99A0FBE01960895BC
:106E800013E0C0EAD3E004C0FE010E94BB362196A5
:0A6E9000C13AD107C9F7F894FFCF0B
:106E9A00030123090400010000A0A0A0A001808032
:106EAA0080E803320020FFF023AA0043FFFFF40129
:106EBA00320001400001010001107F02FFFFAA0019
:106ECA0000A0FFFFFA00C409FFFA0001E803FF016E
:106EDA00FFFFFFFF00E100000000000000C1808109
:106EEA000000000100000000CB03AC0ACD03BB0A7E
:106EFA0000000000CB03CC035B111211000000005C
:106F0A00CB03CC031214CE0300000000CE13000002
:106F1A000000CB03BC15CD03C21500000000CB0353
:106F2A00CC03F416CE0300000000CB03CC030F17EA
:106F3A00CE0300000000CB03CC036417CE0300008D
:106F4A000000CB03CC038F17CE030000000091276B
:106F5A004927DA274227000000002329DB2869296C
:106F6A00CC2800000000E22C762CC42C4227BC2C32
:106F7A00F6FF0000C12C00000000322D7E2D592D95
:106F8A005E2D612D712D482D0D0A006E616E00690E
:086F9A006E66006F76660000D0
:00000001FF
